:0200000460009A
:100000004643464200000156000000000103030081
:1000100000000000000000000000000000000000E0
:1000200000000000000000000000000000000000D0
:1000300000000000000000000000000000000000C0
:1000400000000000010408000000000000000000A3
:100050000000800000000000000000000000000020
:100060000000000000000000000000000000000090
:100070000000000000000000000000000000000080
:10008000EB04180A063204260000000000000000FD
:10009000050404240000000000000000000000002F
:1000A0000000000000000000000000000000000050
:1000B0000604000000000000000000000000000036
:1000C0000000000000000000000000000000000030
:1000D00020041808000000000000000000000000DC
:1000E0000000000000000000000000000000000010
:1000F0000000000000000000000000000000000000
:10010000D8041808000000000000000000000000F3
:100110000204180804200000000000000000000095
:1001200000000000000000000000000000000000CF
:10013000600400000000000000000000000000005B
:1001400000000000000000000000000000000000AF
:10015000000000000000000000000000000000009F
:10016000000000000000000000000000000000008F
:10017000000000000000000000000000000000007F
:10018000000000000000000000000000000000006F
:10019000000000000000000000000000000000005F
:1001A000000000000000000000000000000000004F
:1001B000000000000000000000000000000000003F
:1001C000000100000010000001000000000000001D
:1001D000000001000000000000000000000000001E
:1001E000000000000000000000000000000000000F
:1001F00000000000000000000000000000000000FF
:10020000FFFFFFFFFFFFFFFFFFFFFFFFFFFFFFFFFE
:10021000FFFFFFFFFFFFFFFFFFFFFFFFFFFFFFFFEE
:10100000D10020432914006000000000000000000F
:10101000201000600010006000E00460000000008C
:101020000000006000EC040000000000FFFFFFFF74
:10103000FFFFFFFFFFFFFFFFFFFFFFFFFFFFFFFFC0
:10104000FFFFFFFFFFFFFFFFFFFFFFFFFFFFFFFFB0
:10105000FFFFFFFFFFFFFFFFFFFFFFFFFFFFFFFFA0
:10106000FFFFFFFFFFFFFFFFFFFFFFFFFFFFFFFF90
:10140000884207D0904205D251F8043B40F8043B93
:101410008242F9D8704700BF884204D2002340F8C6
:10142000043B8142FBD87047664B4FF42A01664A61
:1014300066482DE9F0475A641864654A99639546F1
:10144000BFF34F8FBFF36F8F00F09AF9614B082005
:10145000614A6249C3F854016148FFF7D1FF614A0C
:1014600061496248FFF7CCFF61496248FFF7D4FF4A
:10147000614C62494FF470000023614A086044F8EF
:1014800023200133B02BFAD15E4B80215E4A03F852
:10149000011B9342FBD14F4D4FF080385B494FF019
:1014A000FF325B4B0026DFF8A4A1DFF8A4911C609B
:1014B000C5F80481C5F800A1C5F8F480C5F8F0901E
:1014C0000B68544F43F4E0230B60FB693D4923F064
:1014D0007F0343F04003FB617B6A23F07F0343F00B
:1014E00040037B628A66CA660A674A6700F04EF963
:1014F000494A4A4B6320A2630321E363484A494BAC
:10150000106000F160401E6042F8041C00F6A170FB
:101510004549464AC3F8082D0B68454A43F0807395
:101520000B601368434943F00103136003680B60C9
:1015300000F07CFBC5F804813F48C5F800A1C5F860
:10154000F480C5F8F09000F0EFFCF96E3B4A41F4EE
:1015500040513B4BF9661660C2F80861C2F8186149
:10156000C2F82861C2F838619A6BD20708D442F6F3
:101570001562344959651A659A6B42F001029A6303
:101580002F4A314C936843F00113936000F070F9D7
:1015900000F0CAF800F0B0FC00F07AFB00F0F2F8BE
:1015A0002368132BFCD900F001FC2368B3F5967F68
:1015B000FBD300F0E9F800F0B3FC00F0ADFC30BF65
:1015C000FDE700BF00C00A40FFFFABAA07002000F4
:1015D0000080032000800D40102704001C210060C3
:1015E00000000000C0760020F267046000000020C8
:1015F000C0920020C07600200074002088ED00E03A
:10160000293F000000E400E0A0E400E024ED00E059
:1016100008ED00E000C00F40712B0000752B0000AA
:1016200014E000E018E000E0FCED00E00000202005
:10163000001000E0EC9100200046C3230040084069
:1016400000400D400000C056F09100201B101820F3
:101650000C0D11132DE9F0412F4F00254269012493
:10166000B96B4FF0020E16684FF4303821F47C014C
:101670000369DFF8B0C041F48021B963316857686D
:10168000394331604FF00111244EC3F810E01D6161
:10169000C3F848C05C629E624FF66106C3F82C80B6
:1016A0009F6C1F651D6299651C61017E1C4B02EBDE
:1016B0000111097A03EB011189680E60017E02EBCA
:1016C00001110C7ACD6803EB041149680D60017EAD
:1016D00002EB01110C690CB149692160417E4FF6A2
:1016E000610402EB011191F8281003EB01118968E4
:1016F0000C60417E02EB011191F82840C96A03EBAE
:1017000004135B681960437E02EB0312136B0BB189
:10171000526B1A60BDE8F08100C00F40B80B0505A0
:10172000244000203B372819114B1249D86E0A4635
:1017300040F4403030B4D86640F23765D86EA0240B
:1017400040F44070D8664D648C64936C1B06FCD4E6
:10175000094B40F23760A0211A4658649964936C93
:1017600013F08003FBD1054A137030BC704700BFF3
:1017700000C00F4000400C4000800C40069200204A
:10178000704700BF704700BF704700BFF0B5244AE4
:101790000020244B4FF0100C234C1126DFF8C8E03A
:1017A000122720600125C2F800C0C3F800E01660CF
:1017B000DFF8B8E01D4EC3F800E01D4917601E6059
:1017C00041F015011B4F1C4E17601E601B4F1C4E35
:1017D00017601E601B4F11601B4E1C491F60166076
:1017E0001B4F19601B4E1C4917601E601B4F116078
:1017F0001B4E1C491F60166019602560BFF34F8F98
:10180000BFF36F8FC3F8B001BFF34F8FBFF36F8F7C
:1018100052F8883C43F4403342F8883CF0BD00BFA6
:101820009CED00E0A0ED00E094ED00E00900100068
:10183000C0920020130020002100020714000020A5
:1018400025000813090000101600202027000B13A4
:101850001700004033001013180000602F000B0722
:10186000190000702F000B133F0000102500080323
:10187000F0B58D4B18228D4E01208D4948F20C7E1B
:101880008C4D4FF0FF378C4C83B0C3F85C12C3F81B
:1018900060520025C3F86412C3F868424FF4005444
:1018A000C3F86C628549C3F87062C3F87462C3F808
:1018B0007862834EDA661A675A679A67DA67C3F8FE
:1018C0008020C3F88420C3F8882040F20562C1F864
:1018D0002C03C1F83003C1F83403C1F83803C1F850
:1018E0003C03C1F850032946B36976481840764B4B
:1018F00003437648B361D6F8843043F00C03C6F84E
:1019000084300226036833430360036803EA0E0E43
:101910006F4B4EEA0303DFF8F0E103606D4B476065
:10192000DEF808703B406C4F43F000538360C3689F
:1019300023F07803C360036A1F40684B3B43664F44
:101940000362036A1F40654B3B43654F43628762F6
:10195000C762DEF8B830634F23F03F0343F0010362
:10196000C0F8B830DEF8BC30DFF884E123F03F0384
:1019700043F00103C0F8BC30056104660767C0F896
:10198000802044664767C0F884200468564B24F0E2
:101990000204564A0460C0F818E0C66143F8041B0C
:1019A0009342FBD1494B1A68194642F001021A6072
:1019B0000B68464A13F00103FAD14D4E022540F25E
:1019C000F56440F2664040F299414A4F966142F216
:1019D0000146D56140F23545C2F8004242F2012489
:1019E000C2F810020120C2F820121146C2F830726B
:1019F00007F15A47C2F8346207F51377C2F840522C
:101A00003D4E3E4DC2F85072C2F85462C2F8605268
:101A1000C2F86442C2F8A030C2F8A430C2F8B000E4
:101A20004B692A4ADD07FBD5012300244FF480309F
:101A300011465361C2F8A040C2F8A400C2F8B03009
:101A40004B69224ADC07FBD5012300244FF4003008
:101A500011465361C2F8A040C2F8A400C2F8B030E9
:101A60004B691A4AD807FBD50123002424481146A4
:101A70005361C2F8A040C2F8A400C2F8B0304B696C
:101A8000124ADB07FBD5D2F8003145F60D51212073
:101A90009BB250618B4239D01A4B00221A605A60B7
:101AA0009A60DA6003B0F0BD00801F40F970010059
:101AB000F9B00100F9100100F900010000841F4095
:101AC00000C00F40FFFCFF1F000300A000402A40A1
:101AD0001200FFFFFF37F70000FFF07C400000809E
:101AE000FF000F836300020000422A4000432A40A7
:101AF000F05AF05A9F041830063201263806180AA8
:101B0000040003006492002000802A4000244FF467
:101B1000802001231146C2F8A040C2F8A400C2F8F8
:101B2000B0304B693B4ADF07FBD501234FF400047B
:101B3000002011465361C2F8A040C2F8A400C2F8C8
:101B4000B0304B69334ADE07FBD501234FF4000464
:101B50004FF4803011465361C2F8A040C2F8A4008F
:101B6000C2F8B0304B692B4ADD07FBD501234FF497
:101B700000044FF4003011465361C2F8A040C2F88F
:101B8000A400C2F8B0304B69224ADC07FBD5012320
:101B90004FF40004204811465361C2F8A040C2F837
:101BA000A400C2F8B0304B691A4AD807FBD5D2F866
:101BB000003145F60D5121209BB250618B4210D06F
:101BC000164B08224FF400041A7015490020154ADC
:101BD00001230090521A1448224400F091F903B0F6
:101BE000F0BD4FF400044FF4802101231046C2F8E9
:101BF000A040C2F8A410C2F8B03043690549DB0721
:101C0000FBD50120054B10224FF0807448611A70FB
:101C1000DBE700BF00402A400400030007920020D9
:101C2000000000700000007064920020F0B4174AB9
:101C300040274FF480314FF480564FF400554FF455
:101C4000404443F24200136913F0020F06D094613E
:101C500051619061136913F0020FF8D113F4005F22
:101C600001D15561EFE713F4805F01D15661EAE7D6
:101C7000002BE8DA13F4803F01D09161E3E75B06C3
:101C800001D45761DFE7F0BC704700BF00800D4012
:101C9000394A03203949F3EE095A13689FED386A2F
:101CA00023F00103DFED376AF0B413600024106104
:101CB000D1F8E030344FD8B2C3F30B211B0D334EB3
:101CC00007EE100A05EE101A07EE903A304BB8EE08
:101CD000C55A304DB8EEC77A3060F8EEE77A296021
:101CE0002D4937EE466A2D4E77EEC57A2C4877EEB1
:101CF000666A2C4D37EE657A26EE276AC7ED007AC4
:101D000066EEA76A176867EE277A83ED007AC6EE5B
:101D1000075A86EE876AC7EE876A35EE857AFCEE4B
:101D2000C77A36EE057A17EE903ABCEEC77A47EAE4
:101D3000035376EE857A136017EE103AD2F81071DD
:101D4000FCEEE77A01EA0341394317EE903AC2F814
:101D50001011C3F30B03D2F810110B43C2F810316A
:101D6000136843F0020313603470C0F840510E4B07
:101D70000122F0BC1A60704780810D4000441F4072
:101D80000000AA420000B442E4910020DC9100204F
:101D9000E0910020D89100200000FF0F40E400E017
:101DA000007400202941000008E100E0304B40F6BB
:101DB000617270B5C3F8202140F2044500F0A4F828
:101DC0002C492D48D1F880202C4C42F003022C4B9A
:101DD000C1F88020C0F86051226813401BB9D0F8C8
:101DE000A8319A071AD0244B4FF00041234A51637F
:101DF0001A46D3F8401141F00201C3F84011D2F85D
:101E000040319B07FBD44FF400301E491B4B4FF071
:101E10000042086019209A6300F08AF81A4D0022E7
:101E2000164B4FF08041144C0A26996328461A60DD
:101E30001146C4F8A8614FF4207200F069F84FF41D
:101E4000810640F243114FF48000104B104A2E607F
:101E50002864C4F85851C4F84811C3F804220D4A44
:101E60004FF4003101231160C4F8403170BD00BF50
:101E700000800D4000C00F4000002E4000900D403B
:101E8000001C1E008CE200E0000000200074002016
:101E9000F54200000CE100E008B50E4B1B6E9B07FD
:101EA00000D4FBBE72B60C4B00200C4AC3F84001B4
:101EB00003F160430A49A3F55F2311649D46BFF314
:101EC0004F8F084A03F5E043074912681846196026
:101ED0009368984700441F4000002E4000C00A400D
:101EE000030020001C002000000012EBF8B500BF2A
:101EF000F8BC08BC9E4670475FF800F06D3C0000DF
:101F00005FF800F0E95300005FF800F0954A000028
:101F10005FF800F0BD4B03005FF800F04D390000A2
:101F20005FF800F0A14003005FF800F0BD3400004E
:101F30005FF800F08137000045000000B1000000AC
:101F4000111A000091E000003D6301003D7E010098
:0C1F5000FD920100390902000D4A020058
:101F5C0080C00F40000000031900000010000000BA
:101F6C00E8841F4001000000FF000000FF0000009B
:101F7C00000000000000000018000000100000002D
:101F8C00E4841F4001000000FF000000FF0000007F
:101F9C0000000000000000001F00000070C00F4097
:101FAC00000C00001100000011000000E0841F4034
:101FBC00020000002C00000012000000E0841F4012
:101FCC00010000001000000011000000DC841F4024
:101FDC00020000002D00000012000000DC841F40F5
:101FEC00010000001E00000070C00F40C000000087
:101FFC001200000013000000D0841F4001000000FC
:10200C00FF000000FF0000000000000000000000C6
:10201C001300000013000000CC841F4001000000DE
:10202C00FF000000FF0000000000000000000000A6
:10203C001C00000001000000160355005300420074
:10204C002000530065007200690061006C00000004
:10205C0018035400650065006E007300790064007D
:10206C00750069006E006F000403090409024B003F
:10207C00020100C032080B00020202010009040038
:10208C0000010202010005240010010524010101D8
:10209C000424020605240600010705820310001023
:1020AC0009040100020A00000007050302400000B9
:1020BC00070584024000000009024B00020100C029
:1020CC0032080B00020202010009040000010202A6
:1020DC00010005240010010524010101042402065D
:1020EC000524060001070582031000050904010000
:1020FC00020A000000070503020002000705840223
:10210C00000200000A060002EF020140010001007B
:10211C0000000000000000000000000000000000B3
:10212C0000000000000000000000000000000000A3
:10213C0010B5054C237833B9044B13B10448AFF3F5
:10214C0000800123237010BD187A002000000000CD
:10215C0064150400084B10B51BB108490848AFF3CF
:10216C0000800848036803B910BD074B002BFBD057
:10217C00BDE81040184700BF000000001C7A00208A
:10218C0064150400C076002000000000D0B50446A1
:10219C0082B00020002604F118010027606102467D
:1021AC00207621610146009004F11000034BC4E934
:1021BC00026716F075FB204602B0D0BDC04500206A
:1021CC0010B5054C204605F005FC2046034A044991
:1021DC00BDE8104005F0D8B9F4900020806A0020CA
:1021EC00E1580000000000002DE9F043044683B0E4
:1021FC00274802F067FD00282BDD002704F11809A1
:10220C0021E002F073FD5FFA80F8B8F1610F25D080
:10221C002369013766694B4506F1010514BFA269B4
:10222C000F22954209D900230122314604F11000F6
:10223C0000921A4616F0EEF9236903F80680002284
:10224C00236965615A55124802F03CFD87421048DB
:10225C00D7DB9FED0D0B03B0BDE8F08320690021A7
:10226C0037F0CAFB0021626904F110000091094BA0
:10227C0084ED020B16F014FB94ED020B03B0BDE8D9
:10228C00F08300BFAFF300800000000000000000EE
:10229C00EC6A0020C045002038B504460025012317
:1022AC00243040F8083C257684F8205000F030F9B2
:1022BC000022054B29460E20C4E90023C4E904235F
:1022CC0003F08CFB204638BD0000F0BF000000007E
:1022DC00B1EE067B90ED020B10B52DED028B9FED50
:1022EC00268B20EE070B044630F01EFC20EE088BEC
:1022FC00B7EE006B94ED007BB4EE468B9FED205B4C
:10230C00F1EE10FAB4EEC57BC8BFB0EE468BF1EE21
:10231C0010FA03DD9FED1C6B36EE477B9FED1C0B1B
:10232C0027EE000B30F000FCBFEE005BB7EE003B7D
:10233C009FED197B9FED1A4B94ED006B20EE070B74
:10234C009FED0F7BB4EE440BF1EE10FAB4EEC76BBD
:10235C00C8BFB0EE440BF1EE10FA28EE008BD8BFDC
:10236C00B0EE435BA5EE086BBDEC028B84ED046B09
:10237C0010BD00BFAFF3008000000040E17A943F35
:10238C0000000000008066400000000000807640E5
:10239C00000000A09999C93F00000040E17AB43FC9
:1023AC000000000000805640F8B5002300F124071F
:1023BC00054680F82030384600F06CF9021F00F119
:1023CC005C01C5F8A0009FED3A7BB0EE476B85ED44
:1023DC00027B52F8043FC3F5806307EE903A13601A
:1023EC00B8EEE77BB4EEC67BF1EE10FA03DDB0EE8F
:1023FC00476B85ED027B8A42EBD19FED2F7BFDEE87
:10240C00C65B26EE076B15EE906A7C2E85ED026B93
:10241C0002DD012385F82030384600F037F90446F8
:10242C003846002700F034F9234640F22621A6F165
:10243C009604D5F8A02003F1C0068C42A2F1040248
:10244C00A8BF0C469FED1A1BB0EE410B0DE007EE3A
:10245C00901AB8EEE77BB3EC025BB0EC026B9E42D9
:10246C00A5EE070BA6EE071B07D052F8041FA142DE
:10247C009FED0F7BEBDA1760EDE730F051FB9FED32
:10248C00107B9FED116B20EE070B80EE067BB5EEFB
:10249C00C07BF1EE10FA03D59FED0D6B37EE067B8A
:1024AC00284685ED007BBDE8F840FFF711BF00BF63
:1024BC000000000000000000000000000000503F81
:1024CC00000000000080664000000060FB21094015
:1024DC00000000000080764038B50446012500213C
:1024EC000A20E56103F06EFA092003F071FAE0614D
:1024FC0028B100210A20BDE8384003F063BA294610
:10250C000A20BDE8384003F05DBA00BF00000000AF
:10251C002DE9F0470A23074601254FF00B0A4FF02F
:10252C000C094FF00D0800266022574910300F247B
:10253C002DED088B00F80EACB7EE00BB00F809AC23
:10254C00BB71FB727D71BD7287F80CA087F803908C
:10255C0087F8089087F80D9087F8048087F8098031
:10256C0087F80E8003F082FA294630463E707E7062
:10257C0003F034FA2946B87803F030FA3146F8788B
:10258C0003F02CFA2946387903F028FA2946787892
:10259C0003F018FA294628467E71BD7187F807A00A
:1025AC0087F8089087F8098003F018FA2946F8791B
:1025BC0003F014FA3146387A03F010FA2946787A87
:1025CC0003F00CFA2946B87903F0FCF902232946EA
:1025DC00BE721846FB7287F80CA087F80D9087F82E
:1025EC000E8003F0FBF92946387B03F0F7F93146EE
:1025FC00787B03F0F3F92946B87B03F0EFF9294611
:10260C00F87A03F0DFF9602003F0CCFAB867C02049
:10261C0003F0C8FA3867C02003F0C4FA3E6F0546D1
:10262C0078679FED130B9FED14AB9FED159B12E09C
:10263C0007EE904A0F34B8EEE77B27EE0A7B87EE65
:10264C00098BB0EE480B30F0CBF9B0EE40BBB0EEDE
:10265C00480B30F015FAB4F5B47FA6EC02BBA5EC30
:10266C00020BE5D1BDEC088B3846BDE8F08700BF06
:10267C00000000000000000000000060FB21094089
:10268C00000000000080664048040020006F704786
:10269C00406F70472DE9F04F00F16C0385B06FF07F
:1026AC000F0804466D4F00F10C050193C0EB0808B0
:1026BC0014E0032B00F0F280012B25D00023A26F35
:1026CC00511941F80830116C936CCB1848BF013389
:1026DC005B105364019B9D4200F0F38155F8043F5D
:1026EC005F4A013B1A40002AC0F26181002BB8BF3F
:1026FC000733DB100133022BDBD1D3B2072B40F2B3
:10270C005B814FF0FF33DAE7D1B20729F9D8120118
:10271C0021788DF80C3002F47F6262F07F028DF824
:10272C000D20002900F06A82FB7C002B31D072B6A0
:10273C004A4BDA7CD607134607D54A484749066800
:10274C0049693140454EB1620160900706D5464952
:10275C00BA690868FB7C0240FA620A60590706D520
:10276C004249FA690868FB7C02403A630A601A071E
:10277C0006D53F493A6A0868FB7C02407A630A60D6
:10278C00DB0605D53B4A7B6A11680B40BB631360C3
:10279C0062B6BB68384A934200F09882374B364990
:1027AC009B69374AB960C3F30111C3F3826352F8D2
:1027BC0021200133B2FBF3F2324BA3FB02139B0C2F
:1027CC0040F06C82FB603A6800214FF0030E012050
:1027DC0007261161C2F824E0136416661061607854
:1027EC0003F0F0F83A6803A90DF10F000B7853666B
:1027FC00D36D13F4F81FFBD0536F01F8013B8842E3
:10280C00F4D10121607803F0DDF8FB7C1A46DBB1D2
:10281C00D90702D5B86A1C4908609E0703D5F96A26
:10282C001A4BFA7C1960500703D5396B184BFA7C9C
:10283C001960110703D57B6B1649FA7C0B60D30624
:10284C0002D5BB6B144A13609DF80D209DF80E3019
:10285C0043EA0223C3F3090331E700BF8C6A00206B
:10286C000700008080E100E084E100E088E100E006
:10287C008CE100E090E100E07099140000C00F4082
:10288C00043D00203BD4B53100E100E004E100E060
:10289C0008E100E00CE100E010E100E0D3B2072B0E
:1028AC003FF62FAF1301A17A012203F47F638DF859
:1028BC000C2063F07F038DF80D30002900F01B8194
:1028CC00FB7C002B31D072B6A64BDA7CD0071346BA
:1028DC0007D5A548A349066849693140A14EB162A4
:1028EC000160910706D5A149BA690868FB7C0240D2
:1028FC00FA620A605A0706D59D49FA690868FB7C9A
:10290C0002403A630A601E0706D59A493A6A08687B
:10291C00FB7C02407A630A60D80605D5964A7B6A2E
:10292C0011680B40BB63136062B6BB68934A934259
:10293C0000F0CE81924B91499B69924AB960C3F3E6
:10294C000111C3F3826352F821200133B2FBF3F27D
:10295C008D4BA3FB02139B0C40F09581FB603A68F6
:10296C0000214FF0030E012007261161C2F824E06C
:10297C00136416661061E07A03F024F83A6803A930
:10298C000DF10F000B785366D36D13F4F81FFBD0C9
:10299C00536F01F8013B8842F4D10121E07A03F036
:1029AC0011F8FB7C1A46002B7FF432AF4CE7013A4E
:1029BC0062F00702013299E613016179012203F4F6
:1029CC007F638DF80C2063F07F038DF80D300029A8
:1029DC0000F0DE80FB7C002B31D072B6614BDA7CD0
:1029EC00D607134607D560485E49066849693140E9
:1029FC005C4EB1620160900706D55C49BA69086803
:102A0C00FB7C0240FA620A60590706D55849FA69FC
:102A1C000868FB7C02403A630A601A0706D55549E0
:102A2C003A6A0868FB7C02407A630A60DE0605D5C8
:102A3C00514A7B6A11680B40BB63136062B6BB687A
:102A4C004E4A934200F040814D4B4C499B694D4A94
:102A5C00B960C3F30111C3F3826352F8212001332F
:102A6C00B2FBF3F2484BA3FB02139B0C40F0218109
:102A7C00FB603A6800214FF0030E0120072611611C
:102A8C00C2F824E0136416661061A07902F09AFF74
:102A9C003A6803A90DF10F000B785366D36D13F44C
:102AAC00F81FFBD0536F01F8013B8842F4D1012190
:102ABC00A07902F087FFFB7C1A46002B7FF4A8AEAE
:102ACC00C2E6324802F0BCFC304802F061FCA36F55
:102ADC002E48596C02F0B4FC2C4802F059FCA36F40
:102AEC002A48996C02F0ACFC284802F051FCA06F0B
:102AFC0005B0BDE8F08FE07A934603AE924602F043
:102B0C0061FF4FF007090EE04BEA030B86F800B0AB
:102B1C0009F1FF390021A07B02F054FFB9F1FF3F0E
:102B2C0018D096F800B04BFA09F1207B01F00101A6
:102B3C0002F048FF0121A07B02F044FF607B02F011
:102B4C0047FF0AFA09F30028DED12BEA030B86F8BB
:102B5C0000B0DDE70DF10E03B34200F0858016F8EE
:102B6C0001BFCEE78C6A002080E100E084E100E048
:102B7C0088E100E08CE100E090E100E07099140045
:102B8C0000C00F40043D00203BD4B531DC6A00206E
:102B9C00A079934603AE924602F014FF4FF007095A
:102BAC000EE04BEA030B86F800B009F1FF39002167
:102BBC00607A02F007FFB9F1FF3F18D096F800B029
:102BCC004BFA09F1E07901F0010102F0FBFE012161
:102BDC00607A02F0F7FE207A02F0FAFE0AFA09F3A4
:102BEC000028DED12BEA030B86F800B0DDE70DF1EF
:102BFC000E03B3423DD016F801BFCFE760789B4679
:102C0C0003AE9A4602F0DEFE4FF007090EE04BEAE7
:102C1C00030B86F800B009F1FF390021207902F08E
:102C2C00D1FEB9F1FF3F18D096F800B04BFA09F17C
:102C3C00A07801F0010102F0C5FE0121207902F01B
:102C4C00C1FEE07802F0C4FE0AFA09F30028DED1D6
:102C5C002BEA030B86F800B0DDE70DF10E03B3424F
:102C6C000CD016F801BFCFE70121E07A02F0AAFEE2
:102C7C00EAE50121A07902F0A5FEE5E501216078E5
:102C8C0002F0A0FEE0E5B2FBF3F226498A4288BFCF
:102C9C000133B3F5817F21D3234B5FE6B2FBF3F213
:102CAC0020498A4288BF0133B3F5817F1AD31E4B6A
:102CBC0088E5B2FBF3F21B498A4288BF0133B3F5B6
:102CCC00817F07D3184BD3E6FB68D2E6FB687AE525
:102CDC00FB6844E6022B09D80023C9E6022B0ED868
:102CEC0000233BE6022B13D800236BE5023B59086B
:102CFC000A0443EA012302F47F021343B8E6023BC1
:102D0C0059080A0443EA012302F47F02134325E61F
:102D1C00023B59080A0443EA012302F47F021343DD
:102D2C0050E500BF70991400FF7F7F00704700BF13
:102D3C0070B586B0134B28224FF0FF31044601F0DA
:102D4C006BFD104B2822372101A801F065FD9DF881
:102D5C000860039D2046049A0C219DF814302671BE
:102D6C00A560E260237401F085FD20B93C21064882
:102D7C0004F082FAFEE72046012101F021FE2046F4
:102D8C0006B070BD4C6B00203445002038B500F106
:102D9C001401044601F0E4FE03210B4804F06CFA24
:102DAC000A4D94ED0A0A04212846B7EEC00A02F037
:102DBC0053FB284602F0ECFAD4ED0A7AFDEEE77AE2
:102DCC0017EE900A38BD00BF74450020DC6A002065
:102DDC00F8B5044600255C30002684F8505000F00D
:102DEC00F5F9064F4FF0FF334FF4806265602046D3
:102DFC002260E3602364C4E90467F8BD0000F0BFFF
:102E0C0070B500F15C0605460024304600F070FAFF
:102E1C006865304600F062FAA86509E0A96D41F8D2
:102E2C0024206A6801349A42B8BF6B60182C24D0F5
:102E3C0021462B4802F004FB07212A48A60004F087
:102E4C001BFAAB6D264853F8241002F0F9FA24480B
:102E5C0002F09EFA6B6D4FF0FF3253F824101346BC
:102E6C002D29DBDDAA6D296852F824309942D8DD72
:102E7C00591CD6D02B609359D3E709211A4804F07A
:102E8C00FBF92968164802F0DBFA154802F080FAC3
:102E9C000A21164804F0F0F96968114802F0D0FADA
:102EAC000F4802F075FA95E80600531AB42BAB6084
:102EBC000EDDC3F5B473AB60002BB8BF013302EB6E
:102ECC006303B3F5B47F08DBA3F5B473EB6070BD9B
:102EDC00002BB8BF013301EB6303EB6070BD00BF87
:102EEC00DC6A0020944500209C450020A845002069
:102EFC008368002BB8BF01335B1007EE103A9FEDCF
:102F0C000C6BB8EEC77B9FED0C0B27EE067B10B558
:102F1C0087EE000B04462FF0B3FDB7EE047B20EEDA
:102F2C00070B30EE000B84ED040B10BDAFF30080EB
:102F3C0000000060FB21094000000000008066409A
:102F4C0090F8503053B900220023C0E90823C0E99F
:102F5C000C23C0E90E23C0E90A23704730B50446A0
:102F6C000C215F482DED0A8B85B004F085F9E16CDE
:102F7C005C4802F065FA5B4802F00AFA0E215A48E6
:102F8C0004F07AF90221574894ED060B02F064FA2A
:102F9C00544802F0FDF9E56CA5F1280300EE103A57
:102FAC009FED4BBBB8EEC00B9FED4B9B20EE0B0B7C
:102FBC0080EE090B2FF064FDA5F18C03B0EE40CB35
:102FCC0000EE103AB8EEC00B20EE0B0B80EE090BA6
:102FDC002FF056FDA5F1DC03B0EE408B00EE103A5D
:102FEC00B8EEC00B20EE0B0B80EE090B2FF048FD5A
:102FFC00A5F5A073B0EE40AB00EE103AB8EEC00BE6
:10300C0020EE0B0B80EE090B2FF03AFDB5EEC0CB8A
:10301C00F1EE10FA59DDB0EE4C6BB5EEC00BF1EEE3
:10302C0010FA4FDDB0EE407BB4EE476BF1EE10FAC8
:10303C00B5EEC08BA8BFB0EE467BF1EE10FA3EDDCC
:10304C00B0EE486BB5EEC00B8DED006BF1EE10FAE7
:10305C0032DDB0EE405BB4EEC56B8DED025BF1EE94
:10306C0010FA27DAB0EE456B02ABB4EEC76BF1EE9B
:10307C0010FA01D993ED007B94ED066B2CEE06CB88
:10308C0028EE068B2AEE06AB20EE060B8CEE073BE9
:10309C0088EE074B8AEE075B80EE076B84ED083BEE
:1030AC0084ED0C4B84ED0E5B84ED0A6B05B0BDEC2E
:1030BC000A8B30BD6B46D8E7B1EE405BCBE7B1EE87
:1030CC00486BBFE7B1EE407BAEE7B1EE4C6BA4E7CB
:1030DC0000000060FB2109400000000000806640F9
:1030EC00B4450020DC6A0020C445002038B50446F5
:1030FC000D46FFF785FE2368B3F5806F2EDA236C3F
:10310C000122591C84F85020E26842D0D31A626420
:10311C00002BB8BF5B42B42B01DDC3F5B473A3F134
:10312C005B01A36459293CD95A2B0CD002F1B4038E
:10313C00B3F5B47F47DAE3642046FFF7D9FED4E950
:10314C000423C4E906234FF48062002384E80C00B6
:10315C0029462046BDE83840FFF7F2BE6268002AD7
:10316C00F6D1B3F5806FF3D100234FF480624FF0AA
:10317C00FF31204684F85030E36463600023226002
:10318C00002221642946C4E90623BDE83840FFF734
:10319C00D7BE002322646264A3F15B01A3645929A6
:1031AC00C2D8E2642046FFF7A3FEB1EE047B4FF4D5
:1031BC008062002394ED046B84E80C0037EE467BB0
:1031CC0084ED067BC4E7B43AE264B5E72DE9F04739
:1031DC000A23044601254FF00B094FF00C080D276C
:1031EC004FF0600A05724573183052466372A37330
:1031FC000026E3743849A57484F80A9084F80F907B
:10320C0084F8149084F80B8084F8108084F815806E
:10321C0027736774A77502F029FC504602F0C2FCB4
:10322C001723206029461846637284F80A9084F8A4
:10323C000B802773267202F0D1FB2946A07A02F08C
:10324C00CDFB3146E07A02F0C9FB2946207B02F027
:10325C00C5FB2946607A02F0B5FB16232946667336
:10326C001846A37384F80F9084F81080677402F0EA
:10327C00B5FB2946E07B02F0B1FB3146207C02F025
:10328C00ADFB2946607C02F0A9FB2946A07B02F02D
:10329C0099FB1523294684F814901846E374A674F8
:1032AC0084F81580A77502F099FB2946207D02F061
:1032BC0095FB3146607D02F091FB2946A07D02F022
:1032CC008DFB2946E07C02F07DFB504602F06AFC47
:1032DC0060602046BDE8F087A80400204068002309
:1032EC00021F42F8043F0F33B3F5B47FF9D1704796
:1032FC002DE9F04F00F1740385B06FF01708044608
:10330C00694F00F114050193C0EB08080DE0032B85
:10331C0000F0EA80012B1ED000232068421942F8ED
:10332C000830019B9D4200F0F28155F8043F5F4A42
:10333C00013B1A40002AC0F26081002BB8BF073352
:10334C00DB100133022BE2D1D3B2072B40F25A81AE
:10335C004FF0FF33E1E7D1B20729F9D81201217AF6
:10336C008DF80C3002F47F6262F07F028DF80D2034
:10337C00002900F05082FB7C002B31D072B64A4BF6
:10338C00DA7CD607134607D5494847490668496988
:10339C003140454EB1620160900706D54549BA6986
:1033AC000868FB7C0240FA620A60590706D542495C
:1033BC00FA690868FB7C02403A630A601A0706D572
:1033CC003E493A6A0868FB7C02407A630A60DB0675
:1033DC0005D53B4A7B6A11680B40BB63136062B630
:1033EC00BB68384A934200F07E82374B35499B6963
:1033FC00364AB960C3F30111C3F3826352F821203A
:10340C000133B2FBF3F2324BA3FB02139B0C40F0E3
:10341C005282FB603A6800214FF0030E0120072610
:10342C001161C2F824E0136416661061607A02F030
:10343C00C9FA3A6803A90DF10F000B785366D36DE6
:10344C0013F4F81FFBD0536F01F8013B8842F4D101
:10345C000121607A02F0B6FAFB7C1A46DBB1D9077F
:10346C0002D5B86A1B4908609E0703D5F96A1A4B46
:10347C00FA7C1960500703D5396B184BFA7C19602C
:10348C00110703D57B6B1649FA7C0B60D30602D56A
:10349C00BB6B144A13609DF80D209DF80E3043EA67
:1034AC000223C3F3090338E78C6A0020070000806D
:1034BC0080E100E084E100E088E100E08CE100E0E4
:1034CC0090E100E07099140000C00F40043D002012
:1034DC003BD4B53100E100E004E100E008E100E09C
:1034EC000CE100E010E100E0D3B2072B3FF630AF67
:1034FC001301A17C012203F47F638DF80C2063F08F
:10350C007F038DF80D30002900F00481FB7C002B2B
:10351C0031D072B69F4BDA7CD007134607D59E4844
:10352C009C490668496931409A4EB1620160910725
:10353C0006D59A49BA690868FB7C0240FA620A60AF
:10354C005A0706D59649FA690868FB7C02403A632B
:10355C000A601E0706D593493A6A0868FB7C02404C
:10356C007A630A60D80605D58F4A7B6A11680B40CE
:10357C00BB63136062B6BB688C4A934200F0B581A2
:10358C008B4B8A499B698B4AB960C3F30111C3F316
:10359C00826352F821200133B2FBF3F2864BA3FB7A
:1035AC0002139B0C40F07C81FB603A6800214FF0C9
:1035BC00030E012007261161C2F824E0136416667D
:1035CC001061E07C02F0FEF93A6803A90DF10F00DE
:1035DC000B785366D36D13F4F81FFBD0536F01F8BF
:1035EC00013B8842F4D10121E07C02F0EBF9FB7C39
:1035FC001A46002B7FF433AF4DE7013A62F0070215
:10360C0001329AE61301617B012203F47F638DF88A
:10361C000C2063F07F038DF80D30002900F0B18091
:10362C00FB7C002B31D072B65A4BDA7CD607134692
:10363C0007D559485749066849693140554EB1621A
:10364C000160900706D55549BA690868FB7C0240B1
:10365C00FA620A60590706D55149FA690868FB7C79
:10366C0002403A630A601A0706D54E493A6A08685E
:10367C00FB7C02407A630A60DE0605D54A4A7B6A07
:10368C0011680B40BB63136062B6BB68474A934238
:10369C0000F02781464B45499B69464AB960C3F304
:1036AC000111C3F3826352F821200133B2FBF3F210
:1036BC00414BA3FB02139B0C40F00881FB603A6862
:1036CC0000214FF0030E012007261161C2F824E0FF
:1036DC00136416661061A07B02F074F93A6803A9B2
:1036EC000DF10F000B785366D36D13F4F81FFBD05C
:1036FC00536F01F8013B8842F4D10121A07B02F009
:10370C0061F9FB7C1A46002B7FF4A9AEC3E605B029
:10371C00BDE8F08FE07C934603AE924602F052F97E
:10372C004FF007090EE04BEA030B86F800B009F1E5
:10373C00FF390021A07D02F045F9B9F1FF3F18D007
:10374C0096F800B04BFA09F1207D01F0010102F06E
:10375C0039F90121A07D02F035F9607D02F038F9CC
:10376C000AFA09F30028DED12BEA030B86F800B025
:10377C00DDE70DF10E03B34200F0838016F801BFB4
:10378C00CEE7A07B934603AE924602F01BF94FF0B6
:10379C00070922E08C6A002080E100E084E100E06F
:1037AC0088E100E08CE100E090E100E07099140009
:1037BC0000C00F40043D00203BD4B5314BEA030B55
:1037CC0086F800B009F1FF390021607C02F0FAF8AC
:1037DC00B9F1FF3F18D096F800B04BFA09F1E07B35
:1037EC0001F0010102F0EEF80121607C02F0EAF830
:1037FC00207C02F0EDF80AFA09F30028DED12BEA5E
:10380C00030B86F800B0DDE70DF10E03B3423DD09B
:10381C0016F801BFBBE7607A9B4603AE9A4602F0EE
:10382C00D1F84FF007090EE04BEA030B86F800B015
:10383C0009F1FF390021207B02F0C4F8B9F1FF3FF8
:10384C0018D096F800B04BFA09F1A07A01F00101FA
:10385C0002F0B8F80121207B02F0B4F8E07A02F013
:10386C00B7F80AFA09F30028DED12BEA030B86F825
:10387C0000B0DDE70DF10E03B3420CD016F801BF1A
:10388C00CFE70121E07C02F09DF804E60121A07B4A
:10389C0002F098F8FFE50121607A02F093F8FAE55E
:1038AC00B2FBF3F225498A4288BF0133B3F5817F1D
:1038BC0021D3234B78E6B2FBF3F220498A4288BF2E
:1038CC000133B3F5817F1AD31D4BA2E5B2FBF3F2A2
:1038DC001A498A4288BF0133B3F5817F07D3184B4D
:1038EC00ECE6FB68EBE6FB6894E5FB685DE6022B17
:1038FC0009D80023E2E6022B0ED8002354E6022B53
:10390C0013D8002385E5023B59080A0443EA012336
:10391C0002F47F021343D1E6023B59080A0443EA3E
:10392C00012302F47F0213433EE6023B59080A04CA
:10393C0043EA012302F47F0213436AE570991400F1
:10394C00FF7F7F00704700BF704700BF704700BF0C
:10395C0010B50446006904F11803984201D002F036
:10396C0023F9204610BD00BF08B500224FF4964144
:10397C000A4801F06FFA0221092002F02FF8012108
:10398C000A2002F02BF800210A2002F01BF8022179
:10399C002420BDE8084002F021B800BFEC6A0020EA
:1039AC0070B51B4D1B4C28462DED028BFEF794FD7C
:1039BC001948FEF719FC194B284683ED000BFEF74E
:1039CC00F3FC95F820102046FFF790FB144895F86F
:1039DC00206095ED048BFFF7D9F9124B07EE900A96
:1039EC00314693ED002AB0EE480BB8EEE71B0E48BB
:1039FC00B8EEC22BBDEC028B94ED0A6B94ED0E5B12
:103A0C0094ED0C4B94ED083BBDE8704000F028BAE7
:103A1C004078002018790020E878002050660020BB
:103A2C005091002024730020F0790020324A334951
:103A3C001068096838B5324C6423A4FB0141890C29
:103A4C0003FB01F113681B1A9942FBD82D4D2C680E
:103A5C00631C30D0022C3FD0012C45D004B138BDB2
:103A6C000221294803F008FC284801F091FC0121AF
:103A7C001C2001F0A7FF0121212001F0A3FF21460A
:103A8C001D2002F017F921460F2002F013F9012135
:103A9C00062001F097FF0121042001F093FF21463D
:103AAC00052002F007F92146032002F003F94FF03C
:103ABC00FF332B6038BD242001F08AFF144B1860B3
:103ACC0008B902232B601521124803F0D5FB0F48CF
:103ADC00BDE8384001F05CBC0F48FFF757F90F4ABE
:103AEC00012310602B6038BDFFF75AFF242001F032
:103AFC006FFF286038BD00BF041000E0886A00200A
:103B0C0083DE1B4308730020EC450020DC6A002098
:103B1C0028730020D44500205091002024730020ED
:103B2C00F8B5194E194C1A4D304603F053FF224686
:103B3C001849304603F028FD2846FEF7ADFB164F1A
:103B4C00224616492846164E03F01EFD154800F075
:103B5C0033F83846FFF7ECF822461349384603F0A1
:103B6C0013FD124D3046FEF711FB2246104930462C
:103B7C0003F00AFD2846FFF72BF9224628460D498B
:103B8C00BDE8F84003F000BDF8900020806A0020EA
:103B9C0040780020E15800005091002035180000BA
:103BAC00E8780020F07900203918000018790020FE
:103BBC00411800003D180000F8B504461D230422EE
:103BCC000521A36003200F231C27212606256262F2
:103BDC00E3602161012160611846A761E6612562FD
:103BEC0001F0FCFE207C012101F0F8FE207A01217D
:103BFC0001F0F4FE207D012101F0F0FE207E012178
:103C0C0001F0ECFE94F82400012101F0E7FE207F86
:103C1C00012101F0E3FE94F82000012101F0DEFE09
:103C2C002046F8BD000000009FED5B7B10B5B4EEA4
:103C3C00C71B04462DED068BF1EE10FAB0EE41AB2E
:103C4C00B0EE409B05D5B4EEC70BF1EE10FA00F3C5
:103C5C0088809FED517BB4EEC7ABF1EE10FA04DD1A
:103C6C00B4EEC79BF1EE10FA76D439EE4A8B0221F2
:103C7C005748B5EEC08BF1EE10FAD8BFB1EE488BB9
:103C8C00B0EE480B01F0E8FB514801F081FB9FEDD1
:103C9C00427BB4EEC78BF1EE10FA03DD9FED407B57
:103CAC0037EE488BB4EECA9B9FED3F7BF1EE10FADA
:103CBC009FED390B48BFB1EE488B28EE077B87EEA2
:103CCC00000B2EF0DDFEBAEE007BB1EE400BB4EE35
:103CDC00C78B84ED000BF1EE10FA04DDB5EEC08B52
:103CEC00F1EE10FA0BD4B2EE007BB4EEC78BF1EE12
:103CFC0010FA0BD5B5EEC08BF1EE10FA06DD0022F2
:103D0C000023C4E90023BDEC068B10BD9FED287B7E
:103D1C00B4EEC78BF1EE10FA06DD00222D4BBDEC94
:103D2C00068BC4E9002310BD9FED237BB4EEC78B3B
:103D3C00F1EE10FA1CD49FED227BB4EEC70BF1EE22
:103D4C0010FA1CD5B5EEC00BF1EE10FA17DDBDEC78
:103D5C00068B84ED007B10BD9FED117B39EE079B2C
:103D6C0083E79FED0F7B37EE409BB1EE499B70E7ED
:103D7C000022194BBDEC068BC4E9002310BD9FED4E
:103D8C00127BB4EEC70BF1EE10FABCDDB5EEC00B36
:103D9C00F1EE10FADBD4B6E70000000000806640BC
:103DAC00000000000080764000000060FB2109400C
:103DBC00000000000080564000000000008056C04B
:103DCC00000000606666E63F000000606666E6BFC5
:103DDC00DC6A00200000F0BF0000F03F0000000093
:103DEC00B5EE400BF1EE10FA1CD0B7EE007BB4EE42
:103DFC00C70B92ED007BF1EE10FAB5EEC07B18D933
:103E0C00F1EE10FA9FED146BD8BFB1EE477B54BFA7
:103E1C000123002327EE067B0B6087EE006B82EDFF
:103E2C00006B704730B400240025C2E9004530BC5B
:103E3C007047F1EE10FA9FED086BD8BFB1EE477BDF
:103E4C0054BF0123002327EE067B0B6082ED007B21
:103E5C00704700BFAFF300800000000000E06F402F
:103E6C009FEDDB7B30B52DED108BB0EE408B99B018
:103E7C0030EE470B002304460D460693B0EE41DBB3
:103E8C000793B0EE42EB0893B0EE43CB0993B0EE40
:103E9C0044BB9FEDD1AB9FEDD29B8DED005B20EE33
:103EAC000A7B8DED026B87EE090B2EF0E9FDB0EE6F
:103EBC0040FB9FEDCD0B8DED0AFB38EE400B20EE59
:103ECC000A7B87EE090B2EF0DBFDB0EE407B9FEDFD
:103EDC00C80B8DED0E7B8DED047B38EE400B20EE88
:103EEC000A7B87EE090B2EF0CBFD9FEDC36B8DED9E
:103EFC00100B38EE468B28EE0A7B87EE090B2EF062
:103F0C00BFFD9DED047B8DED0C0B002D40F08A81E7
:103F1C009FEDBB7B9FEDBC6BB0EE47FBB0EE475B00
:103F2C008DED0A7B8DED0E7B8DED107B8DED0C7B7D
:103F3C00B1EE450BB4EE460BF1EE10FAB5EEC07BCC
:103F4C0098BFB0EE460BF1EE10FA40F3B381B0EE31
:103F5C00476BB5EEC05B8DED146BF1EE10FA40F3D0
:103F6C00A681B0EE454BB4EEC46B8DED164BF1EE65
:103F7C0010FA80F22B81B0EE446B16ABB4EEC06B32
:103F8C00F1EE10FA01D993ED000BB5EE400B0022C7
:103F9C000023F1EE10FA40F05781CDE90A23CDE968
:103FAC000C23CDE90E23CDE910232046B0EE4E1B99
:103FBC00B0EE4D0BFFF738FE94ED003B9DED0E6B14
:103FCC009DED0A7B9DED105B33EE066B33EE077BAC
:103FDC0033EE055B36EE0BBB37EE0C7B9DED0C4BDD
:103FEC009DED006BB5EEC07B33EE044B35EE065BFE
:103FFC00F1EE10FA9DED026B8DED0A7BD8BFB1EEA0
:10400C00477B34EE064B8DED0EBBB5EEC04B8DED04
:10401C00105BF1EE10FA8DED0C4B40F34E81B0EECF
:10402C00448BB4EE487BF1EE10FAB5EEC0BBA8BFE2
:10403C00B0EE478BF1EE10FAB5EEC04BD8BFB1EE37
:10404C004BBBF1EE10FA8DED14BBD8BFB1EE444B67
:10405C00B4EEC4BB8DED164BF1EE10FA80F2B480C9
:10406C00B0EE44BB16ABB4EEC8BBF1EE10FA01D9FE
:10407C0093ED008BB0EE480B0AAA06A92046FFF779
:10408C00AFFEB0EE480B0CAA07A92046FFF7A8FE1E
:10409C00B0EE480B0EAA08A92046FFF7A1FE10AA05
:1040AC00B0EE480B09A92046FFF79AFE0B215848A1
:1040BC0003F0E2F8022157489DED0A0B01F0CCF910
:1040CC00544801F065F90699524801F0B9F9514884
:1040DC0001F05EF90B21504803F0CEF802214D4857
:1040EC009DED0E0B01F0B8F94A4801F051F9089911
:1040FC00484801F0A5F9474801F04AF90B21474817
:10410C0003F0BAF8022143489DED100B01F0A4F91D
:10411C00404801F03DF909993E4801F091F93D48BC
:10412C0001F036F90B213E4803F0A6F8022139487C
:10413C009DED0C0B01F090F9364801F029F9079927
:10414C00344801F07DF9334801F022F99DF8201034
:10415C00207E01F037FC9DF81810207F01F032FC16
:10416C00207A9DED0E7BFDEEC77B17EE901A01F0C9
:10417C00A1FD207B9DED0A7BFDEEC77B17EE901A0F
:10418C0001F098FD9DF81C1094F8200001F01AFC29
:10419C009DF8241094F8240001F014FC207C9DED73
:1041AC000C7BFDEEC77B17EE901A01F083FD207D92
:1041BC009DED107BFDEEC77B17EE901A01F07AFD9A
:1041CC0019B0BDEC108B30BD14AB4CE714ABD5E67D
:1041DC00000000000000444000000060FB2109408A
:1041EC00000000000080664000000000008061407C
:1041FC000000000000806B400000000000007440D4
:10420C000000000000000000000000000000008022
:10421C00F0450020DC6A0020FC4500200846002008
:10422C0014460020B5EEC0FBF1EE10FA48DDB0EEFE
:10423C004F6BB5EEC00BB0EE405BF1EE10FA8DEDAE
:10424C00126B3FF777AE73E68FEE006B85EE004B8B
:10425C0087EE003B9DED107B87EE005BB5EEC06BEF
:10426C008DED0A6BF1EE10FAB5EEC04B54BF012385
:10427C000023F1EE10FAB5EEC03B069354BF0123B8
:10428C000023F1EE10FA079354BF01230023B5EE7F
:10429C00C05B08938DED0C4BF1EE10FA8DED0E3BDF
:1042AC0054BF012300238DED105B09937DE6B1EE25
:1042BC00454B58E6B1EE476B4BE6B1EE448BB0E69E
:1042CC00B1EE4F6BB5E700BF0020704790F8A3200C
:1042DC0090F8A200101A704790F8A23090F8A32022
:1042EC009A4205D95A1C034480F8A220987E704744
:1042FC004FF0FF30704700BF90F8A23090F8A32029
:10430C009A4202D90344987E70474FF0FF307047B1
:10431C00704700BFB0F8303193B190F82F31882B33
:10432C000BD8C21810B45C1C012380F82F4118461E
:10433C0082F8A5105DF8044B70470122002302712E
:10434C001846704738B50546B0F8300190B195F86D
:10435C002F311446C3F1890294420CD805F1A50003
:10436C002246184401F082FB95F82F3120461C445C
:10437C0085F82F4138BD144601222A71EEE700BFA3
:10438C002DE9F04F8346404883B01525DBF814A087
:10439C009BF818609BF819300AEB06163B490AEBA0
:1043AC000313DFF8ECE0367A0C4693F8283036012C
:1043BC00DFF8E0901B01871950F8068000EB030C26
:1043CC00C658F8687B68DCF80C7000931D60C8F860
:1043DC008400D8F80430DCF8042003430192C8F8B8
:1043EC0004301560C6F8847073683B4373600968C9
:1043FC00DEF80030A9FB0332920C02EB8202520071
:10440C0023685B1A9A42FBD8204A0925DFF884C03E
:10441C009146D8F80830184202D0B3681F4231D107
:10442C00C6F888701468DEF80010ACFB0131890CFA
:10443C0001EB810113681B1B9942FBD8C6F88470F1
:10444C00D9F80040DEF80010ACFB0131890C01EB0F
:10445C00810113681B1B9942FBD8013DD9D1284619
:10446C009BF81830009A0AEB0313DB6813609BF877
:10447C001930019A0AEB031ADAF82C30136003B0E6
:10448C00BDE8F08F0120EBE724400020041000E091
:10449C00886A002083DE1B430D49026910B50C6845
:1044AC0005E0DB0107D40B681B1B102B08D85369E4
:1044BC0013F0007FF5D14FF4FE430120536110BD82
:1044CC000446FFF75DFF0028F9D02269F3E700BF2F
:1044DC00F09100202DE9F04790F82FA1BAF1000FD0
:1044EC0002D10420BDE8F08705460E46FFF7D4FF45
:1044FC000028F6D02E4F00244FF40079D7F8008016
:10450C00544529691AD8CB6D03F00703032B09D93D
:10451C0014E095F8A5200133012442F48062042BA9
:10452C000A660BD02A19002CF3D0A24527D90133E7
:10453C0092F8A5200134042B0A66F3D14B691805B7
:10454C0022D45A0527D4980404D43A68C8EB020242
:10455C00322A09D90B694FF40072042043F44073DA
:10456C000B610A66BDE8F087544505D9CA6D520740
:10457C0002D19B0519D4C6B102F004FFC0E70EB1FD
:10458C00C1F860900134D9E70B69042043F44073FF
:10459C000B61BDE8F0870B694FF40072022043F405
:1045AC0040730B610A66BDE8F0870020BDE8F08718
:1045BC00F09100202DE9F84F0C461546984681469F
:1045CC00FFF76AFF10B90420BDE8F88F00226300E2
:1045DC00002D40F2014A1446DBB23D4E08BF0125C6
:1045EC00022C43EA0A0AD6F800B089F8A22089F80E
:1045FC00A32048D9D9F8103099F8A320872A12D8CB
:10460C00D96DC1F3024111B90DE0882A0BD002F12A
:10461C00010E09EB020001395FFA8EF289F8A32032
:10462C001F6F8776F1D15A6910054CD412F4105FC4
:10463C0004D13168CBEB0101322912D91A694FF43C
:10464C00007142F440721A611966DA6D12F4E02FAF
:10465C0003D01A6942F400721A6199F8A300BDE8FC
:10466C00F88F99F8A310A94209D3022C07D9D96D58
:10467C00490704D19205E8D4B8F1000FE5D002F057
:10468C0081FE022CB6D8D9F81020D36D03F00703A5
:10469C00032B0DD8691E4FF4007041F480714CB996
:1046AC00C2F860A0013B0134032B01D8022CF6D9CF
:1046BC001346A1E7012C04D0B8F1000FF2D010661C
:1046CC00F0E71166EEE71A6942F440721A61BCE732
:1046DC00F091002010B4047F4160022CC26003D022
:1046EC005DF8044B00F06ABA83685DF8044B184718
:1046FC00F0B5304C304BA06C656C0179226CD977DD
:10470C002979197701791977FAB1B2F5004F18D2D6
:10471C002B6892B2D98B0E043BD4DA83D98B89B235
:10472C00D9820368D98B09042CD4DA830021DA8B63
:10473C0092B2DA82216402791F4BDA762A79DA7620
:10474C00F0BD1E4B13442364F5E7E06C0F25236882
:10475C0040F2013E01684FF47C579D6503260D68BD
:10476C001749DA618D42C3F810E05F6184F83D604F
:10477C0017D1037F4260022BC26017D0BDE8F04016
:10478C0000F01CBAD98BC2F3080201F47E410A4333
:10479C00CBE7D98BC2F3080601F47E413143D983B0
:1047AC00BCE72B461146BDE8F04018478368BDE8CE
:1047BC00F04018478C6A002000800E400180FFFFFB
:1047CC00C5250000704700BF70B50C460546282271
:1047DC0000212046012632F079FA0B2208492046A6
:1047EC0034F074F9002200230320E2720549ED68CD
:1047FC00E6602561626260612162A361E36170BD64
:10480C00204600200AD7233C10B50446142101F0A1
:10481C00CFF9204610BD00BFF8B504460025084866
:10482C0016461F46E16020601020A56001F0B8F923
:10483C0005463A4631462DF0EFFFA5602046F8BDFF
:10484C00AC2C002030B5024685B00C4600213D252D
:10485C0080680123147402220191009103A98DF840
:10486C000D408DF80C502EF00DF81E2001F010F8B4
:10487C0005B030BD2DE9F047054684B08946806807
:10488C0001212DF0EFFF20B90027384604B0BDE818
:10489C00F08704AC00264FF001080746A868424692
:1048AC00019604F8046D23462146CDF800802EF0C5
:1048BC007BF89DF80C30A02B12D04FF47A7000F0DE
:1048CC00E7FFA868234601964246CDF800802146B2
:1048DC008DF80C602EF068F89DF80C30A02BD3D11D
:1048EC0000212846FFF7AEFF00263F214FF0200E97
:1048FC00A868012302228DF80C100196214600961F
:10490C004FF001088DF80DE02DF0BCFF1E2000F0DB
:10491C00BFFF01E000F0BCFFA8682346019601220E
:10492C00CDF8008021468DF80C602EF03DF89DF8F6
:10493C000C304FF0000A0A20A02BEBD13E2632207F
:10494C0000F0A6FFA8682146012302228DF80C6016
:10495C00CDF804A00726CDF800A08DF80DA02DF001
:10496C0091FF0A2000F094FFA86821468DF80C6096
:10497C00CDF804A00123CDF800A002223F268DF82B
:10498C000DA02DF07FFF01230222A8682146CDF84F
:10499C0004A0CDF800A08DF80DA08DF80C602DF0C2
:1049AC0071FF0A2000F074FF49462846FFF74AFFC2
:1049BC00142000F06DFF384604B0BDE8F08700BF4E
:1049CC00F0B50E46002185B004460D46077CFFF776
:1049DC0039FF192000F05CFF4FF0070EA06803A907
:1049EC0001950123009502228DF80D508DF80CE0F5
:1049FC002DF048FFA068BEB93F25019603A900968B
:104A0C00012302228DF80D608DF80C502DF03AFF29
:104A1C000A2000F03DFF39462046FFF713FF142013
:104A2C0000F036FF05B0F0BD4FF03F0E802601952B
:104A3C0003A90095012302228DF80CE08DF80D607E
:104A4C002DF020FFE4E700BFF0B587B00025164637
:104A5C00062706AA0560456004AB02F80C6D0446F7
:104A6C008560083EC5600561456188681146019501
:104A7C00012200970495ADF814502DF095FF9DF888
:104A8C0010309DF811009DF8135043EA00209DF85A
:104A9C0012109DF815209DF8143041EA052100B242
:104AAC0043EA022309B21BB2262E2FD8DFE806F008
:104ABC00142E2E2E2E2E312E2E2E2E2E312E2E2E1E
:104ACC002E2E312E2E2E2E2E2E2E2E2E2E2E2E2EF7
:104ADC00142E2E2E2E2E140007EE900AB8EEE75B45
:104AEC0007EE901AB8EEE76B07EE903A9FED184B75
:104AFC00B8EEE77B85EE043B86EE045B87EE046B39
:104B0C0084ED003B84ED025B84ED046B204607B022
:104B1C00F0BD07EE900A2046B8EEE75B07EE901A60
:104B2C00B8EEE76B07EE903A9FED0B4BB8EEE77BD8
:104B3C0025EE045B26EE046B27EE047B84ED005B14
:104B4C0084ED026B84ED047B07B0F0BDAFF3008005
:104B5C000000000000005940000000000000B03FC1
:104B6C00F0B50C46242587B006462A46002120467F
:104B7C00032732F0ABF8104BF06831461B681A2251
:104B8C00606068462560A7602361FFF75DFF012028
:104B9C009DED005B9DED026B9DED047BB7EEC55B5F
:104BAC00B7EEC66BB7EEC77B84ED055A84ED066A8B
:104BBC0084ED077A07B0F0BDF091002010B4EFF34C
:104BCC00108272B6437F33B9017F012908D00329C3
:104BDC0010D00123437702B962B65DF8044B7047DD
:104BEC00114C2168A1B1114943610B6808608361C4
:104BFC005861EEE70E4C216881B10E4943610B6898
:104C0C000860836158610C4B4FF080511960E0E7EC
:104C1C00064B4161816120601860DAE7054B416108
:104C2C00816120601860EEE7C0890020CC890020EB
:104C3C00C8890020C489002004ED00E070B5EFF3B2
:104C4C00108172B60C4C23688BB10C4E00255A693E
:104C5C0022607AB1956101B962B65D7718469B689E
:104C6C009847EFF3108172B62368002BEFD101B98E
:104C7C0062B670BD3260EEE7C8890020C48900209E
:104C8C00FFF7DCBF044A054B1168054A196013682D
:104C9C0001331360704700BF041000E0EC9100205A
:104CAC00F0910020B0F84630B0F848209BB292B298
:104CBC00934202D2501EC01A7047406B0138104408
:104CCC00C01A704772B6B0F84A30B0F84C2099B29E
:104CDC0093B2994201D2826B11440269CB1AD06A09
:104CEC00C0F30260184462B6704700BFB0F84A20A7
:104CFC00B0F84C3092B29BB29A4270B428D00133C7
:104D0C00846BA34217D2016B9EB28B4218D2016AFC
:104D1C00C95CC9B2856DA0F84C60B5B19A4238BF78
:104D2C001219D31AC26B93420FD8C36D0846C5F83B
:104D3C00883070BC70470026016B33468B42E6D33B
:104D4C00591A456A695CC9B2E4E7084670BC7047F9
:104D5C0072B6B0F84A1089B28A4202D062B60A46DC
:104D6C00CDE70369DA6A12F0E06F04D0D869C0F3BA
:104D7C00090062B6DDE74FF0FF30FAE790F84430F7
:104D8C0043B110B5044602F0FDFA94F84430002B00
:104D9C00F9D110BD704700BFB0F84A20B0F84C30C4
:104DAC0092B29BB29A4210D00133816B026B8B4250
:104DBC0028BF0023934204D39B1A426AD05CC0B232
:104DCC007047026AD05CC0B2704772B6B0F84A1035
:104DDC0089B28A4201D062B6E6E70369DA6A12F058
:104DEC00E06F11D0DB690021026AC3F3090310B430
:104DFC000124A0F84A40A0F84C10D9B2517062B608
:104E0C0018465DF8044B70474FF0FF3362B61846F6
:104E1C00704700BFEFF31380B8B9EFF310834BB9B1
:104E2C00EFF305823AB94FF48073EFF3118050B170
:104E3C00984208D270470F2AF7D9054BD35CEFF391
:104E4C0011800028F4D1184670474FF0FF30F1E77D
:104E5C00F0E300E007EE901A9FEDA47A0421B6EE81
:104E6C00005AF8EE677A9FEDA26A2DE9F043C7EE7F
:104E7C00275A0E46012541F6FF741DE0A342A8BF38
:104E8C00234607EE903AF8EEE76A76EEC76AC6EE6E
:104E9C00877AF5EEC07AF1EE10FA48BFF1EE677A38
:104EAC00F4EEC67AF1EE10FA03D8B0EE676A0E464D
:104EBC001D460131212911D007EE901AF8EEE77A40
:104ECC0085EEA77A77EE057AFDEEE77A17EE903A43
:104EDC00002BD3DCF7EE006A0123D6E700214369EF
:104EEC0002F40074D0F83890B3F85C70B3F85E80BC
:104EFC008C42A0F84A10C7EB0907A0F84C1008BF69
:104F0C008C46A0F8461018BF4FF0010CA0F84810C2
:104F1C0080F84410D3F810E05969DEF80040C763FC
:104F2C0044EA0104C8EB09010164CEF8004080F8A2
:104F3C001AC040F0CE80047E6E4903EB04146E4F11
:104F4C00247E01EB0414A4682760047E03EB041494
:104F5C00277ED4F81CE001EB07146468C4F800E069
:104F6C00047E03EB0414276A0FB1646A3C60447E30
:104F7C00D92703EB041494F8384001EB0414A4680B
:104F8C002760447E03EB041494F83870E46B01EB57
:104F9C00071149680C60417E03EB01110C6C0CB1DC
:104FAC00496C2160711E5C785F68082E4FEA0161C4
:104FBC004FF00006D8BF4FF4003E04F1100401F08E
:104FCC00F853C8BFB64601691D434C4B4EEA050564
:104FDC000D61CE6043F824704369012448495D7823
:104FEC0093F85A30474E6B54456901696B7803F05E
:104FFC001F075B11BC4046F823408B6A9B0803F0EB
:10500C001C030F2B60D85B1003F00303DCB28B6A1C
:10501C009B0003F01C030F2B53D8DB0303F440332A
:10502C00234302F00304CB628B6A43F088038B6248
:10503C0053074BD444F4701302F00F04042C847EF9
:10504C0008BF43F08043970648BF43F080530CB130
:10505C0043F0A00316078B6103D50B6943F0005393
:10506C000B614B69D40623F0805348BF43F0805347
:10507C004B61D30503D50B6943F400530B61EB680B
:10508C001B78E3B9204E357865B3204C23688342F6
:10509C0026D0691E2346C9B204EB810103E053F804
:1050AC00042F90421AD08B42F9D16B1CDBB2184AF8
:1050BC003370137844F8250043F002031370BDE8F5
:1050CC00F0834FF44033ABE70324A0E7114B2343A9
:1050DC00B2E7447E4FF2D90706494AE7BDE8F083B0
:1050EC00BDE8F0830123094CE1E700BF001BB74B7F
:1050FC00EC78AD602440002038F0010000740020F2
:10510C0000E400E000E100E003920020D0890020E0
:10511C008573002010003C00F8B5036D04460E4664
:10512C0013B1426DC3F88420A37E33B172B62269E9
:10513C00936943F00053936162B6B4F84650636BC5
:10514C00ADB201359D4249D2AFB2B4F848309BB2F2
:10515C00AB4220D1FFF75EFE6369B3F85A30984238
:10516C002DDC21694B691B02EFD5B4F84830626B1A
:10517C009BB20133934227D2E26A98B2934228D26F
:10518C00E269D35CDBB2CB61A4F84800B4F84830D8
:10519C009BB2AB42DED0E36A9D4222D3ED1AF6B24B
:1051AC00A36A5E5572B60120226984F84400A4F803
:1051BC004670936943F40003936162B6F8BDFF280F
:1051CC00C3DD02F0DFF8C0E70020E26A0346934239
:1051DC00D6D39B1AA26AD35CDBB2D4E700273D4638
:1051EC00B3E7F6B2E3695E55DCE700BFFFF794BFA7
:1051FC000269536913F4401FF0B542D0D36AC3F36C
:10520C000265002D3AD0B0F84A70B0F84CE0BFB24D
:10521C001FFA8EFE06E0026AD65402696B1E13F06A
:10522C00FF051AD0D1697B1C866BB0F84C40C1F3DA
:10523C000901B34228BF0023A4B2A342EED0026BF3
:10524C00CEB21F469342A3EB0204E4D3436A1E552D
:10525C006B1E026913F0FF05E4D1BBB2816DA0F89F
:10526C004A3059B1774573D2836BCEEB03031F449D
:10527C00036C9F4202D3C36DC1F884305369DC02C6
:10528C0055D4D2F818E01EF4000F02D0536919025D
:10529C001CD41EF4800F48D053695B0246D5002104
:1052AC00036D80F8441013B1416DC3F88810837EF0
:1052BC003BB172B60269936923F00053936162B6F5
:1052CC000269936923F480039361F0BDB0F84650F2
:1052DC00B0F84830ADB29BB29D422DD0466BC46A3B
:1052EC000AE0C169C95CC9B2D161D16AC1F30221BA
:1052FC00032912D8AB421FD001339E4298BF002322
:10530C00A342A3EB0401ECD3876A795CC9B2D161E7
:10531C00D16AC1F302210329ECD999B2AB42A0F8AE
:10532C0048100CD01EF4800FB6D1F0BDF0BD5369FF
:10533C0043F480135361A4E7ADB2A0F848509369CD
:10534C0023F400039361936943F480039361A0E712
:10535C00CEEB07078CE700BF0148FFF749BF00BF42
:10536C00EC6A0020F8B50E4671B17AB107461446C6
:10537C0000253B68384616F8011B1B689847013C12
:10538C000544F6D12846F8BD0846F8BD1046F8BDD0
:10539C0010B5064C82B003680222248801A95B6810
:1053AC00ADF80440984702B010BD00BF08050020BE
:1053BC00036810B514465B689847204610BD00BFC3
:1053CC00F0B506468BB0002A33D0012A08BF0A225A
:1053DC0051B3212500E0FDB26F1EB1FBF2F402FBCC
:1053EC001411C8B2092900F1370100F1300088BF4F
:1053FC00C8B221460AAC98BFC0B22C4404F8240CA5
:10540C000029E8D133B1013D0AAB2D22EDB22B447A
:10541C0003F8242C336801A9C5F122023046294433
:10542C005B6898470BB0F0BD302221258DF8252004
:10543C00E8E70368C9B21B6898470BB0F0BD00BF22
:10544C00002903DB00230A22FFF7BABF49422D23B0
:10545C000A22FFF7B5BF00BFB4EE400B70B5F1EEFA
:10546C0010FA05462DED028B86B080F19180B0EEDE
:10547C00C07B9FED4B6BB4EE467BF1EE10FA0ADD70
:10548C00036803224E495B6898470646304606B0CF
:10549C00BDEC028B70BD9FED447BB4EEC70BF1EEFF
:1054AC0010FA58DC9FED427BB4EEC70BF1EE10FA0C
:1054BC0051D4B5EEC00B0C46F1EE10FA56D40023C5
:1054CC00002C57D0B6EE008B00229FED3B7B0132B7
:1054DC0028EE078BD1B28C42F9D830EE080B0A2299
:1054EC002846FCEEC07BB8EE678B17EE901A30EEB8
:1054FC00488BFFF765FF0F2C4FF00102B2EE047BD7
:10550C004FF02E0328BF0F2406468DF808301444A4
:10551C00E4B228EE070B531C06A91144DAB2A242DE
:10552C00FCEEC06BCDED016A9DF8043006EE903AAE
:10553C0003F13003B8EEE68B01F8103C30EE488BEB
:10554C00E7D12B68284602A95B689847304606B01D
:10555C00BDEC028B70BD2B6803221A495B6898471F
:10556C000646304606B0BDEC028B70BDB1EE400B6A
:10557C000123A5E7B6EE007B28460A2230EE070B86
:10558C00FCEEC07B17EE901AFFF71AFF06467DE77C
:10559C00036803220C495B689847064676E700BF10
:1055AC00FFFFFFFFFFFFEF7F000000E0FFFFEF4179
:1055BC00000000E0FFFFEFC1000000A09999B93F87
:1055CC00304600202C46002028460020964A974B57
:1055DC0090422DE9F043964CD3F814E09969E668B3
:1055EC001CD9944B984240F21581934B40F227659D
:1055FC00924F0344924C1A0AA7FB0232D30903EBD5
:10560C00830303EB830202F2E243AB4228BF2B4637
:10561C00A3F54873A4FB0335ED0804E0894DA842BB
:10562C0094BF06250E25814A06F01F07D2F880305C
:10563C00AF4243F0C003C2F880300AD27C4B26F054
:10564C001F061A462E43DE601368002BFCDA06F0A8
:10565C001F071EF0007331D17B4C7C4AD4F810C06C
:10566C0014460CEA0202A2420ABF4FF0C0534FF498
:10567C00805200228EEA030414F0605F08D02EF0F2
:10568C00605E03F06053694C43EA0E0EC4F814E0FC
:10569C0081EA020313F4405F08D0644B21F44051BB
:1056AC0011431A469961936C1C07FCD44EF0007E92
:1056BC005E4AC2F814E0936C9906FCD40121644C48
:1056CC000A4601FB02F300FB03F3A34209D8072AA5
:1056DC0000F29580013201FB02F300FB03F3A342BD
:1056EC00F5D95C485C4C1844A4FB00031B0D6C2BD7
:1056FC0000F28B80352B00F28F80DFF88881362307
:10570C005648DFF844C1564CDCF80090B0FBF2F080
:10571C0009EA04044445B0FBF1F00BD043F4005308
:10572C004FF480586446CCF80080CCF800302368E5
:10573C00002BFCDADFF8F4C0013ADCF8103003F08F
:10574C000703934207D002F007026446CCF81020FE
:10575C00A36CDB03FCD4013989028EEA010313F438
:10576C00E05F0CD0314B2EF4E05E01F4E0511A46B0
:10577C0041EA0E0EC3F814E0936C9907FCD4394B34
:10578C0039490344DB09A1FB0331090B042928BF68
:10579C0004214B1E1B028EEA030212F4407F07D039
:1057AC002EF4407E03F44073204A43EA0E03536107
:1057BC001E4B5C691A4624F000745C61936C9B066A
:1057CC00FCD42A4B4FF0FF32294CBD42A3FB00E323
:1057DC0020604FEA9343274CB2FBF3F3B0FBF1F19B
:1057EC00254A2160136008D2114B26F01F061A4679
:1057FC002E43DE601368002BFCDABDE8F08304292D
:10580C003FF66FAF013101225BE7DFF87C806C2340
:10581C001A4876E7122506E71948DFF8708000FB76
:10582C0003F043EA08086CE700A4781F00C00F409F
:10583C00000008400046C32300BA3CDC23B24C00F5
:10584C001F85EB5100366E0100800D40403000800A
:10585C00FFB19F26808D5B00819F5E1600B29F2654
:10586C007F3001807FD1F0089F10E50083DE1B4361
:10587C00886A0020846A0020E891002000643F4D73
:10588C00001BB700362000806C20008000200080B8
:10589C00002857D001222DE9F04F85B083462A4CC1
:1058AC002A4D2B4EDDE9028954E8003F2868336805
:1058BC0044E800210029F7D1264FCDE902893A6846
:1058CC00D31A254A4FF47A7E019712680127A3FB5D
:1058DC0002234FF47A72984600238B4208BF42454C
:1058EC002CBFC246F2460EFB00AA54E8003F2A68C1
:1058FC00316844E80073002BF7D101980068411A15
:10590C0015484FF47A7E00680EFB02F2A1FB0001F1
:10591C004FF47A70CAEB020288460021994208BF04
:10592C0040452CBF434673461A44724507D3BBF11E
:10593C00010B0AF57A7AD8D105B0BDE8F08F01F0E9
:10594C0021FDD2E7704700BF60920020F09100204B
:10595C00EC910020041000E0E891002000010F4BB6
:10596C001A181B5810B4D0685C68044205D059B1A1
:10597C00C3F884005DF8044B7047936849B9084A32
:10598C005DF8044B1A607047C3F888005DF8044B4F
:10599C007047044A5DF8044B1A607047244000209D
:1059AC003830010038F001000001054B1A58191865
:1059BC009268CB681A4214BF01200020704700BFC8
:1059CC0024400020362801D8FFF7C8BF704700BF1D
:1059DC00362801D8FFF7E8BF0020704736281CD8BE
:1059EC0000011A4A012902EB0003105810B415D01B
:1059FC00042913D0DC68426822EA040242609A68E7
:105A0C00E9B102291ED003295B685DF8044B0CBF79
:105A1C000F491049116015221A607047DA68012984
:105A2C00446842EA040242609A6808D040F63801A1
:105A3C0011605B6815225DF8044B1A6070473821C1
:105A4C001160F6E704491160F3E700BF2440002021
:105A5C00383001003800010038F0010008B5FDF7BE
:105A6C0083FFFDF7E3FF01F08DFCFAE7844641EA82
:105A7C00000313F003036DD1403A41D351F8043BBA
:105A8C0040F8043B51F8043B40F8043B51F8043B0C
:105A9C0040F8043B51F8043B40F8043B51F8043BFC
:105AAC0040F8043B51F8043B40F8043B51F8043BEC
:105ABC0040F8043B51F8043B40F8043B51F8043BDC
:105ACC0040F8043B51F8043B40F8043B51F8043BCC
:105ADC0040F8043B51F8043B40F8043B51F8043BBC
:105AEC0040F8043B51F8043B40F8043B51F8043BAC
:105AFC0040F8043B51F8043B40F8043B403ABDD21B
:105B0C00303211D351F8043B40F8043B51F8043BBC
:105B1C0040F8043B51F8043B40F8043B51F8043B7B
:105B2C0040F8043B103AEDD20C3205D351F8043B4B
:105B3C0040F8043B043AF9D2043208D0D2071CBF17
:105B4C0011F8013B00F8013B01D30B880380604640
:105B5C00704700BF082A13D38B078DD010F00303B6
:105B6C008AD0C3F10403D21ADB071CBF11F8013B26
:105B7C0000F8013B80D331F8023B20F8023B7BE775
:105B8C00043AD9D3013A11F8013B00F8013BF9D2A0
:105B9C000B7803704B7843708B788370604670473A
:105BAC0030F072BC30F070BC30F076BC30F074BCAD
:105BBC0030F072BCF0B44E1E0025374600E00135C3
:105BCC00B0FBF2F302FB130000F13704092800F1DB
:105BDC003000E4B298BFC4B2184607F8014F002B4E
:105BEC00EDD14A1953704DB1013316F8014F1778A6
:105BFC00E81A3770834202F80149F5DB0846F0BC1D
:105C0C00704700BFF0B501EB4106294C012500EBB4
:105C1C00461694F800C005FA01F1F4891FFA81FECA
:105C2C00B0F88851A4B24FEA0E1704FB0333ADB29F
:105C3C0007F0F00723FA0CF33D43A342A0F8885178
:105C4C0028BF2346012A22D015D3022A08D001F0FE
:105C5C000F01B0F888319BB21943A0F88811F0BD40
:105C6C009BB201F00F01F383B0F880319BB21F435C
:105C7C00A0F88071EDE7E31A01F00F019BB273817C
:105C8C00B0F880319BB20B43A0F88031E1E79BB2B6
:105C9C0001F00F014FEA0E2EF382B0F880310EF4B2
:105CAC00706E9BB24EEA030EA0F880E1D1E700BF04
:105CBC008473002036280CD8294AF8B5044600B263
:105CCC0012F8206002EB8005012E03D0022E16D0B4
:105CDC00F8BD70476A78C2F30113032B3AD0214800
:105CEC0050F823008BB202F00301AA78FFF78AFF69
:105CFC001D48EA7800EB041043681A60F8BD6E7812
:105D0C00C6F30113032B27D0184A52F823E006F0F0
:105D1C000306174B89B20EEB461793F800C07601B9
:105D2C00FA880EEB0603764492B2188AC2F101127D
:105D3C0012FA80F2501E00FB01F323FA0CF3984286
:105D4C0098BF931ED21A9BB2C2F1010292B2FA8092
:105D5C003382CDE70748C5E7DFF81CE0D7E700BF83
:105D6C0058440020440C002024400020500C0020FB
:105D7C008473002000803E4000801E40A4484FF0F9
:105D8C000F0CA44B826F42F47F02F0B582670025A2
:105D9C00D0F880204FF470469F4C4FF4604E29464B
:105DAC004FF4806714432A46C0F88040A3F88C61F6
:105DBC0048F2B826A3F88EC1A3F89051B3F8880125
:105DCC0080B240F0F000A3F8880101EB4100914B48
:105DDC000131002540011C4604290344A3F804E0CA
:105DEC00DF805A841A865A805A81DE815A82DA827E
:105DFC005A83DA83E9D1B4F888014FF00F0C874B42
:105E0C004FF4704680B229464FF460472A4640EA68
:105E1C000C004FF4806EA4F88801B4F8880180B2AD
:105E2C0040F47060A4F88801A3F88C6148F2B8269D
:105E3C00A3F88EC1A3F89051B3F8880180B240F05A
:105E4C00F000A3F8880101EB4100744B01310025EF
:105E5C0040011C46042903449F80A3F806E05A84A1
:105E6C001A865A805A81DE815A82DA825A83DA8300
:105E7C00E9D1B4F888014FF00F0C694B4FF4704620
:105E8C0080B229464FF460472A4640EA0C004FF492
:105E9C00806EA4F88801B4F8880180B240F4706078
:105EAC00A4F88801A3F88C6148F2B826A3F88EC137
:105EBC00A3F89051B3F8880180B240F0F000A3F839
:105ECC00880101EB4100564B0131002540011C4675
:105EDC00042903449F80A3F806E05A841A865A804A
:105EEC005A81DE815A82DA825A83DA83E9D1B4F894
:105EFC0088014FF00F0C4B4B4FF4704780B2294682
:105F0C004FF460462A4640EA0C004FF4806EA4F829
:105F1C008801B4F8880180B240F47060A4F888015C
:105F2C00A3F88C7148F2B827A3F88EC1A3F890514E
:105F3C00B3F8880180B240F0F000A3F8880101EBBF
:105F4C004100384B013140011C46042903449E801A
:105F5C00A3F806E05A841A865A805A81DF815A8245
:105F6C00DA825A83DA83EAD1B4F888310F27002217
:105F7C0041F201069BB245F6C05E114643F226057E
:105F8C003B43A4F88831B4F888319BB243F4706376
:105F9C00A4F888315001244B01320344042A99811E
:105FAC005981DF819E82A3F806E0198019829D81B8
:105FBC00F0D100220F2741F2010645F6C0551146DB
:105FCC0043F226045001194B01320344042A9981EF
:105FDC005981DF819E82DD80198019829C81F1D1EB
:105FEC0000220F2741F2010645F6C055114643F237
:105FFC00260450010E4B01320344042A9981598125
:10600C00DF819E82DD80198019829C81F1D1F0BDE7
:10601C0000C00F4000C03D40000003FC00003E40AB
:10602C0000403E4000803E4000C01D4000001E402D
:10603C0000401E40704700BF72B6EFF30583494D18
:10604C006B60EFF30883484C2E4648484849494A50
:10605C0024680068096812682961AC60E8606A61AC
:10606C009A69454CAA61DB69444FEB6100F0E6F894
:10607C0085ED080A01F0FEF90B234FF0FF32686240
:10608C0019462B604A40202102F00103013904FB20
:10609C0003F383EA5202F7D1BE4202D056F8041F32
:1060AC00F0E730498A62BFF34F8F354B354A1960A0
:1060BC001A60BFF34F8FBFF36F8F334A0225334CF7
:1060CC00D36E334943F440533248D3662560D369C9
:1060DC0023F07F0343F04003D3610B6883423ED827
:1060EC002A4A002101202C4E11604FF0FF33C2F8D8
:1060FC0008110C46C2F800611546C2F808010746A3
:10610C00DFF8C0E0254E26482649274ACEF8003055
:10611C00336003600B60136001E000F073F9D5F895
:10612C000C211A4B002AF8D00134C5F80C714F2CF5
:10613C00F3D91E4A02241E484FF00041C0F84041DA
:10614C005163D3F80C2132B91A491B4A0A63D3F8AC
:10615C000C010028FAD0194B194A1A60FEE7FFF718
:10616C0035FABDE780FF272028ED00E02CED00E09C
:10617C0034ED00E038ED00E02083B8EDA4FF2720DB
:10618C0070EF00E0A0FF272000C00F400040084047
:10619C00886A0020803DCD0B009F240084E100E044
:1061AC0088E100E08CE100E090E100E000900D401F
:1061BC0000002E4000800F40F100AD0B0CED00E014
:1061CC000400FA0580E100E0094A08B5136820B123
:1061DC0018440849884202D81060184608BD2EF0B1
:1061EC00FFFF0C224FF0FF330260184608BD00BFC2
:1061FC007C6D002000002820002070474FF0FF30FD
:10620C00704700BF4FF4005300204B60704700BF35
:10621C00012070474FF0FF30704700BF30BFFDE7E3
:10622C000078B0FA80F04009704700BF012303707A
:10623C00704700BF30BFFDE7FFF7FEBE12490B6889
:10624C00114A5B07FBD513681049C3F30B23104AA3
:10625C0007EE903A0B6892ED006AB8EEE77A07EE1B
:10626C00903A0C4AF8EE677A0B4BD2ED006A77EE57
:10627C00677A93ED007AB8EE477A67EE867A87EE06
:10628C00A60A37EE400A704780810D40D891002055
:10629C00E0910020E4910020DC910020836BF0B4AD
:1062AC001BB1536843F40043536072B6446B5CB348
:1062BC001C4B2260D3F8B0410C4215D11A4E3768F2
:1062CC0004E03468E41BB4F5166F0BD2D3F84041EC
:1062DC0044F48044C3F84041D3F8B851D3F840415A
:1062EC006404EED50D4003D0426362B6F0BC704737
:1062FC000C4C8260C560D4F8B0311943C4F8B011AD
:10630C00426362B6F0BC7047064D8260C460D5F83B
:10631C00B0311943C5F8B0110263426362B6F0BCE8
:10632C00704700BF00002E40041000E070B5064618
:10633C00006B90B10246002403E012680134012A7C
:10634C000CD0536813F08003F7D032632CB1B36BCD
:10635C0005689847013C2846F9D170BD33637363D7
:10636C00F4E700BFF0B5E1B9214C22490020224BE3
:10637C0001224FF0011580260A601A46A1604E607A
:10638C00E060C3F8BC51D3F8B0411C4D44F001049B
:10639C008860C3F8B0412860D2F8B031002BFBD133
:1063AC00F0BD0904164B144D0126114C41F080012F
:1063BC0000221E60596000F5805CE26400F5005E0E
:1063CC00A36400F54057D5F8B01100F580462A4675
:1063DC00986041F48031C3F80CC0C3F810E05F61E1
:1063EC009E61C5F8B011D2F8B031002BFBD1BCE7DF
:1063FC00000000204092002000002E4090910020D0
:10640C00209200202DE9F04FB94C83B0D4F8448190
:10641C0018F0010FC4F844815ED0D4F8AC31002BD5
:10642C0055D04FF0011BDFF8EC92B24E2546DA4600
:10643C00C4F8AC31B06AF26AD4F8403143F400537A
:10644C00C4F84031D4F840319F04F5D5D5F840312B
:10645C0023F40053C5F84031C5F8B4A1D4F8B431D5
:10646C0013F00113FAD181B240F28167C9F8003000
:10647C00B94200F2AD80B1F5D06F80F0DE81B1F59C
:10648C00817F00F0608100F2E880802900F04E816D
:10649C00822940F0DA8092B202F07F01072900F2E3
:1064AC00D48089009448954F0844016810063B70CD
:1064BC007B7040F10182CA0301D501233B7002219C
:1064CC008E48FFF74FFFD4F8AC31002BB0D1884A7F
:1064DC00D2F8BC31002B49D118F0400F18D0844BA6
:1064EC00D3F8AC111A46C3F8AC11D3F8BC11C3F8ED
:1064FC00BC11D2F8B0417E4B002CFAD14FF0FF32D8
:10650C00C3F8B421D3F8843100F032FD7C4B1C600D
:10651C0018F0807F03D07B4B1B6803B1984718F0B1
:10652C00007F03D0784B1B6803B1984718F0040F19
:10653C0008D06F4BD3F8843113F4007345D0734BF0
:10654C0001221A706A4BD3F8482112060BD518F0A9
:10655C00800F08D06E490A782AB1013AD2B20A707B
:10656C00002A00F0428203B0BDE8F08F6949C2F8FE
:10657C00BC310868034240F0E281614A15681D4055
:10658C00AAD02F0C0FD05B4E4FF0010997FAA7F44D
:10659C00B4FA84F406EBC41009FA04F44030FFF7A3
:1065AC00C5FEA743F2D1ADB2002D95D0514E0127B7
:1065BC0095FAA5F4B4FA84F406EBC41007FA04F4C3
:1065CC00FFF7B4FEA543F3D186E7504A1370B9E741
:1065DC0042F22107B94234D067D8B1F5086F00F008
:1065EC001E81B1F5106F30D1C0F307404A4A4B49B8
:1065FC0010704B4F4B4A0193C5F8C871C5F8CC11BC
:10660C00C5F8D02100F0B6FC474A019B802101203F
:10661C00B26451601060F364C5F8BCB1D5F8B01128
:10662C00936041F48032C5F8B0213A4A1360D4F833
:10663C00B031002BFBD1D4F8AC31002B7FF4F8AE89
:10664C0045E7110C072900F03B81C4F8C0B1D4F820
:10665C00AC31002B7FF4ECAE39E740F20237B94293
:10666C0000F0AD80B1F5A06FEFD12F4A802101274A
:10667C00F364B26417605160C5F8BCB1D5F8B011C1
:10668C00936041F48033C5F8B031D4F8B031002BAD
:10669C00FBD1030C5B0643F08073C5F85431D4F87E
:1066AC00AC31002B7FF4C4AE11E742F221239942A6
:1066BC0079D042F221339942C7D11B4B8022002161
:1066CC000120B36418605A60F164C4F8BCB1D4F80A
:1066DC00B021996042F48033C4F8B031D4F8B031B1
:1066EC00002BFBD1D4F8AC31002B7FF4A1AEEEE63D
:1066FC0000002E4000000020C0012E40A091002080
:10670C0094910020F4910020F89100201092002028
:10671C0011920020909100200F920020C8000200DE
:10672C000200CC000200C80040920020B64A0221B0
:10673C00104613705370FFF715FED4F8AC31002BD4
:10674C007FF476AEC3E692B202F07F03072B3FF6DE
:10675C007CAF12F0800F4FEA8303AC4A4FF000017C
:10676C004FF001001A44136814BF23F4803323F054
:10677C00010313608022A64BF164B36418605A6065
:10678C00C4F8BCB1D4F8B021996042F48033C4F899
:10679C00B031D4F8B031002BFBD1D4F8AC31002B94
:1067AC007FF446AE93E692B2002A86D1994BC0F3A1
:1067BC000740994A1968994B116018707DE792B29D
:1067CC0002F07F03072B3FF640AF12F0800F4FEA29
:1067DC0083038E4A4FF000014FF001001A441368F6
:1067EC0014BF43F4803343F0010313608022884BC1
:1067FC00F164B36418605A60C4F8BCB1D4F8B02129
:10680C00996042F48033C4F8B031D4F8B031002B25
:10681C00FBD1D4F8AC31002B7FF40AAE57E6804A9A
:10682C000121794B127818461A70FFF79BFDD4F8AA
:10683C00AC31002B7FF4FCAD49E67A4B596800294A
:10684C003FF403AF000C1FFA82FE04E00C335968CE
:10685C0000293FF4FAAE1F888742F7D15F8877454D
:10686C00F4D1070A032F00F0BA801B89120C934253
:10687C0028BF1346B0F5007F00F0A280B0F5E06FA2
:10688C0000F08B80684F1A4601933846FFF7EEF8FC
:10689C00019B27F01F021F44BFF34F8F63490A600F
:1068AC0020329742FAD8BFF34F8FBFF36F8F5E48F9
:1068BC001946FFF757FD06E6CB077FF500AEFCE562
:1068CC005B4F4FF0010EF3605A495B4B3860C3F8D5
:1068DC0000E05960B3605949D5F8B0017A6001F510
:1068EC00805740EA0E02996001F5005E01F54050B8
:1068FC0001F58041C5F8B021DF60C3F810E05861A4
:10690C009961D4F8B031002BFBD1414A012048F2F7
:10691C008001F36410604FF48030B2645160C5F8AC
:10692C00BCB1D5F8B011936041EA0003C5F8B031A1
:10693C00C9F80000D4F8B031002BFBD1C3E53C48BA
:10694C0042F22104002605880E60A54240687FF4BF
:10695C0014AE81B200297FF410AE3849384C03C90B
:10696C000D0C86282060A180A5717FF406AE72B64E
:10697C003448017841F004010170D2F8481108063E
:10698C0006D441F080018020C2F84401C2F84811BD
:10699C0062B62D4A50211170EFE52C481A46224F51
:1069AC0090F800E02A492B480193BEF1000F08BF74
:1069BC0001463846FFF75AF80722019B7A7068E7C0
:1069CC0022481A462349077821480193002F08BF13
:1069DC0001461548FFF74AF8134F019B59E7120C73
:1069EC000B78934228BF134648E716490A7802F001
:1069FC00FB020A702AB9D3F8482122F08002C3F8AE
:106A0C0048213CF029FE00BFA0910020C0012E407F
:106A1C0040920020F0910020749200200E920020F1
:106A2C000F920020806500200000202070EF00E015
:106A3C00107900208000070020920020889100200F
:106A4C00789200200A9200201192002010920020CF
:106A5C0078200060C4200060002AA0F102022DE919
:106A6C00F04714BF00274FF00057022A01D9BDE8A8
:106A7C00F0874FEAC019DFF840A00D4604460AEB38
:106A8C000906002140229846304630F01FF90120BB
:106A9C0047EA05414AF80910C6F83880B060B8F1E9
:106AAC00000FE4D0034BA0401C6820431860BDE8E5
:106ABC00F08700BF9491002000000020002AA0F174
:106ACC0002022DE9F04714BF00274FF00057022AAD
:106ADC0001D9BDE8F0874022C501DFF84490884613
:106AEC001544002104461E4609EB050A504630F0B9
:106AFC00EDF8012247EA084149F80510CAF8386058
:106B0C00CAF80820002EE4D004F11000034B824098
:106B1C00186802431A60BDE8F08700BF949100200A
:106B2C000000002012048160C36142F08002F0B4C6
:106B3C004260012701F5805601F5005501F54054DE
:106B4C0001F580420760C660056144618261F0BC5A
:106B5C00704700BF831E022B00D97047064B0A46B4
:106B6C0030B400F11004012503EBC01005FA04F158
:106B7C00403030BCFFF792BB00000020831E022B7C
:106B8C0000D9704710B4054B01240A4604FA00F1F1
:106B9C0003EBC0105DF8044BFFF780BB0000002036
:106BAC0040687047124A134BD2F8200220F07F4005
:106BBC00984210B584B002D800EB800040000E4C17
:106BCC0001A90A22FEF7F6FF01A90023204611F8BD
:106BDC00012B01333AB10A2B20F8022FF7D11623DF
:106BEC00237004B010BD5B00DBB2237004B010BD89
:106BFC0000441F407F9698006C73002000F0DCBAB4
:106C0C0000F0B2BA00F012BB00F0D0BA00F068BBD2
:106C1C0000F03EBB0846114600F02EBB084600F0C3
:106C2C0015BB00BFF8B514494FF40037134D03469C
:106C3C0001EB4024124E134A05EB40152146176018
