:0200000460009A
:100000004643464200000156000000000103030081
:1000100000000000000000000000000000000000E0
:1000200000000000000000000000000000000000D0
:1000300000000000000000000000000000000000C0
:1000400000000000010408000000000000000000A3
:100050000000800000000000000000000000000020
:100060000000000000000000000000000000000090
:100070000000000000000000000000000000000080
:10008000EB04180A063204260000000000000000FD
:10009000050404240000000000000000000000002F
:1000A0000000000000000000000000000000000050
:1000B0000604000000000000000000000000000036
:1000C0000000000000000000000000000000000030
:1000D00020041808000000000000000000000000DC
:1000E0000000000000000000000000000000000010
:1000F0000000000000000000000000000000000000
:10010000D8041808000000000000000000000000F3
:100110000204180804200000000000000000000095
:1001200000000000000000000000000000000000CF
:10013000600400000000000000000000000000005B
:1001400000000000000000000000000000000000AF
:10015000000000000000000000000000000000009F
:10016000000000000000000000000000000000008F
:10017000000000000000000000000000000000007F
:10018000000000000000000000000000000000006F
:10019000000000000000000000000000000000005F
:1001A000000000000000000000000000000000004F
:1001B000000000000000000000000000000000003F
:1001C000000100000010000001000000000000001D
:1001D000000001000000000000000000000000001E
:1001E000000000000000000000000000000000000F
:1001F00000000000000000000000000000000000FF
:10020000FFFFFFFFFFFFFFFFFFFFFFFFFFFFFFFFFE
:10021000FFFFFFFFFFFFFFFFFFFFFFFFFFFFFFFFEE
:10100000D10020432914006000000000000000000F
:10101000201000600010006000F404600000000078
:10102000000000600000050000000000FFFFFFFF5F
:10103000FFFFFFFFFFFFFFFFFFFFFFFFFFFFFFFFC0
:10104000FFFFFFFFFFFFFFFFFFFFFFFFFFFFFFFFB0
:10105000FFFFFFFFFFFFFFFFFFFFFFFFFFFFFFFFA0
:10106000FFFFFFFFFFFFFFFFFFFFFFFFFFFFFFFF90
:10140000884207D0904205D251F8043B40F8043B93
:101410008242F9D8704700BF884204D2002340F8C6
:10142000043B8142FBD87047664B4FF42A01664A61
:1014300066482DE9F0475A641864654A99639546F1
:10144000BFF34F8FBFF36F8F00F09AF9614B082005
:10145000614A6249C3F854016148FFF7D1FF614A0C
:1014600061496248FFF7CCFF61496248FFF7D4FF4A
:10147000614C62494FF470000023614A086044F8EF
:1014800023200133B02BFAD15E4B80215E4A03F852
:10149000011B9342FBD14F4D4FF080385B494FF019
:1014A000FF325B4B0026DFF8A4A1DFF8A4911C609B
:1014B000C5F80481C5F800A1C5F8F480C5F8F0901E
:1014C0000B68544F43F4E0230B60FB693D4923F064
:1014D0007F0343F04003FB617B6A23F07F0343F00B
:1014E00040037B628A66CA660A674A6700F04EF963
:1014F000494A4A4B6320A2630321E363484A494BAC
:10150000106000F160401E6042F8041C00F6A170FB
:101510004549464AC3F8082D0B68454A43F0807395
:101520000B601368434943F00103136003680B60C9
:1015300000F07CFBC5F804813F48C5F800A1C5F860
:10154000F480C5F8F09000F0EBFCF96E3B4A41F4F2
:1015500040513B4BF9661660C2F80861C2F8186149
:10156000C2F82861C2F838619A6BD20708D442F6F3
:101570001562344959651A659A6B42F001029A6303
:101580002F4A314C936843F00113936000F070F9D7
:1015900000F0CAF800F0B0FC00F07AFB00F0F2F8BE
:1015A0002368132BFCD900F001FC2368B3F5967F68
:1015B000FBD300F0E9F800F0ABFC00F0ADFC30BF6D
:1015C000FDE700BF00C00A40FFFFABAA07002000F4
:1015D0000080032000800D4050350400242100606D
:1015E00000000000C07A00203A760460000000206D
:1015F00060980020C07A00200078002088ED00E08C
:10160000614D000000E400E0A0E400E024ED00E013
:1016100008ED00E000C00F40093800000D38000060
:1016200014E000E018E000E0FCED00E00000202005
:10163000001000E0909700200046C32300400840BF
:1016400000400D400000C056949700201B10182049
:101650000C0D11132DE9F0412F4F00254269012493
:10166000B96B4FF0020E16684FF4303821F47C014C
:101670000369DFF8B0C041F48021B963316857686D
:10168000394331604FF00111244EC3F810E01D6161
:10169000C3F848C05C629E624FF66106C3F82C80B6
:1016A0009F6C1F651D6299651C61017E1C4B02EBDE
:1016B0000111097A03EB011189680E60017E02EBCA
:1016C00001110C7ACD6803EB041149680D60017EAD
:1016D00002EB01110C690CB149692160417E4FF6A2
:1016E000610402EB011191F8281003EB01118968E4
:1016F0000C60417E02EB011191F82840C96A03EBAE
:1017000004135B681960437E02EB0312136B0BB189
:10171000526B1A60BDE8F08100C00F40B80B0505A0
:10172000244000203B372819114B1249D86E0A4635
:1017300040F4403030B4D86640F23765D86EA0240B
:1017400040F44070D8664D648C64936C1B06FCD4E6
:10175000094B40F23760A0211A4658649964936C93
:1017600013F08003FBD1054A137030BC704700BFF3
:1017700000C00F4000400C4000800C40AA970020A1
:10178000704700BF704700BF704700BFF0B5244AE4
:101790000020244B4FF0100C234C1126DFF8C8E03A
:1017A000122720600125C2F800C0C3F800E01660CF
:1017B000DFF8B8E01D4EC3F800E01D4917601E6059
:1017C00041F015011B4F1C4E17601E601B4F1C4E35
:1017D00017601E601B4F11601B4E1C491F60166076
:1017E0001B4F19601B4E1C4917601E601B4F116078
:1017F0001B4E1C491F60166019602560BFF34F8F98
:10180000BFF36F8FC3F8B001BFF34F8FBFF36F8F7C
:1018100052F8883C43F4403342F8883CF0BD00BFA6
:101820009CED00E0A0ED00E094ED00E00900100068
:1018300060980020130020002100020714000020FF
:1018400025000813090000101600202027000B13A4
:101850001700004033001013180000602F000B0722
:10186000190000702F000B133F0000102500080323
:10187000F0B58D4B18228D4E01208D4948F20C7E1B
:101880008C4D4FF0FF378C4C83B0C3F85C12C3F81B
:1018900060520025C3F86412C3F868424FF4005444
:1018A000C3F86C628549C3F87062C3F87462C3F808
:1018B0007862834EDA661A675A679A67DA67C3F8FE
:1018C0008020C3F88420C3F8882040F20562C1F864
:1018D0002C03C1F83003C1F83403C1F83803C1F850
:1018E0003C03C1F850032946B36976481840764B4B
:1018F00003437648B361D6F8843043F00C03C6F84E
:1019000084300226036833430360036803EA0E0E43
:101910006F4B4EEA0303DFF8F0E103606D4B476065
:10192000DEF808703B406C4F43F000538360C3689F
:1019300023F07803C360036A1F40684B3B43664F44
:101940000362036A1F40654B3B43654F43628762F6
:10195000C762DEF8B830634F23F03F0343F0010362
:10196000C0F8B830DEF8BC30DFF884E123F03F0384
:1019700043F00103C0F8BC30056104660767C0F896
:10198000802044664767C0F884200468564B24F0E2
:101990000204564A0460C0F818E0C66143F8041B0C
:1019A0009342FBD1494B1A68194642F001021A6072
:1019B0000B68464A13F00103FAD14D4E022540F25E
:1019C000F56440F2664040F299414A4F966142F216
:1019D0000146D56140F23545C2F8004242F2012489
:1019E000C2F810020120C2F820121146C2F830726B
:1019F00007F15A47C2F8346207F51377C2F840522C
:101A00003D4E3E4DC2F85072C2F85462C2F8605268
:101A1000C2F86442C2F8A030C2F8A430C2F8B000E4
:101A20004B692A4ADD07FBD5012300244FF480309F
:101A300011465361C2F8A040C2F8A400C2F8B03009
:101A40004B69224ADC07FBD5012300244FF4003008
:101A500011465361C2F8A040C2F8A400C2F8B030E9
:101A60004B691A4AD807FBD50123002424481146A4
:101A70005361C2F8A040C2F8A400C2F8B0304B696C
:101A8000124ADB07FBD5D2F8003145F60D51212073
:101A90009BB250618B4239D01A4B00221A605A60B7
:101AA0009A60DA6003B0F0BD00801F40F970010059
:101AB000F9B00100F9100100F900010000841F4095
:101AC00000C00F40FFFCFF1F000300A000402A40A1
:101AD0001200FFFFFF37F70000FFF07C400000809E
:101AE000FF000F836300020000422A4000432A40A7
:101AF000F05AF05A9F041830063201263806180AA8
:101B0000040003000498002000802A4000244FF4C1
:101B1000802001231146C2F8A040C2F8A400C2F8F8
:101B2000B0304B693B4ADF07FBD501234FF400047B
:101B3000002011465361C2F8A040C2F8A400C2F8C8
:101B4000B0304B69334ADE07FBD501234FF4000464
:101B50004FF4803011465361C2F8A040C2F8A4008F
:101B6000C2F8B0304B692B4ADD07FBD501234FF497
:101B700000044FF4003011465361C2F8A040C2F88F
:101B8000A400C2F8B0304B69224ADC07FBD5012320
:101B90004FF40004204811465361C2F8A040C2F837
:101BA000A400C2F8B0304B691A4AD807FBD5D2F866
:101BB000003145F60D5121209BB250618B4210D06F
:101BC000164B08224FF400041A7015490020154ADC
:101BD00001230090521A1448224400F095F903B0F2
:101BE000F0BD4FF400044FF4802101231046C2F8E9
:101BF000A040C2F8A410C2F8B03043690549DB0721
:101C0000FBD50120054B10224FF0807448611A70FB
:101C1000DBE700BF00402A4004000300AB97002030
:101C2000000000700000007004980020F0B4174A13
:101C300040274FF480314FF480564FF400554FF455
:101C4000404443F24200136913F0020F06D094613E
:101C500051619061136913F0020FF8D113F4005F22
:101C600001D15561EFE713F4805F01D15661EAE7D6
:101C7000002BE8DA13F4803F01D09161E3E75B06C3
:101C800001D45761DFE7F0BC704700BF00800D4012
:101C9000394A03203949F3EE095A13689FED386A2F
:101CA00023F00103DFED376AF0B413600024106104
:101CB000D1F8E030344FD8B2C3F30B211B0D334EB3
:101CC00007EE100A05EE101A07EE903A304BB8EE08
:101CD000C55A304DB8EEC77A3060F8EEE77A296021
:101CE0002D4937EE466A2D4E77EEC57A2C4877EEB1
:101CF000666A2C4D37EE657A26EE276AC7ED007AC4
:101D000066EEA76A176867EE277A83ED007AC6EE5B
:101D1000075A86EE876AC7EE876A35EE857AFCEE4B
:101D2000C77A36EE057A17EE903ABCEEC77A47EAE4
:101D3000035376EE857A136017EE103AD2F81071DD
:101D4000FCEEE77A01EA0341394317EE903AC2F814
:101D50001011C3F30B03D2F810110B43C2F810316A
:101D6000136843F0020313603470C0F840510E4B07
:101D70000122F0BC1A60704780810D4000441F4072
:101D80000000AA420000B4428897002080970020FB
:101D9000849700207C9700200000FF0F40E400E0C3
:101DA00000780020614F000008E100E0304B40F671
:101DB000617270B5C3F8202140F2044500F0B4F818
:101DC0002C492D48D1F880202C4C42F003022C4B9A
:101DD000C1F88020C0F86051226813401BB9D0F8C8
:101DE000A8319A071AD0244B4FF00041234A51637F
:101DF0001A46D3F8401141F00201C3F84011D2F85D
:101E000040319B07FBD44FF400301E491B4B4FF071
:101E10000042086019209A6300F072F81A4D0022FF
:101E2000164B4FF08041144C0A26996328461A60DD
:101E30001146C4F8A8614FF4207200F079F84FF40D
:101E4000810640F243114FF48000104B104A2E607F
:101E50002864C4F85851C4F84811C3F804220D4A44
:101E60004FF4003101231160C4F8403170BD00BF50
:101E700000800D4000C00F4000002E4000900D403B
:101E8000001C1E008CE200E0000000200078002012
:101E90002D5100000CE100E008B50E4B1B6E9B07B6
:101EA00000D4FBBE72B60C4B00200C4AC3F84001B4
:101EB00003F160430A49A3F55F2311649D46BFF314
:101EC0004F8F084A03F5E043074912681846196026
:101ED0009368984700441F4000002E4000C00A400D
:101EE000030020001C002000000012EBF8B500BF2A
:101EF000F8BC08BC9E4670475FF800F0A14A00009D
:101F00005FF800F0B54500005FF800F021620000C6
:101F10005FF800F0D94E03005FF800F08147000041
:101F20005FF800F0F14200005FF800F0CD580000CB
:101F30005FF800F0FD590300450000007503000044
:101F4000E106000075230000E52C0000C9EE00004A
:101F500075710100758C010035A101007117020037
:041F600045580200DE
:101F640080C00F40000000031900000010000000B2
:101F7400E8841F4001000000FF000000FF00000093
:101F84000000000000000000180000001000000025
:101F9400E4841F4001000000FF000000FF00000077
:101FA40000000000000000001F00000070C00F408F
:101FB400000C00001100000011000000E0841F402C
:101FC400020000002C00000012000000E0841F400A
:101FD400010000001000000011000000DC841F401C
:101FE400020000002D00000012000000DC841F40ED
:101FF400010000001E00000070C00F40C00000007F
:102004001200000013000000D0841F4001000000F3
:10201400FF000000FF0000000000000000000000BE
:102024001300000013000000CC841F4001000000D6
:10203400FF000000FF00000000000000000000009E
:102044001C0000000101000016035500530042006B
:102054002000530065007200690061006C000000FC
:1020640018035400650065006E0073007900640075
:10207400750069006E006F000403090409024B0037
:10208400020100C032080B00020202010009040030
:1020940000010202010005240010010524010101D0
:1020A400042402060524060001070582031000101B
:1020B40009040100020A00000007050302400000B1
:1020C400070584024000000009024B00020100C021
:1020D40032080B000202020100090400000102029E
:1020E4000100052400100105240101010424020655
:1020F40005240600010705820310000509040100F8
:10210400020A00000007050302000200070584021A
:10211400000200000A060002EF0201400100010073
:1021240000000000000000000000000000000000AB
:10213400000000000000000000000000000000009B
:1021440010B5054C237833B9044B13B10448AFF3ED
:1021540000800123237010BDD07E00200000000009
:10216400A4230400084B10B51BB108490848AFF379
:1021740000800848036803B910BD074B002BFBD04F
:10218400BDE81040184700BF00000000D47E0020C6
:10219400A4230400C07A002000000000884235D047
:1021A400031D994232D02DE9F04781468A461846EC
:1021B400C8460746D9F8003057F8046B9E4216DB30
:1021C400D8F8003042469E421EDA3C4600E02A46D9
:1021D40044F8043D151F52F8043C9E42F7DB166098
:1021E400BA45384608F10408E3D1BDE8F087C9EBE5
:1021F4000002930805D0C2F104034946184435F09F
:1022040029FCC9F80060EBE70246E8E7704700BF25
:10221400F8B50B1A432B21DD00F140040F460646A6
:102224002146FFF7BBFFA74217D021463C3608469C
:10223400324651F8045B56F8043B9D4212DA0846D4
:1022440000E0224640F8043D141F52F8043C9D422D
:10225400F7DB8F421560EAD1F8BDF8BDBDE8F84060
:10226400FFF79CBF02468F421560E0D1F4E700BF40
:10227400D0B5044682B00020002604F12C010027CA
:1022840002460D4BA06284F82C0061620146009066
:1022940004F12400C4E90467C4E9026717F024FACE
:1022A400282004F0A1FB2060282004F09DFB20627C
:1022B400204602B0D0BD00BF7C46002010B5044CBF
:1022C400204603F0BFFE204603F0E2FE10BD00BF2F
:1022D400C46B00202DE9F041B2F1010854BFC4469B
:1022E40094464FEA6C0C614548DA8E460EF10104BF
:1022F4006FF04046650050F8347000EBC4042E447F
:1023040050F82660B74204DA013D00EB850450F82A
:102314002570654540F82E70AE46E7DBD60705D438
:10232400023A48BF4246B5EB620F1BD08D4216DD20
:102334006A1E48BF2A46521050F82260B3420EDD8E
:10234400914240F8256000EB8204154607DA561ED8
:1023540048BF1646721050F82260B342F0DC236086
:10236400BDE8F08101356FF040426D002A44013D23
:1023740050F82220226000EB8504D7E7D50700EB54
:102384008104ECD40D46CBE70B1A432B40F3818038
:102394008C462DE9F043064683B09146002A50D07E
:1023A40000F1040800F10807DB10706809F1FF3937
:1023B4005CF8041C56F8232090422FDA8A4231DB61
:1023C400884238DA326831604CF8042C96E803000D
:1023D4004446BE466346884225460EDC8242A3F14B
:1023E400040303DD53F8042D8242FBDCA34208D925
:1023F4002260196053F8042C306804345EF8041B1E
:10240400E9E761464A462046FFF7BEFFA31B432B7C
:102414003CDDB9F1000F15D0A446C5E788420ADBBC
:102424008A42CFDB3168326046F823105CF8042C12
:1024340096E80300CCE7316886E803005CF8042CD6
:10244400C6E70D469C10A71E7F1006EB870800E028
:10245400013F4FF0000058F80439224639468DF800
:1024640000003046FFF736FF002FF1D155F8043D48
:102474004FF0000732680021AC1B30462A60A210DE
:102484008DF80070FFF726FF072CEFDC03B0BDE8E2
:10249400F083704710B5054C204606F0BFF920467E
:1024A400034A0449BDE8104005F092BF1496002089
:1024B400586B0020196700002DE9F043044683B0EF
:1024C4002D4803F053FA00284CDD002604F12C09B2
:1024D4001BE0636AD4F828804B4508F1010714BF58
:1024E400E26A0F22974209D900230122414604F1EE
:1024F400240000921A4616F0B1FF636A03F80850EC
:102504000022636AA762DA5501361B4803F02EFAEB
:10251400864227DA184803F03DFAC5B2612D84F8E3
:102524003C5010D07C2DD4D1606A002138F08CF955
:102534000021A26A04F124000091104B84ED040BE5
:1025440017F0D2F8E0E7606A002138F07DF9002145
:10255400A26A04F124000091084B84ED020B17F0E9
:10256400C3F8D1E79FED020B03B0BDE8F08300BFD1
:102574000000000000000000C46B00207C46002026
:1025840070B5044600252DED028B2046FFF794FF1D
:102594002668236A94ED046B94ED027BBDEEC66B52
:1025A400BDEEC77B16EE102A725117EE102A5A514F
:1025B4000435282DE9D106F1280506223046B6EE69
:1025C400008A2946FFF7E0FE29463046FFF720FE41
:1025D40022680C21214815695369EB1807EE103A5B
:1025E400B8EEC77A27EE087AB7EEC77A84ED047B93
:1025F40005F066FD02211A4894ED040B03F0ACFDCE
:10260400174803F045FD256A062205F128062846E9
:102614003146FFF7B9FE28463146FFF7F9FD226A35
:102624000721104815695369EB1807EE103AB8EE04
:10263400C77A27EE087AB7EEC77A84ED027B05F0F5
:102644003FFD0221064894ED020B03F085FD04488A
:1026540003F01EFDBDEC028B70BD00BF6045002081
:10266400B46B002070450020704700BF00000000DC
:1026740030B52DED0E8B9FED58BB9FED59AB044645
:1026840083B020EE0B7B1D4601910092B0EE40CB4F
:1026940087EE0A8BB0EE480B31F016F9B0EE40DB52
:1026A40084ED040BB0EE480B31F0BEF8DDED007A9A
:1026B400B0EE409BB8EEE77B84ED060B27EE0B7B78
:1026C40087EE0AEBB0EE4E0B31F0FEF8B0EE408B25
:1026D40084ED080BB0EE4E0B31F0A6F83DEE088BFE
:1026E40039EE009B84ED148B84ED169B84ED0A0B6C
:1026F400002D42D1B0EE491BB0EE480B31F034F955
:102704009FED377B9FED346B20EE070B80EE067B4D
:10271400B5EEC07BF1EE10FA03D59FED336B37EEC7
:10272400067B1021324884ED007B05F0C9FC0221B0
:10273400304894ED000B03F00FFD2E4803F0A8FC85
:102744000C212D4805F0BCFCB0EE4C0B02212948AD
:1027540003F002FD274803F09BFC0C21274805F0F9
:10276400AFFC0099234803F0EBFC224803B0BDEC16
:102774000E8BBDE8304003F08BBCDDED017AB8EE82
:10278400E77B27EE0BBB8BEE0ADBB0EE4D0B31F093
:102794009BF8B0EE40AB84ED0C0BB0EE4D0B31F07A
:1027A40043F829EE009B20EE007BA8EE0A9BAAEEDC
:1027B4000A7B84ED0E0B84ED109B89EE071B84EDE0
:1027C400127B2AEE018B20EE019B84ED148B84EDA9
:1027D400169B8FE7AFF3008000000060FB210940E7
:1027E4000000000000806640000000000080764089
:1027F40078450020B46B00208C4500209C450020C7
:1028040010B5054C204606F009F82046034A044951
:10281400BDE8104005F0DCBD18960020586B002080
:102824001967000030B40024002500220121C0E90A
:102834000645C0E90845C16082600261426130BC5E
:10284400704700BF000000009FED337B08B5B4EE75
:10285400C70B2DED028BF1EE10FAB0EE408B03DDC9
:102864009FED2F7B30EE478BB1EE047BB4EEC78B2C
:10287400F1EE10FA0AD8B9EE046B9FED2B7BB4EE9F
:10288400468BF1EE10FAA8BFB0EE478B07EE901A14
:10289400B8EEE77B9FED226B37EE087BB4EEC67B88
:1028A400F1EE10FA2BDD37EE467B80ED007BB9EEBE
:1028B400047BB4EE478BF1EE10FA0FD1B43107EE7E
:1028C400901A9FED176BB8EEE77BB4EEC67BF1EE82
:1028D40010FAC8BF37EE467B80ED007B0D2114480B
:1028E40005F0EEFBB0EE480B0221124803F034FC75
:1028F4001048BDEC028BBDE8084003F0C9BBB5EE3F
:10290400C07BF1EE10FA48BF37EE067B80ED007B0A
:10291400CDE700BFAFF300800000000000806640F8
:10292400000000000080764000000000000000006D
:10293400AC450020B46B002038B5044600250123C3
:102944002C3040F8103C257684F8205000F078F9BB
:102954000022054B29460E20C4E90023C4E90423C0
:1029640003F05EFF204638BD0000F0BF0000000009
:10297400B1EE067B90ED020B10B52DED028B9FEDB1
:102984002C8B20EE070B044630F0F2FF20EE088B70
:10299400B7EE006B94ED007BB4EE468B9FED265BA7
:1029A400F1EE10FAB4EEC57BC8BFB0EE468BF1EE83
:1029B40010FA03DD9FED226B36EE477B9FED220B71
:1029C40027EE000B30F0D4FF0D212548B7EE003B75
:1029D400BFEE005B9FED1E7B9FED1F4B94ED006BE4
:1029E40020EE070B9FED147BB4EE440BF1EE10FACE
:1029F400B4EEC76BC8BFB0EE440BF1EE10FA28EE8C
:102A0400008BD8BFB0EE435BA5EE086B84ED046B7E
:102A140005F056FB0221134894ED040B03F09CFBD4
:102A24001048BDEC028BBDE8104003F031BB00BF81
:102A340000000040E17A943F0000000000806640FE
:102A44000000000000807640000000A09999C93F72
:102A540000000040E17AB43F0000000000805640CE
:102A6400D4450020B46B0020F8B5002300F12C05F8
:102A740004462DED048B80F82030284600F0A2F99E
:102A8400021F00F15C01C4F8A8009FED517BB0EE79
:102A9400476B84ED027B52F8043FC3F5806307EE75
:102AA400903A1360B8EEE77BB4EEC67BF1EE10FA11
:102AB40003DDB0EE476B84ED027B8A42EBD19FEDE0
:102AC400467BFDEEC65B26EE076B15EE903AC4ED31
:102AD400095A7C2B84ED026B02DD012384F820303B
:102AE400284640F2262700F069F90646284600F0F9
:102AF40067F9656A00233246963DD4F8A8101E464D
:102B040002F1C00EBD42A1F10401A3629C46A8BF1C
:102B14003D469FED2F8BB0EE489B0DE09FED2C7B47
:102B2400C1F800C0B2EC025BB0EC026B9645A5EEB6
:102B3400079BA6EE078B0CD051F8043FAB42EDDBAC
:102B4400A76A01363B44A362D1ED007AB8EEE77B75
:102B5400E8E7A36A0A21284893FBF6F6A66205F083
:102B6400AFFAA16A254803F0EBFA244803F090FA7F
:102B7400B0EE481BB0EE490B30F0F6FE9FED187B2B
:102B84009FED196B20EE070B80EE067BB5EEC07B44
:102B9400F1EE10FA03D59FED166B37EE067B0C2190
:102BA400174884ED007B05F08BFA0221134894ED5D
:102BB400000B03F0D1FA114803F06AFA2046BDEC89
:102BC400048BBDE8F840FFF7D3BE00BFAFF300802D
:102BD4000000000000000000000000000000503F62
:102BE400000000000080664000000060FB210940F6
:102BF4000000000000807640E4450020B46B002013
:102C0400F045002010B5092104460B4805F058FA98
:102C14000E2003F0C9FB0146084803F091FA074867
:102C240003F036FA0E2003F0BFFB8B28D4BF012338
:102C34000023237610BD00BF00460020B46B0020A3
:102C44002DE9F0470A23074601254FF00B0A4FF000
:102C54000C094FF00D0800266022574910300F244C
:102C64002DED088B00F80EACB7EE00BB00F809ACF4
:102C7400BB71FB727D71BD7287F80CA087F803905D
:102C840087F8089087F80D9087F8048087F8098002
:102C940087F80E8003F00CFE294630463E707E70A5
:102CA40003F0BEFD2946B87803F0BAFD3146F87842
:102CB40003F0B6FD2946387903F0B2FD2946787849
:102CC40003F0A2FD294628467E71BD7187F807A04E
:102CD40087F8089087F8098003F0A2FD2946F8795F
:102CE40003F09EFD3146387A03F09AFD2946787A3E
:102CF40003F096FD2946B87903F086FD02232946A0
:102D0400BE721846FB7287F80CA087F80D9087F8FE
:102D14000E8003F085FD2946387B03F081FD3146A2
:102D2400787B03F07DFD2946B87B03F079FD2946C5
:102D3400F87A03F069FD602003F056FEB867C020FE
:102D440003F052FE3867C02003F04EFE3E6F054686
:102D540078679FED130B9FED14AB9FED159B12E06D
:102D640007EE904A0F34B8EEE77B27EE0A7B87EE36
:102D7400098BB0EE480B30F057FDB0EE40BBB0EE1F
:102D8400480B30F0A1FDB4F5B47FA6EC02BBA5EC72
:102D9400020BE5D1BDEC088B3846BDE8F08700BFD7
:102DA400000000000000000000000060FB2109405A
:102DB400000000000080664048040020006F704757
:102DC400406F70472DE9F04F00F16C0385B06FF050
:102DD4000F080446694F00F10C050193C0EB080885
:102DE4000DE0032B00F0EA80012B1ED00023A06F1E
:102DF400421942F80830019B9D4200F0F28155F8D7
:102E0400043F5F4A013B1A40002AC0F26081002B54
:102E1400B8BF0733DB100133022BE2D1D3B2072B47
:102E240040F25A814FF0FF33E1E7D1B20729F9D8D4
:102E3400120121788DF80C3002F47F6262F07F0277
:102E44008DF80D20002900F05082FB7C002B31D03E
:102E540072B64A4BDA7CD607134607D54948474928
:102E6400066849693140454EB1620160900706D554
:102E74004549BA690868FB7C0240FA620A6059074E
:102E840006D54249FA690868FB7C02403A630A6045
:102E94001A0706D53E493A6A0868FB7C02407A6301
:102EA4000A60DB0605D53B4A7B6A11680B40BB63AD
:102EB400136062B6BB68384A934200F07E82374B97
:102EC40035499B69364AB960C3F30111C3F3826380
:102ED40052F821200133B2FBF3F2324BA3FB02136D
:102EE4009B0C40F05282FB603A6800214FF0030EC5
:102EF400012007261161C2F824E0136416661061EC
:102F0400607803F081FC3A6803A90DF10F000B7897
:102F14005366D36D13F4F81FFBD0536F01F8013BD4
:102F24008842F4D10121607803F06EFCFB7C1A46E0
:102F3400DBB1D90702D5B86A1B4908609E0703D5DF
:102F4400F96A1A4BFA7C1960500703D5396B184B90
:102F5400FA7C1960110703D57B6B1649FA7C0B6068
:102F6400D30602D5BB6B144A13609DF80D209DF85F
:102F74000E3043EA0223C3F3090338E7646B0020ED
:102F84000700008080E100E084E100E088E100E0E7
:102F94008CE100E090E100E07099140000C00F4063
:102FA400043D00203BD4B53100E100E004E100E041
:102FB40008E100E00CE100E010E100E0D3B2072BEF
:102FC4003FF630AF1301A17A012203F47F638DF839
:102FD4000C2063F07F038DF80D30002900F004818C
:102FE400FB7C002B31D072B69F4BDA7CD0071346A2
:102FF40007D59E489C490668496931409A4EB1629A
:103004000160910706D59A49BA690868FB7C0240B9
:10301400FA620A605A0706D59649FA690868FB7C81
:1030240002403A630A601E0706D593493A6A086863
:10303400FB7C02407A630A60D80605D58F4A7B6A16
:1030440011680B40BB63136062B6BB688C4A934241
:1030540000F0B5818B4B8A499B698B4AB960C3F3F5
:103064000111C3F3826352F821200133B2FBF3F25E
:10307400864BA3FB02139B0C40F07C81FB603A68F7
:1030840000214FF0030E012007261161C2F824E04D
:10309400136416661061E07A03F0B6FB3A6803A97C
:1030A4000DF10F000B785366D36D13F4F81FFBD0AA
:1030B400536F01F8013B8842F4D10121E07A03F017
:1030C400A3FBFB7C1A46002B7FF433AF4DE7013A98
:1030D40062F0070201329AE613016179012203F4D6
:1030E4007F638DF80C2063F07F038DF80D30002989
:1030F40000F0B180FB7C002B31D072B65A4BDA7CE5
:10310400D607134607D559485749066849693140D7
:10311400554EB1620160900706D55549BA690868F1
:10312400FB7C0240FA620A60590706D55149FA69E4
:103134000868FB7C02403A630A601A0706D54E49C8
:103144003A6A0868FB7C02407A630A60DE0605D5A9
:103154004A4A7B6A11680B40BB63136062B6BB6862
:10316400474A934200F02781464B45499B69464AAA
:10317400B960C3F30111C3F3826352F82120013310
:10318400B2FBF3F2414BA3FB02139B0C40F008810A
:10319400FB603A6800214FF0030E012007261161FD
:1031A400C2F824E0136416661061A07903F02CFBC6
:1031B4003A6803A90DF10F000B785366D36D13F42D
:1031C400F81FFBD0536F01F8013B8842F4D1012171
:1031D400A07903F019FBFB7C1A46002B7FF4A9AEFF
:1031E400C3E605B0BDE8F08FE07A934603AE92469D
:1031F40003F00AFB4FF007090EE04BEA030B86F8D5
:1032040000B009F1FF390021A07B03F0FDFAB9F108
:10321400FF3F18D096F800B04BFA09F1207B01F07B
:10322400010103F0F1FA0121A07B03F0EDFA607BC8
:1032340003F0F0FA0AFA09F30028DED12BEA030BB3
:1032440086F800B0DDE70DF10E03B34200F0838091
:1032540016F801BFCEE7A079934603AE924603F079
:10326400D3FA4FF0070922E0646B002080E100E00C
:1032740084E100E088E100E08CE100E090E100E01E
:103284007099140000C00F40043D00203BD4B531B8
:103294004BEA030B86F800B009F1FF390021607A8C
:1032A40003F0B2FAB9F1FF3F18D096F800B04BFA28
:1032B40009F1E07901F0010103F0A6FA0121607A35
:1032C40003F0A2FA207A03F0A5FA0AFA09F3002817
:1032D400DED12BEA030B86F800B0DDE70DF10E0317
:1032E400B3423DD016F801BFBBE760789B4603AEFE
:1032F4009A4603F089FA4FF007090EE04BEA030BF4
:1033040086F800B009F1FF390021207903F07CFA36
:10331400B9F1FF3F18D096F800B04BFA09F1A07844
:1033240001F0010103F070FA0121207903F06CFA35
:10333400E07803F06FFA0AFA09F30028DED12BEAE9
:10334400030B86F800B0DDE70DF10E03B3420CD099
:1033540016F801BFCFE70121E07A03F055FA04E63D
:103364000121A07903F050FAFFE50121607803F010
:103374004BFAFAE5B2FBF3F225498A4288BF0133DE
:10338400B3F5817F21D3234B78E6B2FBF3F22049D6
:103394008A4288BF0133B3F5817F1AD31D4BA2E55E
:1033A400B2FBF3F21A498A4288BF0133B3F5817F35
:1033B40007D3184BECE6FB68EBE6FB6894E5FB6887
:1033C4005DE6022B09D80023E2E6022B0ED8002387
:1033D40054E6022B13D8002385E5023B59080A045E
:1033E40043EA012302F47F021343D1E6023B590866
:1033F4000A0443EA012302F47F0213433EE6023B3C
:1034040059080A0443EA012302F47F0213436AE5DC
:1034140070991400FF7F7F0010B50446602003F00C
:10342400E3FA4FF0FF31031F00F15C02206043F820
:10343400041F9342FBD1204610BD00BF10B40468A2
:103444000439231F5C3453F8040F51F8042F9042BD
:10345400B8BF1A60A342F6D15DF8044B704700BFB1
:10346400704700BF70B586B0114B28224FF0FF3172
:10347400044602F025F80E4B2822372101A802F059
:103484001FF89DF80860039D2046049A0C219DF8BE
:1034940014302671A560E260237402F03FF800B98D
:1034A400FEE72046012102F0DFF8204606B070BD99
:1034B400846C002010B5044600F1140102F0A4F954
:1034C400D4ED0A7AFDEEE77A17EE900A10BD00BF3C
:1034D40070B400214FF0FF320024084D4FF4806691
:1034E40080F858100170466080F8601082600261B4
:1034F4008264C0E9064570BC704700BF0000F0BF9D
:103504002DE9F04105464FF0000E16460F1FAA663E
:103514004FF480614FF0FF3218466B667446696061
:103524004FF00108AA6085F858E022E04FF0FF331D
:10353400821940F82430A968994205DAAB6013680F
:10354400002BA8BF85F858802146344802F0F8FDC6
:1035540007213348013404F0B3FDAB6E2F48995969
:1035640002F0EEFD2D4802F093FD182C16D0AE6E3D
:10357400686E56F82420A60057F8043F9A42D5DB1B
:1035840050F8243082196968994203DD591C01D02E
:103594006B601368A9689942D2DACFE70921214800
:1035A40004F08EFD69681D4802F0CAFD1B4802F054
:1035B4006FFD0A211C4804F083FDA968174802F036
:1035C400BFFD164802F064FDAA686968531AB42B5B
:1035D400EB6018DDC3F5B473EB60002BB8BF0133A7
:1035E40002EB6303B3F5B47F13DA2B610D210F48AB
:1035F40004F066FD2969094802F0A2FD0748BDE808
:10360400F04102F045BD002BB8BF013301EB630369
:10361400EBE7A3F5B4732B61E8E700BFB46B0020BC
:103624000C46002014460020204600202C46002092
:10363400C368002BB8BF01335B1007EE103A9FED4F
:103644000C6BB8EEC77B9FED0C0B27EE067B10B519
:1036540087EE000B044630F037F9B6EE007B20EE1F
:10366400070B30EE000B84ED060B10BDAFF30080AA
:1036740000000060FB21094000000000008066405B
:1036840090F8583053B900220023C0E90A23C0E956
:103694000E23C0E91023C0E90C23704730B5456DF3
:1036A4000446A5F1280300EE103A2DED0A8BB8EE7E
:1036B400C00B85B09FED489B9FED498B20EE090B15
:1036C40080EE080B30F000F9A5F18203B0EE40CB98
:1036D40000EE103AB8EEC00B20EE090B80EE080B9A
:1036E40030F0F2F8A5F1E603B0EE40BB00EE103A7C
:1036F400B8EEC00B20EE090B80EE080B30F0E4F8B6
:10370400A5F59B73B0EE40AB00EE103AB8EEC00BDB
:1037140020EE090B80EE080B30F0D6F8B5EEC0CBE6
:10372400F1EE10FA46DDB5EEC00BB0EE4C6BF1EEE7
:1037340010FA46DDB0EE407BB4EE476BF1EE10FAC2
:10374400B5EEC0BBA8BFB0EE467BF1EE10FA3EDD8D
:10375400B0EE4B6BB5EEC00B8DED006BF1EE10FAD5
:1037640032DDB0EE405BB4EEC56B8DED025BF1EE85
:1037740010FA1DDAB0EE456B02ABB4EEC76BF1EE96
:1037840010FA01D993ED007B8CEE073B8BEE074BCF
:103794008AEE075B80EE076B84ED0A3B84ED0E4BEB
:1037A40084ED105B84ED0C6B05B0BDEC0A8B30BD71
:1037B4006B46E2E7B5EEC00BB1EE4C6BF1EE10FADE
:1037C400B8DCB1EE407BB7E7B1EE405BCBE7B1EEDE
:1037D4004B6BBFE7AFF3008000000060FB210940A2
:1037E400000000000080664070B5154604461A4685
:1037F4000E46049B2946FFF783FE94F85830BBB964
:103804002178002940F0C780002200234FF0FF30C8
:10381400217084F85910A0646065C4E90823C4E9E0
:103824000A23C4E90E23C4E91023C4E90C2370BDA0
:10383400A36C0022092160480133236984F86020C5
:1038440008BFA364E36404F03BFCA16C5B4802F092
:1038540077FC5A4802F01CFC0A21594804F030FC59
:10386400E16C564802F06CFC544802F011FCE36C25
:10387400A26CA3649B1A002BB8BF5B42B42B2365D4
:1038840002DDC3F5B473236507214E4804F018FC28
:10389400216D4A4802F054FC484802F0F9FB236DBC
:1038A400653B4F2B237857D9002B59D1236903F15A
:1038B400B402B2F5B47F67DA62652046FFF7B8FE5A
:1038C40094ED067B84ED087B21690022002300250A
:1038D40001F15A0084F85950B0F5B47FC4E90A23C1
:1038E400C4E90E23C4E91023C4E90C235FDCE065BA
:1038F400B5EEC07BF1EE10FA14DDB6EE006BB4EE5B
:10390400C67BF1EE10FA0DD5012312212E4884F85E
:10391400593004F0D5FBE16D284802F011FC27482A
:1039240002F0B6FB0C21294804F0CAFB616D234860
:1039340002F006FC214802F0ABFB0E21244804F0FF
:10394400BFFB02211D4894ED080B02F005FC1B4847
:10395400BDE8704002F09CBB13B9012223652270BC
:10396400236920466365FFF763FEB0EE007B236D99
:1039740094ED066B653B37EE467B4F2B84ED087B5D
:1039840005D80023237091E7B43B636595E723785A
:10399400002B99D18AE701224FF0FF3331462046AC
:1039A40084F86020A364BDE87040FFF769BEA1F508
:1039B4008771E1659CE700BF3C460020B46B0020A2
:1039C40048460020544600205C46002070460020F3
:1039D400804600202DE9F0470A23044601254FF0D4
:1039E4000B094FF00C080D274FF0600A0572457360
:1039F400183052466372A3730026E3743849A574E1
:103A040084F80A9084F80F9084F8149084F80B805A
:103A140084F8108084F8158027736774A77502F002
:103A240047FF504602F0E0FF17232060294618465E
:103A3400637284F80A9084F80B802773267202F06C
:103A4400EFFE2946A07A02F0EBFE3146E07A02F05E
:103A5400E7FE2946207B02F0E3FE2946607A02F065
:103A6400D3FE1623294666731846A37384F80F9071
:103A740084F81080677402F0D3FE2946E07B02F0DC
:103A8400CFFE3146207C02F0CBFE2946607C02F05A
:103A9400C7FE2946A07B02F0B7FE1523294684F809
:103AA40014901846E374A67484F81580A77502F080
:103AB400B7FE2946207D02F0B3FE3146607D02F058
:103AC400AFFE2946A07D02F0ABFE2946E07C02F061
:103AD4009BFE504602F088FF60602046BDE8F087F8
:103AE400A804002040680023021F42F8043F0F335B
:103AF400B3F5B47FF9D170472DE9F04F00F17403A9
:103B040085B06FF017080446694F00F1140501935E
:103B1400C0EB08080DE0032B00F0EA80012B1ED057
:103B240000232068421942F80830019B9D4200F0AE
:103B3400F28155F8043F5F4A013B1A40002AC0F263
:103B44006081002BB8BF0733DB100133022BE2D1B5
:103B5400D3B2072B40F25A814FF0FF33E1E7D1B2E1
:103B64000729F9D81201217A8DF80C3002F47F620A
:103B740062F07F028DF80D20002900F05082FB7C5A
:103B8400002B31D072B64A4BDA7CD607134607D5E0
:103B940049484749066849693140454EB162016068
:103BA400900706D54549BA690868FB7C0240FA6269
:103BB4000A60590706D54249FA690868FB7C024045
:103BC4003A630A601A0706D53E493A6A0868FB7CDC
:103BD40002407A630A60DB0605D53B4A7B6A1168BA
:103BE4000B40BB63136062B6BB68384A934200F073
:103BF4007E82374B35499B69364AB960C3F301115C
:103C0400C3F3826352F821200133B2FBF3F2324B47
:103C1400A3FB02139B0C40F05282FB603A68002124
:103C24004FF0030E012007261161C2F824E013644B
:103C340016661061607A02F0E7FD3A6803A90DF197
:103C44000F000B785366D36D13F4F81FFBD0536F3A
:103C540001F8013B8842F4D10121607A02F0D4FDDD
:103C6400FB7C1A46DBB1D90702D5B86A1B49086048
:103C74009E0703D5F96A1A4BFA7C1960500703D5DD
:103C8400396B184BFA7C1960110703D57B6B164905
:103C9400FA7C0B60D30602D5BB6B144A13609DF803
:103CA4000D209DF80E3043EA0223C3F3090338E7DD
:103CB400646B00200700008080E100E084E100E004
:103CC40088E100E08CE100E090E100E070991400EC
:103CD40000C00F40043D00203BD4B53100E100E0BA
:103CE40004E100E008E100E00CE100E010E100E0A4
:103CF400D3B2072B3FF630AF1301A17C012203F4AA
:103D04007F638DF80C2063F07F038DF80D3000295C
:103D140000F00481FB7C002B31D072B69F4BDA7C1F
:103D2400D007134607D59E489C4906684969314027
:103D34009A4EB1620160910706D59A49BA6908683A
:103D4400FB7C0240FA620A605A0706D59649FA6972
:103D54000868FB7C02403A630A601E0706D5934953
:103D64003A6A0868FB7C02407A630A60D80605D583
:103D74008F4A7B6A11680B40BB63136062B6BB68F1
:103D84008C4A934200F0B5818B4B8A499B698B4ADC
:103D9400B960C3F30111C3F3826352F821200133E4
:103DA400B2FBF3F2864BA3FB02139B0C40F07C8125
:103DB400FB603A6800214FF0030E012007261161D1
:103DC400C2F824E0136416661061E07C02F01CFD66
:103DD4003A6803A90DF10F000B785366D36D13F401
:103DE400F81FFBD0536F01F8013B8842F4D1012145
:103DF400E07C02F009FDFB7C1A46002B7FF433AF14
:103E04004DE7013A62F0070201329AE61301617B41
:103E1400012203F47F638DF80C2063F07F038DF897
:103E24000D30002900F0B180FB7C002B31D072B63C
:103E34005A4BDA7CD607134607D5594857490668C2
:103E440049693140554EB1620160900706D5554924
:103E5400BA690868FB7C0240FA620A60590706D511
:103E64005149FA690868FB7C02403A630A601A0700
:103E740006D54E493A6A0868FB7C02407A630A60B8
:103E8400DE0605D54A4A7B6A11680B40BB631360A2
:103E940062B6BB68474A934200F02781464B4549C6
:103EA4009B69464AB960C3F30111C3F3826352F8B4
:103EB40021200133B2FBF3F2414BA3FB02139B0C11
:103EC40040F00881FB603A6800214FF0030E0120A6
:103ED40007261161C2F824E0136416661061A07B02
:103EE40002F092FC3A6803A90DF10F000B785366B7
:103EF400D36D13F4F81FFBD0536F01F8013B8842D4
:103F0400F4D10121A07B02F07FFCFB7C1A46002B3C
:103F14007FF4A9AEC3E605B0BDE8F08FE07C93461C
:103F240003AE924602F070FC4FF007090EE04BEA34
:103F3400030B86F800B009F1FF390021A07D02F0DF
:103F440063FCB9F1FF3F18D096F800B04BFA09F1C1
:103F5400207D01F0010102F057FC0121A07D02F057
:103F640053FC607D02F056FC0AFA09F30028DED106
:103F74002BEA030B86F800B0DDE70DF10E03B34224
:103F840000F0838016F801BFCEE7A07B934603AE12
:103F9400924602F039FC4FF0070922E0646B0020DE
:103FA40080E100E084E100E088E100E08CE100E0F1
:103FB40090E100E07099140000C00F40043D00201F
:103FC4003BD4B5314BEA030B86F800B009F1FF3955
:103FD4000021607C02F018FCB9F1FF3F18D096F87C
:103FE40000B04BFA09F1E07B01F0010102F00CFC96
:103FF4000121607C02F008FC207C02F00BFC0AFA30
:1040040009F30028DED12BEA030B86F800B0DDE7C4
:104014000DF10E03B3423DD016F801BFBBE7607A41
:104024009B4603AE9A4602F0EFFB4FF007090EE001
:104034004BEA030B86F800B009F1FF390021207B1D
:1040440002F0E2FBB9F1FF3F18D096F800B04BFA4A
:1040540009F1A07A01F0010102F0D6FB0121207BD5
:1040640002F0D2FBE07A02F0D5FB0AFA09F3002849
:10407400DED12BEA030B86F800B0DDE70DF10E0369
:10408400B3420CD016F801BFCFE70121E07C02F067
:10409400BBFB04E60121A07B02F0B6FBFFE5012196
:1040A400607A02F0B1FBFAE5B2FBF3F225498A42E9
:1040B40088BF0133B3F5817F21D3234B78E6B2FB6C
:1040C400F3F220498A4288BF0133B3F5817F1AD3C2
:1040D4001D4BA2E5B2FBF3F21A498A4288BF0133B1
:1040E400B3F5817F07D3184BECE6FB68EBE6FB687E
:1040F40094E5FB685DE6022B09D80023E2E6022B77
:104104000ED8002354E6022B13D8002385E5023B86
:1041140059080A0443EA012302F47F021343D1E657
:10412400023B59080A0443EA012302F47F021343C1
:104134003EE6023B59080A0443EA012302F47F02E3
:1041440013436AE570991400FF7F7F00704700BF36
:10415400704700BF704700BF10B50446406904F1C2
:104164001C03984201D002F041FC204610BD00BF60
:1041740010B50446406A04F12C03984201D002F0C1
:1041840035FC204610BD00BF08B500224FF496410F
:104194000D4801F0B3FC00224FF416510B4801F016
:1041A400ADFC0221092002F03BFB01210A2002F0B0
:1041B40037FB00210A2002F027FB02212420BDE85E
:1041C400084002F02DBB00BFC46B0020246C00200B
:1041D4002DE9F0435D4E5E4F337A5E495E4D2DED21
:1041E400028B87B002A8002B54D102F0AFF802A9C9
:1041F40038465A4CFEF762F802A802F067F83846CF
:10420400FEF7BEF92846FEF7FDFC2846FEF72CFC17
:10421400A96A304600F08CFE514B5248D3F8009006
:1042240095F82080FFF768FC06464E48FFF75AFCD5
:104234004A460090414633462046FFF7D5FA4A4E97
:104244004A4B3046196897ED040BFEF7FDFA4848CF
:1042540095F8207095ED048BFFF72CF907EE900A82
:104264003946E36DB8EEE71B94F85920B0EE480BDD
:10427400404894ED0C6B94ED105B94ED0E4B94ED73
:104284000A3B96ED002B00F00BFB07B0BDEC028B54
:10429400BDE8F08302F05AF802A938462F4CFEF725
:1042A4000DF802A802F012F83846FEF769F928461C
:1042B400FEF7DAFBA96A304600F03AFE284B29489B
:1042C400D3F8009095F82080FFF716FC06462548A1
:1042D400FFF708FC4A460090414633462046FFF764
:1042E40083FA254E94F85830E16D304697ED047BFF
:1042F40095ED000BFDEEC77B17EE902AFEF7B8F99B
:104304001B4895F8205096ED008BFFF7D3F8174B18
:1043140007EE900A294693ED002AB0EE480BB8EE5A
:10432400E71BE36DB8EEC22B94F85920114894EDC5
:104334000C6B94ED105B94ED0E4B94ED0A3B00F086
:10434400AFFA07B0BDEC028BBDE8F083A07E00207D
:10435400F07C002090460020407C0020C07D00209E
:1043640078960020C8960020987D0020C87400200C
:104374007C960020307E0020307D00203A4A38B5FB
:104384001368012B34DD394D2C68631C33D0022CA7
:1043940050D0012C60D004B138BD0221344803F060
:1043A4008FFE344801F074FE2146042002F02CFAFA
:1043B4002146212002F028FA21461D2002F09CFB10
:1043C40021461C2002F098FB2146062002F01CFA2C
:1043D4002146042002F018FA2146052002F08CFB45
:1043E4002146032002F088FB4FF0FF332B6038BDD9
:1043F4000133136038BD204C242002F00BFA2060F6
:10440400092002F007FA1D4A236810600BB9022341
:104414002B6030B91A48FFF76FFB01461948FFF7C4
:104424000DF81521184803F04BFE1248BDE838403A
:1044340001F02EBE1548FFF73DF8124A144B1168DF
:1044440018600B1F5C3153F8042F0A328B421A6038
:10445400F9D101232B6038BDFFF7BAFE092002F021
:10446400D9F9286038BD00BFAC740020A4740020C2
:10447400AC460020B46B0020CC740020A87400204B
:10448400C896002078960020944600207C96002050
:10449400C8740020F8B5244E244C254D304604F051
:1044A400BDF922462349304603F092FF2846FEF721
:1044B40043FA214F224621492846214E03F088FF22
:1044C400204800F079F83846FEF7CCFF22461E4912
:1044D400384603F07DFF1D4D3046FFF77BFA224638
:1044E4001B49304603F074FF2846FDF7C1FE2246FF
:1044F4001849284603F06CFF1748FEF7B5F8174D26
:104504001748FEF78FF91748FEF7E2FF284600F038
:1045140057FC22462846144903F05AFF1348BDE8C5
:10452400F840FEF779BF00BF1C960020586B0020AE
:10453400407C0020196700007C9600202D2000009C
:10454400C8960020307E002031200000F07C00203E
:104554003520000051200000307D0020A07E002086
:10456400987D0020C07D002039200000789600202E
:1045740091ED007B9FED0C5BB5EEC07BF1EE10FA84
:10458400D8BFB1EE477B54BF0123002387EE006BF5
:1045940003609FED077B26EE077B27EE057B81ED0D
:1045A400007B7047AFF30080000000606666E63F62
:1045B4000000000000E06F40F8B504460523212206
:1045C400032123651C201D2306270F260425E266EC
:1045D4006365A1650121E065184627666666A566E0
:1045E40002F01EF994F85800012102F019F994F828
:1045F4005000012102F014F994F85C00012102F04A
:104604000FF994F86000012102F00AF994F86C00A3
:10461400012102F005F994F86400012102F000F987
:1046240094F86800012102F0FBF8002200232046E0
:10463400C4E91223F8BD00BF10B52DED068B30EE92
:10464400418B0221B0EE409B04465948B0EE41AB89
:10465400B5EEC08BF1EE10FAD8BFB1EE488BB0EED8
:10466400480B01F079FD524801F012FD9FED467BA5
:10467400B4EEC78BF1EE10FA03DD9FED457B37EE08
:10468400488B9FED417BB4EEC7ABF1EE10FA4BD5EE
:10469400B4EEC79BF1EE10FA46DD9FED3D7B37EE9D
:1046A400499BB1EE499BB4EECA9B9FED3B7BF1EE77
:1046B40010FA9FED350B48BFB1EE488B28EE077B0F
:1046C40087EE000B2FF000F9BAEE007BB4EEC78B37
:1046D400F1EE10FA04DDB5EEC08BF1EE10FA0BD456
:1046E400B2EE007BB4EEC78BF1EE10FA2DD5B5EE29
:1046F400C08BF1EE10FA28DD00220023C4E9002368
:104704000D212C4803F0DCFC294801F0C1FC0221F6
:10471400274894ED000B01F01FFD2548BDEC068BE6
:10472400BDE8104001F0B4BC9FED177BB4EEC7ABFD
:10473400F1EE10FAB7DDB4EEC79BF1EE10FAB2D584
:104744009FED137B39EE079BADE79FED157BB4EE30
:10475400C78BF1EE10FA0BDC9FED137BB4EEC78B25
:10476400F1EE10FA09D50022134BC4E90023C7E780
:104774000022124BC4E90023C2E7B1EE400B84EDE2
:10478400000BBDE7AFF3008000000000008066402E
:10479400000000000080764000000060FB2109401A
:1047A400000000000080564000000000008056C059
:1047B400B46B0020B04600200000F03F0000F0BFC2
:1047C40091ED000B38B52DED0C8B9FED2FAB9FEDCC
:1047D400309B04460D4620EE0A0B08EE102A80EEAC
:1047E400090B2FF071F8B0EE40CB84ED020B95ED80
:1047F400000B20EE0A0B80EE090B2FF015F8B8EE33
:10480400C87BB0EE40BB27EE0A7B84ED040B87EE39
:1048140009DBB0EE4D0B2FF057F8B0EE408B84ED72
:10482400060BB0EE4D0B2EF0FFFF2BEE00BB20EE7F
:10483400006BACEE08BBA8EE086BB0EE407B84EDD9
:10484400080B84ED0ABB8BEE061B84ED0C6B28EE83
:10485400010B27EE011B84ED0E0B84ED101B2FF0D2
:1048640083F820EE090B80EE0A7BB5EEC07BF1EEF7
:1048740010FA03D59FED086B37EE067BBDEC0C8B6D
:1048840085ED007B38BD00BF00000060FB210940BE
:1048940000000000008066400000000000807640B8
:1048A400B0EE417BB0EE421B2DE9F0472DED108BAD
:1048B40096B0002600270025914688469A4604951E
:1048C400059504460695B0EE43BB0795B0EE44CB80
:1048D400B0EE45DBB0EE46EB8DED020BB0EE470BD0
:1048E400CDE90867CDE90A67CDE90C67CDE90E6724
:1048F400FFF7A2FEB9F1000F40F024820E21C84850
:1049040003F0DEFB0221C7489DED020B01F024FCFD
:10491400C44801F0BDFB9DED028B9FEDB10B9FEDF3
:10492400B2AB9FEDB39B38EE400B20EE0A7B87EED3
:10493400090B2EF0C9FFB0EE40FB9FEDAF0B8DEDE0
:1049440008FB38EE400B20EE0A7B87EE090B2EF0B5
:10495400BBFFB0EE407B9FEDAA0B8DED0C7B8DED84
:10496400007B38EE400B20EE0A7B87EE090B2EF01D
:10497400ABFF9FEDA56B8DED0E0B38EE460B20EED5
:104984000A7B87EE090B2EF09FFF9DED007B8DEDDA
:104994000A0BB8F1000F40F098819FED9D7B9FEDCD
:1049A4009E6BB0EE47FBB0EE474B8DED087B8DED73
:1049B4000C7B8DED0E7B8DED0A7BB1EE440BB4EEDA
:1049C400460BF1EE10FAB5EEC07B98BFB0EE460B85
:1049D400F1EE10FA40F3EB81B0EE476BB5EEC04B4D
:1049E4008DED126BF1EE10FA40F3DE81B0EE445B14
:1049F400B4EEC56B8DED145BF1EE10FA80F26381B9
:104A0400B0EE456B14ABB4EEC06BF1EE10FA01D905
:104A140093ED000BB5EE400B84ED120BF1EE10FAA2
:104A240040F065819FED7A6BB0EE463BB0EE464BAD
:104A3400B0EE465BB5EE40BB94ED007BF1EE10FAB0
:104A440035EE075B37EE044B37EE033B37EE067B60
:104A54008DED085B8DED0C4B8DED0E3B8DED0A7BE2
:104A64000ED1B5EE40CBF1EE10FA09D1B5EE40DB34
:104A7400F1EE10FA04D1B5EE40EBF1EE10FA07D0E6
:104A84008DED08BB8DED0CCB8DED0EDB8DED0AEBC2
:104A94000B21654803F014FB022162489DED080BCD
:104AA40001F05AFB5F4801F0F3FA04995D4801F004
:104AB40047FB5C4801F0ECFA0B215C4803F000FB77
:104AC400022158489DED0C0B01F046FB554801F0BE
:104AD400DFFA0699534801F033FB524801F0D8FA43
:104AE4000B21534803F0ECFA02214E489DED0E0BC6
:104AF40001F032FB4B4801F0CBFA0799494801F029
:104B04001FFB484801F0C4FA0B214A4803F0D8FAC5
:104B1400022144489DED0A0B01F01EFB414801F0BF
:104B2400B7FA05993F4801F00BFB3E4801F0B0FA93
:104B34009DED085B9DED0A7BB5EEC05BF1EE10FACE
:104B4400B5EEC07BD8BFB1EE455BF1EE10FA40F391
:104B54002881B0EE470BB4EE405B9DED0C6BF1EE9B
:104B640010FAB5EEC06BA8BFB0EE450BF1EE10FA2B
:104B7400B5EEC07BD8BFB1EE466BF1EE10FA8DED09
:104B8400126BD8BFB1EE477BB4EEC76B8DED147BCF
:104B9400F1EE10FA80F29580B0EE476B14ABB4EEF0
:104BA400C06BF1EE10FA01D993ED000BB5EE400B9A
:104BB40000220023F1EE10FA84ED120B40F0C880BD
:104BC400CDE9082300220023CDE90A230022002393
:104BD400CDE90C2300220023CDE90E232CE000BFF5
:104BE400000000000000444000000060FB21094078
:104BF40000000000008066400000000000406040AB
:104C04000000000000C06C40000000000060734021
:104C14000000000000000000000000000000008010
:104C2400C0460020B46B0020D0460020DC460020A3
:104C3400E8460020F44600209DF8181094F860001F
:104C440001F0E2FD9DF8101094F8640001F0DCFD21
:104C540094F850009DED0C7BFDEEC77B17EE901A87
:104C640001F04AFF94F854009DED087BFDEEC77BEC
:104C740017EE901A01F040FF9DF8141094F86800A4
:104C840001F0C2FD9DF81C1094F86C0001F0BCFD0D
:104C940094F858009DED0A7BFDEEC77B17EE901A41
:104CA40001F02AFF94F85C009DED0E7BFDEEC77BBE
:104CB40017EE901A01F020FF16B0BDEC108BBDE882
:104CC400F08712AB6BE712AB9DE6B5EEC0FBF1EEDD
:104CD40010FA6FDDB0EE4F6BB5EEC00BB0EE404B8B
:104CE400F1EE10FA8DED106B3FF769AE65E68FEECD
:104CF400005B84EE006B87EE004B9DED0E7B87EE30
:104D0400003BB5EEC05BF1EE10FAB5EEC06B54BFDC
:104D140001230023F1EE10FAB5EEC04B049354BF07
:104D240001230023F1EE10FA059354BF012300235D
:104D3400B5EEC03B0693F1EE10FA54BF01230023F5
:104D4400079377E6524602A92046FFF739FDD5E5D9
:104D540008A904A8FFF70CFC94ED120BB5EE400B68
:104D6400F1EE10FA3FF42EAF0AA905A8FFF700FCF4
:104D740094ED120BB5EE400BF1EE10FA3FF426AFB2
:104D84000CA906A8FFF7F4FB94ED120BB5EE400B4B
:104D9400F1EE10FA3FF41EAF0EA907A8FFF7E8FBE7
:104DA4004AE7B1EE470BD6E6B1EE445B20E6B1EE3E
:104DB400476B13E6B1EE4F6B8EE700BF00000000B7
:104DC400F0B500F11C010025044683B085612A4634
:104DD40005771430016029460095094B06A7D7E9E9
:104DE4000067C4E9006714F07FFC2046257203B015
:104DF400F0BD00BFAFF3008000000000000490404D
:104E04007C46002010B5054C204603F007FD2046E3
:104E1400034A0449BDE8104003F0DABA20960020A2
:104E2400586B0020196700002DE9F041044682B058
:104E34002C4800F09BFD002851DD00261DE004F104
:104E44001C036269D4F818809A4208F1010714BF60
:104E5400E3690F239F4209D901220023414604F14B
:104E6400140000921A4614F0F9FA626902F8085024
:104E740000226369A761DA5501361A4800F076FD0D
:104E840086422CDA174800F085FDC5B27C2D2574C6
:104E94001AD0612DD3D10021606935F0D5FCFDEE27
:104EA400C07B114817EE901AC4ED037A01F048F95B
:104EB4000D4801F0EDF80021A26904F114000B4B38
:104EC400009114F011FCD7E76069002135F0BCFCB7
:104ED4000221054884ED000B01F03EF9E8E702B039
:104EE400BDE8F081246C0020B46B00207C460020D7
:104EF40038B50C4C0D460221204601F02DF9012253
:104F04002046094901F088F82946204601F018F99D
:104F140020460122054901F07FF82046BDE83840CB
:104F240001F0B6B8246C0020004700201C4D00207E
:104F340007EE901A017A10B52DED028BB8EEE78BCF
:104F44000446B0EE480BFFF7D3FF2046FFF76CFF93
:104F5400012394ED007B2372B4EEC78BF1EE10FABB
:104F640002DC01D500232372BDEC028B10BD00BF0F
:104F74000020704790F8A32090F8A200101A704700
:104F840090F8A23090F8A3209A4205D95A1C034401
:104F940080F8A220987E70474FF0FF30704700BF22
:104FA40090F8A23090F8A3209A4202D90344987E44
:104FB40070474FF0FF307047704700BFB0F8303192
:104FC40093B190F82F31882B0BD8C21810B45C1C05
:104FD400012380F82F41184682F8A5105DF8044B90
:104FE40070470122002302711846704738B5054600
:104FF400B0F8300190B195F82F311446C3F189020D
:1050040094420CD805F1A5002246184401F050FC46
:1050140095F82F3120461C4485F82F4138BD14469D
:1050240001222A71EEE700BF2DE9F04F8346404884
:1050340083B01525DBF814A09BF818609BF8193091
:105044000AEB06163B490AEB0313DFF8ECE0367A69
:105054000C4693F828303601DFF8E0901B018719DD
:1050640050F8068000EB030CC658F8687B68DCF83F
:105074000C7000931D60C8F88400D8F80430DCF884
:10508400042003430192C8F804301560C6F8847004
:1050940073683B4373600968DEF80030A9FB033290
:1050A400920C02EB8202520023685B1A9A42FBD8EC
:1050B400204A0925DFF884C09146D8F80830184200
:1050C40002D0B3681F4231D1C6F888701468DEF884
:1050D4000010ACFB0131890C01EB810113681B1B2F
:1050E4009942FBD8C6F88470D9F80040DEF8001065
:1050F400ACFB0131890C01EB810113681B1B994244
:10510400FBD8013DD9D128469BF81830009A0AEB08
:105114000313DB6813609BF81930019A0AEB031A36
:10512400DAF82C30136003B0BDE8F08F0120EBE710
:1051340024400020041000E0606B002083DE1B4349
:105144000D49026910B50C6805E0DB0107D40B6852
:105154001B1B102B08D8536913F0007FF5D14FF4B3
:10516400FE430120536110BD0446FFF75DFF002894
:10517400F9D02269F3E700BF949700202DE9F047A6
:1051840090F82FA1BAF1000F02D10420BDE8F087F6
:1051940005460E46FFF7D4FF0028F6D02E4F002414
:1051A4004FF40079D7F80080544529691AD8CB6D9B
:1051B40003F00703032B09D914E095F8A520013364
:1051C400012442F48062042B0A660BD02A19002CB5
:1051D400F3D0A24527D9013392F8A5200134042B3A
:1051E4000A66F3D14B69180522D45A0527D49804CA
:1051F40004D43A68C8EB0202322A09D90B694FF485
:105204000072042043F440730B610A66BDE8F08722
:10521400544505D9CA6D520702D19B0519D4C6B1AC
:1052240002F0D4FFC0E70EB1C1F860900134D9E7B1
:105234000B69042043F440730B61BDE8F0870B69EC
:105244004FF40072022043F440730B610A66BDE818
:10525400F0870020BDE8F087949700202DE9F84FEF
:105264000C46154698468146FFF76AFF10B904209C
:10527400BDE8F88F00226300002D40F2014A144675
:10528400DBB23D4E08BF0125022C43EA0A0AD6F8D8
:1052940000B089F8A22089F8A32048D9D9F81030A1
:1052A40099F8A320872A12D8D96DC1F3024111B904
:1052B4000DE0882A0BD002F1010E09EB020001393E
:1052C4005FFA8EF289F8A3201F6F8776F1D15A69AD
:1052D40010054CD412F4105F04D13168CBEB0101FA
:1052E400322912D91A694FF4007142F440721A61DA
:1052F4001966DA6D12F4E02F03D01A6942F40072D1
:105304001A6199F8A300BDE8F88F99F8A310A9428F
:1053140009D3022C07D9D96D490704D19205E8D4E1
:10532400B8F1000FE5D002F051FF022CB6D8D9F83D
:105334001020D36D03F00703032B0DD8691E4FF41F
:10534400007041F480714CB9C2F860A0013B013493
:10535400032B01D8022CF6D91346A1E7012C04D063
:10536400B8F1000FF2D01066F0E71166EEE71A69A3
:1053740042F440721A61BCE79497002010B4047F91
:105384004160022CC26003D05DF8044B00F06ABA9D
:1053940083685DF8044B1847F0B5304C304BA06C73
:1053A400656C0179226CD977297919770179197794
:1053B400FAB1B2F5004F18D22B6892B2D98B0E0411
:1053C4003BD4DA83D98B89B2D9820368D98B090497
:1053D4002CD4DA830021DA8B92B2DA822164027946
:1053E4001F4BDA762A79DA76F0BD1E4B1344236418
:1053F400F5E7E06C0F25236840F2013E01684FF4A5
:105404007C579D6503260D681749DA618D42C3F800
:1054140010E05F6184F83D6017D1037F4260022B86
:10542400C26017D0BDE8F04000F01CBAD98BC2F3BB
:10543400080201F47E410A43CBE7D98BC2F3080684
:1054440001F47E413143D983BCE72B461146BDE8C4
:10545400F04018478368BDE8F0401847646B0020AB
:1054640000800E400180FFFF5D320000704700BFE6
:1054740070B50C460546282200212046012632F04C
:105484004DFB0B220849204634F048FA0022002341
:105494000320E2720549ED68E6602561626260619D
:1054A4002162A361E36170BD044700200AD7233C55
:1054B40010B50446142101F09DFA204610BD00BF2A
:1054C400F8B504460025084816461F46E1602060EA
:1054D4001020A56001F086FA05463A4631462EF0C2
:1054E400BFF8A5602046F8BDAC2C002030B50246BC
:1054F40085B00C4600213D258068012314740222E6
:105504000191009103A98DF80D408DF80C502EF0F7
:10551400DDF81E2001F0DEF805B030BD2DE9F047BE
:10552400054684B08946806801212EF0BFF820B971
:105534000027384604B0BDE8F08704AC00264FF0DD
:1055440001080746A8684246019604F8046D2346FC
:105554002146CDF800802EF04BF99DF80C30A02B9D
:1055640012D04FF47A7001F0B5F8A868234601967A
:105574004246CDF8008021468DF80C602EF038F9B3
:105584009DF80C30A02BD3D100212846FFF7AEFFA5
:1055940000263F214FF0200EA868012302228DF837
:1055A4000C100196214600964FF001088DF80DE08D
:1055B4002EF08CF81E2001F08DF801E001F08AF83D
:1055C400A868234601960122CDF8008021468DF873
:1055D4000C602EF00DF99DF80C304FF0000A0A20F3
:1055E400A02BEBD13E26322001F074F8A8682146A6
:1055F400012302228DF80C60CDF804A00726CDF813
:1056040000A08DF80DA02EF061F80A2001F062F8D8
:10561400A86821468DF80C60CDF804A00123CDF8CC
:1056240000A002223F268DF80DA02EF04FF8012392
:105634000222A8682146CDF804A0CDF800A08DF878
:105644000DA08DF80C602EF041F80A2001F042F80C
:1056540049462846FFF74AFF142001F03BF8384634
:1056640004B0BDE8F08700BFF0B50E46002185B058
:1056740004460D46077CFFF739FF192001F02AF88C
:105684004FF0070EA06803A901950123009502229B
:105694008DF80D508DF80CE02EF018F8A068BEB906
:1056A4003F25019603A90096012302228DF80D607F
:1056B4008DF80C502EF00AF80A2001F00BF8394648
:1056C4002046FFF713FF142001F004F805B0F0BDE5
:1056D4004FF03F0E8026019503A900950123022275
:1056E4008DF80CE08DF80D602DF0F0FFE4E700BFBD
:1056F400F0B587B000251646062706AA0560456062
:1057040004AB02F80C6D04468560083EC560056173
:105714004561886811460195012200970495ADF80A
:1057240014502EF065F89DF810309DF811009DF886
:10573400135043EA00209DF812109DF815209DF89F
:10574400143041EA052100B243EA022309B21BB234
:10575400262E2FD8DFE806F0142E2E2E2E2E312ED4
:105764002E2E2E2E312E2E2E2E2E312E2E2E2E2E4F
:105774002E2E2E2E2E2E2E2E142E2E2E2E2E1400A7
:1057840007EE900AB8EEE75B07EE901AB8EEE76B07
:1057940007EE903A9FED184BB8EEE77B85EE043B9D
:1057A40086EE045B87EE046B84ED003B84ED025BC4
:1057B40084ED046B204607B0F0BD07EE900A204646
:1057C400B8EEE75B07EE901AB8EEE76B07EE903A97
:1057D4009FED0B4BB8EEE77B25EE045B26EE046BE6
:1057E40027EE047B84ED005B84ED026B84ED047B87
:1057F40007B0F0BDAFF30080000000000000594086
:10580400000000000000B03FF0B50C46242587B02E
:1058140006462A4600212046032732F07FF9104B22
:10582400F06831461B681A22606068462560A760EC
:105834002361FFF75DFF01209DED005B9DED026B91
:105844009DED047BB7EEC55BB7EEC66BB7EEC77BC9
:1058540084ED055A84ED066A84ED077A07B0F0BD3D
:105864009497002010B4EFF3108272B6437F33B9DB
:10587400017F012908D0032910D00123437702B9FD
:1058840062B65DF8044B7047114C2168A1B111490F
:1058940043610B68086083615861EEE70E4C216830
:1058A40081B10E4943610B680860836158610C4BF8
:1058B4004FF080511960E0E7064B4161816120603F
:1058C4001860DAE7054B4161816120601860EEE7FA
:1058D400E08E0020EC8E0020E88E0020E48E002074
:1058E40004ED00E070B5EFF3108172B60C4C236840
:1058F4008BB10C4E00255A6922607AB1956101B9C9
:1059040062B65D7718469B689847EFF3108172B6CC
:105914002368002BEFD101B962B670BD3260EEE7A7
:10592400E88E0020E48E0020FFF7DCBF044A054B1C
:105934001168054A1960136801331360704700BF8A
:10594400041000E09097002094970020B0F84630AF
:10595400B0F848209BB292B2934202D2501EC01AB1
:105964007047406B01381044C01A704772B6B0F8E3
:105974004A30B0F84C2099B293B2994201D2826B6A
:1059840011440269CB1AD06AC0F30260184462B6AB
:10599400704700BFB0F84A20B0F84C3092B29BB2C6
:1059A4009A4270B428D00133846BA34217D2016B9E
:1059B4009EB28B4218D2016AC95CC9B2856DA0F847
:1059C4004C60B5B19A4238BF1219D31AC26B9342D4
:1059D4000FD8C36D0846C5F8883070BC70470026E0
:1059E400016B33468B42E6D3591A456A695CC9B2E6
:1059F400E4E7084670BC704772B6B0F84A1089B242
:105A04008A4202D062B60A46CDE70369DA6A12F026
:105A1400E06F04D0D869C0F3090062B6DDE74FF047
:105A2400FF30FAE790F8443043B110B5044602F071
:105A3400CDFB94F84430002BF9D110BD704700BF62
:105A4400B0F84A20B0F84C3092B29BB29A4210D0CF
:105A54000133816B026B8B4228BF0023934204D332
:105A64009B1A426AD05CC0B27047026AD05CC0B272
:105A7400704772B6B0F84A1089B28A4201D062B651
:105A8400E6E70369DA6A12F0E06F11D0DB690021FE
:105A9400026AC3F3090310B40124A0F84A40A0F831
:105AA4004C10D9B2517062B618465DF8044B704779
:105AB4004FF0FF3362B61846704700BFEFF3138010
:105AC400B8B9EFF310834BB9EFF305823AB94FF449
:105AD4008073EFF3118050B1984208D270470F2AB7
:105AE400F7D9054BD35CEFF311800028F4D11846A5
:105AF40070474FF0FF30F1E7F0E300E007EE901A53
:105B04009FEDA47A0421B6EE005AF8EE677A9FED71
:105B1400A26A2DE9F043C7EE275A0E46012541F645
:105B2400FF741DE0A342A8BF234607EE903AF8EEA7
:105B3400E76A76EEC76AC6EE877AF5EEC07AF1EECA
:105B440010FA48BFF1EE677AF4EEC67AF1EE10FA75
:105B540003D8B0EE676A0E461D460131212911D0E3
:105B640007EE901AF8EEE77A85EEA77A77EE057AD3
:105B7400FDEEE77A17EE903A002BD3DCF7EE006ADD
:105B84000123D6E70021436902F40074D0F8389069
:105B9400B3F85C70B3F85E808C42A0F84A10C7EB8F
:105BA4000907A0F84C1008BF8C46A0F8461018BF8F
:105BB4004FF0010CA0F8481080F84410D3F810E01E
:105BC4005969DEF80040C76344EA0104C8EB0901DF
:105BD4000164CEF8004080F81AC040F0CE80047E04
:105BE4006E4903EB04146E4F247E01EB0414A46885
:105BF4002760047E03EB0414277ED4F81CE001EB39
:105C040007146468C4F800E0047E03EB0414276AF4
:105C14000FB1646A3C60447ED92703EB041494F802
:105C2400384001EB0414A4682760447E03EB041499
:105C340094F83870E46B01EB071149680C60417EFD
:105C440003EB01110C6C0CB1496C2160711E5C7882
:105C54005F68082E4FEA01614FF00006D8BF4FF489
:105C6400003E04F1100401F0F853C8BFB6460169C0
:105C74001D434C4B4EEA05050D61CE6043F824707C
:105C84004369012448495D7893F85A30474E6B5470
:105C9400456901696B7803F01F075B11BC4046F846
:105CA40023408B6A9B0803F01C030F2B60D85B1006
:105CB40003F00303DCB28B6A9B0003F01C030F2B7D
:105CC40053D8DB0303F44033234302F00304CB62D1
:105CD4008B6A43F088038B6253074BD444F47013EC
:105CE40002F00F04042C847E08BF43F0804397061F
:105CF40048BF43F080530CB143F0A00316078B61F7
:105D040003D50B6943F000530B614B69D40623F0B0
:105D1400805348BF43F080534B61D30503D50B69CF
:105D240043F400530B61EB681B78E3B9204E3578DC
:105D340065B3204C2368834226D0691E2346C9B22A
:105D440004EB810103E053F8042F90421AD08B42F4
:105D5400F9D16B1CDBB2184A3370137844F8250070
:105D640043F002031370BDE8F0834FF44033ABE714
:105D74000324A0E7114B2343B2E7447E4FF2D90733
:105D840006494AE7BDE8F083BDE8F0830123094CE6
:105D9400E1E700BF001BB74BEC78AD602440002066
:105DA40038F001000078002000E400E000E100E0A9
:105DB400A7970020F08E00202975002010003C00D9
:105DC400F8B5036D04460E4613B1426DC3F8842042
:105DD400A37E33B172B62269936943F00053936191
:105DE40062B6B4F84650636BADB201359D4249D2F8
:105DF400AFB2B4F848309BB2AB4220D1FFF75EFE9D
:105E04006369B3F85A3098422DDC21694B691B024F
:105E1400EFD5B4F84830626B9BB20133934227D27A
:105E2400E26A98B2934228D2E269D35CDBB2CB61D6
:105E3400A4F84800B4F848309BB2AB42DED0E36A21
:105E44009D4222D3ED1AF6B2A36A5E5572B60120C2
:105E5400226984F84400A4F84670936943F400036B
:105E6400936162B6F8BDFF28C3DD02F0AFF9C0E765
:105E74000020E26A03469342D6D39B1AA26AD35CFB
:105E8400DBB2D4E700273D46B3E7F6B2E3695E55DB
:105E9400DCE700BFFFF794BF0269536913F4401FA6
:105EA400F0B542D0D36AC3F30265002D3AD0B0F8FE
:105EB4004A70B0F84CE0BFB21FFA8EFE06E0026AE8
:105EC400D65402696B1E13F0FF051AD0D1697B1CEE
:105ED400866BB0F84C40C1F30901B34228BF0023DC
:105EE400A4B2A342EED0026BCEB21F469342A3EB00
:105EF4000204E4D3436A1E556B1E026913F0FF05C6
:105F0400E4D1BBB2816DA0F84A3059B1774573D260
:105F1400836BCEEB03031F44036C9F4202D3C36D18
:105F2400C1F884305369DC0255D4D2F818E01EF469
:105F3400000F02D0536919021CD41EF4800F48D0FC
:105F440053695B0246D50021036D80F8441013B1F8
:105F5400416DC3F88810837E3BB172B602699369C0
:105F640023F00053936162B60269936923F48003BA
:105F74009361F0BDB0F84650B0F84830ADB29BB272
:105F84009D422DD0466BC46A0AE0C169C95CC9B29E
:105F9400D161D16AC1F30221032912D8AB421FD0C7
:105FA40001339E4298BF0023A342A3EB0401ECD328
:105FB400876A795CC9B2D161D16AC1F3022103292C
:105FC400ECD999B2AB42A0F848100CD01EF4800F63
:105FD400B6D1F0BDF0BD536943F480135361A4E717
:105FE400ADB2A0F84850936923F400039361936918
:105FF40043F480039361A0E7CEEB07078CE700BF6F
:106004000148FFF749BF00BFC46B00200148FFF7F8
:1060140043BF00BF246C0020F8B50E4671B17AB1BD
:106024000746144600253B68384616F8011B1B68D2
:106034009847013C0544F6D12846F8BD0846F8BD0A
:106044001046F8BD2DE9F0438C688BB0ECB1002507
:10605400064689462F462B46212201A9484600F0D0
:1060640089F9202C2346306828BF202301A9D0F8C1
:1060740004803046E41A1A461D44C0470744002CE5
:10608400E9D138460BB0BDE8F0832746F9E700BFF5
:1060940010B5064C82B003680222248801A95B680B
:1060A400ADF80440984702B010BD00BF08050020B9
:1060B400036810B514465B689847204610BD00BFBE
:1060C400F0B506468BB0002A33D0012A08BF0A2255
:1060D40051B3212500E0FDB26F1EB1FBF2F402FBC7
:1060E4001411C8B2092900F1370100F1300088BF4A
:1060F400C8B221460AAC98BFC0B22C4404F8240CA0
:106104000029E8D133B1013D0AAB2D22EDB22B4475
:1061140003F8242C336801A9C5F12202304629442E
:106124005B6898470BB0F0BD302221258DF82520FF
:10613400E8E70368C9B21B6898470BB0F0BD00BF1D
:10614400002903DB00230A22FFF7BABF49422D23AB
:106154000A22FFF7B5BF00BFB4EE400B70B5F1EEF5
:1061640010FA05462DED028B86B080F19180B0EED9
:10617400C07B9FED4B6BB4EE467BF1EE10FA0ADD6B
:10618400036803224E495B6898470646304606B0CA
:10619400BDEC028B70BD9FED447BB4EEC70BF1EEFA
:1061A40010FA58DC9FED427BB4EEC70BF1EE10FA07
:1061B40051D4B5EEC00B0C46F1EE10FA56D40023C0
:1061C400002C57D0B6EE008B00229FED3B7B0132B2
:1061D40028EE078BD1B28C42F9D830EE080B0A2294
:1061E4002846FCEEC07BB8EE678B17EE901A30EEB3
:1061F400488BFFF765FF0F2C4FF00102B2EE047BD2
:106204004FF02E0328BF0F2406468DF8083014449F
:10621400E4B228EE070B531C06A91144DAB2A242D9
:10622400FCEEC06BCDED016A9DF8043006EE903AA9
:1062340003F13003B8EEE68B01F8103C30EE488BE6
:10624400E7D12B68284602A95B689847304606B018
:10625400BDEC028B70BD2B6803221A495B6898471A
:106264000646304606B0BDEC028B70BDB1EE400B65
:106274000123A5E7B6EE007B28460A2230EE070B81
:10628400FCEEC07B17EE901AFFF71AFF06467DE777
:10629400036803220C495B689847064676E700BF0B
:1062A400FFFFFFFFFFFFEF7F000000E0FFFFEF4174
:1062B400000000E0FFFFEFC1000000A09999B93F82
:1062C40014470020104700200C47002010B5044656
:1062D400006831F005F8204610BD00BF38B54368AA
:1062E4008B4201D3012038BD0D46044601310068BC
:1062F40031F0B0FC0028F6D0A36884E82100002B1C
:10630400F0D10370EEE700BFF8B50446154632B984
:10631400036803B11A700023A3602046F8BD0E463B
:106324001146FFF7DBFF074648B9206810B130F08B
:10633400D7FF2760002320466360A360F8BDA560F3
:106344003146206832F04CF9E7E700BF38B5002346
:106354000446036043608360037341B10D460846FD
:1063640033F01EFA024629462046FFF7CDFF2046A9
:1063740038BD00BFBAB170B5B1FA81F464097CB913
:1063840086689E420DD9F61A013A0D460168964276
:106394002846194428BF1646324633F0BFFAAC5596
:1063A40070BD0C7070BD70472A281BD814490B7837
:1063B4004BB1144A936C1B06FCD4134A936C13F030
:1063C4008003FBD10B70114B1B5CFF2B0AD01A0608
:1063D4000AD40C4A114613600B6A0A4AD807FBD543
:1063E400506A704700207047074A03F07F03114644
:1063F40013600B6A044ADB07FBD5506A704700BF81
:10640400AA97002000400C4000800C405844002013
:10641400964A974B90422DE9F043964CD3F814E0FA
:106424009969E6681CD9944B984240F21581934BC4
:1064340040F22765924F0344924C1A0AA7FB02329A
:10644400D30903EB830303EB830202F2E243AB427F
:1064540028BF2B46A3F54873A4FB0335ED0804E0DD
:10646400894DA84294BF06250E25814A06F01F07D0
:10647400D2F88030AF4243F0C003C2F880300AD271
:106484007C4B26F01F061A462E43DE601368002B51
:10649400FCDA06F01F071EF0007331D17B4C7C4AF6
:1064A400D4F810C014460CEA0202A2420ABF4FF00C
:1064B400C0534FF4805200228EEA030414F0605F4C
:1064C40008D02EF0605E03F06053694C43EA0E0E70
:1064D400C4F814E081EA020313F4405F08D0644B6B
:1064E40021F4405111431A469961936C1C07FCD462
:1064F4004EF0007E5E4AC2F814E0936C9906FCD418
:106504000121644C0A4601FB02F300FB03F3A3429E
:1065140009D8072A00F29580013201FB02F300FB3F
:1065240003F3A342F5D95C485C4C1844A4FB000374
:106534001B0D6C2B00F28B80352B00F28F80DFF863
:10654400888136235648DFF844C1564CDCF8009065
:10655400B0FBF2F009EA04044445B0FBF1F00BD0BF
:1065640043F400534FF480586446CCF80080CCF8D0
:1065740000302368002BFCDADFF8F4C0013ADCF8C1
:10658400103003F00703934207D002F00702644679
:10659400CCF81020A36CDB03FCD4013989028EEA09
:1065A400010313F4E05F0CD0314B2EF4E05E01F4F0
:1065B400E0511A4641EA0E0EC3F814E0936C9907B1
:1065C400FCD4394B39490344DB09A1FB0331090BE2
:1065D400042928BF04214B1E1B028EEA030212F475
:1065E400407F07D02EF4407E03F44073204A43EAF0
:1065F4000E0353611E4B5C691A4624F000745C61FF
:10660400936C9B06FCD42A4B4FF0FF32294CBD42BD
:10661400A3FB00E320604FEA9343274CB2FBF3F360
:10662400B0FBF1F1254A2160136008D2114B26F02A
:106634001F061A462E43DE601368002BFCDABDE801
:10664400F08304293FF66FAF013101225BE7DFF8E5
:106654007C806C231A4876E7122506E71948DFF890
:10666400708000FB03F043EA08086CE700A4781F7D
:1066740000C00F40000008400046C32300BA3CDCC1
:1066840023B24C001F85EB5100366E0100800D4093
:1066940040300080FFB19F26808D5B00819F5E1695
:1066A40000B29F267F3001807FD1F0089F10E50063
:1066B40083DE1B43606B00205C6B00208C97002002
:1066C40000643F4D001BB700362000806C20008022
:1066D40000200080002857D001222DE9F04F85B01A
:1066E40083462A4C2A4D2B4EDDE9028954E8003FAB
:1066F4002868336844E800210029F7D1264FCDE902
:1067040002893A68D31A254A4FF47A7E01971268AF
:106714000127A3FB02234FF47A72984600238B428D
:1067240008BF42452CBFC246F2460EFB00AA54E8FD
:10673400003F2A68316844E80073002BF7D10198C0
:106744000068411A15484FF47A7E00680EFB02F285
:10675400A1FB00014FF47A70CAEB020288460021C3
:10676400994208BF40452CBF434673461A447245BC
:1067740007D3BBF1010B0AF57A7AD8D105B0BDE88D
:10678400F08F01F023FDD2E7704700BF009800208E
:106794009497002090970020041000E08C9700202C
:1067A40000010F4B1A181B5810B4D0685C680442DF
:1067B40005D059B1C3F884005DF8044B7047936861
:1067C40049B9084A5DF8044B1A607047C3F8880059
:1067D4005DF8044B7047044A5DF8044B1A60704737
:1067E400244000203830010038F001000001054B3E
:1067F4001A5819189268CB681A4214BF0120002055
:10680400704700BF24400020362801D8FFF7C8BFD6
:10681400704700BF362801D8FFF7E8BF0020704753
:1068240036281CD800011A4A012902EB000310582B
:1068340010B415D0042913D0DC68426822EA04029B
:1068440042609A68E9B102291ED003295B685DF8A9
:10685400044B0CBF0F491049116015221A60704790
:10686400DA680129446842EA040242609A6808D05E
:1068740040F6380111605B6815225DF8044B1A601C
:10688400704738211160F6E704491160F3E700BF4F
:1068940024400020383001003800010038F00100A5
:1068A40008B5FDF771FCFDF769FD01F08FFCFAE70F
:1068B400844641EA000313F003036DD1403A41D307
:1068C40051F8043B40F8043B51F8043B40F8043BC6
:1068D40051F8043B40F8043B51F8043B40F8043BB6
:1068E40051F8043B40F8043B51F8043B40F8043BA6
:1068F40051F8043B40F8043B51F8043B40F8043B96
:1069040051F8043B40F8043B51F8043B40F8043B85
:1069140051F8043B40F8043B51F8043B40F8043B75
:1069240051F8043B40F8043B51F8043B40F8043B65
:1069340051F8043B40F8043B51F8043B40F8043B55
:10694400403ABDD2303211D351F8043B40F8043BF5
:1069540051F8043B40F8043B51F8043B40F8043B35
:1069640051F8043B40F8043B103AEDD20C3205D305
:1069740051F8043B40F8043B043AF9D2043208D0FD
:10698400D2071CBF11F8013B00F8013B01D30B886F
:1069940003806046704700BF082A13D38B078DD04D
:1069A40010F003038AD0C3F10403D21ADB071CBF1F
:1069B40011F8013B00F8013B80D331F8023B20F889
:1069C400023B7BE7043AD9D3013A11F8013B00F8C2
:1069D400013BF9D20B7803704B7843708B7883704A
:1069E4006046704730F074BC30F072BC30F078BC54
:1069F40030F076BC30F074BCF0B44E1E002537463F
:106A040000E00135B0FBF2F302FB130000F13704A0
:106A1400092800F13000E4B298BFC4B2184607F860
:106A2400014F002BEDD14A1953704DB1013316F8C3
:106A3400014F1778E81A3770834202F80149F5DBF1
:106A44000846F0BC704700BFF0B501EB4106294C85
:106A5400012500EB461694F800C005FA01F1F4890B
:106A64001FFA81FEB0F88851A4B24FEA0E1704FB56
:106A74000333ADB207F0F00723FA0CF33D43A3420E
:106A8400A0F8885128BF2346012A22D015D3022A10
:106A940008D001F00F01B0F888319BB21943A0F877
:106AA4008811F0BD9BB201F00F01F383B0F880317F
:106AB4009BB21F43A0F88071EDE7E31A01F00F01C8
:106AC4009BB27381B0F880319BB20B43A0F8803144
:106AD400E1E79BB201F00F014FEA0E2EF382B0F80A
:106AE40080310EF4706E9BB24EEA030EA0F880E182
:106AF400D1E700BF2875002036280CD8294AF8B5FC
:106B0400044600B212F8206002EB8005012E03D087
:106B1400022E16D0F8BD70476A78C2F30113032B16
:106B24003AD0214850F823008BB202F00301AA782E
:106B3400FFF78AFF1D48EA7800EB041043681A60E7
:106B4400F8BD6E78C6F30113032B27D0184A52F808
:106B540023E006F00306174B89B20EEB461793F8B1
:106B640000C07601FA880EEB0603764492B2188AC6
:106B7400C2F1011212FA80F2501E00FB01F323FA53
:106B84000CF3984298BF931ED21A9BB2C2F1010231
:106B940092B2FA803382CDE70748C5E7DFF81CE0FC
:106BA400D7E700BF84440020440C00202440002088
:106BB400500C00202875002000803E4000801E40BC
:106BC400A4484FF00F0CA44B826F42F47F02F0B53F
:106BD40082670025D0F880204FF470469F4C4FF414
:106BE400604E29464FF4806714432A46C0F880401B
:106BF400A3F88C6148F2B826A3F88EC1A3F890518B
:106C0400B3F8880180B240F0F000A3F8880101EBEA
:106C14004100914B0131002540011C4604290344E5
:106C2400A3F804E0DF805A841A865A805A81DE81F0
:106C34005A82DA825A83DA83E9D1B4F888014FF0B0
