:0200000460009A
:100000004643464200000156000000000103030081
:1000100000000000000000000000000000000000E0
:1000200000000000000000000000000000000000D0
:1000300000000000000000000000000000000000C0
:1000400000000000010408000000000000000000A3
:100050000000800000000000000000000000000020
:100060000000000000000000000000000000000090
:100070000000000000000000000000000000000080
:10008000EB04180A063204260000000000000000FD
:10009000050404240000000000000000000000002F
:1000A0000000000000000000000000000000000050
:1000B0000604000000000000000000000000000036
:1000C0000000000000000000000000000000000030
:1000D00020041808000000000000000000000000DC
:1000E0000000000000000000000000000000000010
:1000F0000000000000000000000000000000000000
:10010000D8041808000000000000000000000000F3
:100110000204180804200000000000000000000095
:1001200000000000000000000000000000000000CF
:10013000600400000000000000000000000000005B
:1001400000000000000000000000000000000000AF
:10015000000000000000000000000000000000009F
:10016000000000000000000000000000000000008F
:10017000000000000000000000000000000000007F
:10018000000000000000000000000000000000006F
:10019000000000000000000000000000000000005F
:1001A000000000000000000000000000000000004F
:1001B000000000000000000000000000000000003F
:1001C000000100000010000001000000000000001D
:1001D000000001000000000000000000000000001E
:1001E000000000000000000000000000000000000F
:1001F00000000000000000000000000000000000FF
:10020000FFFFFFFFFFFFFFFFFFFFFFFFFFFFFFFFFE
:10021000FFFFFFFFFFFFFFFFFFFFFFFFFFFFFFFFEE
:10100000D10020432914006000000000000000000F
:10101000201000600010006000F804600000000074
:10102000000000600004050000000000FFFFFFFF5B
:10103000FFFFFFFFFFFFFFFFFFFFFFFFFFFFFFFFC0
:10104000FFFFFFFFFFFFFFFFFFFFFFFFFFFFFFFFB0
:10105000FFFFFFFFFFFFFFFFFFFFFFFFFFFFFFFFA0
:10106000FFFFFFFFFFFFFFFFFFFFFFFFFFFFFFFF90
:10140000884207D0904205D251F8043B40F8043B93
:101410008242F9D8704700BF884204D2002340F8C6
:10142000043B8142FBD87047664B4FF42A01664A61
:1014300066482DE9F0475A641864654A99639546F1
:10144000BFF34F8FBFF36F8F00F09AF9614B082005
:10145000614A6249C3F854016148FFF7D1FF614A0C
:1014600061496248FFF7CCFF61496248FFF7D4FF4A
:10147000614C62494FF470000023614A086044F8EF
:1014800023200133B02BFAD15E4B80215E4A03F852
:10149000011B9342FBD14F4D4FF080385B494FF019
:1014A000FF325B4B0026DFF8A4A1DFF8A4911C609B
:1014B000C5F80481C5F800A1C5F8F480C5F8F0901E
:1014C0000B68544F43F4E0230B60FB693D4923F064
:1014D0007F0343F04003FB617B6A23F07F0343F00B
:1014E00040037B628A66CA660A674A6700F04EF963
:1014F000494A4A4B6320A2630321E363484A494BAC
:10150000106000F160401E6042F8041C00F6A170FB
:101510004549464AC3F8082D0B68454A43F0807395
:101520000B601368434943F00103136003680B60C9
:1015300000F07CFBC5F804813F48C5F800A1C5F860
:10154000F480C5F8F09000F0D7FCF96E3B4A41F406
:1015500040513B4BF9661660C2F80861C2F8186149
:10156000C2F82861C2F838619A6BD20708D442F6F3
:101570001562344959651A659A6B42F001029A6303
:101580002F4A314C936843F00113936000F070F9D7
:1015900000F0CAF800F0CCFC00F07AFB00F0F2F8A2
:1015A0002368132BFCD900F001FC2368B3F5967F68
:1015B000FBD300F0E9F800F0B7FC00F0A1FC30BF6D
:1015C000FDE700BF00C00A40FFFFABAA07002000F4
:1015D0000080032000800D40103B040024210060A7
:1015E00000000000C07A0020FA7B046000000020A8
:1015F000E0980020C07A00200078002088ED00E00C
:101600000553000000E400E0A0E400E024ED00E069
:1016100008ED00E000C00F40D13E0000D53E0000C4
:1016200014E000E018E000E0FCED00E00000202005
:10163000001000E0109800200046C323004008403E
:1016400000400D400000C056149800201B101820C8
:101650000C0D11132DE9F0412F4F00254269012493
:10166000B96B4FF0020E16684FF4303821F47C014C
:101670000369DFF8B0C041F48021B963316857686D
:10168000394331604FF00111244EC3F810E01D6161
:10169000C3F848C05C629E624FF66106C3F82C80B6
:1016A0009F6C1F651D6299651C61017E1C4B02EBDE
:1016B0000111097A03EB011189680E60017E02EBCA
:1016C00001110C7ACD6803EB041149680D60017EAD
:1016D00002EB01110C690CB149692160417E4FF6A2
:1016E000610402EB011191F8281003EB01118968E4
:1016F0000C60417E02EB011191F82840C96A03EBAE
:1017000004135B681960437E02EB0312136B0BB189
:10171000526B1A60BDE8F08100C00F40B80B0505A0
:10172000244000203B372819114B1249D86E0A4635
:1017300040F4403030B4D86640F23765D86EA0240B
:1017400040F44070D8664D648C64936C1B06FCD4E6
:10175000094B40F23760A0211A4658649964936C93
:1017600013F08003FBD1054A137030BC704700BFF3
:1017700000C00F4000400C4000800C402A98002020
:10178000704700BF704700BF704700BFF0B5244AE4
:101790000020244B4FF0100C234C1126DFF8C8E03A
:1017A000122720600125C2F800C0C3F800E01660CF
:1017B000DFF8B8E01D4EC3F800E01D4917601E6059
:1017C00041F015011B4F1C4E17601E601B4F1C4E35
:1017D00017601E601B4F11601B4E1C491F60166076
:1017E0001B4F19601B4E1C4917601E601B4F116078
:1017F0001B4E1C491F60166019602560BFF34F8F98
:10180000BFF36F8FC3F8B001BFF34F8FBFF36F8F7C
:1018100052F8883C43F4403342F8883CF0BD00BFA6
:101820009CED00E0A0ED00E094ED00E00900100068
:10183000E09800201300200021000207140000207F
:1018400025000813090000101600202027000B13A4
:101850001700004033001013180000602F000B0722
:10186000190000702F000B133F0000102500080323
:10187000F0B58D4B18228D4E01208D4948F20C7E1B
:101880008C4D4FF0FF378C4C83B0C3F85C12C3F81B
:1018900060520025C3F86412C3F868424FF4005444
:1018A000C3F86C628549C3F87062C3F87462C3F808
:1018B0007862834EDA661A675A679A67DA67C3F8FE
:1018C0008020C3F88420C3F8882040F20562C1F864
:1018D0002C03C1F83003C1F83403C1F83803C1F850
:1018E0003C03C1F850032946B36976481840764B4B
:1018F00003437648B361D6F8843043F00C03C6F84E
:1019000084300226036833430360036803EA0E0E43
:101910006F4B4EEA0303DFF8F0E103606D4B476065
:10192000DEF808703B406C4F43F000538360C3689F
:1019300023F07803C360036A1F40684B3B43664F44
:101940000362036A1F40654B3B43654F43628762F6
:10195000C762DEF8B830634F23F03F0343F0010362
:10196000C0F8B830DEF8BC30DFF884E123F03F0384
:1019700043F00103C0F8BC30056104660767C0F896
:10198000802044664767C0F884200468564B24F0E2
:101990000204564A0460C0F818E0C66143F8041B0C
:1019A0009342FBD1494B1A68194642F001021A6072
:1019B0000B68464A13F00103FAD14D4E022540F25E
:1019C000F56440F2664040F299414A4F966142F216
:1019D0000146D56140F23545C2F8004242F2012489
:1019E000C2F810020120C2F820121146C2F830726B
:1019F00007F15A47C2F8346207F51377C2F840522C
:101A00003D4E3E4DC2F85072C2F85462C2F8605268
:101A1000C2F86442C2F8A030C2F8A430C2F8B000E4
:101A20004B692A4ADD07FBD5012300244FF480309F
:101A300011465361C2F8A040C2F8A400C2F8B03009
:101A40004B69224ADC07FBD5012300244FF4003008
:101A500011465361C2F8A040C2F8A400C2F8B030E9
:101A60004B691A4AD807FBD50123002424481146A4
:101A70005361C2F8A040C2F8A400C2F8B0304B696C
:101A8000124ADB07FBD5D2F8003145F60D51212073
:101A90009BB250618B4239D01A4B00221A605A60B7
:101AA0009A60DA6003B0F0BD00801F40F970010059
:101AB000F9B00100F9100100F900010000841F4095
:101AC00000C00F40FFFCFF1F000300A000402A40A1
:101AD0001200FFFFFF37F70000FFF07C400000809E
:101AE000FF000F836300020000422A4000432A40A7
:101AF000F05AF05A9F041830063201263806180AA8
:101B0000040003008498002000802A4000244FF441
:101B1000802001231146C2F8A040C2F8A400C2F8F8
:101B2000B0304B693B4ADF07FBD501234FF400047B
:101B3000002011465361C2F8A040C2F8A400C2F8C8
:101B4000B0304B69334ADE07FBD501234FF4000464
:101B50004FF4803011465361C2F8A040C2F8A4008F
:101B6000C2F8B0304B692B4ADD07FBD501234FF497
:101B700000044FF4003011465361C2F8A040C2F88F
:101B8000A400C2F8B0304B69224ADC07FBD5012320
:101B90004FF40004204811465361C2F8A040C2F837
:101BA000A400C2F8B0304B691A4AD807FBD5D2F866
:101BB000003145F60D5121209BB250618B4210D06F
:101BC000164B08224FF400041A7015490020154ADC
:101BD00001230090521A1448224400F09DF903B0EA
:101BE000F0BD4FF400044FF4802101231046C2F8E9
:101BF000A040C2F8A410C2F8B03043690549DB0721
:101C0000FBD50120054B10224FF0807448611A70FB
:101C1000DBE700BF00402A40040003002B980020AF
:101C2000000000700000007084980020F0B4174A93
:101C300040274FF480314FF480564FF400554FF455
:101C4000404443F24200136913F0020F06D094613E
:101C500051619061136913F0020FF8D113F4005F22
:101C600001D15561EFE713F4805F01D15661EAE7D6
:101C7000002BE8DA13F4803F01D09161E3E75B06C3
:101C800001D45761DFE7F0BC704700BF00800D4012
:101C9000394A03203949F3EE095A13689FED386A2F
:101CA00023F00103DFED376AF0B413600024106104
:101CB000D1F8E030344FD8B2C3F30B211B0D334EB3
:101CC00007EE100A05EE101A07EE903A304BB8EE08
:101CD000C55A304DB8EEC77A3060F8EEE77A296021
:101CE0002D4937EE466A2D4E77EEC57A2C4877EEB1
:101CF000666A2C4D37EE657A26EE276AC7ED007AC4
:101D000066EEA76A176867EE277A83ED007AC6EE5B
:101D1000075A86EE876AC7EE876A35EE857AFCEE4B
:101D2000C77A36EE057A17EE903ABCEEC77A47EAE4
:101D3000035376EE857A136017EE103AD2F81071DD
:101D4000FCEEE77A01EA0341394317EE903AC2F814
:101D50001011C3F30B03D2F810110B43C2F810316A
:101D6000136843F0020313603470C0F840510E4B07
:101D70000122F0BC1A60704780810D4000441F4072
:101D80000000AA420000B4420898002000980020F9
:101D900004980020FC9700200000FF0F40E400E0C2
:101DA000007800200555000008E100E0304B40F6C7
:101DB000617270B5C3F8202140F2044500F0A8F824
:101DC0002C492D48D1F880202C4C42F003022C4B9A
:101DD000C1F88020C0F86051226813401BB9D0F8C8
:101DE000A8319A071AD0244B4FF00041234A51637F
:101DF0001A46D3F8401141F00201C3F84011D2F85D
:101E000040319B07FBD44FF400301E491B4B4FF071
:101E10000042086019209A6300F076F81A4D0022FB
:101E2000164B4FF08041144C0A26996328461A60DD
:101E30001146C4F8A8614FF4207200F071F84FF415
:101E4000810640F243114FF48000104B104A2E607F
:101E50002864C4F85851C4F84811C3F804220D4A44
:101E60004FF4003101231160C4F8403170BD00BF50
:101E700000800D4000C00F4000002E4000900D403B
:101E8000001C1E008CE200E0000000200078002012
:101E9000D15600000CE100E008B50E4B1B6E9B070D
:101EA00000D4FBBE72B60C4B00200C4AC3F84001B4
:101EB00003F160430A49A3F55F2311649D46BFF314
:101EC0004F8F084A03F5E043074912681846196026
:101ED0009368984700441F4000002E4000C00A400D
:101EE000030020001C002000000012EBF8B500BF2A
:101EF000F8BC08BC9E4670475FF800F095480000AB
:101F00005FF800F0254D00005FF800F0594B00002D
:101F10005FF800F0715E00005FF800F0C567000038
:101F20005FF800F09D5F03005FF800F07954030054
:101F30005FF800F045500000450000006903000014
:101F400029090000112A0000A53300006DF40000EB
:101F50001977010019920100D9A60100111D020094
:041F6000E55D020039
:101F640080C00F40000000031900000010000000B2
:101F7400E8841F4001000000FF000000FF00000093
:101F84000000000000000000180000001000000025
:101F9400E4841F4001000000FF000000FF00000077
:101FA40000000000000000001F00000070C00F408F
:101FB400000C00001100000011000000E0841F402C
:101FC400020000002C00000012000000E0841F400A
:101FD400010000001000000011000000DC841F401C
:101FE400020000002D00000012000000DC841F40ED
:101FF400010000001E00000070C00F40C00000007F
:102004001200000013000000D0841F4001000000F3
:10201400FF000000FF0000000000000000000000BE
:102024001300000013000000CC841F4001000000D6
:10203400FF000000FF00000000000000000000009E
:102044001C0000000101000016035500530042006B
:102054002000530065007200690061006C000000FC
:1020640018035400650065006E0073007900640075
:10207400750069006E006F000403090409024B0037
:10208400020100C032080B00020202010009040030
:1020940000010202010005240010010524010101D0
:1020A400042402060524060001070582031000101B
:1020B40009040100020A00000007050302400000B1
:1020C400070584024000000009024B00020100C021
:1020D40032080B000202020100090400000102029E
:1020E4000100052400100105240101010424020655
:1020F40005240600010705820310000509040100F8
:10210400020A00000007050302000200070584021A
:10211400000200000A060002EF0201400100010073
:1021240000000000000000000000000000000000AB
:10213400000000000000000000000000000000009B
:1021440010B5054C237833B9044B13B10448AFF3ED
:1021540000800123237010BDC87F00200000000010
:1021640064290400084B10B51BB108490848AFF3B3
:1021740000800848036803B910BD074B002BFBD04F
:10218400BDE81040184700BF00000000CC7F0020CD
:1021940064290400C07A002000000000884235D081
:1021A400031D994232D02DE9F04781468A461846EC
:1021B400C8460746D9F8003057F8046B9E4216DB30
:1021C400D8F8003042469E421EDA3C4600E02A46D9
:1021D40044F8043D151F52F8043C9E42F7DB166098
:1021E400BA45384608F10408E3D1BDE8F087C9EBE5
:1021F4000002930805D0C2F104034946184435F09F
:10220400F9FEC9F80060EBE70246E8E7704700BF53
:10221400F8B50B1A432B21DD00F140040F460646A6
:102224002146FFF7BBFFA74217D021463C3608469C
:10223400324651F8045B56F8043B9D4212DA0846D4
:1022440000E0224640F8043D141F52F8043C9D422D
:10225400F7DB8F421560EAD1F8BDF8BDBDE8F84060
:10226400FFF79CBF02468F421560E0D1F4E700BF40
:10227400F0B500F14001044683B000250026002794
:10228400104B2A46C5633830057201602946009513
:10229400C4E90467C4E9026717F0F8FC502004F0AD
:1022A40075FE2060502004F071FE2063502004F07D
:1022B4006DFE6060502004F069FE60632046656531
:1022C40003B0F0BDBC4600202DE9F041B2F1010895
:1022D40054BFC44694464FEA6C0C614548DA8E46B6
:1022E4000EF101046FF04046650050F8347000EBC5
:1022F400C4042E4450F82660B74204DA013D00EBD2
:10230400850450F82570654540F82E70AE46E7DB2D
:10231400D60705D4023A48BF4246B5EB620F1BD03C
:102324008D4216DD6A1E48BF2A46521050F82260BC
:10233400B3420EDD914240F8256000EB820415465D
:1023440007DA561E48BF1646721050F82260B34290
:10235400F0DC2360BDE8F08101356FF040426D0090
:102364002A44013D50F82220226000EB8504D7E77F
:10237400D50700EB8104ECD40D46CBE70B1A432BB5
:1023840040F381808C462DE9F043064683B09146A4
:10239400002A50D000F1040800F10807DB1070682F
:1023A40009F1FF395CF8041C56F8232090422FDA17
:1023B4008A4231DB884238DA326831604CF8042CC6
:1023C40096E803004446BE466346884225460EDC32
:1023D4008242A3F1040303DD53F8042D8242FBDCA3
:1023E400A34208D92260196053F8042C30680434DD
:1023F4005EF8041BE9E761464A462046FFF7BEFF44
:10240400A31B432B3CDDB9F1000F15D0A446C5E74F
:1024140088420ADB8A42CFDB3168326046F82310F7
:102424005CF8042C96E80300CCE7316886E80300E6
:102434005CF8042CC6E70D469C10A71E7F1006EB23
:10244400870800E0013F4FF0000058F804392246A5
:1024540039468DF800003046FFF736FF002FF1D1E2
:1024640055F8043D4FF0000732680021AC1B30469C
:102474002A60A2108DF80070FFF726FF072CEFDC0E
:1024840003B0BDE8F083704710B5054C204606F054
:1024940097FC2046034A0449BDE8104006F06ABA96
:1024A4000C970020986B0020BD6C00000000000019
:1024B4002DE9F043044683B0454803F0BBFD0028F2
:1024C40057DD002604F140091BE0A36BD4F83C80DF
:1024D4004B4508F1010714BF226C0F22974209D91A
:1024E40000230122414604F1380000921A4617F0F5
:1024F40087FAA36B03F808500022A36BE763DA554D
:102504000136334803F096FD864232DA304803F050
:10251400A5FDC5B2612D84F8505019D07C2DD4D1BD
:10252400676D5FB3012F3BD0022FCED1A06B00218A
:1025340038F06AFC636D0021E26B581C254B009156
:10254400606504F1380084ED080B17F09FFBD7E7B2
:10255400A06B002138F058FC0023E26B04F1380032
:102564006365194600931B4B84ED060B17F08EFB35
:10257400C6E79FED150B03B0BDE8F0833946A06BA9
:1025840038F042FC636DE26B3946581C0097114BDE
:10259400606504F1380084ED040B17F077FBAFE7B6
:1025A400A06B002138F030FC636D0021E26B581CF5
:1025B400084B0091606504F1380084ED020B17F0BC
:1025C40065FB9DE7AFF30080000000000000000001
:1025D400046C0020BC46002070B5044600252DED97
:1025E400028B2046FFF764FF2668216B626B6368E9
:1025F40094ED044B94ED025B94ED066BBDEEC44B7D
:10260400BDEEC55BBDEEC66B14EE100A94ED087BFF
:10261400705115EE100ABDEEC77B485116EE101A24
:10262400515117EE102A5A510435502DD9D106F1C3
:10263400500508223046B6EE008A2946FFF79EFE72
:1026440029463046FFF7E4FD22680D214848556AC3
:10265400936AEB1807EE103AB8EEC77A27EE087AB9
:10266400B7EEC77A84ED047B05F0FCFF02214148F4
:1026740094ED040B04F0B0F83E4804F047F86568A4
:10268400082205F1500628463146FFF777FE314609
:102694002846FFF7BDFD62680B213748556A936AE7
:1026A400EB1807EE103AB8EEC77A27EE087AB7EEC1
:1026B400C77A84ED087B05F0D5FF02212D4894EDFF
:1026C400080B04F089F82B4804F020F8256B082245
:1026D40005F1500628463146FFF750FE314628469C
:1026E400FFF796FD226B0C212448556A936AEB1878
:1026F40007EE103AB8EEC77A27EE087AB7EEC77A33
:1027040084ED027B05F0AEFF02211A4894ED020B22
:1027140004F062F8174803F0F9FF656B082205F12D
:10272400500628463146FFF729FE28463146FFF772
:102734006FFD626B0B211248556A936AEB1807EE22
:10274400103AB8EEC77A27EE087AB7EEC77A84ED66
:10275400067B05F087FF0221064894ED060B04F082
:102764003BF8044803F0D2FFBDEC028B70BD00BF00
:1027740060450020F46B0020704500207C4500205B
:102784008C4500200022826642740274704700BFA8
:1027940070B52DED108B511D1E46149B044618BFB9
:1027A4001546B0EE40AB08BF03F1B405B5F5B47FF0
:1027B400C8BFA5F5B4759FED8ACB07EE905AB8EE65
:1027C400E78B20EE0C7B9FED889B87EE09BBB0EE78
:1027D4004B0B31F049FBB0EE40DB84ED060BB0EE61
:1027E4004B0B31F0F1FA28EE0C7BB0EE40BB84EDDC
:1027F400080B87EE09FBB0EE4F0B31F035FBB0EE62
:1028040040EB84ED0A0BB0EE4F0B31F0DDFAB0EE85
:10281400407B3DEE0E0B3BEE071B84ED0C7B84ED01
:10282400160B84ED181B31F06FFB20EE090B80EEC4
:102834000C7BB5EEC07BF1EE10FA00F1C3809FED86
:102844006C6B84ED007BB4EEC67BF1EE10FA72DCA7
:102854009FED696BB4EEC67BF1EE10FA6BD4637C2A
:10286400002B00F09D800022714BC4E90023002E50
:1028740040F0A4803AEE487B9FED5B6BB5EEC07BE5
:10288400F1EE10FAD8BFB1EE477BB4EEC67BF1EEA1
:1028940010FA03DD9FED5A6B36EE477B9FED526BCA
:1028A40084ED1C7BB4EEC67BF1EE10FA06DD9FEDE1
:1028B400566BB4EEC67BF1EE10FA7CD49FED4A6BF6
:1028C400B4EEC67BF1EE10FA6ED9002323740F2107
:1028D400584805F0C7FEA16E574803F06FFF5648ED
:1028E40003F014FF1021554805F0BCFE02215248A4
:1028F40094ED000B03F070FF4F4803F007FF0C2129
:102904004F4805F0AFFEB0EE4A0B02214A4803F0EF
:1029140063FF494803F0FAFE0C214A4805F0A2FE81
:102924002946454803F04AFF4348BDEC108BBDE8F7
:10293400704003F0EBBE9FED361B94ED187B94EDD5
:10294400166B9FED350B27EE017B9FED355B84ED18
:10295400101BA6EE007B84ED0E0B84ED145B87EE5A
:10296400056B84ED127B26EE000B26EE011B84ED35
:10297400160B84ED181B31F0C7FA9FED1B7B9FEDFE
:10298400186B20EE070B80EE067BB5EEC07BF1EEF4
:1029940010FA1CD484ED007B637C002B7FF463AFBE
:1029A400A36E0133A36665E79FED1F6BB4EEC67B90
:1029B400F1EE10FA89DD0123237488E700236374A0
:1029C400A36657E79FED0E6B37EE067B37E79FED67
:1029D4000C6B37EE067B84ED007BDDE7AFF3008004
:1029E40000000060FB2109400000000000806640F8
:1029F400000000000080714000000000000054400E
:102A04000000000000807640000000000080674065
:102A1400CCCE72CFA57767BEF7FFFFFFFFFFEF3F76
:102A2400FFFFFFFFFFFFEF3F000000000080654055
:102A34000080664098450020F46B0020A8450020E3
:102A4400BC450020CC45002010B5054C204606F0BE
:102A5400B7F92046034A0449BDE8104005F08ABF8F
:102A640010970020986B0020BD6C000030B4002447
:102A7400002500220121C0E90645C0E90845C160DE
:102A840082600261426130BC704700BF00000000F8
:102A9400B9EE047B10B5B4EE470B82B00446F1EEF8
:102AA40010FA8DE806005BD09FED317BB4EEC70BC6
:102AB400F1EE10FA03DD9FED307B30EE470BB2EE02
:102AC400047BB4EEC70BF1EE10FA0AD8BAEE046B2D
:102AD4009FED2B7BB4EE460BF1EE10FAA8BFB0EEDF
:102AE400470BDDED007AB8EEE77B9FED236B37EE05
:102AF400007BB4EEC67BF1EE10FA2CDCB5EEC07BA5
:102B0400F1EE10FA48BF37EE067B84ED007B9FEDB3
:102B14001E7BB4EEC70BF1EE10FA0CDD9FED1C7BAF
:102B2400B4EEC70BF1EE10FA05D5DDED017AB8EE7F
:102B3400E77B84ED007B0D21174805F093FD02210E
:102B4400164894ED000B03F047FE144802B0BDE8AC
:102B5400104003F0DBBD37EE467B84ED007BD6E707
:102B640007EE902AB8EEE77B80ED007B02B010BD43
:102B740000000000008066400000000000807640F5
:102B840000000000000000000000000000C05740EA
:102B94000000000000907040DC450020F46B002031
:102BA40010B50446E9B1012380F82C30A368EBB9D1
:102BB4002269122A4DD0112A4FD8013222610621EE
:102BC400284805F04FFD2169274803F0F7FD264802
:102BD40003F09CFDE3688BB901210A2004F0E6F8B8
:102BE4000EE090F82C30002BE0D183685A1E1D2A89
:102BF40013D80133A360E368002BEDD0012B1BD065
:102C04000C211A4805F02EFDA168174803F0D6FDE3
:102C14001548BDE8104003F079BDA3F11F0140F24F
:102C2400C93291420DD8013301201F210022A36033
:102C3400E060216184F82C2000210A2004F0B6F819
:102C4400DEE7B3F57A7F4FF00003D8BF2361A360BA
:102C5400D1E70122E360A260B1E7122AC8BF236171
:102C6400ADE700BFEC450020F46B0020F4450020E4
:102C740038B50446002501232C3040F8103C257655
:102C840084F8205000F0B0F90022054B29460E20AC
:102C9400C4E90023C4E9042304F094F8204638BDB1
:102CA4000000F0BF00000000F8B5002300F12C057F
:102CB40004462DED048B80F82030284600F056FAA7
:102CC400021F00F15C01C4F8A8009FED4F7BB0EE39
:102CD400476B84ED027B52F8043FC3F5806307EE33
:102CE400903A1360B8EEE77BB4EEC67BF1EE10FACF
:102CF40003DDB0EE476B84ED027B8A42EBD19FED9E
:102D0400447BFDEEC65B26EE076B15EE903AC4EDF0
:102D1400095A7C2B84ED026B02DD012384F82030F8
:102D2400284640F2262700F01DFA0646284600F001
:102D34001BFA656A00233246963DD4F8A8101E4655
:102D440002F1C00EBD42A1F10401A3629C46A8BFDA
:102D54003D469FED2D8BB0EE489B0DE09FED2A7B09
:102D6400C1F800C0B2EC025BB0EC026B9645A5EE74
:102D7400079BA6EE078B0CD051F8043FAB42EDDB6A
:102D8400A76A01363B44A362D1ED007AB8EEE77B33
:102D9400E8E7A36A0D21264893FBF6F6A66205F040
:102DA40061FCA16A234803F009FD224803F0AEFC4C
:102DB400B0EE481BB0EE490B31F0A6F89FED167B40
:102DC4009FED176B20EE070B80EE067BB5EEC07B04
:102DD400F1EE10FA03D59FED146B37EE067B0C2150
:102DE400154884ED007B05F03DFC0221114894ED6B
:102DF400000B03F0F1FC0F48BDEC048BBDE8F84078
:102E040003F084BCAFF30080000000000000000069
:102E1400000000000000503F0000000000806640F9
:102E240000000060FB2109400000000000807640A3
:102E340004460020F46B002014460020000000002B
:102E4400B1EE067B90ED020B38B52DED048B9FEDB2
:102E5400468B20EE070B04460D4631F059F820EE60
:102E6400088BB7EE007B94ED006BB4EE478B9FEDBF
:102E7400405BF1EE10FAB4EEC56BC8BFB0EE478B01
:102E8400F1EE10FA03DD9FED3C7B37EE466B6B1DD4
:102E940059D0B42D59DDC5F5B475B7EE007ADFED20
:102EA4003E5A07EE905AF8EEE77AA7EEA57AFDEEC1
:102EB400C77A17EE903AC4F8AC309FED310B9FED12
:102EC400329B26EE000B31F023F80921334820EE23
:102ED400099B9FED2F7BB4EE479BF1EE10FAC8BF20
:102EE400B0EE479B05F0BEFBB0EE480B02212C4828
:102EF40003F072FC2A4803F009FCB7EE005B28EEED
:102F0400098B0D212748BFEE006B94ED007B9FEDEC
:102F1400184BB4EEC47BF1EE10FAD8BFB0EE456B9B
:102F2400A6EE087B84ED047B05F09CFB02211C4883
:102F340094ED040B03F050FC1948BDEC048BBDE880
:102F4400384003F0E3BB0123B5E707EE905AB7EE30
:102F5400007ADFED115AF8EEE77AA7EEA57AFDEED6
:102F6400C77A17EE903AA6E700000040E17A943F52
:102F740000000000008066400000000000807640F1
:102F8400000000A09999C93F00000040E17AB43FD5
:102F94000000000000805640CDCC4C3D244600206B
:102FA400F46B00203046002010B5092104460B487C
:102FB40005F058FB0E2003F0C9FC0146084803F055
:102FC400FDFB074803F0A2FB0E2003F0BFFCB0F5A5
:102FD400967FB4BF01230023237610BD4046002012
:102FE400F46B0020000000002DE9F0470A23074697
:102FF40001254FF00B0A4FF00C094FF00D08002685
:103004006022574910300F242DED088B00F80EACC8
:10301400B7EE00BB00F809ACBB71FB727D71BD72E9
:1030240087F80CA087F8039087F8089087F80D902C
:1030340087F8048087F8098087F80E8003F00AFF78
:10304400294630463E707E7003F0BCFE2946B878AF
:1030540003F0B8FE3146F87803F0B4FE2946387917
:1030640003F0B0FE2946787803F0A0FE29462846EE
:103074007E71BD7187F807A087F8089087F80980EA
:1030840003F0A0FE2946F87903F09CFE3146387A15
:1030940003F098FE2946787A03F094FE2946B8791D
:1030A40003F084FE02232946BE721846FB7287F899
:1030B4000CA087F80D9087F80E8003F083FE294654
:1030C400387B03F07FFE3146787B03F07BFE294694
:1030D400B87B03F077FE2946F87A03F067FE602098
:1030E40003F054FFB867C02003F050FF3867C020D6
:1030F40003F04CFF3E6F054678679FED130B9FED81
:1031040014AB9FED159B12E007EE904A0F34B8EE16
:10311400E77B27EE0A7B87EE098BB0EE480B30F095
:1031240053FEB0EE40BBB0EE480B30F09DFEB4F55C
:10313400B47FA6EC02BBA5EC020BE5D1BDEC088B79
:103144003846BDE8F08700BF000000000000000022
:1031540000000060FB210940000000000080664080
:1031640048040020006F7047406F70472DE9F04F0E
:1031740000F16C0385B06FF00F0804466D4F00F149
:103184000C050193C0EB080814E0032B00F0F28057
:10319400012B25D00023A06F421942F80830436B5D
:1031A400C26B9B1848BF01335B108363019B9D4234
:1031B40000F0F38155F8043F5F4A013B1A40002AAE
:1031C400C0F26181002BB8BF0733DB100133022B3F
:1031D400DBD1D3B2072B40F25B814FF0FF33DAE748
:1031E400D1B20729F9D8120121788DF80C3002F4F4
:1031F4007F6262F07F028DF80D20002900F0518279
:10320400FB7C002B31D072B64A4BDA7CD6071346CE
:1032140007D54A484749066849693140454EB16275
:103224000160900706D54649BA690868FB7C0240EC
:10323400FA620A60590706D54249FA690868FB7CB4
:1032440002403A630A601A0706D53F493A6A086899
:10325400FB7C02407A630A60DB0605D53B4A7B6A45
:1032640011680B40BB63136062B6BB68384A934273
:1032740000F07F82374B36499B69374AB960C3F304
:103284000111C3F3826352F821200133B2FBF3F23C
:10329400324BA3FB02139B0C40F05382FB603A6851
:1032A40000214FF0030E012007261161C2F824E02B
:1032B400136416661061607803F078FD3A6803A918
:1032C4000DF10F000B785366D36D13F4F81FFBD088
:1032D400536F01F8013B8842F4D10121607803F077
:1032E40065FDFB7C1A46DBB1D90702D5B86A1C49D7
:1032F40008609E0703D5F96A1A4BFA7C19605007D7
:1033040003D5396B184BFA7C1960110703D57B6B15
:103314001649FA7C0B60D30602D5BB6B144A1360C2
:103324009DF80D209DF80E3043EA0223C3F30903F0
:1033340031E700BFA46B00200700008080E100E0BB
:1033440084E100E088E100E08CE100E090E100E04D
:103354007099140000C00F40043D00203BD4B531E7
:1033640000E100E004E100E008E100E00CE100E03D
:1033740010E100E0D3B2072B3FF62FAF1301A17A7F
:10338400012203F47F638DF80C2063F07F038DF832
:103394000D30002900F00481FB7C002B31D072B683
:1033A4009F4BDA7CD007134607D59E489C49066894
:1033B400496931409A4EB1620160910706D59A4934
:1033C400BA690868FB7C0240FA620A605A0706D5AB
:1033D4009649FA690868FB7C02403A630A601E0752
:1033E40006D593493A6A0868FB7C02407A630A600E
:1033F400D80605D58F4A7B6A11680B40BB631360FE
:1034040062B6BB688C4A934200F0B5818B4B8A4903
:103414009B698B4AB960C3F30111C3F3826352F809
:1034240021200133B2FBF3F2864BA3FB02139B0C66
:1034340040F07C81FB603A6800214FF0030E0120CC
:1034440007261161C2F824E0136416661061E07A5D
:1034540003F0ACFC3A6803A90DF10F000B78536636
:10346400D36D13F4F81FFBD0536F01F8013B88426E
:10347400F4D10121E07A03F099FCFB7C1A46002B7D
:103484007FF432AF4CE7013A62F00702013299E669
:1034940013016179012203F47F638DF80C2063F03A
:1034A4007F038DF80D30002900F0B180FB7C002BE8
:1034B40031D072B65A4BDA7CD607134607D5594831
:1034C4005749066849693140554EB1620160900719
:1034D40006D55549BA690868FB7C0240FA620A605D
:1034E400590706D55149FA690868FB7C02403A63DA
:1034F4000A601A0706D54E493A6A0868FB7C0240FE
:103504007A630A60DE0605D54A4A7B6A11680B4075
:10351400BB63136062B6BB68474A934200F02781DD
:10352400464B45499B69464AB960C3F30111C3F34D
:10353400826352F821200133B2FBF3F2414BA3FB27
:1035440002139B0C40F00881FB603A6800214FF0A5
:10355400030E012007261161C2F824E013641666E5
:103564001061A07903F022FC3A6803A90DF10F0061
:103574000B785366D36D13F4F81FFBD0536F01F827
:10358400013B8842F4D10121A07903F00FFCFB7CBC
:103594001A46002B7FF4A8AEC2E605B0BDE8F08F52
:1035A400E07A934603AE924603F000FC4FF007091D
:1035B4000EE04BEA030B86F800B009F1FF39002155
:1035C400A07B03F0F3FBB9F1FF3F18D096F800B0ED
:1035D4004BFA09F1207B01F0010103F0E7FB012123
:1035E400A07B03F0E3FB607B03F0E6FB0AFA09F33C
:1035F4000028DED12BEA030B86F800B0DDE70DF1DD
:103604000E03B34200F0838016F801BFCEE7A07921
:10361400934603AE924603F0C9FB4FF0070922E03C
:10362400A46B002080E100E084E100E088E100E098
:103634008CE100E090E100E07099140000C00F40BC
:10364400043D00203BD4B5314BEA030B86F800B0AF
:1036540009F1FF390021607A03F0A8FBB9F1FF3FBB
:1036640018D096F800B04BFA09F1E07901F00101A5
:1036740003F09CFB0121607A03F098FB207A03F0AD
:103684009BFB0AFA09F30028DED12BEA030B86F828
:1036940000B0DDE70DF10E03B3423DD016F801BFD3
:1036A400BBE760789B4603AE9A4603F07FFB4FF07E
:1036B40007090EE04BEA030B86F800B009F1FF3965
:1036C4000021207903F072FBB9F1FF3F18D096F87E
:1036D40000B04BFA09F1A07801F0010103F066FB98
:1036E4000121207903F062FBE07803F065FB0AFA1C
:1036F40009F30028DED12BEA030B86F800B0DDE7DE
:103704000DF10E03B3420CD016F801BFCFE701212F
:10371400E07A03F04BFB03E60121A07903F046FBBA
:10372400FEE50121607803F041FBF9E5B2FBF3F219
:1037340025498A4288BF0133B3F5817F21D3234BC6
:1037440078E6B2FBF3F220498A4288BF0133B3F52D
:10375400817F1AD31D4BA1E5B2FBF3F21A498A42C9
:1037640088BF0133B3F5817F07D3184BECE6FB68C0
:10377400EBE6FB6893E5FB685DE6022B09D80023C2
:10378400E2E6022B0ED8002354E6022B13D80023C2
:1037940084E5023B59080A0443EA012302F47F0248
:1037A4001343D1E6023B59080A0443EA012302F415
:1037B4007F0213433EE6023B59080A0443EA01230D
:1037C40002F47F02134369E570991400FF7F7F00C0
:1037D40010B50446602003F0D9FB4FF0FF31031FFE
:1037E40000F15C02206043F8041F9342FBD12046A1
:1037F40010BD00BF10B404680439231F5C3453F8AF
:10380400040F51F8042F9042B8BF1A60A342F6D1B6
:103814005DF8044B704700BF704700BF70B586B0B9
:10382400114B28224FF0FF31044602F0ABF90E4B46
:103834002822372101A802F0A5F99DF80860039D0C
:103844002046049A0C219DF814302671A560E2608C
:10385400237402F0C5F900B9FEE72046012102F005
:1038640065FA204606B070BDC46C002010B504464D
:1038740000F1140102F02CFBD4ED0A7AFDEEE77A94
:1038840017EE900A10BD00BFD0B5002304464FF0D8
:10389400FF326FF0B40100260A4F4FF48060A1603C
:1038A40084F858306060C020237084F8603084F855
:1038B40074302261A264C4E9066703F067FBA06761
:1038C4002046D0BD0000F0BF2DE9F84FD0F8789025
:1038D40005464FF0000A043916464C465046D64673
:1038E40001274FF0000B2DED048BDDF8388085F8AF
:1038F40074A085F858A04FF0000ADDF83CC06B6650
:10390400AA6608E046F800E004300834602844E978
:1039140002AB14D0AE6E335851F8042F9342F1DB4E
:103924006B6E083437501B58043085F8587007EE16
:10393400103A6028B8EEC77B04ED027BEAD100227E
:103944004FF080434C46674646464FF0000EC5E9AB
:1039540022234A4660464146002394ED007BB5EE9F
:10396400407BF1EE10FA21D092ED007BB5EE407B66
:10397400F1EE10FA1AD090ED006B97ED007B96ED06
:10398400004B91ED005B27EE067B95ED226BA4EED8
:10399400057BB4EEC67B85ED207BF1EE10FA05D5F0
:1039A400C5F890E0C5F8943085ED227B01330831E9
:1039B40008300832182BD0D10EF1010E0836083722
:1039C4000834BEF1180FC4D1D5F89020D5F894303E
:1039D400D200DB000CEB020142449C44434491EDD1
:1039E400006B92ED007B93ED008B9CED009B37EE1A
:1039F400088B36EE099BB0EE481BB0EE490B30F055
:103A040083FA696ED5F89020B5EE409BD5F8940002
:103A14009FED1D7B9FED1E6B20EE070B80EE067B5A
:103A2400FDEEC77BC5ED047A17EE903A51F82220DB
:103A340051F82010521A002AB8BF5242B42AC8BF03
:103A4400C2F5B472F1EE10FAEA6006D1B5EE408B1D
:103A5400F1EE10FA01D1AB6C2B61002B02DA03F505
:103A6400B4732B610D210C4804F0FCFD29690B484B
:103A740002F0A4FE0948BDEC048BBDE8F84F02F047
:103A840045BE00BFAFF30080000000000080664028
:103A940000000060FB2109404C460020F46B00202C
:103AA400C368002BB8BF01335B1007EE103A9FEDDB
:103AB4000C6BB8EEC77B9FED0C0B27EE067B10B5A5
:103AC40087EE000B044630F0CFF9B6EE007B20EE13
:103AD400070B30EE000B84ED060B10BDAFF3008036
:103AE40000000060FB2109400000000000806640E7
:103AF40030B5446D0546A4F1280300EE103A2DEDCF
:103B04000A8BB8EEC00B85B09FED479B9FED488BA9
:103B140020EE090B80EE080B30F0A6F9A4F1820325
:103B2400B0EE40CB00EE103AB8EEC00B20EE090B1D
:103B340080EE080B30F098F9A4F1E603B0EE40BB38
:103B440000EE103AB8EEC00B20EE090B80EE080B25
:103B540030F08AF9A4F59B73B0EE40AB00EE103A56
:103B6400B8EEC00B20EE090B80EE080B30F07CF9A8
:103B7400B5EEC0CBF1EE10FA46DDB5EEC00BB0EEFB
:103B84004C6BF1EE10FA46DDB0EE407BB4EE476BC1
:103B9400F1EE10FAB5EEC0BBA8BFB0EE467BF1EE75
:103BA40010FA3EDDB0EE4B6BB5EEC00B8DED006B45
:103BB400F1EE10FA32DDB0EE405BB4EEC56B8DED84
:103BC400025BF1EE10FA1DDAB0EE456B02ABB4EE17
:103BD400C67BF1EE10FA01DA93ED007B8CEE073B25
:103BE4008BEE074B8AEE075B80EE076B85ED0A3B95
:103BF40085ED0E4B85ED105B85ED0C6B05B0BDECD2
:103C04000A8B30BD6B46E2E7B5EEC00BB1EE4C6BF0
:103C1400F1EE10FAB8DCB1EE407BB7E7B1EE405BF1
:103C2400CBE7B1EE4B6BBFE700000060FB2109401E
:103C34000000000000806640F0B52DED028B83B0DB
:103C440017460D461A460C9C39460B9EB0EE408B27
:103C54000A9B019404460096FFF736FE0E218A481B
:103C640004F000FD94F85810884802F0A7FD874836
:103C740002F04CFD94F85830D3B92178002940F073
:103C8400E180002200234FF0FF30217084F85910A6
:103C9400A0646065C4E90823C4E90A23C4E90E23C7
:103CA400C4E91023C4E90C2303B0BDEC028BF0BDBE
:103CB400A36C0022092176480133236984F860202B
:103CC40008BFA364E36404F0CDFCA16C6F4802F068
:103CD40075FD6E4802F01AFD0A216E4804F0C2FC1C
:103CE400E16C6A4802F06AFD684802F00FFDE36C7B
:103CF400A26CA3649B1A002BB8BF5B42B42B236550
:103D040002DDC3F5B47323650721634804F0AAFCFC
:103D1400216D5E4802F052FD5C4802F0F7FC236D11
:103D24005A2B237870DC002B72D1236903F1B4027F
:103D3400B2F5B47F7FDA62652046FFF7B1FED4E9BD
:103D44000623C4E908230D21544804F08BFC217890
:103D54004E4802F033FD4D4802F0D8FC0022002307
:103D6400002194ED087B84F85910B5EEC07BC4E9BA
:103D74000A23F1EE10FAC4E90E23C4E91023C4E9BE
:103D84000C231BDDB4EEC87BF1EE10FA16D52369C3
:103D9400012103F15A0284F85910B2F5B47F6EDCA4
:103DA400E26512213E4804F05DFCE16D374802F003
:103DB40005FD364802F0AAFC94ED087BB4EEC78BEF
:103DC400F1EE10FA03D829462046FFF791FE0C21A4
:103DD400344804F047FC616D2C4802F0EFFC2B489A
:103DE40002F094FC0E21304804F03CFC02212748E8
:103DF40094ED080B02F0F0FC244803B0BDEC028BF8
:103E0400BDE8F04002F082BC13B9012223652270A0
:103E1400236920466365FFF743FEB0EE007B236D04
:103E240094ED066B5A2B37EE467B84ED087B05DD5B
:103E34000023237079E7B43B63657DE72378002B87
:103E440081D172E70221194804F00CFC0F4802F0FA
:103E54005DFC616D0D4802F0B1FC0C4802F056FCAB
:103E640001224FF0FF332946204684F86020A364E2
:103E740003B0BDEC028BBDE8F040FFF739BEA3F5FB
:103E84008773E3658DE700BF5C460020F46B002078
:103E94006C46002078460020844600208C46002092
:103EA4009C460020B0460020C0460020D04600209A
:103EB4002DE9F0470A23054601264FF00C094FF07F
:103EC4000D084FF00B0A60226D49303000272DEDAC
:103ED400088B00F8186C3C466B76B7EE00BBAB77EA
:103EE40085F823306E7785F8226085F81B9085F875
:103EF400209085F8259085F81C8085F8218085F828
:103F0400268085F81AA085F81FA085F824A002F061
:103F1400A1FF602003F03AF82860602003F036F82F
:103F240017236860314618466B7685F81B9085F830
:103F34001C802F7685F81AA049A3D3E900239FEDAE
:103F44004AABC5E9042302F03DFF3146A87E02F0E6
:103F540039FF3946E87E02F035FF3146287F02F00A
:103F640031FF3146687E02F021FF162331466F7718
:103F74001846AB7785F8209085F8218085F81FA036
:103F840002F020FF3146E87F02F01CFF394695F825
:103F9400200002F017FF314695F8210002F012FFCD
:103FA4003146A87F02F002FF1523314685F82270BE
:103FB400184685F8233085F825904FF0FF3985F8A9
:103FC400268085F824A002F0FDFE314695F82400F1
:103FD40002F0F8FE394695F8250002F0F3FE31466A
:103FE40095F8260002F0EEFE314695F8230002F023
:103FF400DDFE602002F0CAFFA860C02002F0C6FF08
:10400400A862C02002F0C2FF6E688046AF6A043E18
:10401400E8629FED179B9FED180B11E007EE904AA5
:10402400B8EEE77B27EE0A7B87EE098BB0EE480BF0
:104034002FF0CAFEB0EE40BBB0EE480B2FF014FFD9
:104044000F34B4F5B47FA7EC02BBA8EC020B46F81E
:10405400049FE3D1BDEC088B2846BDE8F08700BF80
:10406400000000A09999B93F00000060FB210940BD
:104074000000000000806640000000000000000016
:10408400A804002080680023021F42F8043F0F3375
:10409400B3F5B47FF9D17047806A7047C06A70473E
:1040A4002DE9F04F6FF02F0783B0044600F12C0583
:1040B40000F18C083F1A16E006EE906AB8EEE65B53
:1040C400B7EE006B454594ED044B36EE446B26EE9B
:1040D400077BA4EE057BFDEEC77B17EE902AC2504A
:1040E400CA5000F02E8255F8043FDFF82492013BB9
:1040F40003EA0909B9F1000FC0F29A81002BB8BF95
:104104000733DB105E1C022E00F00681032E23D041
:10411400012E13D000229FED6E7B7B19616820680D
:10412400C250CE58B6F1FF3FC6D1CA50B0EE475B7D
:10413400C25807EE902AB8EEE77BC1E700211720AA
:1041440002F034FE5FFA89F3072B40F27881BFEE68
:10415400007B4FF0FF32E0E70021152002F026FE3D
:104164005FFA89F3072BF2D84FEA0913012694F872
:10417400221003F47F638DF8046063F07F038DF8ED
:104184000530002900F06282534EF37C002B31D0BD
:1041940072B6F27CD107134608D5DFF878E170696E
:1041A400DEF800100140B162CEF80010900706D589
:1041B4004A4AB36911680B40F3621360F37C5907F0
:1041C40006D5474AF36911680B4033631360F37CE7
:1041D4001A0706D5434A336A11680B4073631360A8
:1041E400F37CDB0605D5404A736A11680B40B36360
:1041F400136062B6B3683D49374A8B4200F090823F
:104204003B4B3A489B693B499060C3F30112C3F3AB
:10421400826351F822200133B2FBF3F2364BA3FB45
:1042240002139B0C40F06682F360326800214FF069
:10423400030C4FF0070E01201161C2F824C013646F
:10424400C2F860E0106194F8230002F0AFFD326818
:1042540001A90DF107000B785366D36D13F4F81F11
:10426400FBD0536F01F8013B8842F4D1012194F84B
:10427400230002F09BFDF37C17491A46DBB1D807F3
:1042840002D5886A1D4908609B0703D5F26A1C4B56
:104294001A60F27C500703D51A4A336B1360F27C20
:1042A400110703D5184A736B1360F27CD30602D549
:1042B400B36B164A13609DF805209DF8063043EA57
:1042C4000222C2F3090207EE902AB8EEE77B24E744
:1042D4000000000000000000A46B002084E100E066
:1042E40088E100E08CE100E090E100E070991400C6
:1042F40000C00F40043D00203BD4B53100E100E094
:1043040004E100E008E100E00CE100E010E100E07D
:104314000700008080E100E00021162002F046FD45
:104324005FFA89F3072B3FF612AF4FEA0913012610
:10433400617F03F47F638DF8046063F07F038DF87D
:104344000530002900F00081A04EF37C002B31D011
:1043540072B6F27CD107134608D5DFF894E270698F
:10436400DEF800100140B162CEF80010900706D5C7
:10437400974AB36911680B40F3621360F37C5907E1
:1043840006D5944AF36911680B4033631360F37CD8
:104394001A0706D5904A336A11680B407363136099
:1043A400F37CD80605D58D4A736A11680B40B36354
:1043B400136062B6B3688A49844A8B4200F0B281C2
:1043C400884B87489B6988499060C3F30112C3F303
:1043D400826351F822200133B2FBF3F2834BA3FB37
:1043E40002139B0C40F07C81F360326800214FF093
:1043F400030C4FF0070E01201161C2F824C01364AE
:10440400C2F860E01061A07F02F0D0FC326801A91C
:104414000DF107000B785366D36D13F4F81FFBD02E
:10442400536F01F8013B8842F4D10121A07F20E7BA
:1044340009F1FF3969F0070909F101095EE64FEA5C
:104444000913217E8DF8046003F47F6363F07F0316
:104454008DF80530002900F0B0805C4EF37C002B11
:1044640031D072B6F27CD107134608D5DFF880E16B
:104474007069DEF800100140B162CEF800109007B8
:1044840006D5534AB36911680B40F3621360F37C99
:10449400590706D54F4AF36911680B40336313601B
:1044A400F37C1A0706D54C4A336A11680B407363D0
:1044B4001360F37CD80605D5484A736A11680B402B
:1044C400B363136062B6B3684549404A8B4200F057
:1044D4002581444B42489B6943499060C3F30112D0
:1044E400C3F3826351F822200133B2FBF3F23F4B52
:1044F400A3FB02139B0C40F00781F3603268002198
:104504004FF0030C4FF0070E01201161C2F824C0D4
:104514001364C2F860E01061607E02F047FC326808
:1045240001A90DF107000B785366D36D13F4F81F3E
:10453400FBD0536F01F8013B8842F4D10121607E26
:1045440097E603B0BDE8F08FA07F0DF10409B246F1
:1045540002F02CFC4FF0070B0EE01E4389F80060BC
:104564000BF1FF3B002194F8210002F01FFCBBF18A
:10457400FF3F1AD099F8006046FA0BF1E07F01F092
:10458400010102F013FC012194F8210002F00EFC59
:1045940094F8200002F010FC0AFA0BF30028DCD196
:1045A40026EA030689F80060DAE70DF106034B45B5
:1045B40000F0868019F8016FCCE7607E0DF10409E4
:1045C400B24602F0F3FB4FF0070B21E0A46B00208E
:1045D40084E100E088E100E08CE100E090E100E0AB
:1045E4007099140000C00F40043D00203BD4B53145
:1045F40080E100E01E4389F800600BF1FF3B0021DD
:10460400207F02F0D3FBBBF1FF3F18D099F8006084
:1046140046FA0BF1A07E01F0010102F0C7FB012173
:10462400207F02F0C3FBE07E02F0C6FB0AFA0BF324
:104634000028DFD126EA030689F80060DDE70DF1E2
:1046440006034B4541D019F8016FBCE794F82300E9
:104654000DF10409B24602F0A9FB4FF0070B0EE07E
:104664001E4389F800600BF1FF3B002194F82600FB
:1046740002F09CFBBBF1FF3F1BD099F8006046FAA7
:104684000BF194F8240001F0010102F08FFB0121E9
:1046940094F8260002F08AFB94F8250002F08CFBC3
:1046A4000AFA0BF30028DBD126EA030689F8006036
:1046B400D9E70DF106034B450CD019F8016FCCE78F
:1046C4000121A07F02F072FBF5E50121607E02F07A
:1046D4006DFBF0E5012194F8230002F067FBEAE5A5
:1046E400B2FBF3F2824288BF0133B3F5817F1FD35B
:1046F400214B79E6B2FBF3F2824288BF0133B3F572
:10470400817F19D31C4B8FE5B2FBF3F2824288BF41
:104714000133B3F5817F07D3174BEEE6D368EDE69B
:10472400D36882E5D36860E6022B09D80023E4E667
:10473400022B0ED8002357E6022B13D8002373E56F
:10474400023B59080A0443EA012302F47F0213439B
:10475400D3E6023B59080A0443EA012302F47F0228
:10476400134341E6023B59080A0443EA012302F4D5
:104774007F02134358E500BFFF7F7F00704700BFEF
:10478400704700BF704700BF10B50446406904F18C
:104794001C03984201D002F0FBFB204610BD00BF71
:1047A40010B50446806B04F14003984201D002F036
:1047B400EFFB204610BD00BF08B51148FFF756F8BF
:1047C400104B00224FF4964118600F4801F0FAFC98
:1047D40000224FF416510D4801F0F4FC0221092087
:1047E40002F0F0FA01210A2002F0ECFA00210A207A
:1047F40002F0DCFA02212420BDE8084002F0E2BA0B
:104804007497002008750020046C0020646C00205C
:104814002DE9F04F744C754F754D20462DED028BEC
:1048240087B0FEF741FAA16A6A7C384600F0E0FEE0
:104834003B7A002B5BD06F4E3046FDF7CDFE204611
:10484400FEF7B2FB6C4B6D48D3F800A094F82070CF
:10485400FFF726FC80466948FFF714FC8346674847
:10486400FFF71AFC81466548FFF718FC5246029090
:10487400434639466248CDF800B0CDF804909FED28
:10488400520BFFF7D9F95F4B217E5F4893ED001B74
:1048940096ED020BFEF784F9002394ED007B9FED67
:1048A4004C6B2B74B4EEC67BF1EE10FA06D49FED7C
:1048B4004A6BB4EEC67BF1EE10FA79DD5348FEF78D
:1048C400D5FF534B014650481A6896ED040BFEF78A
:1048D400DFF8454896ED087BFDEEC77B17EE901A8E
:1048E40007B0BDEC028BBDE8F04FFEF7A9BADFF8C4
:1048F4000491434E4846FDF76FFE3F4B3F481A680C
:1049040094F820800592FFF7CBFB82463B48FFF7E3
:10491400B9FB04903948FFF7BFFB83463748FFF7DC
:10492400BDFB049B4146DFF8E880009353460290A8
:104934003046059ACDF804B09FED290BFFF77CF9BA
:10494400D8F80020397C284696F85830009299ED22
:10495400047B94ED000BFDEEC77B17EE902AFDF768
:1049640017FF2A4894F8207095ED008BFEF77EFF20
:1049740098ED002A07EE900A2C7CF36DB8EEC22B5A
:1049840096F85920B8EEE71B0094B0EE480B394670
:104994001C4896ED0C6B96ED105B96ED0E4B96ED68
:1049A4000A3B00F0CDFA07B0BDEC028BBDE8F08FF6
:1049B40020466FF0040107B0BDEC028BBDE8F04F58
:1049C400FEF73EBAAFF30080000000A09999C93FFA
:1049D40000000000008046400000000000B073406A
:1049E400000000A09999E93F407C0020987F0020B6
:1049F400487D0020F07C002070970020987E0020E5
:104A0400F87D0020287F0020C87D002074970020B6
:104A14000875002038B54FF47A7002F02DF93B4A3E
:104A24001368012B16DD3A4D2C68631C4AD0022C06
:104A340003D0012C65D084B138BD364B19680B1FE7
:104A44005C3153F8042F0A328B421A60F9D10123E6
:104A54002B6038BD0133136038BD02212E4803F0AA
:104A640001FE2E4801F052FE2146042002F09EF978
:104A74002146212002F09AF921461D2002F00EFB66
:104A840021461C2002F00AFB2146062002F08EF982
:104A94002146042002F08AF92146052002F0FEFA9C
:104AA4000320214602F0FAFA1A4B4FF0FF301A683D
:104AB400131F5C3243F8040F93424FF0FF31F9D1D6
:104AC400296038BD164C242002F076F920600920B4
:104AD40002F072F9134A236810600BB902232B60A9
:104AE40030B91148FFF7DCFA01460A48FEF782FEA6
:104AF40015210E4803F0B6FD0848BDE8384001F022
:104B040005BEBDE83840FFF783BE00BFEC7400204B
:104B1400E474002070970020EC460020F46B002021
:104B24000C750020E8740020987E0020D4460020F4
:104B3400F8B5244E244C254D304604F041F9224664
:104B44002349304603F016FF2846FEF791F8214F1B
:104B5400224621492846214E03F00CFF204800F04C
:104B64007BF83846FEF75AFE22461E49384603F0C3
:104B740001FF1D4D3046FFF79BF922461B49304685
:104B840003F0F8FE2846FDF773FB22461849284631
:104B940003F0F0FE1748FDF7F5FD174D1748FDF734
:104BA40065FF1748FEF770FE284600F069FC2246B0
:104BB4002846144903F0DEFE1348BDE8F840FEF72A
:104BC40007BE00BF14970020986B0020407C002093
:104BD400BD6C0000749700205D260000987E0020C4
:104BE400287F002061260000F07C0020652600005C
:104BF40081260000487D0020987F0020C87D002089
:104C0400F87D002069260000709700200000000055
:104C140091ED007B9FED0C5BB5EEC07BF1EE10FADD
:104C2400D8BFB1EE477B54BF0123002387EE006B4E
:104C340003609FED077B26EE077B27EE057B81ED66
:104C4400007B7047AFF30080000000606666E63FBB
:104C54000000000000E06F40F8B50446052321225F
:104C6400032123651C201D2306270F260425E26645
:104C74006365A1650121E065184627666666A56639
:104C840002F0A0F894F85800012102F09BF894F87F
:104C94005000012102F096F894F85C00012102F022
:104CA40091F894F86000012102F08CF894F86C00FB
:104CB400012102F087F894F86400012102F082F8DF
:104CC40094F86800012102F07DF8002200232046B8
:104CD400C4E91223F8BD00BF10B52DED068B30EEEC
:104CE400418B0221B0EE409B04465948B0EE41ABE3
:104CF400B5EEC08BF1EE10FAD8BFB1EE488BB0EE32
:104D0400480B01F069FD524801F000FD9FED467B20
:104D1400B4EEC78BF1EE10FA03DD9FED457B37EE61
:104D2400488B9FED417BB4EEC7ABF1EE10FA4BD547
:104D3400B4EEC79BF1EE10FA46DD9FED3D7B37EEF6
:104D4400499BB1EE499BB4EECA9B9FED3B7BF1EED0
:104D540010FA9FED350B48BFB1EE488B28EE077B68
:104D640087EE000B2FF080F8BAEE007BB4EEC78B11
:104D7400F1EE10FA04DDB5EEC08BF1EE10FA0BD4AF
:104D8400B2EE007BB4EEC78BF1EE10FA2DD5B5EE82
:104D9400C08BF1EE10FA28DD00220023C4E90023C1
:104DA4000D212C4803F05EFC294801F0AFFC0221E0
:104DB400274894ED000B01F00FFD2548BDEC068B50
:104DC400BDE8104001F0A2BC9FED177BB4EEC7AB69
:104DD400F1EE10FAB7DDB4EEC79BF1EE10FAB2D5DE
:104DE4009FED137B39EE079BADE79FED157BB4EE8A
:104DF400C78BF1EE10FA0BDC9FED137BB4EEC78B7F
:104E0400F1EE10FA09D50022134BC4E90023C7E7D9
:104E14000022124BC4E90023C2E7B1EE400B84ED3B
:104E2400000BBDE7AFF30080000000000080664087
:104E3400000000000080764000000060FB21094073
:104E4400000000000080564000000000008056C0B2
:104E5400F46B0020F04600200000F03F0000F0BF9B
:104E640091ED000B38B52DED0C8B9FED2FAB9FED25
:104E7400309B04460D4620EE0A0B08EE102A80EE05
:104E8400090B2EF0F1FFB0EE40CB84ED020B95ED53
:104E9400000B20EE0A0B80EE090B2EF095FFB8EE06
:104EA400C87BB0EE40BB27EE0A7B84ED040B87EE93
:104EB40009DBB0EE4D0B2EF0D7FFB0EE408B84ED46
:104EC400060BB0EE4D0B2EF07FFF2BEE00BB20EE59
:104ED400006BACEE08BBA8EE086BB0EE407B84ED33
:104EE400080B84ED0ABB8BEE061B84ED0C6B28EEDD
:104EF400010B27EE011B84ED0E0B84ED101B2FF02C
:104F040003F820EE090B80EE0A7BB5EEC07BF1EED0
:104F140010FA03D59FED086B37EE067BBDEC0C8BC6
:104F240085ED007B38BD00BF00000060FB21094017
:104F34000000000000806640000000000080764011
:104F4400B0EE417BB0EE421B2DE9F0472DED108B06
:104F540094B00025002600279146049505958846BF
:104F640006959A46079504469DF8B050B0EE43DB8B
:104F7400B0EE44CBB0EE45EBB0EE46BB8DED020B8C
:104F8400B0EE470BCDE90867CDE90A67CDE90C67B8
:104F9400CDE90E67FFF7A0FEB9F1000F40F03282B1
:104FA4000E21C94803F05EFB0221C8489DED020BA7
:104FB40001F012FCC54801F0A9FB9DED028B9FEDA9
:104FC400B20B9FEDB3AB9FEDB49B38EE400B20EEDC
:104FD4000A7B87EE090B2EF047FFB0EE407B9FED76
:104FE400B00B8DED087B8DED007B38EE400B20EE91
:104FF4000A7B87EE090B2EF037FFB0EE40FB9FEDE6
:10500400AA0B8DED0CFB38EE400B20EE0A7B87EEED
:10501400090B2EF029FF9FEDA66B8DED0E0B38EEDC
:10502400460B20EE0A7B87EE090B2EF01DFFA845E8
:105034008DED0A0B9DED007B00F29B8100239FED1B
:105044009E7B9FED9F5BB0EE47FBB0EE47BBB0EE9F
:1050540047EBB0EE47CBB0EE47DBB0EE470B8DED40
:10506400087B8DED0C7B8DED0E7B8DED0A7B84ED45
:10507400007BB1EE406BB4EE465BF1EE10FAB5EE98
:10508400C0FBA8BFB0EE456BF1EE10FA40F3EF8120
:10509400B0EE4F5BB5EEC00B8DED105BF1EE10FA88
:1050A40040F3E281B0EE404BB4EEC45B8DED124BA5
:1050B400F1EE10FA80F25B81B0EE445B12AAB4EE1A
:1050C400C65BF1EE10FA01D992ED006BB5EE406BC0
:1050D40084ED126BF1EE10FA40F069819FED765B7E
:1050E400B0EE452BB0EE453BB0EE454B94ED007B66
:1050F40037EE044B37EE033B32EE072B35EE075BFE
:105104008DED084B8DED0C3B8DED0E2B8DED0A5B7B
:105114004BB9B5EE40EBF1EE10FA04D1B5EE40BB5D
:10512400F1EE10FA07D08DED08DB8DED0CCB8DED93
:105134000EEB8DED0ABB0B21654803F093FA0221B7
:1051440062489DED080B01F047FB604801F0DEFA70
:1051540004995E4801F032FB5C4801F0D7FA0B2158
:105164005C4803F07FFA022158489DED0C0B01F0D6
:1051740033FB564801F0CAFA0699544801F01EFB65
:10518400524801F0C3FA0B21534803F06BFA022191
:105194004E489DED0E0B01F01FFB4C4801F0B6FA92
:1051A40007994A4801F00AFB484801F0AFFA0B217D
:1051B4004A4803F057FA022144489DED0A0B01F0D6
:1051C4000BFB424801F0A2FA0599404801F0F6FAB7
:1051D4003E4801F09BFA9DED085B9DED0A7BB5EE20
:1051E400C05BF1EE10FAB5EEC07BD8BFB1EE455B03
:1051F400F1EE10FA40F33581B0EE470BB4EE405BAC
:105204009DED0C6BF1EE10FAB5EEC06BA8BFB0EEDD
:10521400450BF1EE10FAB5EEC07BD8BFB1EE466B8C
:10522400F1EE10FA8DED106BD8BFB1EE477BB4EE02
:10523400C76B8DED127BF1EE10FA80F29680B0EE22
:10524400476B12ABB4EEC60BF1EE10FA01DA93ED34
:10525400000BB5EE400B00220023F1EE10FA84EDB2
:10526400120B40F0D580CDE9082300220023CDE9BC
:105274000A2300220023CDE90C2300220023CDE9D8
:105284000E232DE0AFF30080000000000000444036
:1052940000000060FB21094000000000008066401F
:1052A40000000000004060400000000000C06C40AE
:1052B40000000000006073400000000000000000D7
:1052C400000000000000008000470020F46B002074
:1052D400104700201C4700202847002034470020A6
:1052E4009DF8181094F8600001F060FD9DF810100E
:1052F40094F8640001F05AFD94F850009DED0C7B85
:10530400FDEEC77B17EE901A01F0C8FE94F8540026
:105314009DED087BFDEEC77B17EE901A01F0BEFEF3
:105324009DF8141094F8680001F040FD9DF81C10DD
:1053340094F86C0001F03AFD94F858009DED0A7B56
:10534400FDEEC77B17EE901A01F0A8FE94F85C00FE
:105354009DED0E7BFDEEC77B17EE901A01F09EFECD
:1053640014B0BDEC108BBDE8F08710AB6AE710AA4F
:10537400A5E6B5EEC07BF1EE10FAB5EE40DB79DDC3
:10538400B0EE475BF1EE10FAB5EE40CB14BF01234B
:105394000023F1EE10FAB5EEC00B18BF43F0010381
:1053A400F1EE10FA7FF765AEB0EE406B63E687EE80
:1053B400064B80EE065B8FEE063B9DED0E7B87EE83
:1053C400062BB5EEC04BF1EE10FAB5EEC05B54BF40
:1053D40001220022F1EE10FAB5EEC03B049254BF54
:1053E40001220022F1EE10FA059254BF012200229C
:1053F400B5EEC02B0692F1EE10FA54BF0122002242
:10540400079273E6524602A92046FFF729FDC7E535
:1054140008A904A8FFF7FCFB94ED120BB5EE400BB2
:10542400F1EE10FA3FF421AF0AA905A8FFF7F0FB4B
:1054340094ED120BB5EE400BF1EE10FA3FF419AFF8
:105444000CA906A8FFF7E4FB94ED120BB5EE400B94
:10545400F1EE10FA3FF411AF0EA907A8FFF7D8FB3D
:105464003EE7B1EE470BC9E6B1EE404B1CE6B1EEA8
:105474004F5B0FE6B1EE475B84E700BF000000001E
:10548400D0B5044682B000200D4B04F11C01A0618C
:105494000246207761610146009004F1140006A7DA
:1054A400D7E90067C4E9006714F0F0FB0123204644
:1054B400237202B0D0BD00BF000000000004904081
:1054C400BC46002010B5054C204603F079FC20466C
:1054D400034A0449BDE8104003F04CBA1897002071
:1054E400986B0020BD6C00002DE9F041044682B0A9
:1054F4002C4800F09FFD002851DD00261DE004F13A
:105504001C036269D4F818809A4208F1010714BF99
:10551400E3690F239F4209D901220023414604F184
:10552400140000921A4614F06BFA626902F80850EB
:1055340000226369A761DA5501361A4800F07AFD42
:1055440086422CDA174800F089FDC5B27C2D6574BB
:105554001AD0612DD3D10021606935F055FCFDEEE0
:10556400C07B114817EE901AC4ED037A01F026F9B6
:105574000D4801F0CBF80021A26904F114000B4B93
:10558400009114F083FBD7E76069002135F03CFCFF
:105594000221054884ED000B01F01EF9E8E702B092
:1055A400BDE8F081646C0020F46B0020BC46002050
:1055B40038B50C4C0D460221204601F00DF90122AC
:1055C4002046094901F08CF82946204601F0F6F8F6
:1055D40020460122054901F083F82046BDE8384001
:1055E40001F094B8646C0020404700205C4D00201A
:1055F40010B50023044682B009202374019101F000
:10560400DBFBE06268B12046FFF76EFF237A13B933
:10561400E368462B01D002B010BD0123237202B00F
:1056240010BDDDED017A46212046B8EEE70BFFF709
:10563400BFFFE8E70020704790F8A32090F8A2008D
:10564400101A704790F8A23090F8A3209A4205D916
:105654005A1C034480F8A220987E70474FF0FF3014
:10566400704700BF90F8A23090F8A3209A4202D964
:105674000344987E70474FF0FF307047704700BF77
:10568400B0F8303193B190F82F31882B0BD8C21871
:1056940010B45C1C012380F82F41184682F8A51031
:1056A4005DF8044B704701220023027118467047CD
:1056B40038B50546B0F8300190B195F82F3114464D
:1056C400C3F1890294420CD805F1A500224618447E
:1056D40001F0C0FB95F82F3120461C4485F82F417A
:1056E40038BD144601222A71EEE700BF2DE9F04FC0
:1056F4008346404883B01525DBF814A09BF8186056
:105704009BF819300AEB06163B490AEB0313DFF842
:10571400ECE0367A0C4693F828303601DFF8E09056
:105724001B01871950F8068000EB030CC658F86873
:105734007B68DCF80C7000931D60C8F88400D8F80E
:105744000430DCF8042003430192C8F804301560E7
:10575400C6F8847073683B4373600968DEF80030F0
:10576400A9FB0332920C02EB8202520023685B1AFB
:105774009A42FBD8204A0925DFF884C09146D8F81C
:105784000830184202D0B3681F4231D1C6F888707D
:105794001468DEF80010ACFB0131890C01EB8101C7
:1057A40013681B1B9942FBD8C6F88470D9F80040D3
:1057B400DEF80010ACFB0131890C01EB81011368A8
:1057C4001B1B9942FBD8013DD9D128469BF81830C0
:1057D400009A0AEB0313DB6813609BF81930019AF3
:1057E4000AEB031ADAF82C30136003B0BDE8F08F2B
:1057F4000120EBE724400020041000E0A06B00200F
:1058040083DE1B430D49026910B50C6805E0DB011A
:1058140007D40B681B1B102B08D8536913F0007FA7
:10582400F5D14FF4FE430120536110BD0446FFF748
:105834005DFF0028F9D02269F3E700BF1498002027
:105844002DE9F04790F82FA1BAF1000F02D10420FE
:10585400BDE8F08705460E46FFF7D4FF0028F6D0D2
:105864002E4F00244FF40079D7F80080544529695D
:105874001AD8CB6D03F00703032B09D914E095F86C
:10588400A5200133012442F48062042B0A660BD064
:105894002A19002CF3D0A24527D9013392F8A52068
:1058A4000134042B0A66F3D14B69180522D45A0536
:1058B40027D4980404D43A68C8EB0202322A09D9DE
:1058C4000B694FF40072042043F440730B610A66C1
:1058D400BDE8F087544505D9CA6D520702D19B052E
:1058E40019D4C6B102F044FFC0E70EB1C1F860900C
:1058F4000134D9E70B69042043F440730B61BDE81C
:10590400F0870B694FF40072022043F440730B617B
:105914000A66BDE8F0870020BDE8F08714980020EF
:105924002DE9F84F0C46154698468146FFF76AFF65
:1059340010B90420BDE8F88F00226300002D40F266
:10594400014A1446DBB23D4E08BF0125022C43EA4E
:105954000A0AD6F800B089F8A22089F8A32048D909
:10596400D9F8103099F8A320872A12D8D96DC1F339
:10597400024111B90DE0882A0BD002F1010E09EBA6
:10598400020001395FFA8EF289F8A3201F6F87762F
:10599400F1D15A6910054CD412F4105F04D1316866
:1059A400CBEB0101322912D91A694FF4007142F488
:1059B40040721A611966DA6D12F4E02F03D01A6985
:1059C40042F400721A6199F8A300BDE8F88F99F8BF
:1059D400A310A94209D3022C07D9D96D490704D1D0
:1059E4009205E8D4B8F1000FE5D002F0C1FE022C14
:1059F400B6D8D9F81020D36D03F00703032B0DD8C4
:105A0400691E4FF4007041F480714CB9C2F860A073
:105A1400013B0134032B01D8022CF6D91346A1E72C
:105A2400012C04D0B8F1000FF2D01066F0E7116633
:105A3400EEE71A6942F440721A61BCE71498002038
:105A440010B4047F4160022CC26003D05DF8044BA3
:105A540000F06CBA83685DF8044B1847F0B5304C1D
:105A6400304BA06C656C0179226CD9772979197750
:105A740001791977FAB1B2F5004F18D22B6892B2B6
:105A8400D98B0E043BD4DA83D98B89B2D9820368CB
:105A9400D98B09042CD4DA830021DA8B92B2DA820E
:105AA400216402791F4BDA762A79DA76F0BD1E4B2F
:105AB40013442364F5E7E06C0F25236840F2013EAC
:105AC40001684FF47C579D6503260D681749DA6118
:105AD4008D42C3F810E05F6184F83D6017D1037F05
:105AE4004260022BC26017D0BDE8F04000F01EBA3D
:105AF400D98BC2F3080201F47E410A43CBE7D98B68
:105B0400C2F3080601F47E413143D983BCE72B4636
:105B14001146BDE8F04018478368BDE8F0401847D7
:105B2400A46B002000800E400180FFFF213900009B
:105B3400704700BF70B50C46054628220021204658
:105B4400012632F0BBFA0B220849204634F0C6F98C
:105B5400002200230320E2720549ED68E660256116
:105B6400626260612162A361E36170BD4447002009
:105B74000AD7233C10B50446142101F00DFA20463F
:105B840010BD00BFF8B504460025084816461F4658
:105B9400E16020601020A56001F0F6F905463A4660
:105BA40031462EF02DF8A5602046F8BDAC2C00201F
:105BB40030B5024685B00C4600213D25806801239E
:105BC400147402220191009103A98DF80D408DF8FF
:105BD4000C502EF04BF81E2001F04EF805B030BDED
:105BE4002DE9F047054684B08946806801212EF0EE
:105BF4002DF820B90027384604B0BDE8F08704AC7E
:105C040000264FF001080746A8684246019604F8AA
:105C1400046D23462146CDF800802EF0B9F89DF896
:105C24000C30A02B12D04FF47A7001F025F8A8683C
:105C3400234601964246CDF8008021468DF80C603B
:105C44002EF0A6F89DF80C30A02BD3D100212846C5
:105C5400FFF7AEFF00263F214FF0200EA868012376
:105C640002228DF80C100196214600964FF001088F
:105C74008DF80DE02DF0FAFF1E2000F0FDFF01E08D
:105C840000F0FAFFA868234601960122CDF80080AF
:105C940021468DF80C602EF07BF89DF80C304FF007
:105CA400000A0A20A02BEBD13E26322000F0E4FFAC
:105CB400A8682146012302228DF80C60CDF804A0C7
:105CC4000726CDF800A08DF80DA02DF0CFFF0A20F7
:105CD40000F0D2FFA86821468DF80C60CDF804A02E
:105CE4000123CDF800A002223F268DF80DA02DF04F
:105CF400BDFF01230222A8682146CDF804A0CDF8F7
:105D040000A08DF80DA08DF80C602DF0AFFF0A20D7
:105D140000F0B2FF49462846FFF74AFF142000F07E
:105D2400ABFF384604B0BDE8F08700BFF0B50E46BF
:105D3400002185B004460D46077CFFF739FF192082
:105D440000F09AFF4FF0070EA06803A90195012304
:105D5400009502228DF80D508DF80CE02DF086FF91
:105D6400A068BEB93F25019603A90096012302222B
:105D74008DF80D608DF80C502DF078FF0A2000F09E
:105D84007BFF39462046FFF713FF142000F074FF11
:105D940005B0F0BD4FF03F0E8026019503A9009594
:105DA400012302228DF80CE08DF80D602DF05EFFCA
:105DB400E4E700BF00000000F0B587B000251646F8
:105DC400062706AA0560456004AB02F80C6D04467C
:105DD4008560083EC5600561456188681146019586
:105DE400012200970495ADF814502DF0D1FF9DF8D1
:105DF40010309DF811009DF8135043EA00209DF8DF
:105E040012109DF815209DF8143041EA052100B2C6
:105E140043EA022309B21BB2262E2FD8DFE806F08C
:105E2400142E2E2E2E2E312E2E2E2E2E312E2E2EA2
:105E34002E2E312E2E2E2E2E2E2E2E2E2E2E2E2E7B
:105E4400142E2E2E2E2E140007EE900AB8EEE75BC9
:105E540007EE901AB8EEE76B07EE903A9FED184BF9
:105E6400B8EEE77B85EE043B86EE045B87EE046BBD
:105E740084ED003B84ED025B84ED046B204607B0A7
:105E8400F0BD07EE900A2046B8EEE75B07EE901AE5
:105E9400B8EEE76B07EE903A9FED0B4BB8EEE77B5D
:105EA40025EE045B26EE046B27EE047B84ED005B99
:105EB40084ED026B84ED047B07B0F0BDAFF300808A
:105EC4000000000000005940000000000000B03F46
:105ED400F0B50C46242587B006462A460021204604
:105EE400032732F0EBF8104BF06831461B681A2296
:105EF400606068462560A7602361FFF75DFF0120AD
:105F04009DED005B9DED026B9DED047BB7EEC55BE3
:105F1400B7EEC66BB7EEC77B84ED055A84ED066A0F
:105F240084ED077A07B0F0BD1498002010B4EFF3A5
:105F3400108272B6437F33B9017F012908D0032947
:105F440010D00123437702B962B65DF8044B704761
:105F5400114C2168A1B1114943610B680860836148
:105F64005861EEE70E4C216881B10E4943610B681C
:105F74000860836158610C4B4FF080511960E0E771
:105F8400064B4161816120601860DAE7054B41618D
:105F9400816120601860EEE7D88F0020E48F002034
:105FA400E08F0020DC8F002004ED00E070B5EFF3FB
:105FB400108172B60C4C23688BB10C4E00255A69C3
:105FC40022607AB1956101B962B65D7718469B6823
:105FD4009847EFF3108172B62368002BEFD101B913
:105FE40062B670BD3260EEE7E08F0020DC8F0020E7
:105FF400FFF7DCBF044A054B1168054A19601368B2
:1060040001331360704700BF041000E010980020B3
:1060140014980020B0F84630B0F848209BB292B2F1
:10602400934202D2501EC01A7047406B013810448C
:10603400C01A704772B6B0F84A30B0F84C2099B222
:1060440093B2994201D2826B11440269CB1AD06A8D
:10605400C0F30260184462B6704700BFB0F84A202B
:10606400B0F84C3092B29BB29A4270B428D001334B
:10607400846BA34217D2016B9EB28B4218D2016A81
:10608400C95CC9B2856DA0F84C60B5B19A4238BFFD
:106094001219D31AC26B93420FD8C36D0846C5F8C0
:1060A400883070BC70470026016B33468B42E6D3C0
:1060B400591A456A695CC9B2E4E7084670BC70477E
:1060C40072B6B0F84A1089B28A4202D062B60A4661
:1060D400CDE70369DA6A12F0E06F04D0D869C0F33F
:1060E400090062B6DDE74FF0FF30FAE790F844307C
:1060F40043B110B5044602F03BFB94F84430002B46
:10610400F9D110BD704700BFB0F84A20B0F84C3048
:1061140092B29BB29A4210D00133816B026B8B42D4
:1061240028BF0023934204D39B1A426AD05CC0B2B6
:106134007047026AD05CC0B2704772B6B0F84A10B9
:1061440089B28A4201D062B6E6E70369DA6A12F0DC
:10615400E06F11D0DB690021026AC3F3090310B4B4
:106164000124A0F84A40A0F84C10D9B2517062B68C
:1061740018465DF8044B70474FF0FF3362B618467B
:10618400704700BFEFF31380B8B9EFF310834BB936
:10619400EFF305823AB94FF48073EFF3118050B1F5
:1061A400984208D270470F2AF7D9054BD35CEFF316
:1061B40011800028F4D1184670474FF0FF30F1E702
:1061C400F0E300E007EE901A9FEDA47A0421B6EE06
:1061D400005AF8EE677A9FEDA26A2DE9F043C7EE04
:1061E400275A0E46012541F6FF741DE0A342A8BFBD
:1061F400234607EE903AF8EEE76A76EEC76AC6EEF3
:10620400877AF5EEC07AF1EE10FA48BFF1EE677ABC
:10621400F4EEC67AF1EE10FA03D8B0EE676A0E46D1
:106224001D460131212911D007EE901AF8EEE77AC4
:1062340085EEA77A77EE057AFDEEE77A17EE903AC7
:10624400002BD3DCF7EE006A0123D6E70021436973
:1062540002F40074D0F83890B3F85C70B3F85E8040
:106264008C42A0F84A10C7EB0907A0F84C1008BFED
:106274008C46A0F8461018BF4FF0010CA0F8481047
:1062840080F84410D3F810E05969DEF80040C76381
:1062940044EA0104C8EB09010164CEF8004080F827
:1062A4001AC040F0CE80047E6E4903EB04146E4F96
:1062B400247E01EB0414A4682760047E03EB041419
:1062C400277ED4F81CE001EB07146468C4F800E0EE
:1062D400047E03EB0414276A0FB1646A3C60447EB5
:1062E400D92703EB041494F8384001EB0414A46890
:1062F4002760447E03EB041494F83870E46B01EBDC
:10630400071149680C60417E03EB01110C6C0CB160
:10631400496C2160711E5C785F68082E4FEA016148
:106324004FF00006D8BF4FF4003E04F1100401F012
:10633400F853C8BFB64601691D434C4B4EEA0505E8
:106344000D61CE6043F824704369012448495D78A7
:1063540093F85A30474E6B54456901696B7803F0E2
:106364001F075B11BC4046F823408B6A9B0803F06F
:106374001C030F2B60D85B1003F00303DCB28B6AA1
:106384009B0003F01C030F2B53D8DB0303F44033AF
:10639400234302F00304CB628B6A43F088038B62CD
:1063A40053074BD444F4701302F00F04042C847E7E
:1063B40008BF43F08043970648BF43F080530CB1B5
:1063C40043F0A00316078B6103D50B6943F0005318
:1063D4000B614B69D40623F0805348BF43F08053CC
:1063E4004B61D30503D50B6943F400530B61EB6890
:1063F4001B78E3B9204E357865B3204C236883427B
:1064040026D0691E2346C9B204EB810103E053F888
:10641400042F90421AD08B42F9D16B1CDBB2184A7C
:106424003370137844F8250043F002031370BDE879
:10643400F0834FF44033ABE70324A0E7114B23432D
:10644400B2E7447E4FF2D90706494AE7BDE8F08334
:10645400BDE8F0830123094CE1E700BF001BB74B03
:10646400EC78AD602440002038F001000078002072
:1064740000E400E000E100E027980020E88F00201D
:106484006975002010003C00F8B5036D04460E4603
:1064940013B1426DC3F88420A37E33B172B622696E
:1064A400936943F00053936162B6B4F84650636B4A
:1064B400ADB201359D4249D2AFB2B4F848309BB277
:1064C400AB4220D1FFF75EFE6369B3F85A309842BD
:1064D4002DDC21694B691B02EFD5B4F84830626B9F
:1064E4009BB20133934227D2E26A98B2934228D2F4
:1064F400E269D35CDBB2CB61A4F84800B4F848305D
:106504009BB2AB42DED0E36A9D4222D3ED1AF6B2CF
:10651400A36A5E5572B60120226984F84400A4F887
:106524004670936943F40003936162B6F8BDFF2893
:10653400C3DD02F01DF9C0E70020E26A034693427E
:10654400D6D39B1AA26AD35CDBB2D4E700273D46BC
:10655400B3E7F6B2E3695E55DCE700BFFFF794BF2B
:106564000269536913F4401FF0B542D0D36AC3F3F0
:106574000265002D3AD0B0F84A70B0F84CE0BFB2D2
:106584001FFA8EFE06E0026AD65402696B1E13F0EF
:10659400FF051AD0D1697B1C866BB0F84C40C1F35F
:1065A4000901B34228BF0023A4B2A342EED0026B78
:1065B400CEB21F469342A3EB0204E4D3436A1E55B2
:1065C4006B1E026913F0FF05E4D1BBB2816DA0F824
:1065D4004A3059B1774573D2836BCEEB03031F4422
:1065E400036C9F4202D3C36DC1F884305369DC024B
:1065F40055D4D2F818E01EF4000F02D053691902E2
:106604001CD41EF4800F48D053695B0246D5002188
:10661400036D80F8441013B1416DC3F88810837E74
:106624003BB172B60269936923F00053936162B679
:106634000269936923F480039361F0BDB0F8465076
:10664400B0F84830ADB29BB29D422DD0466BC46ABF
:106654000AE0C169C95CC9B2D161D16AC1F302213E
:10666400032912D8AB421FD001339E4298BF0023A6
:10667400A342A3EB0401ECD3876A795CC9B2D1616C
:10668400D16AC1F302210329ECD999B2AB42A0F833
:1066940048100CD01EF4800FB6D1F0BDF0BD536984
:1066A40043F480135361A4E7ADB2A0F84850936952
:1066B40023F400039361936943F480039361A0E797
:1066C400CEEB07078CE700BF0148FFF749BF00BFC7
:1066D400046C00200148FFF743BF00BF646C002036
:1066E400F8B50E4671B17AB10746144600253B68E9
:1066F400384616F8011B1B689847013C0544F6D13F
:106704002846F8BD0846F8BD1046F8BD10B5064C3D
:1067140082B003680222248801A95B68ADF80440B2
:10672400984702B010BD00BF08050020036810B5EB
:1067340014465B689847204610BD00BFF0B5064676
:106744008BB0002A33D0012A08BF0A2251B3212575
:1067540000E0FDB26F1EB1FBF2F402FB1411C8B2EB
:10676400092900F1370100F1300088BFC8B2214681
:106774000AAC98BFC0B22C4404F8240C0029E8D118
:1067840033B1013D0AAB2D22EDB22B4403F8242C86
:10679400336801A9C5F12202304629445B68984751
:1067A4000BB0F0BD302221258DF82520E8E70368E1
:1067B400C9B21B6898470BB0F0BD00BF002903DBCA
:1067C40000230A22FFF7BABF49422D230A22FFF70A
:1067D400B5BF00BF00000000B4EE400B70B5F1EE91
:1067E40010FA05462DED028B86B080F19180B0EE53
:1067F400C07B9FED4B6BB4EE467BF1EE10FA0ADDE5
:10680400036803224E495B6898470646304606B043
:10681400BDEC028B70BD9FED447BB4EEC70BF1EE73
:1068240010FA58DC9FED427BB4EEC70BF1EE10FA80
:1068340051D4B5EEC00B0C46F1EE10FA56D4002339
:10684400002C57D0B6EE008B00229FED3B7B01322B
:1068540028EE078BD1B28C42F9D830EE080B0A220D
:106864002846FCEEC07BB8EE678B17EE901A30EE2C
:10687400488BFFF763FF0F2C4FF00102B2EE047B4D
:106884004FF02E0328BF0F2406468DF80830144419
:10689400E4B228EE070B531C06A91144DAB2A24253
:1068A400FCEEC06BCDED016A9DF8043006EE903A23
:1068B40003F13003B8EEE68B01F8103C30EE488B60
:1068C400E7D12B68284602A95B689847304606B092
:1068D400BDEC028B70BD2B6803221A495B68984794
:1068E4000646304606B0BDEC028B70BDB1EE400BDF
:1068F4000123A5E7B6EE007B28460A2230EE070BFB
:10690400FCEEC07B17EE901AFFF718FF06467DE7F2
:10691400036803220C495B689847064676E700BF84
:10692400FFFFFFFFFFFFEF7F000000E0FFFFEF41ED
:10693400000000E0FFFFEFC1000000A09999B93FFB
:1069440054470020504700204C4700202A281BD8D9
:1069540014490B784BB1144A936C1B06FCD4134AAC
:10696400936C13F08003FBD10B70114B1B5CFF2B5A
:106974000AD01A060AD40C4A114613600B6A0A4A52
:10698400D807FBD5506A704700207047074A03F0C8
:106994007F03114613600B6A044ADB07FBD5506A78
:1069A400704700BF2A98002000400C4000800C4033
:1069B40058440020964A974B90422DE9F043964C58
:1069C400D3F814E09969E6681CD9944B984240F2D4
:1069D4001581934B40F22765924F0344924C1A0A57
:1069E400A7FB0232D30903EB830303EB830202F216
:1069F400E243AB4228BF2B46A3F54873A4FB0335FF
:106A0400ED0804E0894DA84294BF06250E25814A6D
:106A140006F01F07D2F88030AF4243F0C003C2F83B
:106A240080300AD27C4B26F01F061A462E43DE60C5
:106A34001368002BFCDA06F01F071EF0007331D137
:106A44007B4C7C4AD4F810C014460CEA0202A242E1
:106A54000ABF4FF0C0534FF4805200228EEA030461
:106A640014F0605F08D02EF0605E03F06053694C50
:106A740043EA0E0EC4F814E081EA020313F4405F03
:106A840008D0644B21F4405111431A469961936C28
:106A94001C07FCD44EF0007E5E4AC2F814E0936CEE
:106AA4009906FCD40121644C0A4601FB02F300FB65
:106AB40003F3A34209D8072A00F29580013201FBAF
:106AC40002F300FB03F3A342F5D95C485C4C184481
:106AD400A4FB00031B0D6C2B00F28B80352B00F202
:106AE4008F80DFF8888136235648DFF844C1564C3E
:106AF400DCF80090B0FBF2F009EA04044445B0FB72
:106B0400F1F00BD043F400534FF480586446CCF8B2
:106B14000080CCF800302368002BFCDADFF8F4C0E6
:106B2400013ADCF8103003F00703934207D002F077
:106B340007026446CCF81020A36CDB03FCD40139B3
:106B440089028EEA010313F4E05F0CD0314B2EF47A
:106B5400E05E01F4E0511A4641EA0E0EC3F814E077
:106B6400936C9907FCD4394B39490344DB09A1FBE5
:106B74000331090B042928BF04214B1E1B028EEA92
:106B8400030212F4407F07D02EF4407E03F44073D6
:106B9400204A43EA0E0353611E4B5C691A4624F0F3
:106BA40000745C61936C9B06FCD42A4B4FF0FF325B
:106BB400294CBD42A3FB00E320604FEA9343274CDA
:106BC400B2FBF3F3B0FBF1F1254A2160136008D264
:106BD400114B26F01F061A462E43DE601368002B65
:106BE400FCDABDE8F08304293FF66FAF01310122DE
:106BF4005BE7DFF87C806C231A4876E7122506E70A
:106C04001948DFF8708000FB03F043EA08086CE7DA
:106C140000A4781F00C00F40000008400046C323B2
:106C240000BA3CDC23B24C001F85EB5100366E01E8
:106C340000800D4040300080FFB19F26808D5B00B6
