:0200000460009A
:100000004643464200000156000000000103030081
:1000100000000000000000000000000000000000E0
:1000200000000000000000000000000000000000D0
:1000300000000000000000000000000000000000C0
:1000400000000000010408000000000000000000A3
:100050000000800000000000000000000000000020
:100060000000000000000000000000000000000090
:100070000000000000000000000000000000000080
:10008000EB04180A063204260000000000000000FD
:10009000050404240000000000000000000000002F
:1000A0000000000000000000000000000000000050
:1000B0000604000000000000000000000000000036
:1000C0000000000000000000000000000000000030
:1000D00020041808000000000000000000000000DC
:1000E0000000000000000000000000000000000010
:1000F0000000000000000000000000000000000000
:10010000D8041808000000000000000000000000F3
:100110000204180804200000000000000000000095
:1001200000000000000000000000000000000000CF
:10013000600400000000000000000000000000005B
:1001400000000000000000000000000000000000AF
:10015000000000000000000000000000000000009F
:10016000000000000000000000000000000000008F
:10017000000000000000000000000000000000007F
:10018000000000000000000000000000000000006F
:10019000000000000000000000000000000000005F
:1001A000000000000000000000000000000000004F
:1001B000000000000000000000000000000000003F
:1001C000000100000010000001000000000000001D
:1001D000000001000000000000000000000000001E
:1001E000000000000000000000000000000000000F
:1001F00000000000000000000000000000000000FF
:10020000FFFFFFFFFFFFFFFFFFFFFFFFFFFFFFFFFE
:10021000FFFFFFFFFFFFFFFFFFFFFFFFFFFFFFFFEE
:10100000D10020432914006000000000000000000F
:10101000201000600010006000D404600000000098
:101020000000006000E0040000000000FFFFFFFF80
:10103000FFFFFFFFFFFFFFFFFFFFFFFFFFFFFFFFC0
:10104000FFFFFFFFFFFFFFFFFFFFFFFFFFFFFFFFB0
:10105000FFFFFFFFFFFFFFFFFFFFFFFFFFFFFFFFA0
:10106000FFFFFFFFFFFFFFFFFFFFFFFFFFFFFFFF90
:10140000884207D0904205D251F8043B40F8043B93
:101410008242F9D8704700BF884204D2002340F8C6
:10142000043B8142FBD87047664B4FF42A01664A61
:1014300066482DE9F0475A641864654A99639546F1
:10144000BFF34F8FBFF36F8F00F09AF9614B082005
:10145000614A6249C3F854016148FFF7D1FF614A0C
:1014600061496248FFF7CCFF61496248FFF7D4FF4A
:10147000614C62494FF470000023614A086044F8EF
:1014800023200133B02BFAD15E4B80215E4A03F852
:10149000011B9342FBD14F4D4FF080385B494FF019
:1014A000FF325B4B0026DFF8A4A1DFF8A4911C609B
:1014B000C5F80481C5F800A1C5F8F480C5F8F0901E
:1014C0000B68544F43F4E0230B60FB693D4923F064
:1014D0007F0343F04003FB617B6A23F07F0343F00B
:1014E00040037B628A66CA660A674A6700F04EF963
:1014F000494A4A4B6320A2630321E363484A494BAC
:10150000106000F160401E6042F8041C00F6A170FB
:101510004549464AC3F8082D0B68454A43F0807395
:101520000B601368434943F00103136003680B60C9
:1015300000F07CFBC5F804813F48C5F800A1C5F860
:10154000F480C5F8F09000F0F3FCF96E3B4A41F4EA
:1015500040513B4BF9661660C2F80861C2F8186149
:10156000C2F82861C2F838619A6BD20708D442F6F3
:101570001562344959651A659A6B42F001029A6303
:101580002F4A314C936843F00113936000F070F9D7
:1015900000F0CAF800F0C8FC00F07AFB00F0F2F8A6
:1015A0002368132BFCD900F001FC2368B3F5967F68
:1015B000FBD300F0E9F800F0A7FC00F09DFC30BF81
:1015C000FDE700BF00C00A40FFFFABAA07002000F4
:1015D0000080032000800D40101A04001C210060D0
:1015E00000000000C0760020F25A046000000020D5
:1015F00060920020C07600200074002088ED00E09A
:10160000F131000000E400E0A0E400E024ED00E09F
:1016100008ED00E000C00F40391E00003D1E000034
:1016200014E000E018E000E0FCED00E00000202005
:10163000001000E08C9100200046C32300400840C9
:1016400000400D400000C056909100201B10182053
:101650000C0D11132DE9F0412F4F00254269012493
:10166000B96B4FF0020E16684FF4303821F47C014C
:101670000369DFF8B0C041F48021B963316857686D
:10168000394331604FF00111244EC3F810E01D6161
:10169000C3F848C05C629E624FF66106C3F82C80B6
:1016A0009F6C1F651D6299651C61017E1C4B02EBDE
:1016B0000111097A03EB011189680E60017E02EBCA
:1016C00001110C7ACD6803EB041149680D60017EAD
:1016D00002EB01110C690CB149692160417E4FF6A2
:1016E000610402EB011191F8281003EB01118968E4
:1016F0000C60417E02EB011191F82840C96A03EBAE
:1017000004135B681960437E02EB0312136B0BB189
:10171000526B1A60BDE8F08100C00F40B80B0505A0
:10172000244000203B372819114B1249D86E0A4635
:1017300040F4403030B4D86640F23765D86EA0240B
:1017400040F44070D8664D648C64936C1B06FCD4E6
:10175000094B40F23760A0211A4658649964936C93
:1017600013F08003FBD1054A137030BC704700BFF3
:1017700000C00F4000400C4000800C40A6910020AB
:10178000704700BF704700BF704700BFF0B5244AE4
:101790000020244B4FF0100C234C1126DFF8C8E03A
:1017A000122720600125C2F800C0C3F800E01660CF
:1017B000DFF8B8E01D4EC3F800E01D4917601E6059
:1017C00041F015011B4F1C4E17601E601B4F1C4E35
:1017D00017601E601B4F11601B4E1C491F60166076
:1017E0001B4F19601B4E1C4917601E601B4F116078
:1017F0001B4E1C491F60166019602560BFF34F8F98
:10180000BFF36F8FC3F8B001BFF34F8FBFF36F8F7C
:1018100052F8883C43F4403342F8883CF0BD00BFA6
:101820009CED00E0A0ED00E094ED00E00900100068
:101830006092002013002000210002071400002005
:1018400025000813090000101600202027000B13A4
:101850001700004033001013180000602F000B0722
:10186000190000702F000B133F0000102500080323
:10187000F0B58D4B18228D4E01208D4948F20C7E1B
:101880008C4D4FF0FF378C4C83B0C3F85C12C3F81B
:1018900060520025C3F86412C3F868424FF4005444
:1018A000C3F86C628549C3F87062C3F87462C3F808
:1018B0007862834EDA661A675A679A67DA67C3F8FE
:1018C0008020C3F88420C3F8882040F20562C1F864
:1018D0002C03C1F83003C1F83403C1F83803C1F850
:1018E0003C03C1F850032946B36976481840764B4B
:1018F00003437648B361D6F8843043F00C03C6F84E
:1019000084300226036833430360036803EA0E0E43
:101910006F4B4EEA0303DFF8F0E103606D4B476065
:10192000DEF808703B406C4F43F000538360C3689F
:1019300023F07803C360036A1F40684B3B43664F44
:101940000362036A1F40654B3B43654F43628762F6
:10195000C762DEF8B830634F23F03F0343F0010362
:10196000C0F8B830DEF8BC30DFF884E123F03F0384
:1019700043F00103C0F8BC30056104660767C0F896
:10198000802044664767C0F884200468564B24F0E2
:101990000204564A0460C0F818E0C66143F8041B0C
:1019A0009342FBD1494B1A68194642F001021A6072
:1019B0000B68464A13F00103FAD14D4E022540F25E
:1019C000F56440F2664040F299414A4F966142F216
:1019D0000146D56140F23545C2F8004242F2012489
:1019E000C2F810020120C2F820121146C2F830726B
:1019F00007F15A47C2F8346207F51377C2F840522C
:101A00003D4E3E4DC2F85072C2F85462C2F8605268
:101A1000C2F86442C2F8A030C2F8A430C2F8B000E4
:101A20004B692A4ADD07FBD5012300244FF480309F
:101A300011465361C2F8A040C2F8A400C2F8B03009
:101A40004B69224ADC07FBD5012300244FF4003008
:101A500011465361C2F8A040C2F8A400C2F8B030E9
:101A60004B691A4AD807FBD50123002424481146A4
:101A70005361C2F8A040C2F8A400C2F8B0304B696C
:101A8000124ADB07FBD5D2F8003145F60D51212073
:101A90009BB250618B4239D01A4B00221A605A60B7
:101AA0009A60DA6003B0F0BD00801F40F970010059
:101AB000F9B00100F9100100F900010000841F4095
:101AC00000C00F40FFFCFF1F000300A000402A40A1
:101AD0001200FFFFFF37F70000FFF07C400000809E
:101AE000FF000F836300020000422A4000432A40A7
:101AF000F05AF05A9F041830063201263806180AA8
:101B0000040003000492002000802A4000244FF4C7
:101B1000802001231146C2F8A040C2F8A400C2F8F8
:101B2000B0304B693B4ADF07FBD501234FF400047B
:101B3000002011465361C2F8A040C2F8A400C2F8C8
:101B4000B0304B69334ADE07FBD501234FF4000464
:101B50004FF4803011465361C2F8A040C2F8A4008F
:101B6000C2F8B0304B692B4ADD07FBD501234FF497
:101B700000044FF4003011465361C2F8A040C2F88F
:101B8000A400C2F8B0304B69224ADC07FBD5012320
:101B90004FF40004204811465361C2F8A040C2F837
:101BA000A400C2F8B0304B691A4AD807FBD5D2F866
:101BB000003145F60D5121209BB250618B4210D06F
:101BC000164B08224FF400041A7015490020154ADC
:101BD00001230090521A1448224400F0A1F903B0E6
:101BE000F0BD4FF400044FF4802101231046C2F8E9
:101BF000A040C2F8A410C2F8B03043690549DB0721
:101C0000FBD50120054B10224FF0807448611A70FB
:101C1000DBE700BF00402A4004000300A79100203A
:101C2000000000700000007004920020F0B4174A19
:101C300040274FF480314FF480564FF400554FF455
:101C4000404443F24200136913F0020F06D094613E
:101C500051619061136913F0020FF8D113F4005F22
:101C600001D15561EFE713F4805F01D15661EAE7D6
:101C7000002BE8DA13F4803F01D09161E3E75B06C3
:101C800001D45761DFE7F0BC704700BF00800D4012
:101C9000394A03203949F3EE095A13689FED386A2F
:101CA00023F00103DFED376AF0B413600024106104
:101CB000D1F8E030344FD8B2C3F30B211B0D334EB3
:101CC00007EE100A05EE101A07EE903A304BB8EE08
:101CD000C55A304DB8EEC77A3060F8EEE77A296021
:101CE0002D4937EE466A2D4E77EEC57A2C4877EEB1
:101CF000666A2C4D37EE657A26EE276AC7ED007AC4
:101D000066EEA76A176867EE277A83ED007AC6EE5B
:101D1000075A86EE876AC7EE876A35EE857AFCEE4B
:101D2000C77A36EE057A17EE903ABCEEC77A47EAE4
:101D3000035376EE857A136017EE103AD2F81071DD
:101D4000FCEEE77A01EA0341394317EE903AC2F814
:101D50001011C3F30B03D2F810110B43C2F810316A
:101D6000136843F0020313603470C0F840510E4B07
:101D70000122F0BC1A60704780810D4000441F4072
:101D80000000AA420000B442809100207891002017
:101D90007C910020749100200000FF0F40E400E0DF
:101DA00000740020F133000008E100E0304B40F601
:101DB000617270B5C3F8202140F2044500F0ACF820
:101DC0002C492D48D1F880202C4C42F003022C4B9A
:101DD000C1F88020C0F86051226813401BB9D0F8C8
:101DE000A8319A071AD0244B4FF00041234A51637F
:101DF0001A46D3F8401141F00201C3F84011D2F85D
:101E000040319B07FBD44FF400301E491B4B4FF071
:101E10000042086019209A6300F072F81A4D0022FF
:101E2000164B4FF08041144C0A26996328461A60DD
:101E30001146C4F8A8614FF4207200F069F84FF41D
:101E4000810640F243114FF48000104B104A2E607F
:101E50002864C4F85851C4F84811C3F804220D4A44
:101E60004FF4003101231160C4F8403170BD00BF50
:101E700000800D4000C00F4000002E4000900D403B
:101E8000001C1E008CE200E0000000200074002016
:101E9000BD3500000CE100E008B50E4B1B6E9B0742
:101EA00000D4FBBE72B60C4B00200C4AC3F84001B4
:101EB00003F160430A49A3F55F2311649D46BFF314
:101EC0004F8F084A03F5E043074912681846196026
:101ED0009368984700441F4000002E4000C00A400D
:101EE000030020001C002000000012EBF8B500BF2A
:101EF000F8BC08BC9E4670475FF800F0152C000047
:101F00005FF800F0492A00005FF800F06933030031
:101F10005FF800F08D3E03005FF800F05D3D0000CB
:101F20005FF800F0B14600005FF800F0352F0000C8
:101F30005FF800F08527000045000000B1000000B8
:101F40003910000059D30000055601000571010049
:0C1F5000C585010001FC0100D53C020029
:101F5C0080C00F40000000031900000010000000BA
:101F6C00E8841F4001000000FF000000FF0000009B
:101F7C00000000000000000018000000100000002D
:101F8C00E4841F4001000000FF000000FF0000007F
:101F9C0000000000000000001F00000070C00F4097
:101FAC00000C00001100000011000000E0841F4034
:101FBC00020000002C00000012000000E0841F4012
:101FCC00010000001000000011000000DC841F4024
:101FDC00020000002D00000012000000DC841F40F5
:101FEC00010000001E00000070C00F40C000000087
:101FFC001200000013000000D0841F4001000000FC
:10200C00FF000000FF0000000000000000000000C6
:10201C001300000013000000CC841F4001000000DE
:10202C00FF000000FF0000000000000000000000A6
:10203C001C00000001000000160355005300420074
:10204C002000530065007200690061006C00000004
:10205C0018035400650065006E007300790064007D
:10206C00750069006E006F000403090409024B003F
:10207C00020100C032080B00020202010009040038
:10208C0000010202010005240010010524010101D8
:10209C000424020605240600010705820310001023
:1020AC0009040100020A00000007050302400000B9
:1020BC00070584024000000009024B00020100C029
:1020CC0032080B00020202010009040000010202A6
:1020DC00010005240010010524010101042402065D
:1020EC000524060001070582031000050904010000
:1020FC00020A000000070503020002000705840223
:10210C00000200000A060002EF020140010001007B
:10211C0000000000000000000000000000000000B3
:10212C0000000000000000000000000000000000A3
:10213C0010B5054C237833B9044B13B10448AFF3F5
:10214C0000800123237010BD1879002000000000CE
:10215C0064080400084B10B51BB108490848AFF3DC
:10216C0000800848036803B910BD074B002BFBD057
:10217C00BDE81040184700BF000000001C7900208B
:10218C0064080400C076002000000000D0B50446AE
:10219C0082B00020002604F118010027606102467D
:1021AC00207621610146009004F11000034BC4E934
:1021BC00026715F0D9FC204602B0D0BD784500204E
:1021CC0010B5054C204604F069FD2046034A04492D
:1021DC00BDE8104004F03CBBF48F0020786A00206E
:1021EC00A94B0000000000002DE9F043044683B029
:1021FC00274801F0CBFE00282BDD002704F118093D
:10220C0021E001F0D7FE5FFA80F8B8F1610F25D01C
:10221C002369013766694B4506F1010514BFA269B4
:10222C000F22954209D900230122314604F11000F6
:10223C0000921A4615F052FB236903F8068000221F
:10224C00236965615A55124801F0A0FE8742104877
:10225C00D7DB9FED0D0B03B0BDE8F08320690021A7
:10226C0036F04AFD0021626904F110000091094B1F
:10227C0084ED020B15F078FC94ED020B03B0BDE875
:10228C00F08300BFAFF300800000000000000000EE
:10229C00E46A00207845002038B504460123002567
:1022AC00203040F8043C257600F07AF90022054BEA
:1022BC0029460E20C4E90023C4E9042302F0F2FCF1
:1022CC00204638BD0000F0BFB1EE067B90ED020B4E
:1022DC0010B52DED048B9FED408B20EE070B0446C3
:1022EC002FF086FD20EE088BB7EE007B94ED009B63
:1022FC00B4EE478B9FED3A6BF1EE10FAB4EEC69B41
:10230C00C8BFB0EE478BF1EE10FA03DD9FED367BC4
:10231C0037EE499B0C213C4804F012F90221B0EE37
:10232C00490B3A4802F0FCF9384802F095F99FED58
:10233C00300B29EE000B2FF05BFD092134489FED8B
:10234C002E9B9FED2F7B20EE099BB4EE479BF1EE6D
:10235C0010FAC8BFB0EE479B04F0F2F8B0EE480B91
:10236C0002212A4802F0DCF9284802F075F908210C
:10237C00284804F0E5F8B0EE490B0221234802F09E
:10238C00CFF9224802F068F9B7EE005B28EE098B12
:10239C000D212148BFEE006B94ED007B9FED104B9F
:1023AC00B4EEC47BF1EE10FAD8BFB0EE456BA6EEDE
:1023BC00087B84ED047B04F0C3F80221134894EDF0
:1023CC00040B02F0ADF91148BDEC048BBDE81040D4
:1023DC0002F042B9AFF3008000000040E17A943F74
:1023EC000000000000806640000000000080764085
:1023FC00000000A09999C93F00000040E17AB43F69
:10240C00000000000080564034450020D46A0020B3
:10241C0044450020504500205C4500200000000091
:10242C00F8B500F1200605462DED028B304600F084
:10243C0079F9021F00F15C01C5F89C009FED3E7B11
:10244C00B0EE478B85ED027B52F8043FC3F58063F9
:10245C0007EE903A1360B8EEE77BB4EEC87BF1EE72
:10246C0010FA03DDB0EE478B85ED027B8A42EBD18F
:10247C009FED337B3046002728EE077B85ED027BF2
:10248C0000F04CF90446304600F04AF9FDEEC87BEA
:10249C00234640F22624D5F89C1017EE902A03F11F
:1024AC00C0060439963A9FED241BA242B0EE410BB4
:1024BC00A8BF22460DE007EE904AB8EEE77BB3ECDE
:1024CC00025BB0EC026B9E42A5EE070BA6EE071B5F
:1024DC0007D051F8044F94429FED177BEBDA0F6055
:1024EC00EDE72FF081FC9FED187B9FED196B20EE33
:1024FC00070B80EE067BB5EEC07BF1EE10FA03D530
:10250C009FED156B37EE067B0C21154885ED007B96
:10251C0004F016F80221134895ED000B02F000F9B7
:10252C00104802F099F82846BDEC028BBDE8F84043
:10253C00FFF7CABEAFF300800000000000000000EF
:10254C00000000000000503F0000000000806640CA
:10255C0000000060FB210940000000000080764074
:10256C006C450020D46A002038B5044601250021B2
:10257C000A20E56102F08AFB092002F08DFBE06184
:10258C0028B100210A20BDE8384002F07FBB294663
:10259C000A20BDE8384002F079BB00BF0000000003
:1025AC002DE9F0470A23074601254FF00B0A4FF09F
:1025BC000C094FF00D0800266022574910300F24EB
:1025CC002DED088B00F80EACB7EE00BB00F809AC93
:1025DC00BB71FB727D71BD7287F80CA087F80390FC
:1025EC0087F8089087F80D9087F8048087F80980A1
:1025FC0087F80E8002F09EFB294630463E707E70B6
:10260C0002F050FB2946B87802F04CFB3146F878C2
:10261C0002F048FB2946387902F044FB29467878C9
:10262C0002F034FB294628467E71BD7187F807A05D
:10263C0087F8089087F8098002F034FB2946F8796E
:10264C0002F030FB3146387A02F02CFB2946787ABE
:10265C0002F028FB2946B87902F018FB0223294620
:10266C00BE721846FB7287F80CA087F80D9087F89D
:10267C000E8002F017FB2946387B02F013FB314623
:10268C00787B02F00FFB2946B87B02F00BFB294646
:10269C00F87A02F0FBFA602002F0E8FBB867C02081
:1026AC0002F0E4FB3867C02002F0E0FB3E6F054609
:1026BC0078679FED130B9FED14AB9FED159B12E00C
:1026CC0007EE904A0F34B8EEE77B27EE0A7B87EED5
:1026DC00098BB0EE480B2FF0E7FAB0EE40BBB0EE32
:1026EC00480B2FF031FBB4F5B47FA6EC02BBA5EC84
:1026FC00020BE5D1BDEC088B3846BDE8F08700BF76
:10270C00000000000000000000000060FB210940F8
:10271C00000000000080664048040020006F7047F5
:10272C00406F70472DE9F04F044683B0DFF8048208
:10273C00002500F10C061EE0032B00F01981012B83
:10274C002FD00027A36F2946774843F82570013511
:10275C0001F0DAFF0721754803F0F2FE724801F030
:10276C007BFF3946704801F0CFFF6F4801F074FFD2
:10277C00182D00F0348256F8043F6D4A013B1A4084
:10278C00002AC0F29081002BB8BF0733DB10013355
:10279C00022BD1D1D3B2072B40F28A814FF0FF37F5
:1027AC00D0E7D1B20729F9D8120121788DF804307D
:1027BC0002F47F6262F07F028DF80520002900F0A0
:1027CC00918298F81330002B3CD072B6594BDA7CBE
:1027DC00D707134607D55848564907684969394001
:1027EC00544FB9620160900709D55449D8F81820A4
:1027FC00086898F813300240C8F82C200A60590772
:10280C0009D54F49D8F81C20086898F813300240B5
:10281C00C8F830200A601A0709D54A49D8F8202090
:10282C00086898F813300240C8F834200A60DB06B8
:10283C0007D5454AD8F8243011680B40C8F8383011
:10284C00136062B6D8F80830404A934200F0B38265
:10285C003F4B3E499B693F4AC8F80810C3F301112E
:10286C00C3F3826352F821200133B2FBF3F23A4BEB
:10287C00A3FB02139B0C40F08582C8F80C30D8F8EF
:10288C00002000214FF0030E072701201161C2F830
:10289C0024E0136417661061607802F0F7F9D8F839
:1028AC00002001A90DEB07000B785366D36D13F4D0
:1028BC00F81FFBD0536F01F8013B8842F4D1012182
:1028CC00607802F0E3F998F813301A461BB3D90775
:1028DC0003D5D8F82800214908609F0705D5D8F8FA
:1028EC002C101F4B98F813201960500705D5D8F8F9
:1028FC0030101C4B98F813201960110705D5D8F827
:10290C003430194998F813200B60D30603D5D8F846
:10291C003830164A13609DF805709DF8063043EA6E
:10292C000727C7F309070DE7D46A00207C45002070
:10293C0007000080846A002080E100E084E100E070
:10294C0088E100E08CE100E090E100E07099140077
:10295C0000C00F40043D00203BD4B53100E100E045
:10296C0004E100E008E100E00CE100E010E100E02F
:10297C00D3B2072B3FF612AF13010127A17A03F450
:10298C007F638DF8047063F07F038DF805300029A8
:10299C0000F0298198F81330002B3CD072B6B14B63
:1029AC00DA7CD007134607D5AF48AE4907684969AA
:1029BC003940AC4FB9620160910709D5AB49D8F8E1
:1029CC001820086898F813300240C8F82C200A60C8
:1029DC005A0709D5A649D8F81C20086898F813306E
:1029EC000240C8F830200A601F0709D5A149D8F861
:1029FC002020086898F813300240C8F834200A6088
:102A0C00D80607D59C4AD8F8243011680B40C8F872
:102A1C003830136062B6D8F80830984A934200F008
:102A2C00CD81974B95499B69964AC8F80810C3F31A
:102A3C000111C3F3826352F821200133B2FBF3F28C
:102A4C00914BA3FB02139B0C40F09181C8F80C3006
:102A5C00D8F8002000214FF0030E07270120116148
:102A6C00C2F824E0136417661061E07A02F00EF9E4
:102A7C00D8F8002001A90DEB07000B785366D36D35
:102A8C0013F4F81FFBD0536F01F8013B8842F4D1CB
:102A9C000121E07A02F0FAF898F813301A46002B6C
:102AAC007FF415AF37E7013A62F0070201326AE6AC
:102ABC0013010127617903F47F638DF8047063F0CF
:102ACC007F038DF80530002900F0C38098F813308F
:102ADC00002B3CD072B6634BDA7CD707134607D574
:102AEC00614860490768496939405E4FB9620160C5
:102AFC00900709D55D49D8F81820086898F8133064
:102B0C000240C8F82C200A60590709D55849D8F852
:102B1C001C20086898F813300240C8F830200A606E
:102B2C001A0709D55349D8F82020086898F81330AB
:102B3C000240C8F834200A60DF0607D54E4AD8F8A0
:102B4C00243011680B40C8F83830136062B6D8F8DE
:102B5C0008304A4A934200F02B81494B47499B6904
:102B6C00484AC8F80810C3F30111C3F3826352F842
:102B7C0021200133B2FBF3F2434BA3FB02139B0C5A
:102B8C0040F00B81C8F80C30D8F8002000214FF031
:102B9C00030E072701201161C2F824E013641766A5
:102BAC001061A07902F072F8D8F8002001A90DEBA1
:102BBC0007000B785366D36D13F4F81FFBD0536FDB
:102BCC0001F8013B8842F4D10121A07902F05EF8B2
:102BDC0098F813301A46002B7FF479AE9BE6A06F61
:102BEC0003B0BDE8F08FE07A0DF10409BA4602F0AB
:102BFC004DF84FF0070B0DE01F4389F800700BF1F7
:102C0C00FF3B0021A07B02F041F8BBF1FF3F18D045
:102C1C0099F8007047FA0BF1207B01F0010102F0EA
:102C2C0035F80121A07B02F031F8607B02F034F81A
:102C3C000AFA0BF30028DFD127EA030789F80070A2
:102C4C00DDE70DF106034B4500F0828019F8017F9A
:102C5C00CFE7A0790DF10409BA4602F017F84FF04E
:102C6C00070B21E0846A002080E100E084E100E0B1
:102C7C0088E100E08CE100E090E100E07099140044
:102C8C0000C00F40043D00203BD4B5311F4389F8F0
:102C9C0000700BF1FF3B0021607A01F0F7FFBBF1F4
:102CAC00FF3F18D099F8007047FA0BF1E07901F06A
:102CBC00010101F0EBFF0121607A01F0E7FF207ABE
:102CCC0001F0EAFF0AFA0BF30028DFD127EA030729
:102CDC0089F80070DDE70DF106034B453DD019F87E
:102CEC00017FBCE760781F460DF104099A4601F09C
:102CFC00CDFF4FF0070B0DE01F4389F800700BF16F
:102D0C00FF3B0021207901F0C1FFBBF1FF3F18D040
:102D1C0099F8007047FA0BF1A07801F0010101F06D
:102D2C00B5FF0121207901F0B1FFE07801F0B4FF8B
:102D3C000AFA0BF30028DFD127EA030789F80070A1
:102D4C00DDE70DF106034B450CD019F8017FD0E7F8
:102D5C000121E07A01F09AFFDDE50121A07901F073
:102D6C0095FFD8E50121607801F090FFD3E5B2FB27
:102D7C00F3F227498A4288BF0133B3F5817F24D30C
:102D8C00244B63E6B2FBF3F221498A4288BF01333C
:102D9C00B3F5817F1DD31F4B6FE5B2FBF3F21C49DA
:102DAC008A4288BF0133B3F5817F0AD3194BE9E618
:102DBC00D8F80C30E8E6D8F80C3060E5D8F80C30D0
:102DCC0046E6022B09D80023DCE6022B0ED80023A2
:102DDC003CE6022B13D800234FE5023B59080A04AA
:102DEC0043EA012302F47F021343CBE6023B59086A
:102DFC000A0443EA012302F47F02134326E6023B52
:102E0C0059080A0443EA012302F47F02134334E510
:102E1C0070991400FF7F7F00704700BF70B586B0BB
:102E2C00134B28224FF0FF31044600F057FE104B95
:102E3C002822372101A800F051FE9DF80860039D5F
:102E4C002046049A0C219DF814302671A560E2608E
:102E5C00237400F071FE20B93C21064803F070FB8E
:102E6C00FEE72046012100F00DFF204606B070BDA4
:102E7C00446B00208445002038B500F11401044651
:102E8C0000F0D2FF03210B4803F05AFB0A4D94EDDE
:102E9C000A0A04212846B7EEC00A01F041FC284674
:102EAC0001F0DAFBD4ED0A7AFDEEE77A17EE900A20
:102EBC0038BD00BFC4450020D46A002000000000CB
:102ECC002DE9F0470A23064601254FF00B0A4FF077
:102EDC000C094FF00D0860225349183000272DEDD6
:102EEC00048B00F8105C3C467372B373F374757307
:102EFC00B57486F80AA086F80FA086F814A086F898
:102F0C000B9086F8109086F8159086F80C8086F851
:102F1C00118086F8168001F00DFF602001F0A6FFED
:102F2C001723294630607372184686F80AA086F873
:102F3C000B9086F80C80377201F0B4FE2946B07AFB
:102F4C0001F0B0FE3946F07A01F0ACFE2946307B38
:102F5C0001F0A8FE2946707A01F098FE1623294646
:102F6C0077731846B37386F80FA086F8109086F81E
:102F7C00118001F097FE2946F07B01F093FE394653
:102F8C00307C01F08FFE2946707C01F08BFE2946C7
:102F9C00B07B01F07BFE1523294686F814A0184659
:102FAC00F374B77486F8159086F8168001F07AFEE3
:102FBC002946307D01F076FE3946707D01F072FEB7
:102FCC002946B07D01F06EFE2946F07C01F05EFED4
:102FDC00C02001F04BFFB7EE000B054670609FED73
:102FEC000E9B9FED0F8B09E007EE904AB8EEE70BB6
:102FFC0020EE090B80EE080B2EF056FE0F34B4F5C4
:10300C00B47FA5EC020BEFD1BDEC048B3046BDE8D0
:10301C00F08700BFAFF3008000000060FB21094087
:10302C000000000000806640A8040020704700BF2C
:10303C00704700BF704700BF10B50446006904F12B
:10304C001803984201D001F013FF204610BD00BFB9
:10305C0008B500224FF496410A4801F05FF80221AE
:10306C00092001F01FFE01210A2001F01BFE0021A6
:10307C000A2001F00BFE02212420BDE8084001F0DB
:10308C0011BE00BFE46A002010B5134C2DED028B6D
:10309C002046FFF769FA1148FFF7A6F8104B2046B7
:1030AC0083ED000BFFF7BCF90E4894ED048BFFF792
:1030BC00E3FE0D4B07EE900A0C4893ED002AB0EEA0
:1030CC00480BB8EEE71BB8EEC22BBDEC028BBDE88B
:1030DC00104000F0C1B800BF40780020E07800201C
:1030EC000879002050900020989000201891002022
:1030FC0010B5114C4FF47A7001F02EFD236863B9B2
:10310C00242001F0C9FD60B115210C4803F018FA18
:10311C000B48BDE8104001F09FBABDE81040FFF726
:10312C00B3BF012307210748236003F009FA0448C1
:10313C0001F092FAE8E700BF88910020EC450020EE
:10314C00D46A0020E4450020F8B51B4E1B4C1C4DE6
:10315C00304603F0A3FD22461A49304603F078FBB3
:10316C002846FFF799F8184F224618492846184D5B
:10317C0003F06EFB174800F039F83846FFF7A0FE55
:10318C0022461549384603F063FB144E2846FFF7D8
:10319C0045FE22461249284603F05AFB3046FEF7FC
:1031AC00F5FF22460F49304603F052FB2846FFF745
:1031BC0063FE0D4B1860F8BDF88F0020786A002074
:1031CC0040780020A94B0000A09000201D0F0000AB
:1031DC005090002018910020210F0000E078002072
:1031EC00250F0000290F000098900020F8B5044628
:1031FC001D2304220521236003200F231C272126D5
:10320C000625E2616360A1600121E0601846276138
:10321C006661A56101F046FD207A012101F042FDB5
:10322C002078012101F03EFD207B012101F03AFDC7
:10323C00207C012101F036FD207F012101F032FDBF
:10324C00207D012101F02EFD207E012101F02AFDBF
:10325C002046F8BD000000009FEDB37BF0B5B4EE46
:10326C00C71B04462DED0E8BF1EE10FA85B031EE36
:10327C00429BB0EE40AB03DD9FEDAD7B39EE479B3F
:10328C000621BF4803F05CF90221B0EE490BBD48A2
:10329C0001F046FABB4801F0DFF99FEDA77B9FEDEB
:1032AC00A20B29EE077B87EE000B2EF04DFDB9EE3D
:1032BC00047BB1EE408BB4EEC79BF1EE10FA08DD47
:1032CC00B5EE409B9FED9E7BF1EE10FA48BFB0EE41
:1032DC00478BB1EE047BB4EEC79BF1EE10FA08D528
:1032EC00B5EE409B9FED967BF1EE10FAC8BFB0EEA9
:1032FC00478BBFEE006BA348B7EE007B9FED924B64
:10330C009FED935B9FED8CCBB4EE449B9FED86BB06
:10331C00F1EE10FAB4EE459BC8BFB0EE468BF1EE61
:10332C0010FA48BFB0EE478B01F096F90D21964884
:10333C0003F006F9934801F08FF90221B0EE480B27
:10334C00904801F0EDF98F4801F086F99FED820B62
:10335C003AEE400B20EE0C0B80EE0B0B2EF0F4FC37
:10336C0038EE00EB9FED7E0B3AEE400B20EE0C0B93
:10337C0080EE0B0B2EF0E8FC38EE009B9FED7A0BE9
:10338C003AEE400B20EE0C0B80EE0B0B2EF0DCFC1F
:10339C0038EE00DB9FED760B3AEE400B20EE0C0B7B
:1033AC0080EE0B0B2EF0D0FCB5EEC0EB38EE000B24
:1033BC00F1EE10FA40F3A780B5EEC00BB0EE4E6BF9
:1033CC00F1EE10FA40F3A780B0EE407BB4EE476B01
:1033DC00F1EE10FAB5EEC09BA8BFB0EE467BF1EE55
:1033EC0010FA40F39E80B0EE496BB5EEC00B8DED3C
:1033FC00006BF1EE10FA40F39180B0EE405BB4EE4E
:10340C00C56B8DED025BF1EE10FA7ADAB0EE456B1E
:10341C0002ABB4EEC76BF1EE10FA01D993ED007B61
:10342C00B5EEC0EB207C9FED546BF1EE10FAB5EECF
:10343C00C00B54BF01270027D8BFB1EE4EEBF1EE05
:10344C0010FAB5EEC09B2EEE06EB54BF01260026FB
:10345C00D8BFB1EE400BF1EE10FAB5EEC0DB8EEE3C
:10346C0007AB54BF01210021D8BFB1EE499BF1EE4F
:10347C0010FA9FED416B9FED408BD8BFB1EE4DDB49
:10348C0058BF012529EE069B48BF002520EE080BEE
:10349C0089EE07BB80EE078B9FED376B2DEE06DBBD
:1034AC008DEE079B01F0F2FB3946207D01F0EEFB1F
:1034BC002078FDEECB7B17EE901A01F05FFDFDEE50
:1034CC00CA7B207917EE901A01F058FD3146207E08
:1034DC0001F0DCFB2946207F01F0D8FBFDEEC87B18
:1034EC00207A17EE901A01F049FD207BFDEEC97B86
:1034FC0017EE901A05B0BDEC0E8BBDE8F04001F054
:10350C003DBD6B4685E7B5EEC00BB1EE4E6BF1EEF3
:10351C0010FA3FF759AFB1EE407B57E7B1EE405B85
:10352C006DE7B1EE496B60E700000000008066407B
:10353C00000000000080764000000060FB21094084
:10354C000000000000000000000000000080564059
:10355C0000000000008056C0000000000000444045
:10356C0000000000008061400000000000806B4003
:10357C0000000000000074400000000000E06F40FC
:10358C0004460020D46A00200C460020002070471E
:10359C0090F8A32090F8A200101A704790F8A2306F
:1035AC0090F8A3209A4205D95A1C034480F8A22013
:1035BC00987E70474FF0FF30704700BF90F8A230F4
:1035CC0090F8A3209A4202D90344987E70474FF09A
:1035DC00FF307047704700BFB0F8303193B190F8AE
:1035EC002F31882B0BD8C21810B45C1C012380F827
:1035FC002F41184682F8A5105DF8044B7047012244
:10360C00002302711846704738B50546B0F83001F2
:10361C0090B195F82F311446C3F1890294420CD81D
:10362C0005F1A5002246184401F084FB95F82F31D2
:10363C0020461C4485F82F4138BD144601222A71BE
:10364C00EEE700BF2DE9F04F8346404883B01525C7
:10365C00DBF814A09BF818609BF819300AEB0616DF
:10366C003B490AEB0313DFF8ECE0367A0C4693F88F
:10367C0028303601DFF8E0901B01871950F80680DE
:10368C0000EB030CC658F8687B68DCF80C700093F0
:10369C001D60C8F88400D8F80430DCF8042003431B
:1036AC000192C8F804301560C6F8847073683B4307
:1036BC0073600968DEF80030A9FB0332920C02EB50
:1036CC008202520023685B1A9A42FBD8204A0925D1
:1036DC00DFF884C09146D8F80830184202D0B3689D
:1036EC001F4231D1C6F888701468DEF80010ACFBAC
:1036FC000131890C01EB810113681B1B9942FBD82A
:10370C00C6F88470D9F80040DEF80010ACFB01312B
:10371C00890C01EB810113681B1B9942FBD8013DFD
:10372C00D9D128469BF81830009A0AEB0313DB68B2
:10373C0013609BF81930019A0AEB031ADAF82C3053
:10374C00136003B0BDE8F08F0120EBE724400020AC
:10375C00041000E0806A002083DE1B430D490269DF
:10376C0010B50C6805E0DB0107D40B681B1B102B94
:10377C0008D8536913F0007FF5D14FF4FE430120B4
:10378C00536110BD0446FFF75DFF0028F9D0226994
:10379C00F3E700BF909100202DE9F04790F82FA19E
:1037AC00BAF1000F02D10420BDE8F08705460E46A1
:1037BC00FFF7D4FF0028F6D02E4F00244FF40079E9
:1037CC00D7F80080544529691AD8CB6D03F007034C
:1037DC00032B09D914E095F8A5200133012442F4F8
:1037EC008062042B0A660BD02A19002CF3D0A24558
:1037FC0027D9013392F8A5200134042B0A66F3D1A2
:10380C004B69180522D45A0527D4980404D43A6875
:10381C00C8EB0202322A09D90B694FF4007204205A
:10382C0043F440730B610A66BDE8F087544505D933
:10383C00CA6D520702D19B0519D4C6B102F006FF1E
:10384C00C0E70EB1C1F860900134D9E70B690420D0
:10385C0043F440730B61BDE8F0870B694FF40072C1
:10386C00022043F440730B610A66BDE8F087002028
:10387C00BDE8F087909100202DE9F84F0C461546D5
:10388C0098468146FFF76AFF10B90420BDE8F88F0F
:10389C0000226300002D40F2014A1446DBB23D4E7B
:1038AC0008BF0125022C43EA0A0AD6F800B089F8B1
:1038BC00A22089F8A32048D9D9F8103099F8A32070
:1038CC00872A12D8D96DC1F3024111B90DE0882AAB
:1038DC000BD002F1010E09EB020001395FFA8EF2F6
:1038EC0089F8A3201F6F8776F1D15A6910054CD443
:1038FC0012F4105F04D13168CBEB0101322912D9DB
:10390C001A694FF4007142F440721A611966DA6D4B
:10391C0012F4E02F03D01A6942F400721A6199F87C
:10392C00A300BDE8F88F99F8A310A94209D3022C83
:10393C0007D9D96D490704D19205E8D4B8F1000F25
:10394C00E5D002F083FE022CB6D8D9F81020D36D46
:10395C0003F00703032B0DD8691E4FF4007041F4DC
:10396C0080714CB9C2F860A0013B0134032B01D823
:10397C00022CF6D91346A1E7012C04D0B8F1000FA4
:10398C00F2D01066F0E71166EEE71A6942F4407265
:10399C001A61BCE79091002010B4047F4160022CA6
:1039AC00C26003D05DF8044B00F06CBA83685DF81C
:1039BC00044B1847F0B5304C304BA06C656C01795A
:1039CC00226CD9772979197701791977FAB1B2F57F
:1039DC00004F18D22B6892B2D98B0E043BD4DA83E9
:1039EC00D98B89B2D9820368D98B09042CD4DA8398
:1039FC000021DA8B92B2DA82216402791F4BDA76DB
:103A0C002A79DA76F0BD1E4B13442364F5E7E06C9B
:103A1C000F25236840F2013E01684FF47C579D65E9
:103A2C0003260D681749DA618D42C3F810E05F6117
:103A3C0084F83D6017D1037F4260022BC26017D01F
:103A4C00BDE8F04000F01EBAD98BC2F3080201F4B5
:103A5C007E410A43CBE7D98BC2F3080601F47E41C1
:103A6C003143D983BCE72B461146BDE8F0401847DB
:103A7C008368BDE8F0401847846A002000800E403F
:103A8C000180FFFF89180000704700BF70B50C461D
:103A9C000546282200212046012632F07FFA0B220F
:103AAC000849204634F092F9002200230320E272E8
:103ABC000549ED68E6602561626260612162A3617F
:103ACC00E36170BD1C4600200AD7233C10B50446A8
:103ADC00142101F0D1F9204610BD00BFF8B5044601
:103AEC000025084816461F46E16020601020A5609E
:103AFC0001F0BAF905463A4631462DF0F1FFA560C2
:103B0C002046F8BDAC2C002030B5024685B00C46E2
:103B1C0000213D258068012314740222019100913B
:103B2C0003A98DF80D408DF80C502EF00FF81E20C7
:103B3C0001F012F805B030BD2DE9F047054684B010
:103B4C008946806801212DF0F1FF20B90027384605
:103B5C0004B0BDE8F08704AC00264FF0010807461E
:103B6C00A8684246019604F8046D23462146CDF818
:103B7C0000802EF07DF89DF80C30A02B12D04FF465
:103B8C007A7000F0E9FFA868234601964246CDF80A
:103B9C00008021468DF80C602EF06AF89DF80C30F0
:103BAC00A02BD3D100212846FFF7AEFF00263F21E2
:103BBC004FF0200EA868012302228DF80C100196FC
:103BCC00214600964FF001088DF80DE02DF0BEFF58
:103BDC001E2000F0C1FF01E000F0BEFFA8682346E4
:103BEC0001960122CDF8008021468DF80C602EF054
:103BFC003FF89DF80C304FF0000A0A20A02BEBD1B7
:103C0C003E26322000F0A8FFA8682146012302229C
:103C1C008DF80C60CDF804A00726CDF800A08DF827
:103C2C000DA02DF093FF0A2000F096FFA868214606
:103C3C008DF80C60CDF804A00123CDF800A0022271
:103C4C003F268DF80DA02DF081FF01230222A868DC
:103C5C002146CDF804A0CDF800A08DF80DA08DF86C
:103C6C000C602DF073FF0A2000F076FF49462846C1
:103C7C00FFF74AFF142000F06FFF384604B0BDE890
:103C8C00F08700BFF0B50E46002185B004460D4606
:103C9C00077CFFF739FF192000F05EFF4FF0070E8D
:103CAC00A06803A901950123009502228DF80D50FF
:103CBC008DF80CE02DF04AFFA068BEB93F250196A7
:103CCC0003A90096012302228DF80D608DF80C508B
:103CDC002DF03CFF0A2000F03FFF39462046FFF74D
:103CEC0013FF142000F038FF05B0F0BD4FF03F0E6D
:103CFC008026019503A90095012302228DF80CE082
:103D0C008DF80D602DF022FFE4E700BF00000000ED
:103D1C00F0B587B000251646062706AA0560456053
:103D2C0004AB02F80C6D04468560083EC560056165
:103D3C004561886811460195012200970495ADF8FC
:103D4C0014502DF095FF9DF810309DF811009DF842
:103D5C00135043EA00209DF812109DF815209DF891
:103D6C00143041EA052100B243EA022309B21BB226
:103D7C00262E2FD8DFE806F0142E2E2E2E2E312EC6
:103D8C002E2E2E2E312E2E2E2E2E312E2E2E2E2E41
:103D9C002E2E2E2E2E2E2E2E142E2E2E2E2E140099
:103DAC0007EE900AB8EEE75B07EE901AB8EEE76BF9
:103DBC0007EE903A9FED184BB8EEE77B85EE043B8F
:103DCC0086EE045B87EE046B84ED003B84ED025BB6
:103DDC0084ED046B204607B0F0BD07EE900A204638
:103DEC00B8EEE75B07EE901AB8EEE76B07EE903A89
:103DFC009FED0B4BB8EEE77B25EE045B26EE046BD8
:103E0C0027EE047B84ED005B84ED026B84ED047B78
:103E1C0007B0F0BDAFF30080000000000000594077
:103E2C00000000000000B03FF0B50C46242587B020
:103E3C0006462A4600212046032732F0AFF8104BE5
:103E4C00F06831461B681A22606068462560A760DE
:103E5C002361FFF75DFF01209DED005B9DED026B83
:103E6C009DED047BB7EEC55BB7EEC66BB7EEC77BBB
:103E7C0084ED055A84ED066A84ED077A07B0F0BD2F
:103E8C009091002010B4EFF3108272B6437F33B9D7
:103E9C00017F012908D0032910D00123437702B9EF
:103EAC0062B65DF8044B7047114C2168A1B1114901
:103EBC0043610B68086083615861EEE70E4C216822
:103ECC0081B10E4943610B680860836158610C4BEA
:103EDC004FF080511960E0E7064B41618161206031
:103EEC001860DAE7054B4161816120601860EEE7EC
:103EFC00C0880020CC880020C8880020C4880020FE
:103F0C0004ED00E070B5EFF3108172B60C4C236831
:103F1C008BB10C4E00255A6922607AB1956101B9BA
:103F2C0062B65D7718469B689847EFF3108172B6BE
:103F3C002368002BEFD101B962B670BD3260EEE799
:103F4C00C8880020C4880020FFF7DCBF044A054B5A
:103F5C001168054A1960136801331360704700BF7C
:103F6C00041000E08C91002090910020B0F84630B5
:103F7C00B0F848209BB292B2934202D2501EC01AA3
:103F8C007047406B01381044C01A704772B6B0F8D5
:103F9C004A30B0F84C2099B293B2994201D2826B5C
:103FAC0011440269CB1AD06AC0F30260184462B69D
:103FBC00704700BFB0F84A20B0F84C3092B29BB2B8
:103FCC009A4270B428D00133846BA34217D2016B90
:103FDC009EB28B4218D2016AC95CC9B2856DA0F839
:103FEC004C60B5B19A4238BF1219D31AC26B9342C6
:103FFC000FD8C36D0846C5F8883070BC70470026D2
:10400C00016B33468B42E6D3591A456A695CC9B2D7
:10401C00E4E7084670BC704772B6B0F84A1089B233
:10402C008A4202D062B60A46CDE70369DA6A12F018
:10403C00E06F04D0D869C0F3090062B6DDE74FF039
:10404C00FF30FAE790F8443043B110B5044602F063
:10405C00FDFA94F84430002BF9D110BD704700BF25
:10406C00B0F84A20B0F84C3092B29BB29A4210D0C1
:10407C000133816B026B8B4228BF0023934204D324
:10408C009B1A426AD05CC0B27047026AD05CC0B264
:10409C00704772B6B0F84A1089B28A4201D062B643
:1040AC00E6E70369DA6A12F0E06F11D0DB690021F0
:1040BC00026AC3F3090310B40124A0F84A40A0F823
:1040CC004C10D9B2517062B618465DF8044B70476B
:1040DC004FF0FF3362B61846704700BFEFF3138002
:1040EC00B8B9EFF310834BB9EFF305823AB94FF43B
:1040FC008073EFF3118050B1984208D270470F2AA9
:10410C00F7D9054BD35CEFF311800028F4D1184696
:10411C0070474FF0FF30F1E7F0E300E007EE901A44
:10412C009FEDA47A0421B6EE005AF8EE677A9FED63
:10413C00A26A2DE9F043C7EE275A0E46012541F637
:10414C00FF741DE0A342A8BF234607EE903AF8EE99
:10415C00E76A76EEC76AC6EE877AF5EEC07AF1EEBC
:10416C0010FA48BFF1EE677AF4EEC67AF1EE10FA67
:10417C0003D8B0EE676A0E461D460131212911D0D5
:10418C0007EE901AF8EEE77A85EEA77A77EE057AC5
:10419C00FDEEE77A17EE903A002BD3DCF7EE006ACF
:1041AC000123D6E70021436902F40074D0F838905B
:1041BC00B3F85C70B3F85E808C42A0F84A10C7EB81
:1041CC000907A0F84C1008BF8C46A0F8461018BF81
:1041DC004FF0010CA0F8481080F84410D3F810E010
:1041EC005969DEF80040C76344EA0104C8EB0901D1
:1041FC000164CEF8004080F81AC040F0CE80047EF6
:10420C006E4903EB04146E4F247E01EB0414A46876
:10421C002760047E03EB0414277ED4F81CE001EB2A
:10422C0007146468C4F800E0047E03EB0414276AE6
:10423C000FB1646A3C60447ED92703EB041494F8F4
:10424C00384001EB0414A4682760447E03EB04148B
:10425C0094F83870E46B01EB071149680C60417EEF
:10426C0003EB01110C6C0CB1496C2160711E5C7874
:10427C005F68082E4FEA01614FF00006D8BF4FF47B
:10428C00003E04F1100401F0F853C8BFB6460169B2
:10429C001D434C4B4EEA05050D61CE6043F824706E
:1042AC004369012448495D7893F85A30474E6B5462
:1042BC00456901696B7803F01F075B11BC4046F838
:1042CC0023408B6A9B0803F01C030F2B60D85B10F8
:1042DC0003F00303DCB28B6A9B0003F01C030F2B6F
:1042EC0053D8DB0303F44033234302F00304CB62C3
:1042FC008B6A43F088038B6253074BD444F47013DE
:10430C0002F00F04042C847E08BF43F08043970610
:10431C0048BF43F080530CB143F0A00316078B61E8
:10432C0003D50B6943F000530B614B69D40623F0A2
:10433C00805348BF43F080534B61D30503D50B69C1
:10434C0043F400530B61EB681B78E3B9204E3578CE
:10435C0065B3204C2368834226D0691E2346C9B21C
:10436C0004EB810103E053F8042F90421AD08B42E6
:10437C00F9D16B1CDBB2184A3370137844F8250062
:10438C0043F002031370BDE8F0834FF44033ABE706
:10439C000324A0E7114B2343B2E7447E4FF2D90725
:1043AC0006494AE7BDE8F083BDE8F0830123094CD8
:1043BC00E1E700BF001BB74BEC78AD602440002058
:1043CC0038F001000074002000E400E000E100E09F
:1043DC00A3910020D08800207173002010003C00B5
:1043EC00F8B5036D04460E4613B1426DC3F8842034
:1043FC00A37E33B172B62269936943F00053936183
:10440C0062B6B4F84650636BADB201359D4249D2E9
:10441C00AFB2B4F848309BB2AB4220D1FFF75EFE8E
:10442C006369B3F85A3098422DDC21694B691B0241
:10443C00EFD5B4F84830626B9BB20133934227D26C
:10444C00E26A98B2934228D2E269D35CDBB2CB61C8
:10445C00A4F84800B4F848309BB2AB42DED0E36A13
:10446C009D4222D3ED1AF6B2A36A5E5572B60120B4
:10447C00226984F84400A4F84670936943F400035D
:10448C00936162B6F8BDFF28C3DD02F0DFF8C0E728
:10449C000020E26A03469342D6D39B1AA26AD35CED
:1044AC00DBB2D4E700273D46B3E7F6B2E3695E55CD
:1044BC00DCE700BFFFF794BF0269536913F4401F98
:1044CC00F0B542D0D36AC3F30265002D3AD0B0F8F0
:1044DC004A70B0F84CE0BFB21FFA8EFE06E0026ADA
:1044EC00D65402696B1E13F0FF051AD0D1697B1CE0
:1044FC00866BB0F84C40C1F30901B34228BF0023CE
:10450C00A4B2A342EED0026BCEB21F469342A3EBF1
:10451C000204E4D3436A1E556B1E026913F0FF05B7
:10452C00E4D1BBB2816DA0F84A3059B1774573D252
:10453C00836BCEEB03031F44036C9F4202D3C36D0A
:10454C00C1F884305369DC0255D4D2F818E01EF45B
:10455C00000F02D0536919021CD41EF4800F48D0EE
:10456C0053695B0246D50021036D80F8441013B1EA
:10457C00416DC3F88810837E3BB172B602699369B2
:10458C0023F00053936162B60269936923F48003AC
:10459C009361F0BDB0F84650B0F84830ADB29BB264
:1045AC009D422DD0466BC46A0AE0C169C95CC9B290
:1045BC00D161D16AC1F30221032912D8AB421FD0B9
:1045CC0001339E4298BF0023A342A3EB0401ECD31A
:1045DC00876A795CC9B2D161D16AC1F3022103291E
:1045EC00ECD999B2AB42A0F848100CD01EF4800F55
:1045FC00B6D1F0BDF0BD536943F480135361A4E709
:10460C00ADB2A0F84850936923F400039361936909
:10461C0043F480039361A0E7CEEB07078CE700BF60
:10462C000148FFF749BF00BFE46A0020F8B50E4609
:10463C0071B17AB10746144600253B68384616F826
:10464C00011B1B689847013C0544F6D12846F8BD70
:10465C000846F8BD1046F8BD10B5064C82B003688C
:10466C000222248801A95B68ADF80440984702B087
:10467C0010BD00BF08050020036810B514465B6828
:10468C009847204610BD00BFF0B506468BB0002AF7
:10469C0033D0012A08BF0A2251B3212500E0FDB214
:1046AC006F1EB1FBF2F402FB1411C8B2092900F120
:1046BC00370100F1300088BFC8B221460AAC98BF60
:1046CC00C0B22C4404F8240C0029E8D133B1013DCC
:1046DC000AAB2D22EDB22B4403F8242C336801A92C
:1046EC00C5F12202304629445B6898470BB0F0BDF7
:1046FC00302221258DF82520E8E70368C9B21B6814
:10470C0098470BB0F0BD00BF002903DB00230A2241
:10471C00FFF7BABF49422D230A22FFF7B5BF00BFEE
:10472C00B4EE400B70B5F1EE10FA05462DED028B90
:10473C0086B080F19180B0EEC07B9FED4B6BB4EEF8
:10474C00467BF1EE10FA0ADD036803224E495B68E2
:10475C0098470646304606B0BDEC028B70BD9FED07
:10476C00447BB4EEC70BF1EE10FA58DC9FED427BA4
:10477C00B4EEC70BF1EE10FA51D4B5EEC00B0C46EB
:10478C00F1EE10FA56D40023002C57D0B6EE008B65
:10479C0000229FED3B7B013228EE078BD1B28C427D
:1047AC00F9D830EE080B0A222846FCEEC07BB8EE96
:1047BC00678B17EE901A30EE488BFFF765FF0F2CC6
:1047CC004FF00102B2EE047B4FF02E0328BF0F24F2
:1047DC0006468DF808301444E4B228EE070B531C3F
:1047EC0006A91144DAB2A242FCEEC06BCDED016A0F
:1047FC009DF8043006EE903A03F13003B8EEE68BE8
:10480C0001F8103C30EE488BE7D12B68284602A902
:10481C005B689847304606B0BDEC028B70BD2B68C8
:10482C0003221A495B6898470646304606B0BDEC31
:10483C00028B70BDB1EE400B0123A5E7B6EE007BF9
:10484C0028460A2230EE070BFCEEC07B17EE901ABE
:10485C00FFF71AFF06467DE7036803220C495B68E5
:10486C009847064676E700BFFFFFFFFFFFFFEF7F8D
:10487C00000000E0FFFFEF41000000E0FFFFEFC190
:10488C00000000A09999B93F2C4600202846002032
:10489C0024460020964A974B90422DE9F043964CC3
:1048AC00D3F814E09969E6681CD9944B984240F20D
:1048BC001581934B40F22765924F0344924C1A0A90
:1048CC00A7FB0232D30903EB830303EB830202F24F
:1048DC00E243AB4228BF2B46A3F54873A4FB033538
:1048EC00ED0804E0894DA84294BF06250E25814AA7
:1048FC0006F01F07D2F88030AF4243F0C003C2F875
:10490C0080300AD27C4B26F01F061A462E43DE60FE
:10491C001368002BFCDA06F01F071EF0007331D170
:10492C007B4C7C4AD4F810C014460CEA0202A2421A
:10493C000ABF4FF0C0534FF4805200228EEA03049A
:10494C0014F0605F08D02EF0605E03F06053694C89
:10495C0043EA0E0EC4F814E081EA020313F4405F3C
:10496C0008D0644B21F4405111431A469961936C61
:10497C001C07FCD44EF0007E5E4AC2F814E0936C27
:10498C009906FCD40121644C0A4601FB02F300FB9E
:10499C0003F3A34209D8072A00F29580013201FBE8
:1049AC0002F300FB03F3A342F5D95C485C4C1844BA
:1049BC00A4FB00031B0D6C2B00F28B80352B00F23B
:1049CC008F80DFF8888136235648DFF844C1564C77
:1049DC00DCF80090B0FBF2F009EA04044445B0FBAB
:1049EC00F1F00BD043F400534FF480586446CCF8EC
:1049FC000080CCF800302368002BFCDADFF8F4C020
:104A0C00013ADCF8103003F00703934207D002F0B0
:104A1C0007026446CCF81020A36CDB03FCD40139EC
:104A2C0089028EEA010313F4E05F0CD0314B2EF4B3
:104A3C00E05E01F4E0511A4641EA0E0EC3F814E0B0
:104A4C00936C9907FCD4394B39490344DB09A1FB1E
:104A5C000331090B042928BF04214B1E1B028EEACB
:104A6C00030212F4407F07D02EF4407E03F440730F
:104A7C00204A43EA0E0353611E4B5C691A4624F02C
:104A8C0000745C61936C9B06FCD42A4B4FF0FF3294
:104A9C00294CBD42A3FB00E320604FEA9343274C13
:104AAC00B2FBF3F3B0FBF1F1254A2160136008D29D
:104ABC00114B26F01F061A462E43DE601368002B9E
:104ACC00FCDABDE8F08304293FF66FAF0131012217
:104ADC005BE7DFF87C806C231A4876E7122506E743
:104AEC001948DFF8708000FB03F043EA08086CE714
:104AFC0000A4781F00C00F40000008400046C323EC
:104B0C0000BA3CDC23B24C001F85EB5100366E0121
:104B1C0000800D4040300080FFB19F26808D5B00EF
:104B2C00819F5E1600B29F267F3001807FD1F008F6
:104B3C009F10E50083DE1B43806A00207C6A002006
:104B4C008491002000643F4D001BB700362000808C
:104B5C006C20008000200080002857D001222DE915
:104B6C00F04F85B083462A4C2A4D2B4EDDE9028945
:104B7C0054E8003F2868336844E800210029F7D145
:104B8C00264FCDE902893A68D31A254A4FF47A7E2A
:104B9C00019712680127A3FB02234FF47A729846FF
:104BAC0000238B4208BF42452CBFC246F2460EFB87
:104BBC0000AA54E8003F2A68316844E80073002BCF
:104BCC00F7D101980068411A15484FF47A7E0068B5
:104BDC000EFB02F2A1FB00014FF47A70CAEB020249
:104BEC0088460021994208BF40452CBF4346734676
:104BFC001A44724507D3BBF1010B0AF57A7AD8D166
:104C0C0005B0BDE8F08F01F021FDD2E7704700BF81
:104C1C0000920020909100208C910020041000E064
:104C2C008491002000010F4B1A181B5810B4D06847
:104C3C005C68044205D059B1C3F884005DF8044B9C
:104C4C007047936849B9084A5DF8044B1A6070477D
:104C5C00C3F888005DF8044B7047044A5DF8044BB8
:104C6C001A607047244000203830010038F00100F1
:104C7C000001054B1A5819189268CB681A4214BFD8
:104C8C0001200020704700BF24400020362801D8A6
:104C9C00FFF7C8BF704700BF362801D8FFF7E8BF41
:104CAC000020704736281CD800011A4A012902EB53
:104CBC000003105810B415D0042913D0DC684268D6
:104CCC0022EA040242609A68E9B102291ED0032943
:104CDC005B685DF8044B0CBF0F491049116015223D
:104CEC001A607047DA680129446842EA040242609B
:104CFC009A6808D040F6380111605B6815225DF89F
:104D0C00044B1A60704738211160F6E704491160B2
:104D1C00F3E700BF244000203830010038000100C8
:104D2C0038F0010008B5FEF793F9FEF7E1F901F050
:104D3C008DFCFAE7844641EA000313F003036DD1BE
:104D4C00403A41D351F8043B40F8043B51F8043B42
:104D5C0040F8043B51F8043B40F8043B51F8043B49
:104D6C0040F8043B51F8043B40F8043B51F8043B39
:104D7C0040F8043B51F8043B40F8043B51F8043B29
:104D8C0040F8043B51F8043B40F8043B51F8043B19
:104D9C0040F8043B51F8043B40F8043B51F8043B09
:104DAC0040F8043B51F8043B40F8043B51F8043BF9
:104DBC0040F8043B51F8043B40F8043B51F8043BE9
:104DCC0040F8043B403ABDD2303211D351F8043B89
:104DDC0040F8043B51F8043B40F8043B51F8043BC9
:104DEC0040F8043B51F8043B40F8043B103AEDD238
:104DFC000C3205D351F8043B40F8043B043AF9D289
:104E0C00043208D0D2071CBF11F8013B00F8013B5B
:104E1C0001D30B8803806046704700BF082A13D368
:104E2C008B078DD010F003038AD0C3F10403D21A80
:104E3C00DB071CBF11F8013B00F8013B80D331F8B4
:104E4C00023B20F8023B7BE7043AD9D3013A11F834
:104E5C00013B00F8013BF9D20B7803704B7843709F
:104E6C008B7883706046704730F072BC30F070BC49
:104E7C0030F076BC30F074BC30F072BCF0B44E1E26
:104E8C000025374600E00135B0FBF2F302FB1300BE
:104E9C0000F13704092800F13000E4B298BFC4B225
:104EAC00184607F8014F002BEDD14A1953704DB13C
:104EBC00013316F8014F1778E81A3770834202F85D
:104ECC000149F5DB0846F0BC704700BFF0B501EBBB
:104EDC004106294C012500EB461694F800C005FA52
:104EEC0001F1F4891FFA81FEB0F88851A4B24FEA9F
:104EFC000E1704FB0333ADB207F0F00723FA0CF3E3
:104F0C003D43A342A0F8885128BF2346012A22D052
:104F1C0015D3022A08D001F00F01B0F888319BB2EA
:104F2C001943A0F88811F0BD9BB201F00F01F38377
:104F3C00B0F880319BB21F43A0F88071EDE7E31A03
:104F4C0001F00F019BB27381B0F880319BB20B431F
:104F5C00A0F88031E1E79BB201F00F014FEA0E2E71
:104F6C00F382B0F880310EF4706E9BB24EEA030EF1
:104F7C00A0F880E1D1E700BF7073002036280CD870
:104F8C00294AF8B5044600B212F8206002EB8005FD
:104F9C00012E03D0022E16D0F8BD70476A78C2F3EA
:104FAC000113032B3AD0214850F823008BB202F0A6
:104FBC000301AA78FFF78AFF1D48EA7800EB04107A
:104FCC0043681A60F8BD6E78C6F30113032B27D023
:104FDC00184A52F823E006F00306174B89B20EEB81
:104FEC00461793F800C07601FA880EEB0603764458
:104FFC0092B2188AC2F1011212FA80F2501E00FB12
:10500C0001F323FA0CF3984298BF931ED21A9BB269
:10501C00C2F1010292B2FA803382CDE70748C5E7AC
:10502C00DFF81CE0D7E700BF58440020440C0020F8
:10503C0024400020500C00207073002000803E4063
:10504C0000801E40A4484FF00F0CA44B826F42F41A
:10505C007F02F0B582670025D0F880204FF47046AF
:10506C009F4C4FF4604E29464FF4806714432A46F8
:10507C00C0F88040A3F88C6148F2B826A3F88EC122
:10508C00A3F89051B3F8880180B240F0F000A3F877
:10509C00880101EB4100914B0131002540011C4678
:1050AC0004290344A3F804E0DF805A841A865A804A
:1050BC005A81DE815A82DA825A83DA83E9D1B4F8D2
:1050CC0088014FF00F0C874B4FF4704680B2294685
:1050DC004FF460472A4640EA0C004FF4806EA4F867
:1050EC008801B4F8880180B240F47060A4F888019B
:1050FC00A3F88C6148F2B826A3F88EC1A3F890519E
:10510C00B3F8880180B240F0F000A3F8880101EBFD
:10511C004100744B0131002540011C460429034415
:10512C009F80A3F806E05A841A865A805A81DE8141
:10513C005A82DA825A83DA83E9D1B4F888014FF0C3
:10514C000F0C694B4FF4704680B229464FF4604700
:10515C002A4640EA0C004FF4806EA4F88801B4F89B
:10516C00880180B240F47060A4F88801A3F88C61C7
:10517C0048F2B826A3F88EC1A3F89051B3F8880171
:10518C0080B240F0F000A3F8880101EB4100564BCF
:10519C000131002540011C46042903449F80A3F8DB
:1051AC0006E05A841A865A805A81DE815A82DA8243
:1051BC005A83DA83E9D1B4F888014FF00F0C4B4BCA
:1051CC004FF4704780B229464FF460462A4640EAB5
:1051DC000C004FF4806EA4F88801B4F8880180B2FA
:1051EC0040F47060A4F88801A3F88C7148F2B827D9
:1051FC00A3F88EC1A3F89051B3F8880180B240F0A7
:10520C00F000A3F8880101EB4100384B013140015B
:10521C001C46042903449E80A3F806E05A841A868F
:10522C005A805A81DF815A82DA825A83DA83EAD130
:10523C00B4F888310F27002241F201069BB245F6E3
:10524C00C05E114643F226053B43A4F88831B4F8FE
:10525C0088319BB243F47063A4F888315001244B1D
:10526C0001320344042A99815981DF819E82A3F87B
:10527C0006E0198019829D81F0D100220F2741F29E
:10528C00010645F6C055114643F226045001194B50
:10529C0001320344042A99815981DF819E82DD8089
:1052AC00198019829C81F1D100220F2741F201064D
:1052BC0045F6C055114643F2260450010E4B0132FF
:1052CC000344042A99815981DF819E82DD801980F3
:1052DC0019829C81F1D1F0BD00C00F4000C03D404F
:1052EC00000003FC00003E4000403E4000803E4079
:1052FC0000C01D4000001E4000401E40704700BF13
:10530C0072B6EFF30583494D6B60EFF30883484C9D
:10531C002E4648484849494A24680068096812687A
:10532C002961AC60E8606A619A69454CAA61DB69E5
:10533C00444FEB6100F0E6F885ED080A01F0FEF948
:10534C000B234FF0FF32686219462B604A40202134
:10535C0002F00103013904FB03F383EA5202F7D193
:10536C00BE4202D056F8041FF0E730498A62BFF300
:10537C004F8F354B354A19601A60BFF34F8FBFF30F
:10538C006F8F334A0225334CD36E334943F4405369
:10539C003248D3662560D36923F07F0343F0400382
:1053AC00D3610B6883423ED82A4A002101202C4E3F
:1053BC0011604FF0FF33C2F808110C46C2F80061BF
:1053CC001546C2F808010746DFF8C0E0254E26480E
:1053DC002649274ACEF80030336003600B60136017
:1053EC0001E000F073F9D5F80C211A4B002AF8D023
:1053FC000134C5F80C714F2CF3D91E4A02241E48F7
:10540C004FF00041C0F840415163D3F80C2132B940
:10541C001A491B4A0A63D3F80C010028FAD0194B1D
:10542C00194A1A60FEE7FFF735FABDE780FF27201F
:10543C0028ED00E02CED00E034ED00E038ED00E06C
:10544C002083B8EDA4FF272070EF00E0A0FF2720F9
:10545C0000C00F4000400840806A0020803DCD0B0A
:10546C00009F240084E100E088E100E08CE100E092
:10547C0090E100E000900D4000002E4000800F40B5
:10548C00F100AD0B0CED00E00400FA0580E100E04A
:10549C00094A08B5136820B118440849884202D853
:1054AC001060184608BD2EF0FFFF0C224FF0FF33A2
:1054BC000260184608BD00BF746D00200000282053
:1054CC00002070474FF0FF30704700BF4FF400537F
:1054DC0000204B60704700BF012070474FF0FF3039
:1054EC00704700BF30BFFDE70078B0FA80F040098C
:1054FC00704700BF01230370704700BF30BFFDE74A
:10550C00FFF7FEBE12490B68114A5B07FBD5136807
:10551C001049C3F30B23104A07EE903A0B6892ED37
:10552C00006AB8EEE77A07EE903A0C4AF8EE677A22
:10553C000B4BD2ED006A77EE677A93ED007AB8EEFA
:10554C00477A67EE867A87EEA60A37EE400A7047EE
:10555C0080810D40749100207C910020809100206E
:10556C0078910020836BF0B41BB1536843F4004373
:10557C00536072B6446B5CB31C4B2260D3F8B041E1
:10558C000C4215D11A4E376804E03468E41BB4F5AC
:10559C00166F0BD2D3F8404144F48044C3F8404119
:1055AC00D3F8B851D3F840416404EED50D4003D084
:1055BC00426362B6F0BC70470C4C8260C560D4F894
:1055CC00B0311943C4F8B011426362B6F0BC7047F5
:1055DC00064D8260C460D5F8B0311943C5F8B011DE
:1055EC000263426362B6F0BC704700BF00002E40FD
:1055FC00041000E070B50646006B90B10246002422
:10560C0003E012680134012A0CD0536813F08003B4
:10561C00F7D032632CB1B36B05689847013C284630
:10562C00F9D170BD33637363F4E700BFF0B5E1B932
:10563C00214C22490020224B01224FF001158026DB
:10564C000A601A46A1604E60E060C3F8BC51D3F802
:10565C00B0411C4D44F001048860C3F8B04128608F
:10566C00D2F8B031002BFBD1F0BD0904164B144D10
:10567C000126114C41F0800100221E60596000F59A
:10568C00805CE26400F5005EA36400F54057D5F839
:10569C00B01100F580462A46986041F48031C3F879
:1056AC000CC0C3F810E05F619E61C5F8B011D2F870
:1056BC00B031002BFBD1BCE700000020E0910020B2
:1056CC0000002E4090900020C09100202DE9F04F5A
:1056DC00B94C83B0D4F8448118F0010FC4F844815C
:1056EC005ED0D4F8AC31002B55D04FF0011BDFF855
:1056FC00EC92B24E2546DA46C4F8AC31B06AF26A86
:10570C00D4F8403143F40053C4F84031D4F840315C
:10571C009F04F5D5D5F8403123F40053C5F840313A
:10572C00C5F8B4A1D4F8B43113F00113FAD181B295
:10573C0040F28167C9F80030B94200F2AD80B1F592
:10574C00D06F80F0DE81B1F5817F00F0608100F2D6
:10575C00E880802900F04E81822940F0DA8092B2F4
:10576C0002F07F01072900F2D48089009448954FFC
:10577C000844016810063B707B7040F10182CA033B
:10578C0001D501233B7002218E48FFF74FFFD4F85F
:10579C00AC31002BB0D1884AD2F8BC31002B49D1A6
:1057AC0018F0400F18D0844BD3F8AC111A46C3F83C
:1057BC00AC11D3F8BC11C3F8BC11D2F8B0417E4B7C
:1057CC00002CFAD14FF0FF32C3F8B421D3F8843156
:1057DC0000F032FD7C4B1C6018F0807F03D07B4BBB
:1057EC001B6803B1984718F0007F03D0784B1B68F7
:1057FC0003B1984718F0040F08D06F4BD3F88431DD
:10580C0013F4007345D0734B01221A706A4BD3F812
:10581C00482112060BD518F0800F08D06E490A7873
:10582C002AB1013AD2B20A70002A00F0428203B0C7
:10583C00BDE8F08F6949C2F8BC310868034240F0FA
:10584C00E281614A15681D40AAD02F0C0FD05B4E27
:10585C004FF0010997FAA7F4B4FA84F406EBC410DC
:10586C0009FA04F44030FFF7C5FEA743F2D1ADB2FC
:10587C00002D95D0514E012795FAA5F4B4FA84F475
:10588C0006EBC41007FA04F4FFF7B4FEA543F3D1FA
:10589C0086E7504A1370B9E742F22107B94234D077
:1058AC0067D8B1F5086F00F01E81B1F5106F30D1DB
:1058BC00C0F307404A4A4B4910704B4F4B4A019377
:1058CC00C5F8C871C5F8CC11C5F8D02100F0B6FCEC
:1058DC00474A019B80210120B26451601060F3643F
:1058EC00C5F8BCB1D5F8B011936041F48032C5F85D
:1058FC00B0213A4A1360D4F8B031002BFBD1D4F864
:10590C00AC31002B7FF4F8AE45E7110C072900F001
:10591C003B81C4F8C0B1D4F8AC31002B7FF4ECAEB1
:10592C0039E740F20237B94200F0AD80B1F5A06F13
:10593C00EFD12F4A80210127F364B26417605160C4
:10594C00C5F8BCB1D5F8B011936041F48033C5F8FB
:10595C00B031D4F8B031002BFBD1030C5B0643F013
:10596C008073C5F85431D4F8AC31002B7FF4C4AE3D
:10597C0011E742F22123994279D042F22133994224
:10598C00C7D11B4B802200210120B36418605A60E0
:10599C00F164C4F8BCB1D4F8B021996042F48033FE
:1059AC00C4F8B031D4F8B031002BFBD1D4F8AC3101
:1059BC00002B7FF4A1AEEEE600002E40000000208C
:1059CC00C0012E403C910020949000209491002026
:1059DC0098910020B0910020B1910020909000206F
:1059EC00AF910020C80002000200CC000200C800E9
:1059FC00E0910020B64A0221104613705370FFF755
:105A0C0015FED4F8AC31002B7FF476AEC3E692B21F
:105A1C0002F07F03072B3FF67CAF12F0800F4FEAAA
:105A2C008303AC4A4FF000014FF001001A44136895
:105A3C0014BF23F4803323F0010313608022A64BA0
:105A4C00F164B36418605A60C4F8BCB1D4F8B021E6
:105A5C00996042F48033C4F8B031D4F8B031002BE3
:105A6C00FBD1D4F8AC31002B7FF446AE93E692B266
:105A7C00002A86D1994BC0F30740994A1968994B73
:105A8C00116018707DE792B202F07F03072B3FF68E
:105A9C0040AF12F0800F4FEA83038E4A4FF00001A3
:105AAC004FF001001A44136814BF43F4803343F0E1
:105ABC00010313608022884BF164B36418605A6050
:105ACC00C4F8BCB1D4F8B021996042F48033C4F866
:105ADC00B031D4F8B031002BFBD1D4F8AC31002B61
:105AEC007FF40AAE57E6804A0121794B12781846AA
:105AFC001A70FFF79BFDD4F8AC31002B7FF4FCAD92
:105B0C0049E67A4B596800293FF403AF000C1FFAA1
:105B1C0082FE04E00C33596800293FF4FAAE1F886A
:105B2C008742F7D15F887745F4D1070A032F00F03D
:105B3C00BA801B89120C934228BF1346B0F5007F24
:105B4C0000F0A280B0F5E06F00F08B80684F1A4631
:105B5C0001933846FFF7EEF8019B27F01F021F4414
:105B6C00BFF34F8F63490A6020329742FAD8BFF3D4
:105B7C004F8FBFF36F8F5E481946FFF757FD06E650
:105B8C00CB077FF500AEFCE55B4F4FF0010EF360E9
:105B9C005A495B4B3860C3F800E05960B36059490F
:105BAC00D5F8B0017A6001F5805740EA0E02996091
:105BBC0001F5005E01F5405001F58041C5F8B021BA
:105BCC00DF60C3F810E058619961D4F8B031002B54
:105BDC00FBD1414A012048F28001F36410604FF47C
:105BEC008030B2645160C5F8BCB1D5F8B011936087
:105BFC0041EA0003C5F8B031C9F80000D4F8B0315F
:105C0C00002BFBD1C3E53C4842F221040026058859
:105C1C000E60A54240687FF414AE81B200297FF477
:105C2C0010AE3849384C03C90D0C86282060A18071
:105C3C00A5717FF406AE72B63448017841F00401C8
:105C4C000170D2F84811080606D441F0800180207A
:105C5C00C2F84401C2F8481162B62D4A50211170A5
:105C6C00EFE52C481A46224F90F800E02A492B48C1
:105C7C000193BEF1000F08BF01463846FFF75AF8F2
:105C8C000722019B7A7068E722481A462349077855
:105C9C0021480193002F08BF01461548FFF74AF829
:105CAC00134F019B59E7120C0B78934228BF1346F4
:105CBC0048E716490A7802F0FB020A702AB9D3F8B1
:105CCC00482122F08002C3F848213CF045FE00BF79
:105CDC003C910020C0012E40E091002090910020CA
:105CEC0014920020AE910020AF910020806500201E
:105CFC000000202070EF00E01079002080000700E9
:105D0C00C09100208890002018920020AA910020B9
:105D1C00B1910020B091002078200060C420006078
:105D2C00002AA0F102022DE9F04714BF00274FF022
:105D3C000057022A01D9BDE8F0874FEAC019DFF8F5
:105D4C0040A00D4604460AEB090600214022984665
:105D5C00304630F023F9012047EA05414AF8091092
:105D6C00C6F83880B060B8F1000FE4D0034BA04007
:105D7C001C6820431860BDE8F08700BF9490002099
:105D8C0000000020002AA0F102022DE9F04714BF08
:105D9C0000274FF00057022A01D9BDE8F0874022B6
:105DAC00C501DFF8449088461544002104461E4680
:105DBC0009EB050A504630F0F1F8012247EA084198
:105DCC0049F80510CAF83860CAF80820002EE4D04B
:105DDC0004F11000034B8240186802431A60BDE8BE
:105DEC00F08700BF94900020000000201204816016
:105DFC00C36142F08002F0B44260012701F5805685
:105E0C0001F5005501F5405401F580420760C6606C
:105E1C00056144618261F0BC704700BF831E022B98
:105E2C0000D97047064B0A4630B400F11004012526
:105E3C0003EBC01005FA04F1403030BCFFF792BB05
:105E4C0000000020831E022B00D9704710B4054BB4
:105E5C0001240A4604FA00F103EBC0105DF8044B70
:105E6C00FFF780BB0000002040687047124A134BBC
:105E7C00D2F8200220F07F40984210B584B002D8AE
:105E8C0000EB800040000E4C01A90A22FEF7F6FF41
:105E9C0001A90023204611F8012B01333AB10A2B3A
:105EAC0020F8022FF7D11623237004B010BD5B002D
:105EBC00DBB2237004B010BD00441F407F969800E5
:105ECC005873002000F0DCBA00F0B2BA00F012BB3C
:105EDC0000F0D0BA00F068BB00F03EBB084611469B
:105EEC0000F02EBB084600F015BB00BFF8B51449F6
:105EFC004FF40037134D034601EB4024124E134A66
:105F0C0005EB40152146176028463288FFF76EFFD7
:105F1C00318824F01F032144BFF34F8F0C4A1360C8
:105F2C0020339942FBD8BFF34F8FBFF36F8F032001
:105F3C002946FFF787FF074B4FF400321A60F8BD74
:105F4C0060002020C07600209C9100208CE100E0B5
:105F5C005CEF00E00CE100E0244A43682DE9F041DD
:105F6C00C3F30E431488C569E41A002C38DD2049AC
:105F7C00204A0B781278DBB21F48204E934207D090
:105F8C0010F8038036F81870C7F50072944212D9D5
:105F9C00013300221A4F082B26F8154027F815203C
:105FAC00184E94BFDAB213460A703268C5541444C2
:105FBC003460BDE8F081144B07EB4820224627449F
:105FCC0003EB45211844FEF7B5FE0E4A284626F889
:105FDC00187013681C441460BDE8F041FFF786BFCD
:105FEC002846BDE8F041FFF781BF00BF9C9100201F
:105FFC00A8910020A99100206891002048910020D0
:10600C005891002044910020600020201E4B1A78EB
:10601C005AB902F0FF031D4A127832B12DE9F04152
:10602C001B4D2A8812B9BDE8F0817047194EC2F594
:10603C000068194F31784246184C07EB411704EBB6
:10604C00C12438462146FFF7D1FE08EB040224F0A8
:10605C001F01BFF34F8F124B196020318A42FBD8BE
:10606C00BFF34F8FBFF36F8F04203946FFF7D6FE77
:10607C003378084A0133DBB2032B88BF002313703B
:10608C0000232B80BDE8F081AD910020AF91002062
:10609C009E910020AC910020C07700206010202041
:1060AC0070EF00E02DE9F04F85B0029000910029CF
:1060BC0000F0AB800023564DDFF87481DFF860A14F
:1060CC00544FDFF870B101930122534B2A701C78A6
:1060DC00524AB8F8003002EB441923BB1E461C464A
:1060EC004846FFF7C1FE10F080007ED0BFF34F8F03
:1060FC0000229AF800304A492A7004B93E68002BF5
:10610C005AD13B689B1B782B79D89BF80030002B1D
:10611C0052D000F09BFA0124B8F800302C70002B00
:10612C00DED03D4A14781A46C3F50060E402009EA6
:10613C003C4920449642084442D30C440299FEF751
:10614C00F9FD002321464FF400624846FFF74EFE4E
:10615C0024F01F0304F50064BFF34F8F324A136021
:10616C0020339C42FAD8BFF34F8FBFF36F8F0420BC
:10617C004946FFF753FE284B274A1B7800980133FA
:10618C002A49DBB2032B88BF002313700022B8F816
:10619C000030A8F80020C01A009001981844019013
:1061AC00029818440290C1F88420BFF34F8F00234B
:1061BC002B70009B002B87D1019805B0BDE8F08FA8
:1061CC00009C0393019B2246029923440193FEF702
:1061DC00B1FD039B4FF04041144A00201B1B009063
:1061EC00A8F80030C2F88410DFE74FF400630A4AC5
:1061FC008AF8000014781A46A8F8003096E70123B4
:10620C0001980B7005B0BDE8F08F0098D5E700BF82
:10621C00AD91002090910020AC910020C07700201F
:10622C00AB9100206010202070EF00E000002E40A9
:10623C009E910020AF910020704700BF314B2DE99B
:10624C00F0411B78304F002B54D04FF40073DFF823
:10625C00EC803B80A8F80030002180222B480D46B2
:10626C002B4E2FF09BFE2B4C2B4B29464FF4807260
:10627C002A4825702C461D802FF090FE35602B4649
:10628C0075602A46B560F5602549264E2648DFF82C
:10629C00B0E00D7010210570022035607560B5609E
:1062AC00F560CEF80050FFF76DFDB8F800102A46E7
:1062BC001E4B0320FFF734FD2B46398801220420A6
:1062CC00FFF760FD20460134FFF710FE082CF9D1D2
:1062DC00174B4A2217480021174C0460C3F884104E
:1062EC00C3F88020D3F8482142F08072C3F84821CB
:1062FC00BDE8F0814023DFF844803B80A8F80030F3
:10630C00AAE700BFB0910020A0910020C077002028
:10631C0048910020AC9100209E910020C076002076
:10632C00A891002058910020A9910020493E00001E
:10633C0000002E4094910020FD3E00009C91002016
:10634C0044910020314B4FF400322DE9F04F1A608C
:10635C0083B02F4B89461C78002953D02D4BE4B2C7
:10636C001B789C4250D082460027DFF8C0B0013425
:10637C00294BC7EB09085046092C0193274B28BF22
:10638C0000241D5D244B33F815E0254B0EEB452105
:10639C0033F81560234BCEEB06061944B045324654
:1063AC00374419D20EEB452142461944FEF7C2FC84
:1063BC00019BDBF80010484633F81520C8EB0101AF
:1063CC009044CBF8001023F81580174B4FF4003293
:1063DC001A6003B0BDE8F08FFEF7ACFCDBF80020D0
:1063EC00E3B22846921BB244CBF80020084A137043
:1063FC00FFF77CFDB94503D9064B1B789C42B6D1FF
:10640C003846E2E70846E0E70020DEE78CE100E0F2
:10641C00A9910020A891002058910020689100209B
:10642C0048910020600020200CE100E04491002005
:10643C000B4B0C4A1B781278DBB293420DD0013314
:10644C0009480A4A092B0A4928BF0023C35C31F8C2
:10645C00131002EB4323585C70474FF0FF3070472A
:10646C00A9910020A89100206891002060002020B4
:10647C0058910020014B1868704700BF44910020D0
:10648C002DE9F84F154E164D34782B78E4B29C421A
:10649C0021D0DFF85490DFF854B0DFF85480114F5E
:1064AC000134082C5FFA84FA01D90024A24619F8A9
:1064BC000410DBF8002038F81130084637F81110BA
:1064CC005B1AD31ACBF80030FFF710FD86F800A04A
:1064DC002B789C42E4D1BDE8F88F00BFA991002035
:1064EC00A891002058910020689100204491002030
:1064FC004891002000B583B001210DF10700FFF792
:10650C0021FF20B19DF8070003B05DF804FB4FF0AC
:10651C00FF30F9E7094B00B583B01B788DF8070005
:10652C0023B903F0FF0003B05DF804FB01210DF16A
:10653C000700FFF7B7FD03B05DF804FBAF91002037
:10654C00044B1B7803F0FF020BB1FFF7ABBD1046F9
:10655C00704700BFAF9100202DE9F0410024DFF817
:10656C00448001230D4D27460D4E88F800303378BA
:10657C0028462035A34204F1010405D0FFF774FC32
:10658C00030658BF07F50067042CF0D1BFF34F8FFB
:10659C000023384688F80030BDE8F081C077002031
:1065AC00AC910020AD9100202DE9F843204B1B78D5
:1065BC0013B1204D2A880AB9BDE8F883DFF888802A
:1065CC00C2F500691C4E4FF0010E98F800104A46B7
:1065DC001A4C002306EB4116194F04EBC12430462C
:1065EC0087F800E02146FFF701FC09EB040224F0D8
:1065FC001F01BFF34F8F134B196020318A42FBD818
:10660C00BFF34F8FBFF36F8F04203146FFF706FCAB
:10661C0098F800300C4A0133DBB2032B88BF0023FF
:10662C00137000232B80BFF34F8F3B70BDE8F883B2
:10663C00AF9100209E910020C07700206010202098
:10664C00AD91002070EF00E0AC9100202DE9F843F3
:10665C00324E337893B1324F3A787AB90122D90756
:10666C003A7037D49A0719D400225B073A7005D5D3
:10667C002C4B1A6812B1EFF305820AB1BDE8F8830E
:10668C00EFF3108072B61A681AB1274C21780029E2
:10669C002FD00028F2D162B6BDE8F883DFF89480E1
:1066AC0098F80020002ADFD00024DFF88C9005E059
:1066BC00013498F80030E4B2A34213D959F82450AD
:1066CC002B6828461B6998470028F1D06B699B689A
:1066DC009847EDE7FFF7CEFED0B9144B1B781BB9EA
:1066EC003378BFE73378BFE7337803F0FE033370BA
:1066FC00B8E70126556926701D6065B1A96100B91E
:10670C0062B6002593681046557798472570B5E713
:10671C0000F02CF8E1E7064B1D60F0E771730020E8
:10672C00A4910020C0880020A29100201A210060B2
:10673C00CC880020A3910020D08800200A4B30B4D4
:10674C00586A1C46996A626AA36A994208BF9042C9
:10675C00104619460CBF01250025002DF3D0D90B8E
:10676C0030BC41EA4240704700400D40704700BFCA
:10677C0008B503684268BBB17AB1104BA3FB021396
:10678C00DB0803EB4303B2EB830303D0D21A426062
:10679C00F02A02D90123184608BD2DF085FE1C22D3
:1067AC0000230260184608BD044BA3FB0213DB0850
:1067BC0003EB4303B2EB8303E8D1E9E7ABAAAAAA44
:1067CC0070B5044600283AD019B1B2FA82F56D09B9
:1067DC00FDB1206808B1626832B92DF065FE162350
:1067EC0000220360104670BD1849A1FB0231C90894
:1067FC0001EB4101B2EB8101EFD1A3680BB12FF09A
:10680C00CDFB00230122236010466360A360E3608C
:10681C0070BD1E46049B80E80600C360FFF7A8FF0E
:10682C0002460028DED016B90122104670BD94E84D
:10683C000500A66029462FF0B1FB0122D2E72DF00E
:10684C0033FE162322460360CCE700BFABAAAAAAEC
:10685C000B46014618462DF021BE00BF2DE9F04F26
:10686C00DFF86C83CA4DD8F80020DFF86893C94B69
:10687C00C5F80090002483B0D2F808A06C60012207
:10688C0005F11C00AC60EC602C616C61AC61C24F1A
:10689C001A7015F07FFFD8F80030C7F800905B68CD
:1068AC00BE4AC5F820A007F11C004FF0FF3A7C60EF
:1068BC00BC60FC603C617C61BC6101932A6000920D
:1068CC00C5F824A015F066FF019BDFF80CB3B44E9D
:1068DC00009A3B62D8F800303A60C7F824A0B14F58
:1068EC00C6F80090DB687460ABF1040906F11C007B
:1068FC00B460F46034617461B4610192009315F07A
:10690C0049FF019A009BC6F824A0584607F1140AC7
:10691C003260336200F002FA29465846C9F87440D6
:10692C0089F8784089F87940C9F87C40C9F88040EA
:10693C00C9F88440C9F88840C9F804A04BF8047C15
:10694C0011F040FB984D284600F0E8F9974B45F8BC
:10695C00083CA5F1080403F1140200232846A260A8
:10696C008D49A36784F87C3084F87D30C4F880307E
:10697C00C4F88430C4F88830C4F88C30636011F0EB
:10698C0021FB8B4D2E1F284600F0C8F9002328460A
:10699C008349C6F804A0736786F8783086F8793096
:1069AC00F367C6F88030C6F88430C6F8883045F8EE
:1069BC00047C11F007FBDFF824B2ABF10405584658
:1069CC0000F0ACF9002358467549C5F804A06B6774
:1069DC0085F8783085F87930EB67C5F88030C5F8E4
:1069EC008430C5F888304BF8047C11F0EBFAD8F8F9
:1069FC00003032696F4DC4F87890C6F87490D3F8B3
:106A0C0008906D4B6D4FDFF8D8B1DFF8D8A100249A
:106A1C0042F40052326185E8180005F11C00AC60AC
:106A2C00EC602C616C61AC6115F0B4FED8F80030F0
:106A3C00C5F820905968604BBC6087E8180007F1D6
:106A4C001C00FC603C617C61BC614FF0FF395C4E0A
:106A5C000091C5F800B0C5F8249015F09BFED8F84D
:106A6C000020554BD2680099DFF87C81B46086E831
:106A7C00180006F11C00F46034617461B461396271
:106A8C00C7F800B0C7F824900092AAF1040715F0DB
:106A9C0081FE009A3262C6F800B0C6F824905046C7
:106AAC0008F1140600F03AF9294650467C67BC6799
:106ABC0087F87C40C7F88040C7F88440C7F8884006
:106ACC00C7F88C407E604AF8048C11F0D3FA3D4C28
:106ADC00204600F023F93C4B44F8083CA4F108058F
:106AEC0003F1140200233549AA602046AB67EB671B
:106AFC0085F88030C5F88430C5F88830C5F88C30FE
:106B0C00C5F890306B6011F0B5FADFF8E090A9F1A0
:106B1C000404484600F002F9002348462849666000
:106B2C006367A36784F87C30C4F88030C4F8843081
:106B3C00C4F88830C4F88C3049F8048C11F09AFAF7
:106B4C00DFF8ACA0AAF10409504600F0E7F80023E6
:106B5C0050461B49C9F80460C9F87430C9F878303C
:106B6C0089F87C30C9F88030C9F88430C9F888308D
:106B7C00C9F88C304AF8048C11F07CFA134923695B
:106B8C000A68AF67013243F40053002032E000BFC3
:106B9C00408900206E730020F0880020E82D002032
:106BAC001889002060350020848B002038350020A7
:106BBC00108C0020B88900206837002068890020DC
:106BCC0090890020B88D0020C8360020488B00200A
:106BDC00F472002028370020288D00209C8C002087
:106BEC00282E0020688F0020F0360020488E0020D0
:106BFC00D88E002067670A60236103B0BDE8F08F70
:106C0C001C4BC9F804301C4800F0DEF813F076FD7C
:106C1C001A4BC9F804301A4800F0D6F813F06EFD80
:106C2C00164B6360174800F0CFF813F067FD134B59
:106C3C00AB60154800F0C8F813F060FD0F4B7B609B
