:0200000460009A
:100000004643464200000156000000000103030081
:1000100000000000000000000000000000000000E0
:1000200000000000000000000000000000000000D0
:1000300000000000000000000000000000000000C0
:1000400000000000010408000000000000000000A3
:100050000000800000000000000000000000000020
:100060000000000000000000000000000000000090
:100070000000000000000000000000000000000080
:10008000EB04180A063204260000000000000000FD
:10009000050404240000000000000000000000002F
:1000A0000000000000000000000000000000000050
:1000B0000604000000000000000000000000000036
:1000C0000000000000000000000000000000000030
:1000D00020041808000000000000000000000000DC
:1000E0000000000000000000000000000000000010
:1000F0000000000000000000000000000000000000
:10010000D8041808000000000000000000000000F3
:100110000204180804200000000000000000000095
:1001200000000000000000000000000000000000CF
:10013000600400000000000000000000000000005B
:1001400000000000000000000000000000000000AF
:10015000000000000000000000000000000000009F
:10016000000000000000000000000000000000008F
:10017000000000000000000000000000000000007F
:10018000000000000000000000000000000000006F
:10019000000000000000000000000000000000005F
:1001A000000000000000000000000000000000004F
:1001B000000000000000000000000000000000003F
:1001C000000100000010000001000000000000001D
:1001D000000001000000000000000000000000001E
:1001E000000000000000000000000000000000000F
:1001F00000000000000000000000000000000000FF
:10020000FFFFFFFFFFFFFFFFFFFFFFFFFFFFFFFFFE
:10021000FFFFFFFFFFFFFFFFFFFFFFFFFFFFFFFFEE
:10100000D10020432914006000000000000000000F
:10101000201000600010006000E804600000000084
:101020000000006000F4040000000000FFFFFFFF6C
:10103000FFFFFFFFFFFFFFFFFFFFFFFFFFFFFFFFC0
:10104000FFFFFFFFFFFFFFFFFFFFFFFFFFFFFFFFB0
:10105000FFFFFFFFFFFFFFFFFFFFFFFFFFFFFFFFA0
:10106000FFFFFFFFFFFFFFFFFFFFFFFFFFFFFFFF90
:10140000884207D0904205D251F8043B40F8043B93
:101410008242F9D8704700BF884204D2002340F8C6
:10142000043B8142FBD87047664B4FF42A01664A61
:1014300066482DE9F0475A641864654A99639546F1
:10144000BFF34F8FBFF36F8F00F09AF9614B082005
:10145000614A6249C3F854016148FFF7D1FF614A0C
:1014600061496248FFF7CCFF61496248FFF7D4FF4A
:10147000614C62494FF470000023614A086044F8EF
:1014800023200133B02BFAD15E4B80215E4A03F852
:10149000011B9342FBD14F4D4FF080385B494FF019
:1014A000FF325B4B0026DFF8A4A1DFF8A4911C609B
:1014B000C5F80481C5F800A1C5F8F480C5F8F0901E
:1014C0000B68544F43F4E0230B60FB693D4923F064
:1014D0007F0343F04003FB617B6A23F07F0343F00B
:1014E00040037B628A66CA660A674A6700F04EF963
:1014F000494A4A4B6320A2630321E363484A494BAC
:10150000106000F160401E6042F8041C00F6A170FB
:101510004549464AC3F8082D0B68454A43F0807395
:101520000B601368434943F00103136003680B60C9
:1015300000F07CFBC5F804813F48C5F800A1C5F860
:10154000F480C5F8F09000F0DFFCF96E3B4A41F4FE
:1015500040513B4BF9661660C2F80861C2F8186149
:10156000C2F82861C2F838619A6BD20708D442F6F3
:101570001562344959651A659A6B42F001029A6303
:101580002F4A314C936843F00113936000F070F9D7
:1015900000F0CAF800F0B0FC00F07AFB00F0F2F8BE
:1015A0002368132BFCD900F001FC2368B3F5967F68
:1015B000FBD300F0E9F800F0AFFC00F0A1FC30BF75
:1015C000FDE700BF00C00A40FFFFABAA07002000F4
:1015D0000080032000800D40502D04001C2100607D
:1015E00000000000C0760020326E04600000002081
:1015F00000930020C07600200074002088ED00E0F9
:101600004145000000E400E0A0E400E024ED00E03B
:1016100008ED00E000C00F4021310000253100003E
:1016200014E000E018E000E0FCED00E00000202005
:10163000001000E0249200200046C3230040084030
:1016400000400D400000C056289200201B101820BA
:101650000C0D11132DE9F0412F4F00254269012493
:10166000B96B4FF0020E16684FF4303821F47C014C
:101670000369DFF8B0C041F48021B963316857686D
:10168000394331604FF00111244EC3F810E01D6161
:10169000C3F848C05C629E624FF66106C3F82C80B6
:1016A0009F6C1F651D6299651C61017E1C4B02EBDE
:1016B0000111097A03EB011189680E60017E02EBCA
:1016C00001110C7ACD6803EB041149680D60017EAD
:1016D00002EB01110C690CB149692160417E4FF6A2
:1016E000610402EB011191F8281003EB01118968E4
:1016F0000C60417E02EB011191F82840C96A03EBAE
:1017000004135B681960437E02EB0312136B0BB189
:10171000526B1A60BDE8F08100C00F40B80B0505A0
:10172000244000203B372819114B1249D86E0A4635
:1017300040F4403030B4D86640F23765D86EA0240B
:1017400040F44070D8664D648C64936C1B06FCD4E6
:10175000094B40F23760A0211A4658649964936C93
:1017600013F08003FBD1054A137030BC704700BFF3
:1017700000C00F4000400C4000800C403E92002012
:10178000704700BF704700BF704700BFF0B5244AE4
:101790000020244B4FF0100C234C1126DFF8C8E03A
:1017A000122720600125C2F800C0C3F800E01660CF
:1017B000DFF8B8E01D4EC3F800E01D4917601E6059
:1017C00041F015011B4F1C4E17601E601B4F1C4E35
:1017D00017601E601B4F11601B4E1C491F60166076
:1017E0001B4F19601B4E1C4917601E601B4F116078
:1017F0001B4E1C491F60166019602560BFF34F8F98
:10180000BFF36F8FC3F8B001BFF34F8FBFF36F8F7C
:1018100052F8883C43F4403342F8883CF0BD00BFA6
:101820009CED00E0A0ED00E094ED00E00900100068
:101830000093002013002000210002071400002064
:1018400025000813090000101600202027000B13A4
:101850001700004033001013180000602F000B0722
:10186000190000702F000B133F0000102500080323
:10187000F0B58D4B18228D4E01208D4948F20C7E1B
:101880008C4D4FF0FF378C4C83B0C3F85C12C3F81B
:1018900060520025C3F86412C3F868424FF4005444
:1018A000C3F86C628549C3F87062C3F87462C3F808
:1018B0007862834EDA661A675A679A67DA67C3F8FE
:1018C0008020C3F88420C3F8882040F20562C1F864
:1018D0002C03C1F83003C1F83403C1F83803C1F850
:1018E0003C03C1F850032946B36976481840764B4B
:1018F00003437648B361D6F8843043F00C03C6F84E
:1019000084300226036833430360036803EA0E0E43
:101910006F4B4EEA0303DFF8F0E103606D4B476065
:10192000DEF808703B406C4F43F000538360C3689F
:1019300023F07803C360036A1F40684B3B43664F44
:101940000362036A1F40654B3B43654F43628762F6
:10195000C762DEF8B830634F23F03F0343F0010362
:10196000C0F8B830DEF8BC30DFF884E123F03F0384
:1019700043F00103C0F8BC30056104660767C0F896
:10198000802044664767C0F884200468564B24F0E2
:101990000204564A0460C0F818E0C66143F8041B0C
:1019A0009342FBD1494B1A68194642F001021A6072
:1019B0000B68464A13F00103FAD14D4E022540F25E
:1019C000F56440F2664040F299414A4F966142F216
:1019D0000146D56140F23545C2F8004242F2012489
:1019E000C2F810020120C2F820121146C2F830726B
:1019F00007F15A47C2F8346207F51377C2F840522C
:101A00003D4E3E4DC2F85072C2F85462C2F8605268
:101A1000C2F86442C2F8A030C2F8A430C2F8B000E4
:101A20004B692A4ADD07FBD5012300244FF480309F
:101A300011465361C2F8A040C2F8A400C2F8B03009
:101A40004B69224ADC07FBD5012300244FF4003008
:101A500011465361C2F8A040C2F8A400C2F8B030E9
:101A60004B691A4AD807FBD50123002424481146A4
:101A70005361C2F8A040C2F8A400C2F8B0304B696C
:101A8000124ADB07FBD5D2F8003145F60D51212073
:101A90009BB250618B4239D01A4B00221A605A60B7
:101AA0009A60DA6003B0F0BD00801F40F970010059
:101AB000F9B00100F9100100F900010000841F4095
:101AC00000C00F40FFFCFF1F000300A000402A40A1
:101AD0001200FFFFFF37F70000FFF07C400000809E
:101AE000FF000F836300020000422A4000432A40A7
:101AF000F05AF05A9F041830063201263806180AA8
:101B000004000300A492002000802A4000244FF427
:101B1000802001231146C2F8A040C2F8A400C2F8F8
:101B2000B0304B693B4ADF07FBD501234FF400047B
:101B3000002011465361C2F8A040C2F8A400C2F8C8
:101B4000B0304B69334ADE07FBD501234FF4000464
:101B50004FF4803011465361C2F8A040C2F8A4008F
:101B6000C2F8B0304B692B4ADD07FBD501234FF497
:101B700000044FF4003011465361C2F8A040C2F88F
:101B8000A400C2F8B0304B69224ADC07FBD5012320
:101B90004FF40004204811465361C2F8A040C2F837
:101BA000A400C2F8B0304B691A4AD807FBD5D2F866
:101BB000003145F60D5121209BB250618B4210D06F
:101BC000164B08224FF400041A7015490020154ADC
:101BD00001230090521A1448224400F0A5F903B0E2
:101BE000F0BD4FF400044FF4802101231046C2F8E9
:101BF000A040C2F8A410C2F8B03043690549DB0721
:101C0000FBD50120054B10224FF0807448611A70FB
:101C1000DBE700BF00402A40040003003F920020A1
:101C20000000007000000070A4920020F0B4174A79
:101C300040274FF480314FF480564FF400554FF455
:101C4000404443F24200136913F0020F06D094613E
:101C500051619061136913F0020FF8D113F4005F22
:101C600001D15561EFE713F4805F01D15661EAE7D6
:101C7000002BE8DA13F4803F01D09161E3E75B06C3
:101C800001D45761DFE7F0BC704700BF00800D4012
:101C9000394A03203949F3EE095A13689FED386A2F
:101CA00023F00103DFED376AF0B413600024106104
:101CB000D1F8E030344FD8B2C3F30B211B0D334EB3
:101CC00007EE100A05EE101A07EE903A304BB8EE08
:101CD000C55A304DB8EEC77A3060F8EEE77A296021
:101CE0002D4937EE466A2D4E77EEC57A2C4877EEB1
:101CF000666A2C4D37EE657A26EE276AC7ED007AC4
:101D000066EEA76A176867EE277A83ED007AC6EE5B
:101D1000075A86EE876AC7EE876A35EE857AFCEE4B
:101D2000C77A36EE057A17EE903ABCEEC77A47EAE4
:101D3000035376EE857A136017EE103AD2F81071DD
:101D4000FCEEE77A01EA0341394317EE903AC2F814
:101D50001011C3F30B03D2F810110B43C2F810316A
:101D6000136843F0020313603470C0F840510E4B07
:101D70000122F0BC1A60704780810D4000441F4072
:101D80000000AA420000B4421C92002014920020DD
:101D900018920020109200200000FF0F40E400E0A5
:101DA000007400204147000008E100E0304B40F69D
:101DB000617270B5C3F8202140F2044500F0B0F81C
:101DC0002C492D48D1F880202C4C42F003022C4B9A
:101DD000C1F88020C0F86051226813401BB9D0F8C8
:101DE000A8319A071AD0244B4FF00041234A51637F
:101DF0001A46D3F8401141F00201C3F84011D2F85D
:101E000040319B07FBD44FF400301E491B4B4FF071
:101E10000042086019209A6300F07AF81A4D0022F7
:101E2000164B4FF08041144C0A26996328461A60DD
:101E30001146C4F8A8614FF4207200F079F84FF40D
:101E4000810640F243114FF48000104B104A2E607F
:101E50002864C4F85851C4F84811C3F804220D4A44
:101E60004FF4003101231160C4F8403170BD00BF50
:101E700000800D4000C00F4000002E4000900D403B
:101E8000001C1E008CE200E0000000200074002016
:101E90000D4900000CE100E008B50E4B1B6E9B07DE
:101EA00000D4FBBE72B60C4B00200C4AC3F84001B4
:101EB00003F160430A49A3F55F2311649D46BFF314
:101EC0004F8F084A03F5E043074912681846196026
:101ED0009368984700441F4000002E4000C00A400D
:101EE000030020001C002000000012EBF8B500BF2A
:101EF000F8BC08BC9E4670475FF800F085420000C1
:101F00005FF800F0653F00005FF800F0D53A000090
:101F10005FF800F0993D00005FF800F0B94603005B
:101F20005FF800F0AD5000005FF800F0015A0000CB
:101F30005FF800F0DD510300450000005D03000084
:101F400005200000A9E60000556901005584010044
:0C1F500015990100510F020025500200FD
:101F5C0080C00F40000000031900000010000000BA
:101F6C00E8841F4001000000FF000000FF0000009B
:101F7C00000000000000000018000000100000002D
:101F8C00E4841F4001000000FF000000FF0000007F
:101F9C0000000000000000001F00000070C00F4097
:101FAC00000C00001100000011000000E0841F4034
:101FBC00020000002C00000012000000E0841F4012
:101FCC00010000001000000011000000DC841F4024
:101FDC00020000002D00000012000000DC841F40F5
:101FEC00010000001E00000070C00F40C000000087
:101FFC001200000013000000D0841F4001000000FC
:10200C00FF000000FF0000000000000000000000C6
:10201C001300000013000000CC841F4001000000DE
:10202C00FF000000FF0000000000000000000000A6
:10203C001C00000001000000160355005300420074
:10204C002000530065007200690061006C00000004
:10205C0018035400650065006E007300790064007D
:10206C00750069006E006F000403090409024B003F
:10207C00020100C032080B00020202010009040038
:10208C0000010202010005240010010524010101D8
:10209C000424020605240600010705820310001023
:1020AC0009040100020A00000007050302400000B9
:1020BC00070584024000000009024B00020100C029
:1020CC0032080B00020202010009040000010202A6
:1020DC00010005240010010524010101042402065D
:1020EC000524060001070582031000050904010000
:1020FC00020A000000070503020002000705840223
:10210C00000200000A060002EF020140010001007B
:10211C0000000000000000000000000000000000B3
:10212C0000000000000000000000000000000000A3
:10213C0010B5054C237833B9044B13B10448AFF3F5
:10214C0000800123237010BD507A00200000000095
:10215C00A41B0400084B10B51BB108490848AFF389
:10216C0000800848036803B910BD074B002BFBD057
:10217C00BDE81040184700BF00000000547A002052
:10218C00A41B0400C076002000000000884235D05B
:10219C00031D994232D02DE9F04781468A461846F4
:1021AC00C8460746D9F8003057F8046B9E4216DB38
:1021BC00D8F8003042469E421EDA3C4600E02A46E1
:1021CC0044F8043D151F52F8043C9E42F7DB1660A0
:1021DC00BA45384608F10408E3D1BDE8F087C9EBED
:1021EC000002930805D0C2F104034946184435F0A7
:1021FC0019F8C9F80060EBE70246E8E7704700BF42
:10220C00F8B50B1A432B21DD00F140040F460646AE
:10221C002146FFF7BBFFA74217D021463C360846A4
:10222C00324651F8045B56F8043B9D4212DA0846DC
:10223C0000E0224640F8043D141F52F8043C9D4235
:10224C00F7DB8F421560EAD1F8BDF8BDBDE8F84068
:10225C00FFF79CBF02468F421560E0D1F4E700BF48
:10226C00D0B5044682B00020002604F12C010027D2
:10227C0002460D4BA06284F82C006162014600906E
:10228C0004F12400C4E90467C4E9026716F014FEE3
:10229C00282003F093FF2060282003F08FFF20629A
:1022AC00204602B0D0BD00BFC04500202DE9F04152
:1022BC00B2F1010854BFC44694464FEA6C0C614518
:1022CC0048DA8E460EF101046FF04046650050F876
:1022DC00347000EBC4042E4450F82660B74204DA84
:1022EC00013D00EB850450F82570654540F82E70D3
:1022FC00AE46E7DBD60705D4023A48BF4246B5EBFB
:10230C00620F1BD08D4216DD6A1E48BF2A46521042
:10231C0050F82260B3420EDD914240F8256000EB8C
:10232C008204154607DA561E48BF1646721050F83E
:10233C002260B342F0DC2360BDE8F08101356FF020
:10234C0040426D002A44013D50F82220226000EBEF
:10235C008504D7E7D50700EB8104ECD40D46CBE719
:10236C000B1A432B40F381808C462DE9F043064633
:10237C0083B09146002A50D000F1040800F1080700
:10238C00DB10706809F1FF395CF8041C56F8232047
:10239C0090422FDA8A4231DB884238DA3268316077
:1023AC004CF8042C96E803004446BE46634688422B
:1023BC0025460EDC8242A3F1040303DD53F8042D01
:1023CC008242FBDCA34208D92260196053F8042C2A
:1023DC00306804345EF8041BE9E761464A4620463F
:1023EC00FFF7BEFFA31B432B3CDDB9F1000F15D04B
:1023FC00A446C5E788420ADB8A42CFDB31683260EB
:10240C0046F823105CF8042C96E80300CCE73168FE
:10241C0086E803005CF8042CC6E70D469C10A71E4A
:10242C007F1006EB870800E0013F4FF0000058F8E2
:10243C000439224639468DF800003046FFF736FF46
:10244C00002FF1D155F8043D4FF000073268002100
:10245C00AC1B30462A60A2108DF80070FFF726FFE7
:10246C00072CEFDC03B0BDE8F083704710B5054CCA
:10247C00204605F0BBFD2046034A0449BDE8104048
:10248C0005F08EBB2C910020986A0020F95E0000AC
:10249C002DE9F043044683B02D4802F0EBFE0028F2
:1024AC004ADD002604F12C091BE0636AD4F828806D
:1024BC004B4508F1010714BFE26A0F22974209D974
:1024CC0000230122414604F1240000921A4616F022
:1024DC00ADFB636A03F808500022636AA762DA5501
:1024EC0001361B4802F0C6FE864225DA184802F077
:1024FC00D5FEC5B2612D10D07C2DD6D1606A0021DD
:10250C0037F09AFD0021A26A04F124000091114BCE
:10251C0084ED040B16F0D0FCE2E7606A002137F082
:10252C008BFD0021A26A04F124000091094B84ED7B
:10253C00020B16F0C1FCD3E79FED030B03B0BDE813
:10254C00F08300BFAFF3008000000000000000002B
:10255C00046B0020C045002070B5044600252DED0D
:10256C00028B2046FFF794FF2668236A94ED046BD8
:10257C0094ED027BBDEEC66BBDEEC77B16EE102A4A
:10258C00725117EE102A5A510435282DE9D106F153
:10259C00280506223046B6EE008A2946FFF7E0FEF3
:1025AC0029463046FFF72CFE22680C21214815697C
:1025BC005369EB1807EE103AB8EEC77A27EE087A93
:1025CC00B7EEC77A84ED047B05F062F902211A4854
:1025DC0094ED040B03F018FA174803F0B1F9256ACF
:1025EC00062205F1280628463146FFF7B9FE284693
:1025FC003146FFF705FE226A072110481569536919
:10260C00EB1807EE103AB8EEC77A27EE087AB7EE59
:10261C00C77A84ED027B05F03BF90221064894ED64
:10262C00020B03F0F1F9044803F08AF9BDEC028BBC
:10263C0070BD00BF60450020F46A0020704500208A
:10264C00002201218260C16002617047000000001D
:10265C009FED136B07EE101AB4EEC60BF1EE10FAE9
:10266C0003DD9FED116B30EE460BB8EEC77B9FED93
:10267C000E6B37EE000BB4EEC60BF1EE10FA09DC64
:10268C00B5EEC00BF1EE10FA48BF30EE060B80ED44
:10269C00000B704730EE460B80ED000B704700BF0F
:1026AC0000000000008066400000000000807640C2
:1026BC0010B583680446E9B1C82B1BD89FED2C7B61
:1026CC00B4EEC70BF1EE10FA28D50269962A49D060
:1026DC00952A44D9962A01DD002303610621264858
:1026EC0005F0D6F82169254803F082F9234803F058
:1026FC0027F90AE0A3F1C902B2F5FA6F13D340F639
:10270C009802934227DD0023A360E36893B901216B
:10271C000A2003F063FC0123E3600FE0A3F1C9027C
:10272C00B2F5FA6F17D22269012101330A44E16034
:10273C00A360226100210A2003F050FC0C211048F8
:10274C0005F0A6F8A1680D4803F052F90B48BDE856
:10275C00104003F0F5B800232361A360D5E70132E4
:10276C000261BBE7013300228360C260B6E700BFA1
:10277C000000000000C0624078450020F46A002090
:10278C008045002038B5044600250123243040F84C
:10279C00083C257684F8205000F04AF90022054BBD
:1027AC0029460E20C4E90023C4E9042303F022FCCB
:1027BC00204638BD0000F0BFB1EE067B90ED020B59
:1027CC0010B52DED028B9FED268B20EE070B0446EA
:1027DC0030F0B6FC20EE088BB7EE006B94ED007B6E
:1027EC00B4EE468B9FED205BF1EE10FAB4EEC57B98
:1027FC00C8BFB0EE468BF1EE10FA03DD9FED1C6BFB
:10280C0036EE477B9FED1C0B27EE000B30F098FC4F
:10281C00BFEE005BB7EE003B9FED197B9FED1A4BB3
:10282C0094ED006B20EE070B9FED0F7BB4EE440B89
:10283C00F1EE10FAB4EEC76BC8BFB0EE440BF1EE7C
:10284C0010FA28EE008BD8BFB0EE435BA5EE086BF8
:10285C00BDEC028B84ED046B10BD00BFAFF30080A8
:10286C0000000040E17A943F0000000000806640C8
:10287C000000000000807640000000A09999C93F3C
:10288C0000000040E17AB43F000000000080564098
:10289C00F8B5002300F12407054680F820303846AF
:1028AC0000F088F9021F00F15C01C5F8A0009FED53
:1028BC003A7BB0EE476B85ED027B52F8043FC3F5D3
:1028CC00806307EE903A1360B8EEE77BB4EEC67BFC
:1028DC00F1EE10FA03DDB0EE476B85ED027B8A4218
:1028EC00EBD19FED2F7BFDEEC65B26EE076B15EE55
:1028FC00906A7C2E85ED026B02DD012385F8203079
:10290C00384600F053F904463846002700F050F9D9
:10291C00234640F22621A6F19604D5F8A02003F117
:10292C00C0068C42A2F10402A8BF0C469FED1A1BF4
:10293C00B0EE410B0DE007EE901AB8EEE77BB3EC6E
:10294C00025BB0EC026B9E42A5EE070BA6EE071BDA
:10295C0007D052F8041FA1429FED0F7BEBDA1760F2
:10296C00EDE730F0E9FB9FED107B9FED116B20EE56
:10297C00070B80EE067BB5EEC07BF1EE10FA03D5AB
:10298C009FED0D6B37EE067B284685ED007BBDE891
:10299C00F840FFF711BF00BF00000000000000006E
:1029AC00000000000000503F000000000080664066
:1029BC0000000060FB210940000000000080764010
:1029CC0010B5092104460B4804F062FF0E2003F0F9
:1029DC00D5F80146084803F00BF8074802F0B0FFA1
:1029EC000E2003F0CBF88B28D4BF012300232376D1
:1029FC0010BD00BF90450020F46A002038B5044695
:102A0C00012500210A20E56103F0E8FA092003F012
:102A1C00EBFAE06128B100210A20BDE8384003F050
:102A2C00DDBA29460A20BDE8384003F0D7BA00BF0A
:102A3C002DE9F0470A23074601254FF00B0A4FF00A
:102A4C000C094FF00D0800266022574910300F2456
:102A5C002DED088B00F80EACB7EE00BB00F809ACFE
:102A6C00BB71FB727D71BD7287F80CA087F8039067
:102A7C0087F8089087F80D9087F8048087F809800C
:102A8C0087F80E8003F0FEFA294630463E707E70C1
:102A9C0003F0B0FA2946B87803F0ACFA3146F8786E
:102AAC0003F0A8FA2946387903F0A4FA2946787875
:102ABC0003F094FA294628467E71BD7187F807A069
:102ACC0087F8089087F8098003F094FA2946F8797A
:102ADC0003F090FA3146387A03F08CFA2946787A6A
:102AEC0003F088FA2946B87903F078FA02232946CC
:102AFC00BE721846FB7287F80CA087F80D9087F809
:102B0C000E8003F077FA2946387B03F073FA3146CE
:102B1C00787B03F06FFA2946B87B03F06BFA2946F1
:102B2C00F87A03F05BFA602003F048FBB867C0202A
:102B3C0003F044FB3867C02003F040FB3E6F0546B2
:102B4C0078679FED130B9FED14AB9FED159B12E077
:102B5C0007EE904A0F34B8EEE77B27EE0A7B87EE40
:102B6C00098BB0EE480B30F047FAB0EE40BBB0EE3C
:102B7C00480B30F091FAB4F5B47FA6EC02BBA5EC8F
:102B8C00020BE5D1BDEC088B3846BDE8F08700BFE1
:102B9C00000000000000000000000060FB21094064
:102BAC00000000000080664048040020006F704761
:102BBC00406F70472DE9F04F00F16C0385B06FF05A
:102BCC000F0804466D4F00F10C050193C0EB08088B
:102BDC0014E0032B00F0F280012B25D00023A06F12
:102BEC00421942F80830036C826C9B1848BF0133C1
:102BFC005B104364019B9D4200F0F38155F8043F48
:102C0C005F4A013B1A40002AC0F26181002BB8BF19
:102C1C000733DB100133022BDBD1D3B2072B40F28D
:102C2C005B814FF0FF33DAE7D1B20729F9D81201F3
:102C3C0021788DF80C3002F47F6262F07F028DF8FF
:102C4C000D20002900F05182FB7C002B31D072B694
:102C5C004A4BDA7CD607134607D54A4847490668DB
:102C6C0049693140454EB1620160900706D546492D
:102C7C00BA690868FB7C0240FA620A60590706D5FB
:102C8C004249FA690868FB7C02403A630A601A07F9
:102C9C0006D53F493A6A0868FB7C02407A630A60B1
:102CAC00DB0605D53B4A7B6A11680B40BB6313609E
:102CBC0062B6BB68384A934200F07F82374B364984
:102CCC009B69374AB960C3F30111C3F3826352F8AD
:102CDC0021200133B2FBF3F2324BA3FB02139B0C0A
:102CEC0040F05382FB603A6800214FF0030E012044
:102CFC0007261161C2F824E013641666106160782F
:102D0C0003F06CF93A6803A90DF10F000B785366C8
:102D1C00D36D13F4F81FFBD0536F01F8013B8842BD
:102D2C00F4D10121607803F059F9FB7C1A46DBB130
:102D3C00D90702D5B86A1C4908609E0703D5F96A01
:102D4C001A4BFA7C1960500703D5396B184BFA7C77
:102D5C001960110703D57B6B1649FA7C0B60D306FF
:102D6C0002D5BB6B144A13609DF80D209DF80E30F4
:102D7C0043EA0223C3F3090331E700BFA46A00202E
:102D8C000700008080E100E084E100E088E100E0E1
:102D9C008CE100E090E100E07099140000C00F405D
:102DAC00043D00203BD4B53100E100E004E100E03B
:102DBC0008E100E00CE100E010E100E0D3B2072BE9
:102DCC003FF62FAF1301A17A012203F47F638DF834
:102DDC000C2063F07F038DF80D30002900F0048186
:102DEC00FB7C002B31D072B69F4BDA7CD00713469C
:102DFC0007D59E489C490668496931409A4EB16294
:102E0C000160910706D59A49BA690868FB7C0240B3
:102E1C00FA620A605A0706D59649FA690868FB7C7B
:102E2C0002403A630A601E0706D593493A6A08685D
:102E3C00FB7C02407A630A60D80605D58F4A7B6A10
:102E4C0011680B40BB63136062B6BB688C4A93423B
:102E5C0000F0B5818B4B8A499B698B4AB960C3F3EF
:102E6C000111C3F3826352F821200133B2FBF3F258
:102E7C00864BA3FB02139B0C40F07C81FB603A68F1
:102E8C0000214FF0030E012007261161C2F824E047
:102E9C00136416661061E07A03F0A0F83A6803A98F
:102EAC000DF10F000B785366D36D13F4F81FFBD0A4
:102EBC00536F01F8013B8842F4D10121E07A03F011
:102ECC008DF8FB7C1A46002B7FF432AF4CE7013AAD
:102EDC0062F00702013299E613016179012203F4D1
:102EEC007F638DF80C2063F07F038DF80D30002983
:102EFC0000F0B180FB7C002B31D072B65A4BDA7CDF
:102F0C00D607134607D559485749066849693140D1
:102F1C00554EB1620160900706D55549BA690868EB
:102F2C00FB7C0240FA620A60590706D55149FA69DE
:102F3C000868FB7C02403A630A601A0706D54E49C2
:102F4C003A6A0868FB7C02407A630A60DE0605D5A3
:102F5C004A4A7B6A11680B40BB63136062B6BB685C
:102F6C00474A934200F02781464B45499B69464AA4
:102F7C00B960C3F30111C3F3826352F8212001330A
:102F8C00B2FBF3F2414BA3FB02139B0C40F0088104
:102F9C00FB603A6800214FF0030E012007261161F7
:102FAC00C2F824E0136416661061A07903F016F8D9
:102FBC003A6803A90DF10F000B785366D36D13F427
:102FCC00F81FFBD0536F01F8013B8842F4D101216B
:102FDC00A07903F003F8FB7C1A46002B7FF4A8AE13
:102FEC00C2E605B0BDE8F08FE07A934603AE924698
:102FFC0002F0F4FF4FF007090EE04BEA030B86F8E2
:10300C0000B009F1FF390021A07B02F0E7FFB9F114
:10301C00FF3F18D096F800B04BFA09F1207B01F075
:10302C00010102F0DBFF0121A07B02F0D7FF607BE6
:10303C0002F0DAFF0AFA09F30028DED12BEA030BBF
:10304C0086F800B0DDE70DF10E03B34200F083808B
:10305C0016F801BFCEE7A079934603AE924602F074
:10306C00BDFF4FF0070922E0A46A002080E100E0D8
:10307C0084E100E088E100E08CE100E090E100E018
:10308C007099140000C00F40043D00203BD4B531B2
:10309C004BEA030B86F800B009F1FF390021607A86
:1030AC0002F09CFFB9F1FF3F18D096F800B04BFA34
:1030BC0009F1E07901F0010102F090FF0121607A41
:1030CC0002F08CFF207A02F08FFF0AFA09F3002835
:1030DC00DED12BEA030B86F800B0DDE70DF10E0311
:1030EC00B3423DD016F801BFBBE760789B4603AEF8
:1030FC009A4602F073FF4FF007090EE04BEA030B00
:10310C0086F800B009F1FF390021207902F066FF42
:10311C00B9F1FF3F18D096F800B04BFA09F1A0783E
:10312C0001F0010102F05AFF0121207902F056FF53
:10313C00E07802F059FF0AFA09F30028DED12BEAF5
:10314C00030B86F800B0DDE70DF10E03B3420CD093
:10315C0016F801BFCFE70121E07A02F03FFF03E64A
:10316C000121A07902F03AFFFEE50121607802F01E
:10317C0035FFF9E5B2FBF3F225498A4288BF0133EA
:10318C00B3F5817F21D3234B78E6B2FBF3F22049D0
:10319C008A4288BF0133B3F5817F1AD31D4BA1E559
:1031AC00B2FBF3F21A498A4288BF0133B3F5817F2F
:1031BC0007D3184BECE6FB68EBE6FB6893E5FB6882
:1031CC005DE6022B09D80023E2E6022B0ED8002381
:1031DC0054E6022B13D8002384E5023B59080A0459
:1031EC0043EA012302F47F021343D1E6023B590860
:1031FC000A0443EA012302F47F0213433EE6023B36
:10320C0059080A0443EA012302F47F02134369E5D7
:10321C0070991400FF7F7F00704700BF70B586B0B7
:10322C00114B28224FF0FF31044601F0CBFD0E4B21
:10323C002822372101A801F0C5FD9DF80860039DE7
:10324C002046049A0C219DF814302671A560E2608A
:10325C00237401F0E5FD00B9FEE72046012101F0E1
:10326C0085FE204606B070BD646B002010B5044688
:10327C0000F1140101F04CFFD4ED0A7AFDEEE77A6F
:10328C0017EE900A10BD00BFF8B5044600255C305F
:10329C00002684F8505000F009FA074F4FF0FF3326
:1032AC004FF4806265602046C4F8D4502260E3601D
:1032BC002364C4E90467F8BD0000F0BF70B500F1E9
:1032CC005C0504464FF0FF36284600F081FA606535
:1032DC00284600F073FA616D0246A065043900F1CE
:1032EC00600507E01660606804329842B8BF6360FE
:1032FC00AA420ED051F8040F4FF0FF332D28F1DD08
:10330C00136820689842EEDD581CECD023601368DB
:10331C00E9E70921184804F0BBFA2168174802F0C4
:10332C0067FB164802F00CFB0A21154804F0B0FAB2
:10333C006168124802F05CFB104802F001FB94E853
:10334C000600531AB42BA3600EDDC3F5B473A3604F
:10335C00002BB8BF013302EB6303B3F5B47F08DB7A
:10336C00A3F5B473E36070BD002BB8BF013301EB60
:10337C006303E36070BD00BF9C450020F46A00202D
:10338C00A8450020000000008368002BB8BF013363
:10339C005B1007EE103A9FED0C6BB8EEC77B9FED00
:1033AC000C0B27EE067B10B587EE000B04462FF0B6
:1033BC0073FEB7EE047B20EE070B30EE000B84EDB2
:1033CC00040B10BDAFF3008000000060FB2109402E
:1033DC00000000000080664090F8503053B9002285
:1033EC000023C0E90823C0E90C23C0E90E23C0E97F
:1033FC000A23704730B504460C215F482DED0A8B2B
:10340C0085B004F045FAE16C5C4802F0F1FA5B48D7
:10341C0002F096FA0E215A4804F03AFA0221574863
:10342C0094ED060B02F0F0FA544802F089FAE56CC0
:10343C00A5F1280300EE103A9FED4BBBB8EEC00B84
:10344C009FED4B9B20EE0B0B80EE090B2FF024FE17
:10345C00A5F18C03B0EE40CB00EE103AB8EEC00BE9
:10346C0020EE0B0B80EE090B2FF016FEA5F1DC0302
:10347C00B0EE408B00EE103AB8EEC00B20EE0B0B0A
:10348C0080EE090B2FF008FEA5F5A073B0EE40AB53
:10349C0000EE103AB8EEC00B20EE0B0B80EE090BD1
:1034AC002FF0FAFDB5EEC0CBF1EE10FA59DDB0EE0F
:1034BC004C6BB5EEC00BF1EE10FA4FDDB0EE407B6D
:1034CC00B4EE476BF1EE10FAB5EEC08BA8BFB0EEC0
:1034DC00467BF1EE10FA3EDDB0EE486BB5EEC00B5C
:1034EC008DED006BF1EE10FA32DDB0EE405BB4EE18
:1034FC00C56B8DED025BF1EE10FA27DAB0EE456B81
:10350C0002ABB4EEC76BF1EE10FA01D993ED007B70
:10351C0094ED066B2CEE06CB28EE068B2AEE06AB52
:10352C0020EE060B8CEE073B88EE074B8AEE075B12
:10353C0080EE076B84ED083B84ED0C4B84ED0E5B49
:10354C0084ED0A6B05B0BDEC0A8B30BD6B46D8E739
:10355C00B1EE405BCBE7B1EE486BBFE7B1EE407B21
:10356C00AEE7B1EE4C6BA4E700000060FB21094014
:10357C000000000000806640B4450020F46A002082
:10358C00C445002038B504460D46FFF797FE236866
:10359C00B3F5806F46DA236C0122591C84F8502055
:1035AC00E26855D0D31A6264002BB8BF5B42B42BCF
:1035BC0001DDC3F5B473A3F16F01A36445294FD9A1
:1035CC006D2B0CDC02F1B403B3F5B47F55DAE36474
:1035DC002046FFF7D9FED4E90423C4E906230721CA
:1035EC002F4804F055F9A16C2E4802F001FA2D4831
:1035FC0002F0A6F90A212C4804F04AF9216C29485A
:10360C0002F0F6F9274802F09BF900234FF4806290
:10361C00C4F8D43084E80C0029462046BDE8384074
:10362C00FFF7DABE6268002AF6D1B3F5806FF3D1EA
:10363C00D4F8D430142B23DC0022002000210133D9
:10364C0084F85020C4F8D430E264C4E90601E3E7FE
:10365C00002322646264A3F16F01A3644529AFD8EF
:10366C00E2642046FFF790FEB1EE047B94ED046B10
:10367C0037EE467B84ED067BB1E7B43AE264A7E70C
:10368C0000234FF480624FF0FF3184F85030E36434
:10369C00216484E80C0000220023C4E90623BBE764
:1036AC00D4450020F46A0020DC4500202DE9F047C9
:1036BC000A23044601254FF00B094FF00C080D2787
:1036CC004FF0600A05724573183052466372A3734B
:1036DC000026E3743849A57484F80A9084F80F9096
:1036EC0084F8149084F80B8084F8108084F815808A
:1036FC0027736774A77502F0C5FC504602F05EFD97
:10370C001723206029461846637284F80A9084F8BF
:10371C000B802773267202F06DFC2946A07A02F00A
:10372C0069FC3146E07A02F065FC2946207B02F008
:10373C0061FC2946607A02F051FC16232946667317
:10374C001846A37384F80F9084F81080677402F005
:10375C0051FC2946E07B02F04DFC3146207C02F006
:10376C0049FC2946607C02F045FC2946A07B02F00E
:10377C0035FC1523294684F814901846E374A67476
:10378C0084F81580A77502F035FC2946207D02F0DF
:10379C0031FC3146607D02F02DFC2946A07D02F003
:1037AC0029FC2946E07C02F019FC504602F006FD8B
:1037BC0060602046BDE8F087A80400204068002324
:1037CC00021F42F8043F0F33B3F5B47FF9D17047B1
:1037DC002DE9F04F00F1740385B06FF01708044623
:1037EC00694F00F114050193C0EB08080DE0032BA1
:1037FC0000F0EA80012B1ED000232068421942F809
:10380C000830019B9D4200F0F28155F8043F5F4A5D
:10381C00013B1A40002AC0F26081002BB8BF07336D
:10382C00DB100133022BE2D1D3B2072B40F25A81C9
:10383C004FF0FF33E1E7D1B20729F9D81201217A11
:10384C008DF80C3002F47F6262F07F028DF80D204F
:10385C00002900F05082FB7C002B31D072B64A4B11
:10386C00DA7CD607134607D54948474906684969A3
:10387C003140454EB1620160900706D54549BA69A1
:10388C000868FB7C0240FA620A60590706D5424977
:10389C00FA690868FB7C02403A630A601A0706D58D
:1038AC003E493A6A0868FB7C02407A630A60DB0690
:1038BC0005D53B4A7B6A11680B40BB63136062B64B
:1038CC00BB68384A934200F07E82374B35499B697E
:1038DC00364AB960C3F30111C3F3826352F8212055
:1038EC000133B2FBF3F2324BA3FB02139B0C40F0FF
:1038FC005282FB603A6800214FF0030E012007262C
:10390C001161C2F824E0136416661061607A02F04B
:10391C0065FB3A6803A90DF10F000B785366D36D64
:10392C0013F4F81FFBD0536F01F8013B8842F4D11C
:10393C000121607A02F052FBFB7C1A46DBB1D907FD
:10394C0002D5B86A1B4908609E0703D5F96A1A4B61
:10395C00FA7C1960500703D5396B184BFA7C196047
:10396C00110703D57B6B1649FA7C0B60D30602D585
:10397C00BB6B144A13609DF80D209DF80E3043EA82
:10398C000223C3F3090338E7A46A00200700008070
:10399C0080E100E084E100E088E100E08CE100E0FF
:1039AC0090E100E07099140000C00F40043D00202D
:1039BC003BD4B53100E100E004E100E008E100E0B7
:1039CC000CE100E010E100E0D3B2072B3FF630AF82
:1039DC001301A17C012203F47F638DF80C2063F0AA
:1039EC007F038DF80D30002900F00481FB7C002B47
:1039FC0031D072B69F4BDA7CD007134607D59E4860
:103A0C009C490668496931409A4EB1620160910740
:103A1C0006D59A49BA690868FB7C0240FA620A60CA
:103A2C005A0706D59649FA690868FB7C02403A6346
:103A3C000A601E0706D593493A6A0868FB7C024067
:103A4C007A630A60D80605D58F4A7B6A11680B40E9
:103A5C00BB63136062B6BB688C4A934200F0B581BD
:103A6C008B4B8A499B698B4AB960C3F30111C3F331
:103A7C00826352F821200133B2FBF3F2864BA3FB95
:103A8C0002139B0C40F07C81FB603A6800214FF0E4
:103A9C00030E012007261161C2F824E01364166698
:103AAC001061E07C02F09AFA3A6803A90DF10F005C
:103ABC000B785366D36D13F4F81FFBD0536F01F8DA
:103ACC00013B8842F4D10121E07C02F087FAFB7CB7
:103ADC001A46002B7FF433AF4DE7013A62F0070230
:103AEC0001329AE61301617B012203F47F638DF8A6
:103AFC000C2063F07F038DF80D30002900F0B180AD
:103B0C00FB7C002B31D072B65A4BDA7CD6071346AD
:103B1C0007D559485749066849693140554EB16235
:103B2C000160900706D55549BA690868FB7C0240CC
:103B3C00FA620A60590706D55149FA690868FB7C94
:103B4C0002403A630A601A0706D54E493A6A086879
:103B5C00FB7C02407A630A60DE0605D54A4A7B6A22
:103B6C0011680B40BB63136062B6BB68474A934253
:103B7C0000F02781464B45499B69464AB960C3F31F
:103B8C000111C3F3826352F821200133B2FBF3F22B
:103B9C00414BA3FB02139B0C40F00881FB603A687D
:103BAC0000214FF0030E012007261161C2F824E01A
:103BBC00136416661061A07B02F010FA3A6803A930
:103BCC000DF10F000B785366D36D13F4F81FFBD077
:103BDC00536F01F8013B8842F4D10121A07B02F024
:103BEC00FDF9FB7C1A46002B7FF4A9AEC3E605B0A9
:103BFC00BDE8F08FE07C934603AE924602F0EEF9FE
:103C0C004FF007090EE04BEA030B86F800B009F100
:103C1C00FF390021A07D02F0E1F9B9F1FF3F18D086
:103C2C0096F800B04BFA09F1207D01F0010102F089
:103C3C00D5F90121A07D02F0D1F9607D02F0D4F913
:103C4C000AFA09F30028DED12BEA030B86F800B040
:103C5C00DDE70DF10E03B34200F0838016F801BFCF
:103C6C00CEE7A07B934603AE924602F0B7F94FF035
:103C7C00070922E0A46A002080E100E084E100E072
:103C8C0088E100E08CE100E090E100E07099140024
:103C9C0000C00F40043D00203BD4B5314BEA030B70
:103CAC0086F800B009F1FF390021607C02F096F92A
:103CBC00B9F1FF3F18D096F800B04BFA09F1E07B50
:103CCC0001F0010102F08AF90121607C02F086F911
:103CDC00207C02F089F90AFA09F30028DED12BEADC
:103CEC00030B86F800B0DDE70DF10E03B3423DD0B7
:103CFC0016F801BFBBE7607A9B4603AE9A4602F00A
:103D0C006DF94FF007090EE04BEA030B86F800B093
:103D1C0009F1FF390021207B02F060F9B9F1FF3F76
:103D2C0018D096F800B04BFA09F1A07A01F0010115
:103D3C0002F054F90121207B02F050F9E07A02F0F4
:103D4C0053F90AFA09F30028DED12BEA030B86F8A3
:103D5C0000B0DDE70DF10E03B3420CD016F801BF35
:103D6C00CFE70121E07C02F039F904E60121A07BC8
:103D7C0002F034F9FFE50121607A02F02FF9FAE53F
:103D8C00B2FBF3F225498A4288BF0133B3F5817F38
:103D9C0021D3234B78E6B2FBF3F220498A4288BF49
:103DAC000133B3F5817F1AD31D4BA2E5B2FBF3F2BD
:103DBC001A498A4288BF0133B3F5817F07D3184B68
:103DCC00ECE6FB68EBE6FB6894E5FB685DE6022B32
:103DDC0009D80023E2E6022B0ED8002354E6022B6E
:103DEC0013D8002385E5023B59080A0443EA012352
:103DFC0002F47F021343D1E6023B59080A0443EA5A
:103E0C00012302F47F0213433EE6023B59080A04E5
:103E1C0043EA012302F47F0213436AE5709914000C
:103E2C00FF7F7F00704700BF704700BF704700BF27
:103E3C0010B50446406A04F12C03984201D002F0FC
:103E4C00BFF9204610BD00BF08B500224FF49641C3
:103E5C000A4801F0D7FA0221092002F0CBF801211F
:103E6C000A2002F0C7F800210A2002F0B7F802215C
:103E7C002420BDE8084002F0BDB800BF046B002050
:103E8C002DE9F0475E4E5F4C30465F4DDFF8888180
:103E9C005E4F2DED028BFEF75FFB2046FEF7AEFD6D
:103EAC002046FEF78DFD2046FEF7F2FC284694F8DE
:103EBC002010FFF767FB217E384696ED020B98ED3C
:103ECC00001BFEF7F5FB96ED026B9FED4B7BB4EE02
:103EDC00C76BF1EE10FA3BD4DFF84091D9F8003003
:103EEC005A1EB2F5FA6F5CD3B3F5FA6F0ADC96ED95
:103EFC00026B9FED417BB4EEC76BF1EE10FA23DB46
:103F0C00013321D1424894F8206094ED048BFFF7E3
:103F1C00ADF9404B07EE900A314693ED002AB0EE16
:103F2C00480BB8EEE71B3C48B8EEC22B95ED0A6B7C
:103F3C0095ED0E5B95ED0C4B95ED083B00F07CFA86
:103F4C004FF0FF33C9F80030BDEC028BBDE8F087B1
:103F5C00304B3846196896ED040BFEF779FB2C486C
:103F6C0094F8206094ED048BFFF780F907EE900A2B
:103F7C0031464046B0EE480BB8EEE71B95ED0A6BA8
:103F8C0095ED0E5B95ED0C4B95ED083B97ED002BED
:103F9C0000F052FA214B0122BDEC028B1A60BDE8F5
:103FAC00F0871C4B3846196896ED040BFEF750FB56
:103FBC00174894F820A094ED048BFFF757F907EEFF
:103FCC00900A51464046B8EEE71BB0EE480B95ED13
:103FDC000A6B95ED0E5B95ED0C4B95ED083B97ED53
:103FEC00002B00F029FAD9F800300133C9F8003061
:103FFC007AE700BFAFF300800000000000C0624011
:10400C00E8780020407800204879002030790020A2
:10401C00889100203C730020207A002044730020FB
:10402C00324A33491068096838B5324C6423A4FB12
:10403C000141890C03FB01F113681B1A9942FBD84F
:10404C002D4D2C68631C30D0022C3FD0012C45D058
:10405C0004B138BD0221294803F01AFC284801F0AC
:10406C006FFC01211C2001F0B9FF0121212001F07E
:10407C00B5FF21461D2002F029F921460F2002F040
:10408C0025F90121062001F0A9FF0121042001F0EE
:10409C00A5FF2146052002F019F92146032002F064
:1040AC0015F94FF0FF332B6038BD242001F09CFF35
:1040BC00144B186008B902232B601521124803F029
:1040CC00E7FB0F48BDE8384001F03ABC0F48FFF75A
:1040DC00CDF80F4A012310602B6038BDFFF7D0FEDE
:1040EC00242001F081FF286038BD00BF041000E0DF
:1040FC00A06A002083DE1B432073002000460020B2
:10410C00F46A002040730020E845002088910020CC
:10411C003C730020F8B51B4E1B4C1C4D304603F075
:10412C0065FF22461A49304603F03AFD2846FEF751
:10413C0029FB184F224618492846184E03F030FD2B
:10414C00174800F039F83846FFF768F82246154949
:10415C00384603F025FD3046FEF782F8124D224614
:10416C001249304603F01CFD1148FEF769FA284647
:10417C00FFF78AF8224628460E49BDE8F84003F0BE
:10418C000FBD00BF30910020986A002040780020BD
:10419C00F95E000088910020151D0000E8780020D1
:1041AC00207A0020191D000048790020211D0000F4
:1041BC00307900201D1D0000F8B504461D23042293
:1041CC000521236103200F231C2721260625E262EB
:1041DC006361A1610121E061184627626662A562F4
:1041EC0001F008FF207E012101F004FF207C012159
:1041FC0001F000FF207F012101F0FCFE94F820006B
:10420C00012101F0F7FE94F82C00012101F0F2FEDF
:10421C0094F82400012101F0EDFE94F8280001210E
:10422C0001F0E8FE002200232046C4E90223F8BD79
:10423C009FED537B10B5B4EEC71B04462DED068BDA
:10424C00F1EE10FAB0EE41ABB0EE409B05D5B4EEFA
:10425C00C70BF1EE10FA00F382809FED497BB4EEB0
:10426C00C7ABF1EE10FA04DDB4EEC79BF1EE10FA19
:10427C0070D439EE4A8B02214B48B5EEC08BF1EE6F
:10428C0010FAD8BFB1EE488BB0EE480B01F0BCFB76
:10429C00454801F055FB9FED3A7BB4EEC78BF1EE30
:1042AC0010FA03DD9FED387B37EE488BB4EECA9BDA
:1042BC009FED377BF1EE10FA9FED310B48BFB1EE5D
:1042CC00488B28EE077B87EE000B2EF0E5FEBAEE4E
:1042DC00007BB4EEC78BF1EE10FA04DDB5EEC08BAB
:1042EC00F1EE10FA0BD4B2EE007BB4EEC78BF1EE0C
:1042FC0010FA1CD5B5EEC08BF1EE10FA17DD0022CA
:10430C000023C4E900230D21284803F0C1FA2648F4
:10431C0001F016FB0221244894ED000B01F074FB14
:10432C002148BDEC068BBDE8104001F009BB9FEDA8
:10433C001A7BB4EEC78BF1EE10FA17DC9FED187BED
:10434C00B4EEC78BF1EE10FA15D50022184BC4E968
:10435C000023D8E79FED0C7B39EE079B89E79FED97
:10436C000A7B37EE409BB1EE499B76E70022114B5E
:10437C00C4E90023C7E7B1EE400B84ED000BC2E7A4
:10438C0000000000008066400000000000807640C5
:10439C0000000060FB210940000000000080564036
:1043AC0000000000008056C0F46A00200446002083
:1043BC000000F03F0000F0BFB5EE400BF1EE10FA3C
:1043CC001CD0B7EE007BB4EEC70B92ED007BF1EE88
:1043DC0010FAB5EEC07B18D9F1EE10FA9FED146B04
:1043EC00D8BFB1EE477B54BF0123002327EE067BD9
:1043FC000B6087EE006B82ED006B704730B40024CD
:10440C000025C2E9004530BC7047F1EE10FA9FED73
:10441C00086BD8BFB1EE477B54BF0123002327EEB6
:10442C00067B0B6082ED007B704700BFAFF3008012
:10443C000000000000E06F40B0EE417B0023B0EEC6
:10444C00421B30B52DED108B9FEDDBDB97B0B0EE42
:10445C00409BB0EE470B0D46044606930793B0EE17
:10446C0043AB0893B0EE448B0993B0EE45EB8DED66
:10447C00046B8DED0ADB8DED0CDB8DED0EDB8DED24
:10448C0010DBFFF7D5FE9FEDCE0B9FEDCFCB9FED55
:10449C00D0BB39EE400B20EE0C7B87EE0B0B2EF0D5
:1044AC00FBFD8DED020B9FEDCC0B39EE400B20EE9E
:1044BC000C7B87EE0B0B2EF0EFFDB0EE40FB9FED6F
:1044CC00C80B39EE400B20EE0C7B87EE0B0B2EF05D
:1044DC00E3FD8DED000B9FEDC40B39EE400B20EE90
:1044EC000C7B87EE0B0B2EF0D7FD9DED006B9DED3D
:1044FC00027B9DED042B3DB9B0EE4D0BB0EE4D6B38
:10450C00B0EE4DFBB0EE4D7B94ED005B35EE077BD2
:10451C0035EE0FFB35EE066BB5EEC07B35EE000BC2
:10452C00F1EE10FA8DED0A7B8DED0EFB8DED106B1F
:10453C008DED0C0B40F39881B0EE475BB5EEC00BE4
:10454C00F1EE10FA40F38D81B0EE401BB4EE415BFE
:10455C00F1EE10FAB5EEC0FBA8BFB0EE451BF1EEC4
:10456C0010FA40F37B81B0EE4F5BB5EEC00B8DEDD6
:10457C00125BF1EE10FA40F36E81B0EE404BB4EEEC
:10458C00C45B8DED144BF1EE10FA80F21081B0EE9D
:10459C00445B14ABB4EEC15BF1EE10FA01D993EDB0
:1045AC00001BB5EE401B84ED021BF1EE10FA40F03F
:1045BC0029819FED817BB0EE475BB0EE474BB0EEAF
:1045CC00473B3AEE033B32EE072B38EE048BB5EE4D
:1045DC00C03B3EEE055BF1EE10FAB5EEC02B8DED57
:1045EC000A3BD8BFB1EE433BF1EE10FA8DED0E8BCA
:1045FC008DED105B8DED0C2B40F33981B0EE420B41
:10460C00B4EE403BF1EE10FAB5EEC08BA8BFB0EEA5
:10461C00430BF1EE10FAB5EEC02BD8BFB1EE488BC0
:10462C00F1EE10FA8DED128BD8BFB1EE422BB4EE39
:10463C00C28B8DED142BF1EE10FA80F2B680B0EE39
:10464C00428B14ABB4EEC08BF1EE10FA01D993EDA2
:10465C00000B84ED020B0AAA06A92046FFF7ACFE5C
:10466C000CAA07A9204694ED020BFFF7A5FE0EAA93
:10467C0008A9204694ED020BFFF79EFE10AA09A98B
:10468C00204694ED020BFFF797FE0B21584803F0E0
:10469C00FFF8022157489DED0A0B01F0B5F955487A
:1046AC0001F04EF90699534801F0A2F9514801F076
:1046BC0047F90B21504803F0EBF802214D489DEDD2
:1046CC000E0B01F0A1F94B4801F03AF90899494851
:1046DC0001F08EF9474801F033F90B21474803F0FC
:1046EC00D7F8022143489DED100B01F08DF941489C
:1046FC0001F026F909993F4801F07AF93D4801F09B
:10470C001FF90B213E4803F0C3F8022139489DEDF7
:10471C000C0B01F079F9374801F012F9079935487B
:10472C0001F066F9334801F00BF99DF8201094F86C
:10473C00200001F053FC9DF8181094F8240001F0AF
:10474C004DFC207C9DED0E7BFDEEC77B17EE901A89
:10475C0001F0BCFD207D9DED0A7BFDEEC77B17EEC5
:10476C00901A01F0B3FD9DF81C1094F8280001F08C
:10477C0035FC9DF8241094F82C0001F02FFC207EC1
:10478C009DED0C7BFDEEC77B17EE901A01F09EFDA4
:10479C00207F9DED107BFDEEC77B17EE901A01F08C
:1047AC0095FD17B0BDEC108B30BD12AB4AE712ABC8
:1047BC00F0E600BFAFF30080000000000000000036
:1047CC00000000000000444000000060FB21094094
:1047DC000000000000806640000000000080614086
:1047EC000000000000806B400000000000007440DE
:1047FC0014460020F46A0020204600202C4600209D
:10480C003846002087EE013B80EE017B8FEE014B9A
:10481C0086EE015BB5EEC03BF1EE10FAB5EEC07B57
:10482C0054BF01230023F1EE10FAB5EEC04B0693F2
:10483C0054BF01230023F1EE10FAB5EEC05B0793D1
:10484C0054BF01230023F1EE10FA089354BF012347
:10485C0000230993B5E6B1EE404B90E6B1EE4F5B09
:10486C0083E6B1EE401B71E6B1EE475B66E6B1EE56
:10487C00420BC5E60020704790F8A32090F8A200E8
:10488C00101A704790F8A23090F8A3209A4205D9DC
:10489C005A1C034480F8A220987E70474FF0FF30DA
:1048AC00704700BF90F8A23090F8A3209A4202D92A
:1048BC000344987E70474FF0FF307047704700BF3D
:1048CC00B0F8303193B190F82F31882B0BD8C21837
:1048DC0010B45C1C012380F82F41184682F8A510F7
:1048EC005DF8044B70470122002302711846704793
:1048FC0038B50546B0F8300190B195F82F31144613
:10490C00C3F1890294420CD805F1A5002246184443
:10491C0001F0B8FB95F82F3120461C4485F82F4147
:10492C0038BD144601222A71EEE700BF2DE9F04F85
:10493C008346404883B01525DBF814A09BF818601B
:10494C009BF819300AEB06163B490AEB0313DFF808
:10495C00ECE0367A0C4693F828303601DFF8E0901C
:10496C001B01871950F8068000EB030CC658F86839
:10497C007B68DCF80C7000931D60C8F88400D8F8D4
:10498C000430DCF8042003430192C8F804301560AD
:10499C00C6F8847073683B4373600968DEF80030B6
:1049AC00A9FB0332920C02EB8202520023685B1AC1
:1049BC009A42FBD8204A0925DFF884C09146D8F8E2
:1049CC000830184202D0B3681F4231D1C6F8887043
:1049DC001468DEF80010ACFB0131890C01EB81018D
:1049EC0013681B1B9942FBD8C6F88470D9F8004099
:1049FC00DEF80010ACFB0131890C01EB810113686E
:104A0C001B1B9942FBD8013DD9D128469BF8183085
:104A1C00009A0AEB0313DB6813609BF81930019AB8
:104A2C000AEB031ADAF82C30136003B0BDE8F08FF0
:104A3C000120EBE724400020041000E0A06A0020D5
:104A4C0083DE1B430D49026910B50C6805E0DB01E0
:104A5C0007D40B681B1B102B08D8536913F0007F6D
:104A6C00F5D14FF4FE430120536110BD0446FFF70E
:104A7C005DFF0028F9D02269F3E700BF28920020DF
:104A8C002DE9F04790F82FA1BAF1000F02D10420C4
:104A9C00BDE8F08705460E46FFF7D4FF0028F6D098
:104AAC002E4F00244FF40079D7F800805445296923
:104ABC001AD8CB6D03F00703032B09D914E095F832
:104ACC00A5200133012442F48062042B0A660BD02A
:104ADC002A19002CF3D0A24527D9013392F8A5202E
:104AEC000134042B0A66F3D14B69180522D45A05FC
:104AFC0027D4980404D43A68C8EB0202322A09D9A4
:104B0C000B694FF40072042043F440730B610A6686
:104B1C00BDE8F087544505D9CA6D520702D19B05F3
:104B2C0019D4C6B102F03AFFC0E70EB1C1F86090DB
:104B3C000134D9E70B69042043F440730B61BDE8E1
:104B4C00F0870B694FF40072022043F440730B6141
:104B5C000A66BDE8F0870020BDE8F08728920020A7
:104B6C002DE9F84F0C46154698468146FFF76AFF2B
:104B7C0010B90420BDE8F88F00226300002D40F22C
:104B8C00014A1446DBB23D4E08BF0125022C43EA14
:104B9C000A0AD6F800B089F8A22089F8A32048D9CF
:104BAC00D9F8103099F8A320872A12D8D96DC1F3FF
:104BBC00024111B90DE0882A0BD002F1010E09EB6C
:104BCC00020001395FFA8EF289F8A3201F6F8776F5
:104BDC00F1D15A6910054CD412F4105F04D131682C
:104BEC00CBEB0101322912D91A694FF4007142F44E
:104BFC0040721A611966DA6D12F4E02F03D01A694B
:104C0C0042F400721A6199F8A300BDE8F88F99F884
:104C1C00A310A94209D3022C07D9D96D490704D195
:104C2C009205E8D4B8F1000FE5D002F0B7FE022CE3
:104C3C00B6D8D9F81020D36D03F00703032B0DD889
:104C4C00691E4FF4007041F480714CB9C2F860A039
:104C5C00013B0134032B01D8022CF6D91346A1E7F2
:104C6C00012C04D0B8F1000FF2D01066F0E71166F9
:104C7C00EEE71A6942F440721A61BCE728920020F0
:104C8C0010B4047F4160022CC26003D05DF8044B69
:104C9C0000F06CBA83685DF8044B1847F0B5304CE3
:104CAC00304BA06C656C0179226CD9772979197716
:104CBC0001791977FAB1B2F5004F18D22B6892B27C
:104CCC00D98B0E043BD4DA83D98B89B2D982036891
:104CDC00D98B09042CD4DA830021DA8B92B2DA82D4
:104CEC00216402791F4BDA762A79DA76F0BD1E4BF5
:104CFC0013442364F5E7E06C0F25236840F2013E72
:104D0C0001684FF47C579D6503260D681749DA61DD
:104D1C008D42C3F810E05F6184F83D6017D1037FCA
:104D2C004260022BC26017D0BDE8F04000F01EBA02
:104D3C00D98BC2F3080201F47E410A43CBE7D98B2D
:104D4C00C2F3080601F47E413143D983BCE72B46FC
:104D5C001146BDE8F04018478368BDE8F04018479D
:104D6C00A46A002000800E400180FFFF712B000020
:104D7C00704700BF70B50C4605462822002120461E
:104D8C00012632F0B3FA0B220849204634F0BEF962
:104D9C00002200230320E2720549ED68E6602561DC
:104DAC00626260612162A361E36170BD44460020D0
:104DBC000AD7233C10B50446142101F005FA20460D
:104DCC0010BD00BFF8B504460025084816461F461E
:104DDC00E16020601020A56001F0EEF905463A462E
:104DEC0031462EF025F8A5602046F8BDAC2C0020ED
:104DFC0030B5024685B00C4600213D258068012364
:104E0C00147402220191009103A98DF80D408DF8C4
:104E1C000C502EF043F81E2001F046F805B030BDC2
:104E2C002DE9F047054684B08946806801212EF0B3
:104E3C0025F820B90027384604B0BDE8F08704AC4B
:104E4C0000264FF001080746A8684246019604F870
:104E5C00046D23462146CDF800802EF0B1F89DF864
:104E6C000C30A02B12D04FF47A7001F01DF8A8680A
:104E7C00234601964246CDF8008021468DF80C6001
:104E8C002EF09EF89DF80C30A02BD3D10021284693
:104E9C00FFF7AEFF00263F214FF0200EA86801233C
:104EAC0002228DF80C100196214600964FF0010855
:104EBC008DF80DE02DF0F2FF1E2000F0F5FF01E063
:104ECC0000F0F2FFA868234601960122CDF800807D
:104EDC0021468DF80C602EF073F89DF80C304FF0D5
:104EEC00000A0A20A02BEBD13E26322000F0DCFF7A
:104EFC00A8682146012302228DF80C60CDF804A08D
:104F0C000726CDF800A08DF80DA02DF0C7FF0A20C4
:104F1C0000F0CAFFA86821468DF80C60CDF804A0FB
:104F2C000123CDF800A002223F268DF80DA02DF014
:104F3C00B5FF01230222A8682146CDF804A0CDF8C4
:104F4C0000A08DF80DA08DF80C602DF0A7FF0A20A5
:104F5C0000F0AAFF49462846FFF74AFF142000F04C
:104F6C00A3FF384604B0BDE8F08700BFF0B50E468D
:104F7C00002185B004460D46077CFFF739FF192048
:104F8C0000F092FF4FF0070EA06803A901950123D2
:104F9C00009502228DF80D508DF80CE02DF07EFF5F
:104FAC00A068BEB93F25019603A9009601230222F1
:104FBC008DF80D608DF80C502DF070FF0A2000F06C
:104FCC0073FF39462046FFF713FF142000F06CFFE7
:104FDC0005B0F0BD4FF03F0E8026019503A900955A
:104FEC00012302228DF80CE08DF80D602DF056FF98
:104FFC00E4E700BF00000000F0B587B000251646BE
:10500C00062706AA0560456004AB02F80C6D044641
:10501C008560083EC560056145618868114601954B
:10502C00012200970495ADF814502DF0C9FF9DF89E
:10503C0010309DF811009DF8135043EA00209DF8A4
:10504C0012109DF815209DF8143041EA052100B28C
:10505C0043EA022309B21BB2262E2FD8DFE806F052
:10506C00142E2E2E2E2E312E2E2E2E2E312E2E2E68
:10507C002E2E312E2E2E2E2E2E2E2E2E2E2E2E2E41
:10508C00142E2E2E2E2E140007EE900AB8EEE75B8F
:10509C0007EE901AB8EEE76B07EE903A9FED184BBF
:1050AC00B8EEE77B85EE043B86EE045B87EE046B83
:1050BC0084ED003B84ED025B84ED046B204607B06D
:1050CC00F0BD07EE900A2046B8EEE75B07EE901AAB
:1050DC00B8EEE76B07EE903A9FED0B4BB8EEE77B23
:1050EC0025EE045B26EE046B27EE047B84ED005B5F
:1050FC0084ED026B84ED047B07B0F0BDAFF3008050
:10510C000000000000005940000000000000B03F0B
:10511C00F0B50C46242587B006462A4600212046C9
:10512C00032732F0E3F8104BF06831461B681A2263
:10513C00606068462560A7602361FFF75DFF012072
:10514C009DED005B9DED026B9DED047BB7EEC55BA9
:10515C00B7EEC66BB7EEC77B84ED055A84ED066AD5
:10516C0084ED077A07B0F0BD2892002010B4EFF35D
:10517C00108272B6437F33B9017F012908D003290D
:10518C0010D00123437702B962B65DF8044B704727
:10519C00114C2168A1B1114943610B68086083610E
:1051AC005861EEE70E4C216881B10E4943610B68E2
:1051BC000860836158610C4B4FF080511960E0E737
:1051CC00064B4161816120601860DAE7054B416153
:1051DC00816120601860EEE7F8890020048A0020C5
:1051EC00008A0020FC89002004ED00E070B5EFF38C
:1051FC00108172B60C4C23688BB10C4E00255A6989
:10520C0022607AB1956101B962B65D7718469B68E8
:10521C009847EFF3108172B62368002BEFD101B9D8
:10522C0062B670BD3260EEE7008A0020FC89002077
:10523C00FFF7DCBF044A054B1168054A1960136877
:10524C0001331360704700BF041000E0249200206B
:10525C0028920020B0F84630B0F848209BB292B2A9
:10526C00934202D2501EC01A7047406B0138104452
:10527C00C01A704772B6B0F84A30B0F84C2099B2E8
:10528C0093B2994201D2826B11440269CB1AD06A53
:10529C00C0F30260184462B6704700BFB0F84A20F1
:1052AC00B0F84C3092B29BB29A4270B428D0013311
:1052BC00846BA34217D2016B9EB28B4218D2016A47
:1052CC00C95CC9B2856DA0F84C60B5B19A4238BFC3
:1052DC001219D31AC26B93420FD8C36D0846C5F886
:1052EC00883070BC70470026016B33468B42E6D386
:1052FC00591A456A695CC9B2E4E7084670BC704744
:10530C0072B6B0F84A1089B28A4202D062B60A4626
:10531C00CDE70369DA6A12F0E06F04D0D869C0F304
:10532C00090062B6DDE74FF0FF30FAE790F8443041
:10533C0043B110B5044602F031FB94F84430002B15
:10534C00F9D110BD704700BFB0F84A20B0F84C300E
:10535C0092B29BB29A4210D00133816B026B8B429A
:10536C0028BF0023934204D39B1A426AD05CC0B27C
:10537C007047026AD05CC0B2704772B6B0F84A107F
:10538C0089B28A4201D062B6E6E70369DA6A12F0A2
:10539C00E06F11D0DB690021026AC3F3090310B47A
:1053AC000124A0F84A40A0F84C10D9B2517062B652
:1053BC0018465DF8044B70474FF0FF3362B6184641
:1053CC00704700BFEFF31380B8B9EFF310834BB9FC
:1053DC00EFF305823AB94FF48073EFF3118050B1BB
:1053EC00984208D270470F2AF7D9054BD35CEFF3DC
:1053FC0011800028F4D1184670474FF0FF30F1E7C8
:10540C00F0E300E007EE901A9FEDA47A0421B6EECB
:10541C00005AF8EE677A9FEDA26A2DE9F043C7EEC9
:10542C00275A0E46012541F6FF741DE0A342A8BF82
:10543C00234607EE903AF8EEE76A76EEC76AC6EEB8
:10544C00877AF5EEC07AF1EE10FA48BFF1EE677A82
:10545C00F4EEC67AF1EE10FA03D8B0EE676A0E4697
:10546C001D460131212911D007EE901AF8EEE77A8A
:10547C0085EEA77A77EE057AFDEEE77A17EE903A8D
:10548C00002BD3DCF7EE006A0123D6E70021436939
:10549C0002F40074D0F83890B3F85C70B3F85E8006
:1054AC008C42A0F84A10C7EB0907A0F84C1008BFB3
:1054BC008C46A0F8461018BF4FF0010CA0F848100D
:1054CC0080F84410D3F810E05969DEF80040C76347
:1054DC0044EA0104C8EB09010164CEF8004080F8ED
:1054EC001AC040F0CE80047E6E4903EB04146E4F5C
:1054FC00247E01EB0414A4682760047E03EB0414DF
:10550C00277ED4F81CE001EB07146468C4F800E0B3
:10551C00047E03EB0414276A0FB1646A3C60447E7A
:10552C00D92703EB041494F8384001EB0414A46855
:10553C002760447E03EB041494F83870E46B01EBA1
:10554C00071149680C60417E03EB01110C6C0CB126
:10555C00496C2160711E5C785F68082E4FEA01610E
:10556C004FF00006D8BF4FF4003E04F1100401F0D8
:10557C00F853C8BFB64601691D434C4B4EEA0505AE
:10558C000D61CE6043F824704369012448495D786D
:10559C0093F85A30474E6B54456901696B7803F0A8
:1055AC001F075B11BC4046F823408B6A9B0803F035
:1055BC001C030F2B60D85B1003F00303DCB28B6A67
:1055CC009B0003F01C030F2B53D8DB0303F4403375
:1055DC00234302F00304CB628B6A43F088038B6293
:1055EC0053074BD444F4701302F00F04042C847E44
:1055FC0008BF43F08043970648BF43F080530CB17B
:10560C0043F0A00316078B6103D50B6943F00053DD
:10561C000B614B69D40623F0805348BF43F0805391
:10562C004B61D30503D50B6943F400530B61EB6855
:10563C001B78E3B9204E357865B3204C2368834240
:10564C0026D0691E2346C9B204EB810103E053F84E
:10565C00042F90421AD08B42F9D16B1CDBB2184A42
:10566C003370137844F8250043F002031370BDE83F
:10567C00F0834FF44033ABE70324A0E7114B2343F3
:10568C00B2E7447E4FF2D90706494AE7BDE8F083FA
:10569C00BDE8F0830123094CE1E700BF001BB74BC9
:1056AC00EC78AD602440002038F00100007400203C
:1056BC0000E400E000E100E03B920020088A0020BA
:1056CC00A173002010003C00F8B5036D04460E4693
:1056DC0013B1426DC3F88420A37E33B172B6226934
:1056EC00936943F00053936162B6B4F84650636B10
:1056FC00ADB201359D4249D2AFB2B4F848309BB23D
:10570C00AB4220D1FFF75EFE6369B3F85A30984282
:10571C002DDC21694B691B02EFD5B4F84830626B64
:10572C009BB20133934227D2E26A98B2934228D2B9
:10573C00E269D35CDBB2CB61A4F84800B4F8483022
:10574C009BB2AB42DED0E36A9D4222D3ED1AF6B295
:10575C00A36A5E5572B60120226984F84400A4F84D
:10576C004670936943F40003936162B6F8BDFF2859
:10577C00C3DD02F013F9C0E70020E26A034693424E
:10578C00D6D39B1AA26AD35CDBB2D4E700273D4682
:10579C00B3E7F6B2E3695E55DCE700BFFFF794BFF1
:1057AC000269536913F4401FF0B542D0D36AC3F3B6
:1057BC000265002D3AD0B0F84A70B0F84CE0BFB298
:1057CC001FFA8EFE06E0026AD65402696B1E13F0B5
:1057DC00FF051AD0D1697B1C866BB0F84C40C1F325
:1057EC000901B34228BF0023A4B2A342EED0026B3E
:1057FC00CEB21F469342A3EB0204E4D3436A1E5578
:10580C006B1E026913F0FF05E4D1BBB2816DA0F8E9
:10581C004A3059B1774573D2836BCEEB03031F44E7
:10582C00036C9F4202D3C36DC1F884305369DC0210
:10583C0055D4D2F818E01EF4000F02D053691902A7
:10584C001CD41EF4800F48D053695B0246D500214E
:10585C00036D80F8441013B1416DC3F88810837E3A
:10586C003BB172B60269936923F00053936162B63F
:10587C000269936923F480039361F0BDB0F846503C
:10588C00B0F84830ADB29BB29D422DD0466BC46A85
:10589C000AE0C169C95CC9B2D161D16AC1F3022104
:1058AC00032912D8AB421FD001339E4298BF00236C
:1058BC00A342A3EB0401ECD3876A795CC9B2D16132
:1058CC00D16AC1F302210329ECD999B2AB42A0F8F9
:1058DC0048100CD01EF4800FB6D1F0BDF0BD53694A
:1058EC0043F480135361A4E7ADB2A0F84850936918
:1058FC0023F400039361936943F480039361A0E75D
:10590C00CEEB07078CE700BF0148FFF749BF00BF8C
:10591C00046B0020F8B50E4671B17AB107461446F7
:10592C0000253B68384616F8011B1B689847013C5C
:10593C000544F6D12846F8BD0846F8BD1046F8BD1A
:10594C0010B5064C82B003680222248801A95B685A
:10595C00ADF80440984702B010BD00BF0805002008
:10596C00036810B514465B689847204610BD00BF0D
:10597C00F0B506468BB0002A33D0012A08BF0A22A4
:10598C0051B3212500E0FDB26F1EB1FBF2F402FB16
:10599C001411C8B2092900F1370100F1300088BF99
:1059AC00C8B221460AAC98BFC0B22C4404F8240CEF
:1059BC000029E8D133B1013D0AAB2D22EDB22B44C5
:1059CC0003F8242C336801A9C5F12202304629447E
:1059DC005B6898470BB0F0BD302221258DF825204F
:1059EC00E8E70368C9B21B6898470BB0F0BD00BF6D
:1059FC00002903DB00230A22FFF7BABF49422D23FB
:105A0C000A22FFF7B5BF00BFB4EE400B70B5F1EE44
:105A1C0010FA05462DED028B86B080F19180B0EE28
:105A2C00C07B9FED4B6BB4EE467BF1EE10FA0ADDBA
:105A3C00036803224E495B6898470646304606B019
:105A4C00BDEC028B70BD9FED447BB4EEC70BF1EE49
:105A5C0010FA58DC9FED427BB4EEC70BF1EE10FA56
:105A6C0051D4B5EEC00B0C46F1EE10FA56D400230F
:105A7C00002C57D0B6EE008B00229FED3B7B013201
:105A8C0028EE078BD1B28C42F9D830EE080B0A22E3
:105A9C002846FCEEC07BB8EE678B17EE901A30EE02
:105AAC00488BFFF765FF0F2C4FF00102B2EE047B21
:105ABC004FF02E0328BF0F2406468DF808301444EF
:105ACC00E4B228EE070B531C06A91144DAB2A24229
:105ADC00FCEEC06BCDED016A9DF8043006EE903AF9
:105AEC0003F13003B8EEE68B01F8103C30EE488B36
:105AFC00E7D12B68284602A95B689847304606B068
:105B0C00BDEC028B70BD2B6803221A495B68984769
:105B1C000646304606B0BDEC028B70BDB1EE400BB4
:105B2C000123A5E7B6EE007B28460A2230EE070BD0
:105B3C00FCEEC07B17EE901AFFF71AFF06467DE7C6
:105B4C00036803220C495B689847064676E700BF5A
:105B5C00FFFFFFFFFFFFEF7F000000E0FFFFEF41C3
:105B6C00000000E0FFFFEFC1000000A09999B93FD1
:105B7C0054460020504600204C4600202A281BD8B2
:105B8C0014490B784BB1144A936C1B06FCD4134A82
:105B9C00936C13F08003FBD10B70114B1B5CFF2B30
:105BAC000AD01A060AD40C4A114613600B6A0A4A28
:105BBC00D807FBD5506A704700207047074A03F09E
:105BCC007F03114613600B6A044ADB07FBD5506A4E
:105BDC00704700BF3E92002000400C4000800C40FB
:105BEC0058440020964A974B90422DE9F043964C2E
:105BFC00D3F814E09969E6681CD9944B984240F2AA
:105C0C001581934B40F22765924F0344924C1A0A2C
:105C1C00A7FB0232D30903EB830303EB830202F2EB
:105C2C00E243AB4228BF2B46A3F54873A4FB0335D4
:105C3C00ED0804E0894DA84294BF06250E25814A43
:105C4C0006F01F07D2F88030AF4243F0C003C2F811
:105C5C0080300AD27C4B26F01F061A462E43DE609B
:105C6C001368002BFCDA06F01F071EF0007331D10D
:105C7C007B4C7C4AD4F810C014460CEA0202A242B7
:105C8C000ABF4FF0C0534FF4805200228EEA030437
:105C9C0014F0605F08D02EF0605E03F06053694C26
:105CAC0043EA0E0EC4F814E081EA020313F4405FD9
:105CBC0008D0644B21F4405111431A469961936CFE
:105CCC001C07FCD44EF0007E5E4AC2F814E0936CC4
:105CDC009906FCD40121644C0A4601FB02F300FB3B
:105CEC0003F3A34209D8072A00F29580013201FB85
:105CFC0002F300FB03F3A342F5D95C485C4C184457
:105D0C00A4FB00031B0D6C2B00F28B80352B00F2D7
:105D1C008F80DFF8888136235648DFF844C1564C13
:105D2C00DCF80090B0FBF2F009EA04044445B0FB47
:105D3C00F1F00BD043F400534FF480586446CCF888
:105D4C000080CCF800302368002BFCDADFF8F4C0BC
:105D5C00013ADCF8103003F00703934207D002F04D
:105D6C0007026446CCF81020A36CDB03FCD4013989
:105D7C0089028EEA010313F4E05F0CD0314B2EF450
:105D8C00E05E01F4E0511A4641EA0E0EC3F814E04D
:105D9C00936C9907FCD4394B39490344DB09A1FBBB
:105DAC000331090B042928BF04214B1E1B028EEA68
:105DBC00030212F4407F07D02EF4407E03F44073AC
:105DCC00204A43EA0E0353611E4B5C691A4624F0C9
:105DDC0000745C61936C9B06FCD42A4B4FF0FF3231
:105DEC00294CBD42A3FB00E320604FEA9343274CB0
:105DFC00B2FBF3F3B0FBF1F1254A2160136008D23A
:105E0C00114B26F01F061A462E43DE601368002B3A
:105E1C00FCDABDE8F08304293FF66FAF01310122B3
:105E2C005BE7DFF87C806C231A4876E7122506E7DF
:105E3C001948DFF8708000FB03F043EA08086CE7B0
:105E4C0000A4781F00C00F40000008400046C32388
:105E5C0000BA3CDC23B24C001F85EB5100366E01BE
:105E6C0000800D4040300080FFB19F26808D5B008C
:105E7C00819F5E1600B29F267F3001807FD1F00893
:105E8C009F10E50083DE1B43A06A00209C6A002063
:105E9C002092002000643F4D001BB700362000808C
:105EAC006C20008000200080002857D001222DE9B2
:105EBC00F04F85B083462A4C2A4D2B4EDDE90289E2
:105ECC0054E8003F2868336844E800210029F7D1E2
:105EDC00264FCDE902893A68D31A254A4FF47A7EC7
:105EEC00019712680127A3FB02234FF47A7298469C
:105EFC0000238B4208BF42452CBFC246F2460EFB24
:105F0C0000AA54E8003F2A68316844E80073002B6B
:105F1C00F7D101980068411A15484FF47A7E006851
:105F2C000EFB02F2A1FB00014FF47A70CAEB0202E5
:105F3C0088460021994208BF40452CBF4346734612
:105F4C001A44724507D3BBF1010B0AF57A7AD8D102
:105F5C0005B0BDE8F08F01F021FDD2E7704700BF1E
:105F6C00A09200202892002024920020041000E02F
:105F7C002092002000010F4B1A181B5810B4D06847
:105F8C005C68044205D059B1C3F884005DF8044B39
:105F9C007047936849B9084A5DF8044B1A6070471A
:105FAC00C3F888005DF8044B7047044A5DF8044B55
:105FBC001A607047244000203830010038F001008E
:105FCC000001054B1A5819189268CB681A4214BF75
:105FDC0001200020704700BF24400020362801D843
:105FEC00FFF7C8BF704700BF362801D8FFF7E8BFDE
:105FFC000020704736281CD800011A4A012902EBF0
:10600C000003105810B415D0042913D0DC68426872
:10601C0022EA040242609A68E9B102291ED00329DF
:10602C005B685DF8044B0CBF0F49104911601522D9
:10603C001A607047DA680129446842EA0402426037
:10604C009A6808D040F6380111605B6815225DF83B
:10605C00044B1A60704738211160F6E7044911604F
:10606C00F3E700BF24400020383001003800010065
:10607C0038F0010008B5FDF7E7FEFDF7D1FF01F0A0
:10608C008DFCFAE7844641EA000313F003036DD15B
:10609C00403A41D351F8043B40F8043B51F8043BDF
:1060AC0040F8043B51F8043B40F8043B51F8043BE6
:1060BC0040F8043B51F8043B40F8043B51F8043BD6
:1060CC0040F8043B51F8043B40F8043B51F8043BC6
:1060DC0040F8043B51F8043B40F8043B51F8043BB6
:1060EC0040F8043B51F8043B40F8043B51F8043BA6
:1060FC0040F8043B51F8043B40F8043B51F8043B96
:10610C0040F8043B51F8043B40F8043B51F8043B85
:10611C0040F8043B403ABDD2303211D351F8043B25
:10612C0040F8043B51F8043B40F8043B51F8043B65
:10613C0040F8043B51F8043B40F8043B103AEDD2D4
:10614C000C3205D351F8043B40F8043B043AF9D225
:10615C00043208D0D2071CBF11F8013B00F8013BF8
:10616C0001D30B8803806046704700BF082A13D305
:10617C008B078DD010F003038AD0C3F10403D21A1D
:10618C00DB071CBF11F8013B00F8013B80D331F851
:10619C00023B20F8023B7BE7043AD9D3013A11F8D1
:1061AC00013B00F8013BF9D20B7803704B7843703C
:1061BC008B7883706046704730F072BC30F070BCE6
:1061CC0030F076BC30F074BC30F072BCF0B44E1EC3
:1061DC000025374600E00135B0FBF2F302FB13005B
:1061EC0000F13704092800F13000E4B298BFC4B2C2
:1061FC00184607F8014F002BEDD14A1953704DB1D9
:10620C00013316F8014F1778E81A3770834202F8F9
:10621C000149F5DB0846F0BC704700BFF0B501EB57
:10622C004106294C012500EB461694F800C005FAEE
:10623C0001F1F4891FFA81FEB0F88851A4B24FEA3B
:10624C000E1704FB0333ADB207F0F00723FA0CF37F
:10625C003D43A342A0F8885128BF2346012A22D0EF
:10626C0015D3022A08D001F00F01B0F888319BB287
:10627C001943A0F88811F0BD9BB201F00F01F38314
:10628C00B0F880319BB21F43A0F88071EDE7E31AA0
:10629C0001F00F019BB27381B0F880319BB20B43BC
:1062AC00A0F88031E1E79BB201F00F014FEA0E2E0E
:1062BC00F382B0F880310EF4706E9BB24EEA030E8E
:1062CC00A0F880E1D1E700BFA073002036280CD8DD
:1062DC00294AF8B5044600B212F8206002EB80059A
:1062EC00012E03D0022E16D0F8BD70476A78C2F387
:1062FC000113032B3AD0214850F823008BB202F043
:10630C000301AA78FFF78AFF1D48EA7800EB041016
:10631C0043681A60F8BD6E78C6F30113032B27D0BF
:10632C00184A52F823E006F00306174B89B20EEB1D
:10633C00461793F800C07601FA880EEB06037644F4
:10634C0092B2188AC2F1011212FA80F2501E00FBAE
:10635C0001F323FA0CF3984298BF931ED21A9BB206
:10636C00C2F1010292B2FA803382CDE70748C5E749
:10637C00DFF81CE0D7E700BF84440020440C002069
:10638C0024400020500C0020A073002000803E40D0
:10639C0000801E40A4484FF00F0CA44B826F42F4B7
:1063AC007F02F0B582670025D0F880204FF470464C
:1063BC009F4C4FF4604E29464FF4806714432A4695
:1063CC00C0F88040A3F88C6148F2B826A3F88EC1BF
:1063DC00A3F89051B3F8880180B240F0F000A3F814
:1063EC00880101EB4100914B0131002540011C4615
:1063FC0004290344A3F804E0DF805A841A865A80E7
:10640C005A81DE815A82DA825A83DA83E9D1B4F86E
:10641C0088014FF00F0C874B4FF4704680B2294621
:10642C004FF460472A4640EA0C004FF4806EA4F803
:10643C008801B4F8880180B240F47060A4F8880137
:10644C00A3F88C6148F2B826A3F88EC1A3F890513A
:10645C00B3F8880180B240F0F000A3F8880101EB9A
:10646C004100744B0131002540011C4604290344B2
:10647C009F80A3F806E05A841A865A805A81DE81DE
:10648C005A82DA825A83DA83E9D1B4F888014FF060
:10649C000F0C694B4FF4704680B229464FF460479D
:1064AC002A4640EA0C004FF4806EA4F88801B4F838
:1064BC00880180B240F47060A4F88801A3F88C6164
:1064CC0048F2B826A3F88EC1A3F89051B3F888010E
:1064DC0080B240F0F000A3F8880101EB4100564B6C
:1064EC000131002540011C46042903449F80A3F878
:1064FC0006E05A841A865A805A81DE815A82DA82E0
:10650C005A83DA83E9D1B4F888014FF00F0C4B4B66
:10651C004FF4704780B229464FF460462A4640EA51
:10652C000C004FF4806EA4F88801B4F8880180B296
:10653C0040F47060A4F88801A3F88C7148F2B82775
:10654C00A3F88EC1A3F89051B3F8880180B240F043
:10655C00F000A3F8880101EB4100384B01314001F8
:10656C001C46042903449E80A3F806E05A841A862C
:10657C005A805A81DF815A82DA825A83DA83EAD1CD
:10658C00B4F888310F27002241F201069BB245F680
:10659C00C05E114643F226053B43A4F88831B4F89B
:1065AC0088319BB243F47063A4F888315001244BBA
:1065BC0001320344042A99815981DF819E82A3F818
:1065CC0006E0198019829D81F0D100220F2741F23B
:1065DC00010645F6C055114643F226045001194BED
:1065EC0001320344042A99815981DF819E82DD8026
:1065FC00198019829C81F1D100220F2741F20106EA
:10660C0045F6C055114643F2260450010E4B01329B
:10661C000344042A99815981DF819E82DD8019808F
:10662C0019829C81F1D1F0BD00C00F4000C03D40EB
:10663C00000003FC00003E4000403E4000803E4015
:10664C0000C01D4000001E4000401E40704700BFAF
:10665C0072B6EFF30583494D6B60EFF30883484C3A
:10666C002E4648484849494A246800680968126817
:10667C002961AC60E8606A619A69454CAA61DB6982
:10668C00444FEB6100F0E6F885ED080A01F0FEF9E5
:10669C000B234FF0FF32686219462B604A402021D1
:1066AC0002F00103013904FB03F383EA5202F7D130
:1066BC00BE4202D056F8041FF0E730498A62BFF39D
:1066CC004F8F354B354A19601A60BFF34F8FBFF3AC
:1066DC006F8F334A0225334CD36E334943F4405306
:1066EC003248D3662560D36923F07F0343F040031F
:1066FC00D3610B6883423ED82A4A002101202C4EDC
:10670C0011604FF0FF33C2F808110C46C2F800615B
:10671C001546C2F808010746DFF8C0E0254E2648AA
:10672C002649274ACEF80030336003600B601360B3
:10673C0001E000F073F9D5F80C211A4B002AF8D0BF
:10674C000134C5F80C714F2CF3D91E4A02241E4893
:10675C004FF00041C0F840415163D3F80C2132B9DD
:10676C001A491B4A0A63D3F80C010028FAD0194BBA
:10677C00194A1A60FEE7FFF735FABDE780FF2720BC
:10678C0028ED00E02CED00E034ED00E038ED00E009
:10679C002083B8EDA4FF272070EF00E0A0FF272096
:1067AC0000C00F4000400840A06A0020803DCD0B87
:1067BC00009F240084E100E088E100E08CE100E02F
:1067CC0090E100E000900D4000002E4000800F4052
:1067DC00F100AD0B0CED00E00400FA0580E100E0E7
:1067EC00094A08B5136820B118440849884202D8F0
:1067FC001060184608BD2EF0FFFF0C224FF0FF333F
:10680C000260184608BD00BF946D002000002820CF
:10681C00002070474FF0FF30704700BF4FF400531B
:10682C0000204B60704700BF012070474FF0FF30D5
:10683C00704700BF30BFFDE70078B0FA80F0400928
:10684C00704700BF01230370704700BF30BFFDE7E6
:10685C00FFF7FEBE12490B68114A5B07FBD51368A4
:10686C001049C3F30B23104A07EE903A0B6892EDD4
:10687C00006AB8EEE77A07EE903A0C4AF8EE677ABF
:10688C000B4BD2ED006A77EE677A93ED007AB8EE97
:10689C00477A67EE867A87EEA60A37EE400A70478B
:1068AC0080810D4010920020189200201C92002034
:1068BC0014920020836BF0B41BB1536843F4004373
:1068CC00536072B6446B5CB31C4B2260D3F8B0417E
:1068DC000C4215D11A4E376804E03468E41BB4F549
:1068EC00166F0BD2D3F8404144F48044C3F84041B6
:1068FC00D3F8B851D3F840416404EED50D4003D021
:10690C00426362B6F0BC70470C4C8260C560D4F830
:10691C00B0311943C4F8B011426362B6F0BC704791
:10692C00064D8260C460D5F8B0311943C5F8B0117A
:10693C000263426362B6F0BC704700BF00002E4099
:10694C00041000E070B50646006B90B102460024BE
:10695C0003E012680134012A0CD0536813F0800351
:10696C00F7D032632CB1B36B05689847013C2846CD
:10697C00F9D170BD33637363F4E700BFF0B5E1B9CF
:10698C00214C22490020224B01224FF00115802678
:10699C000A601A46A1604E60E060C3F8BC51D3F89F
:1069AC00B0411C4D44F001048860C3F8B04128602C
:1069BC00D2F8B031002BFBD1F0BD0904164B144DAD
:1069CC000126114C41F0800100221E60596000F537
:1069DC00805CE26400F5005EA36400F54057D5F8D6
:1069EC00B01100F580462A46986041F48031C3F816
:1069FC000CC0C3F810E05F619E61C5F8B011D2F80D
:106A0C00B031002BFBD1BCE70000002080920020AD
:106A1C0000002E40C8910020609200202DE9F04F1C
:106A2C00B94C83B0D4F8448118F0010FC4F84481F8
:106A3C005ED0D4F8AC31002B55D04FF0011BDFF8F1
:106A4C00EC92B24E2546DA46C4F8AC31B06AF26A22
:106A5C00D4F8403143F40053C4F84031D4F84031F9
:106A6C009F04F5D5D5F8403123F40053C5F84031D7
:106A7C00C5F8B4A1D4F8B43113F00113FAD181B232
:106A8C0040F28167C9F80030B94200F2AD80B1F52F
:106A9C00D06F80F0DE81B1F5817F00F0608100F273
:106AAC00E880802900F04E81822940F0DA8092B291
:106ABC0002F07F01072900F2D48089009448954F99
:106ACC000844016810063B707B7040F10182CA03D8
:106ADC0001D501233B7002218E48FFF74FFFD4F8FC
:106AEC00AC31002BB0D1884AD2F8BC31002B49D143
:106AFC0018F0400F18D0844BD3F8AC111A46C3F8D9
:106B0C00AC11D3F8BC11C3F8BC11D2F8B0417E4B18
:106B1C00002CFAD14FF0FF32C3F8B421D3F88431F2
:106B2C0000F032FD7C4B1C6018F0807F03D07B4B57
:106B3C001B6803B1984718F0007F03D0784B1B6893
:106B4C0003B1984718F0040F08D06F4BD3F8843179
:106B5C0013F4007345D0734B01221A706A4BD3F8AF
:106B6C00482112060BD518F0800F08D06E490A7810
:106B7C002AB1013AD2B20A70002A00F0428203B064
:106B8C00BDE8F08F6949C2F8BC310868034240F097
:106B9C00E281614A15681D40AAD02F0C0FD05B4EC4
:106BAC004FF0010997FAA7F4B4FA84F406EBC41079
:106BBC0009FA04F44030FFF7C5FEA743F2D1ADB299
:106BCC00002D95D0514E012795FAA5F4B4FA84F412
:106BDC0006EBC41007FA04F4FFF7B4FEA543F3D197
:106BEC0086E7504A1370B9E742F22107B94234D014
:106BFC0067D8B1F5086F00F01E81B1F5106F30D178
:106C0C00C0F307404A4A4B4910704B4F4B4A019313
:106C1C00C5F8C871C5F8CC11C5F8D02100F0B6FC88
:106C2C00474A019B80210120B26451601060F364DB
:106C3C00C5F8BCB1D5F8B011936041F48032C5F8F9
