:0200000460009A
:100000004643464200000156000000000103030081
:1000100000000000000000000000000000000000E0
:1000200000000000000000000000000000000000D0
:1000300000000000000000000000000000000000C0
:1000400000000000010408000000000000000000A3
:100050000000800000000000000000000000000020
:100060000000000000000000000000000000000090
:100070000000000000000000000000000000000080
:10008000EB04180A063204260000000000000000FD
:10009000050404240000000000000000000000002F
:1000A0000000000000000000000000000000000050
:1000B0000604000000000000000000000000000036
:1000C0000000000000000000000000000000000030
:1000D00020041808000000000000000000000000DC
:1000E0000000000000000000000000000000000010
:1000F0000000000000000000000000000000000000
:10010000D8041808000000000000000000000000F3
:100110000204180804200000000000000000000095
:1001200000000000000000000000000000000000CF
:10013000600400000000000000000000000000005B
:1001400000000000000000000000000000000000AF
:10015000000000000000000000000000000000009F
:10016000000000000000000000000000000000008F
:10017000000000000000000000000000000000007F
:10018000000000000000000000000000000000006F
:10019000000000000000000000000000000000005F
:1001A000000000000000000000000000000000004F
:1001B000000000000000000000000000000000003F
:1001C000000100000010000001000000000000001D
:1001D000000001000000000000000000000000001E
:1001E000000000000000000000000000000000000F
:1001F00000000000000000000000000000000000FF
:10020000FFFFFFFFFFFFFFFFFFFFFFFFFFFFFFFFFE
:10021000FFFFFFFFFFFFFFFFFFFFFFFFFFFFFFFFEE
:10100000D10020432914006000000000000000000F
:10101000201000600010006000F404600000000078
:10102000000000600000050000000000FFFFFFFF5F
:10103000FFFFFFFFFFFFFFFFFFFFFFFFFFFFFFFFC0
:10104000FFFFFFFFFFFFFFFFFFFFFFFFFFFFFFFFB0
:10105000FFFFFFFFFFFFFFFFFFFFFFFFFFFFFFFFA0
:10106000FFFFFFFFFFFFFFFFFFFFFFFFFFFFFFFF90
:10140000884207D0904205D251F8043B40F8043B93
:101410008242F9D8704700BF884204D2002340F8C6
:10142000043B8142FBD87047664B4FF42A01664A61
:1014300066482DE9F0475A641864654A99639546F1
:10144000BFF34F8FBFF36F8F00F09AF9614B082005
:10145000614A6249C3F854016148FFF7D1FF614A0C
:1014600061496248FFF7CCFF61496248FFF7D4FF4A
:10147000614C62494FF470000023614A086044F8EF
:1014800023200133B02BFAD15E4B80215E4A03F852
:10149000011B9342FBD14F4D4FF080385B494FF019
:1014A000FF325B4B0026DFF8A4A1DFF8A4911C609B
:1014B000C5F80481C5F800A1C5F8F480C5F8F0901E
:1014C0000B68544F43F4E0230B60FB693D4923F064
:1014D0007F0343F04003FB617B6A23F07F0343F00B
:1014E00040037B628A66CA660A674A6700F04EF963
:1014F000494A4A4B6320A2630321E363484A494BAC
:10150000106000F160401E6042F8041C00F6A170FB
:101510004549464AC3F8082D0B68454A43F0807395
:101520000B601368434943F00103136003680B60C9
:1015300000F07CFBC5F804813F48C5F800A1C5F860
:10154000F480C5F8F09000F0EBFCF96E3B4A41F4F2
:1015500040513B4BF9661660C2F80861C2F8186149
:10156000C2F82861C2F838619A6BD20708D442F6F3
:101570001562344959651A659A6B42F001029A6303
:101580002F4A314C936843F00113936000F070F9D7
:1015900000F0CAF800F0B8FC00F07AFB00F0F2F8B6
:1015A0002368132BFCD900F001FC2368B3F5967F68
:1015B000FBD300F0E9F800F0ABFC00F09DFC30BF7D
:1015C000FDE700BF00C00A40FFFFABAA07002000F4
:1015D0000080032000800D40D037040024210060EB
:1015E00000000000C07A0020BA78046000000020EB
:1015F00020980020C07A00200078002088ED00E0CC
:10160000B94F000000E400E0A0E400E024ED00E0B9
:1016100008ED00E000C00F40613A0000653A0000AC
:1016200014E000E018E000E0FCED00E00000202005
:10163000001000E03C9700200046C3230040084013
:1016400000400D400000C056409700201B1018209D
:101650000C0D11132DE9F0412F4F00254269012493
:10166000B96B4FF0020E16684FF4303821F47C014C
:101670000369DFF8B0C041F48021B963316857686D
:10168000394331604FF00111244EC3F810E01D6161
:10169000C3F848C05C629E624FF66106C3F82C80B6
:1016A0009F6C1F651D6299651C61017E1C4B02EBDE
:1016B0000111097A03EB011189680E60017E02EBCA
:1016C00001110C7ACD6803EB041149680D60017EAD
:1016D00002EB01110C690CB149692160417E4FF6A2
:1016E000610402EB011191F8281003EB01118968E4
:1016F0000C60417E02EB011191F82840C96A03EBAE
:1017000004135B681960437E02EB0312136B0BB189
:10171000526B1A60BDE8F08100C00F40B80B0505A0
:10172000244000203B372819114B1249D86E0A4635
:1017300040F4403030B4D86640F23765D86EA0240B
:1017400040F44070D8664D648C64936C1B06FCD4E6
:10175000094B40F23760A0211A4658649964936C93
:1017600013F08003FBD1054A137030BC704700BFF3
:1017700000C00F4000400C4000800C4056970020F5
:10178000704700BF704700BF704700BFF0B5244AE4
:101790000020244B4FF0100C234C1126DFF8C8E03A
:1017A000122720600125C2F800C0C3F800E01660CF
:1017B000DFF8B8E01D4EC3F800E01D4917601E6059
:1017C00041F015011B4F1C4E17601E601B4F1C4E35
:1017D00017601E601B4F11601B4E1C491F60166076
:1017E0001B4F19601B4E1C4917601E601B4F116078
:1017F0001B4E1C491F60166019602560BFF34F8F98
:10180000BFF36F8FC3F8B001BFF34F8FBFF36F8F7C
:1018100052F8883C43F4403342F8883CF0BD00BFA6
:101820009CED00E0A0ED00E094ED00E00900100068
:10183000209800201300200021000207140000203F
:1018400025000813090000101600202027000B13A4
:101850001700004033001013180000602F000B0722
:10186000190000702F000B133F0000102500080323
:10187000F0B58D4B18228D4E01208D4948F20C7E1B
:101880008C4D4FF0FF378C4C83B0C3F85C12C3F81B
:1018900060520025C3F86412C3F868424FF4005444
:1018A000C3F86C628549C3F87062C3F87462C3F808
:1018B0007862834EDA661A675A679A67DA67C3F8FE
:1018C0008020C3F88420C3F8882040F20562C1F864
:1018D0002C03C1F83003C1F83403C1F83803C1F850
:1018E0003C03C1F850032946B36976481840764B4B
:1018F00003437648B361D6F8843043F00C03C6F84E
:1019000084300226036833430360036803EA0E0E43
:101910006F4B4EEA0303DFF8F0E103606D4B476065
:10192000DEF808703B406C4F43F000538360C3689F
:1019300023F07803C360036A1F40684B3B43664F44
:101940000362036A1F40654B3B43654F43628762F6
:10195000C762DEF8B830634F23F03F0343F0010362
:10196000C0F8B830DEF8BC30DFF884E123F03F0384
:1019700043F00103C0F8BC30056104660767C0F896
:10198000802044664767C0F884200468564B24F0E2
:101990000204564A0460C0F818E0C66143F8041B0C
:1019A0009342FBD1494B1A68194642F001021A6072
:1019B0000B68464A13F00103FAD14D4E022540F25E
:1019C000F56440F2664040F299414A4F966142F216
:1019D0000146D56140F23545C2F8004242F2012489
:1019E000C2F810020120C2F820121146C2F830726B
:1019F00007F15A47C2F8346207F51377C2F840522C
:101A00003D4E3E4DC2F85072C2F85462C2F8605268
:101A1000C2F86442C2F8A030C2F8A430C2F8B000E4
:101A20004B692A4ADD07FBD5012300244FF480309F
:101A300011465361C2F8A040C2F8A400C2F8B03009
:101A40004B69224ADC07FBD5012300244FF4003008
:101A500011465361C2F8A040C2F8A400C2F8B030E9
:101A60004B691A4AD807FBD50123002424481146A4
:101A70005361C2F8A040C2F8A400C2F8B0304B696C
:101A8000124ADB07FBD5D2F8003145F60D51212073
:101A90009BB250618B4239D01A4B00221A605A60B7
:101AA0009A60DA6003B0F0BD00801F40F970010059
:101AB000F9B00100F9100100F900010000841F4095
:101AC00000C00F40FFFCFF1F000300A000402A40A1
:101AD0001200FFFFFF37F70000FFF07C400000809E
:101AE000FF000F836300020000422A4000432A40A7
:101AF000F05AF05A9F041830063201263806180AA8
:101B000004000300C497002000802A4000244FF402
:101B1000802001231146C2F8A040C2F8A400C2F8F8
:101B2000B0304B693B4ADF07FBD501234FF400047B
:101B3000002011465361C2F8A040C2F8A400C2F8C8
:101B4000B0304B69334ADE07FBD501234FF4000464
:101B50004FF4803011465361C2F8A040C2F8A4008F
:101B6000C2F8B0304B692B4ADD07FBD501234FF497
:101B700000044FF4003011465361C2F8A040C2F88F
:101B8000A400C2F8B0304B69224ADC07FBD5012320
:101B90004FF40004204811465361C2F8A040C2F837
:101BA000A400C2F8B0304B691A4AD807FBD5D2F866
:101BB000003145F60D5121209BB250618B4210D06F
:101BC000164B08224FF400041A7015490020154ADC
:101BD00001230090521A1448224400F0A9F903B0DE
:101BE000F0BD4FF400044FF4802101231046C2F8E9
:101BF000A040C2F8A410C2F8B03043690549DB0721
:101C0000FBD50120054B10224FF0807448611A70FB
:101C1000DBE700BF00402A40040003005797002084
:101C20000000007000000070C4970020F0B4174A54
:101C300040274FF480314FF480564FF400554FF455
:101C4000404443F24200136913F0020F06D094613E
:101C500051619061136913F0020FF8D113F4005F22
:101C600001D15561EFE713F4805F01D15661EAE7D6
:101C7000002BE8DA13F4803F01D09161E3E75B06C3
:101C800001D45761DFE7F0BC704700BF00800D4012
:101C9000394A03203949F3EE095A13689FED386A2F
:101CA00023F00103DFED376AF0B413600024106104
:101CB000D1F8E030344FD8B2C3F30B211B0D334EB3
:101CC00007EE100A05EE101A07EE903A304BB8EE08
:101CD000C55A304DB8EEC77A3060F8EEE77A296021
:101CE0002D4937EE466A2D4E77EEC57A2C4877EEB1
:101CF000666A2C4D37EE657A26EE276AC7ED007AC4
:101D000066EEA76A176867EE277A83ED007AC6EE5B
:101D1000075A86EE876AC7EE876A35EE857AFCEE4B
:101D2000C77A36EE057A17EE903ABCEEC77A47EAE4
:101D3000035376EE857A136017EE103AD2F81071DD
:101D4000FCEEE77A01EA0341394317EE903AC2F814
:101D50001011C3F30B03D2F810110B43C2F810316A
:101D6000136843F0020313603470C0F840510E4B07
:101D70000122F0BC1A60704780810D4000441F4072
:101D80000000AA420000B442349700202C970020A3
:101D900030970020289700200000FF0F40E400E06B
:101DA00000780020B951000008E100E0304B40F617
:101DB000617270B5C3F8202140F2044500F0A0F82C
:101DC0002C492D48D1F880202C4C42F003022C4B9A
:101DD000C1F88020C0F86051226813401BB9D0F8C8
:101DE000A8319A071AD0244B4FF00041234A51637F
:101DF0001A46D3F8401141F00201C3F84011D2F85D
:101E000040319B07FBD44FF400301E491B4B4FF071
:101E10000042086019209A6300F086F81A4D0022EB
:101E2000164B4FF08041144C0A26996328461A60DD
:101E30001146C4F8A8614FF4207200F06DF84FF419
:101E4000810640F243114FF48000104B104A2E607F
:101E50002864C4F85851C4F84811C3F804220D4A44
:101E60004FF4003101231160C4F8403170BD00BF50
:101E700000800D4000C00F4000002E4000900D403B
:101E8000001C1E008CE200E0000000200078002012
:101E9000855300000CE100E008B50E4B1B6E9B075C
:101EA00000D4FBBE72B60C4B00200C4AC3F84001B4
:101EB00003F160430A49A3F55F2311649D46BFF314
:101EC0004F8F084A03F5E043074912681846196026
:101ED0009368984700441F4000002E4000C00A400D
:101EE000030020001C002000000012EBF8B500BF2A
:101EF000F8BC08BC9E4670475FF800F0D949000066
:101F00005FF800F0255B00005FF800F0F94C00007E
:101F10005FF800F0315103005FF800F04D5C030002
:101F20005FF800F0494500005FF800F00D48000040
:101F30005FF800F0796400004500000075030000C0
:101F4000B10A0000DD0C00004528000021F100006E
:101F5000CD730100CD8E01008DA30100C9190200CF
:041F60009D5A020084
:101F640080C00F40000000031900000010000000B2
:101F7400E8841F4001000000FF000000FF00000093
:101F84000000000000000000180000001000000025
:101F9400E4841F4001000000FF000000FF00000077
:101FA40000000000000000001F00000070C00F408F
:101FB400000C00001100000011000000E0841F402C
:101FC400020000002C00000012000000E0841F400A
:101FD400010000001000000011000000DC841F401C
:101FE400020000002D00000012000000DC841F40ED
:101FF400010000001E00000070C00F40C00000007F
:102004001200000013000000D0841F4001000000F3
:10201400FF000000FF0000000000000000000000BE
:102024001300000013000000CC841F4001000000D6
:10203400FF000000FF00000000000000000000009E
:102044001C0000000101000016035500530042006B
:102054002000530065007200690061006C000000FC
:1020640018035400650065006E0073007900640075
:10207400750069006E006F000403090409024B0037
:10208400020100C032080B00020202010009040030
:1020940000010202010005240010010524010101D0
:1020A400042402060524060001070582031000101B
:1020B40009040100020A00000007050302400000B1
:1020C400070584024000000009024B00020100C021
:1020D40032080B000202020100090400000102029E
:1020E4000100052400100105240101010424020655
:1020F40005240600010705820310000509040100F8
:10210400020A00000007050302000200070584021A
:10211400000200000A060002EF0201400100010073
:1021240000000000000000000000000000000000AB
:10213400000000000000000000000000000000009B
:1021440010B5054C237833B9044B13B10448AFF3ED
:1021540000800123237010BDF87E002000000000E1
:1021640024260400084B10B51BB108490848AFF3F6
:1021740000800848036803B910BD074B002BFBD04F
:10218400BDE81040184700BF00000000FC7E00209E
:1021940024260400C07A002000000000884235D0C4
:1021A400031D994232D02DE9F04781468A461846EC
:1021B400C8460746D9F8003057F8046B9E4216DB30
:1021C400D8F8003042469E421EDA3C4600E02A46D9
:1021D40044F8043D151F52F8043C9E42F7DB166098
:1021E400BA45384608F10408E3D1BDE8F087C9EBE5
:1021F4000002930805D0C2F104034946184435F09F
:1022040051FDC9F80060EBE70246E8E7704700BFFC
:10221400F8B50B1A432B21DD00F140040F460646A6
:102224002146FFF7BBFFA74217D021463C3608469C
:10223400324651F8045B56F8043B9D4212DA0846D4
:1022440000E0224640F8043D141F52F8043C9D422D
:10225400F7DB8F421560EAD1F8BDF8BDBDE8F84060
:10226400FFF79CBF02468F421560E0D1F4E700BF40
:10227400D0B5044682B00020002604F12C010027CA
:1022840002460D4BA06284F82C0061620146009066
:1022940004F12400C4E90467C4E9026717F050FBA1
:1022A400282004F0CDFC2060282004F0C9FC206222
:1022B400204602B0D0BD00BFA445002010B5044C98
:1022C400204603F0EBFF204604F00EF810BD00BFDB
:1022D4008C6B00202DE9F041B2F1010854BFC446D3
:1022E40094464FEA6C0C614548DA8E460EF10104BF
:1022F4006FF04046650050F8347000EBC4042E447F
:1023040050F82660B74204DA013D00EB850450F82A
:102314002570654540F82E70AE46E7DBD60705D438
:10232400023A48BF4246B5EB620F1BD08D4216DD20
:102334006A1E48BF2A46521050F82260B3420EDD8E
:10234400914240F8256000EB8204154607DA561ED8
:1023540048BF1646721050F82260B342F0DC236086
:10236400BDE8F08101356FF040426D002A44013D23
:1023740050F82220226000EB8504D7E7D50700EB54
:102384008104ECD40D46CBE70B1A432B40F3818038
:102394008C462DE9F043064683B09146002A50D07E
:1023A40000F1040800F10807DB10706809F1FF3937
:1023B4005CF8041C56F8232090422FDA8A4231DB61
:1023C400884238DA326831604CF8042C96E803000D
:1023D4004446BE466346884225460EDC8242A3F14B
:1023E400040303DD53F8042D8242FBDCA34208D925
:1023F4002260196053F8042C306804345EF8041B1E
:10240400E9E761464A462046FFF7BEFFA31B432B7C
:102414003CDDB9F1000F15D0A446C5E788420ADBBC
:102424008A42CFDB3168326046F823105CF8042C12
:1024340096E80300CCE7316886E803005CF8042CD6
:10244400C6E70D469C10A71E7F1006EB870800E028
:10245400013F4FF0000058F80439224639468DF800
:1024640000003046FFF736FF002FF1D155F8043D48
:102474004FF0000732680021AC1B30462A60A210DE
:102484008DF80070FFF726FF072CEFDC03B0BDE8E2
:10249400F083704710B5054C204606F0EBFA204651
:1024A400034A0449BDE8104006F0BEB83C9600203B
:1024B400206B0020716900002DE9F043044683B0CD
:1024C4002D4803F07FFB00284CDD002604F12C0985
:1024D4001BE0636AD4F828804B4508F1010714BF58
:1024E400E26A0F22974209D900230122414604F1EE
:1024F400240000921A4617F0DDF8636A03F80850C6
:102504000022636AA762DA5501361B4803F05AFBBE
:10251400864227DA184803F069FBC5B2612D84F8B6
:102524003C5010D07C2DD4D1606A002138F0CCFA14
:102534000021A26A04F124000091104B84ED040BE5
:1025440017F0FEF9E0E7606A002138F0BDFA0021D7
:10255400A26A04F124000091084B84ED020B17F0E9
:10256400EFF9D1E79FED020B03B0BDE8F08300BFA4
:1025740000000000000000008C6B0020A445002037
:1025840070B5044600252DED028B2046FFF794FF1D
:102594002668236A94ED046B94ED027BBDEEC66B52
:1025A400BDEEC77B16EE102A725117EE102A5A514F
:1025B4000435282DE9D106F1280506223046B6EE69
:1025C400008A2946FFF7E0FE29463046FFF720FE41
:1025D40022680C21214815695369EB1807EE103A5B
:1025E400B8EEC77A27EE087AB7EEC77A84ED047B93
:1025F40005F092FE02211A4894ED040B03F0D8FE74
:10260400174803F071FE256A062205F128062846BC
:102614003146FFF7B9FE28463146FFF7F9FD226A35
:102624000721104815695369EB1807EE103AB8EE04
:10263400C77A27EE087AB7EEC77A84ED027B05F0F5
:102644006BFE0221064894ED020B03F0B1FE044830
:1026540003F04AFEBDEC028B70BD00BF6045002054
:102664007C6B00207045002030B40024034DB4225C
:10267400C0E90245426530BC704700BF0080664037
:10268400FDEEC07B70B517EE905A0E465A310446E3
:10269400B32D07EE901AD8BF05F5B475B8EEE76B05
:1026A4002DED028B8563A6F15A0506F1B400B0EE58
:1026B400408B07EE905AB8EEE75B07EE900A9FED69
:1026C400C84BB8EEE77B84ED046BB4EEC47B84EDB9
:1026D400065BF1EE10FAC8BF37EE447B9FEDC04BAA
:1026E40084ED087B84ED0A7BB4EEC46B84ED0C7B33
:1026F400F1EE10FA03DD36EE446B84ED046BB5EEB7
:10270400C05BF1EE10FA00F102829FEDB76BB4EEFC
:10271400C67BF1EE10FA05DD9FEDB16B37EE466B2B
:1027240084ED0A6B9FEDB06BB4EEC67BF1EE10FA4C
:1027340005D59FEDAB6B37EE066B84ED0C6BB4EEF9
:10274400C58BF1EE10FA40F1B18094ED0A6BB4EE52
:10275400C68BF1EE10FA40F3A98037EE488B9FED5B
:10276400A27BB5EEC08BF1EE10FAD8BFB1EE488B68
:10277400B4EEC78BF1EE10FA03DD9FED997B37EED3
:10278400488B9FED9B7BB4EEC78BF1EE10FA00F102
:10279400E1819FED997BB4EE478BF1EE10FAC8BF4F
:1027A400B0EE478B07EE906AB8EEE77B37EE487BD6
:1027B4001BB19FED936B37EE467BB5EEC07B84ED8A
:1027C400007BF1EE10FA05D59FED856B37EE067BA5
:1027D40084ED007B002A00F0BA8007EE906A84F84A
:1027E4004C30B8EEE77BD4E90C2384ED027BC4E9DA
:1027F40010230E21844805F08FFD0221834894EDB7
:10280400000B03F0D5FD814803F06EFD0C218048D8
:1028140005F082FDB0EE480B02217C4803F0C8FDB0
:102824007A4803F061FD0C217A4805F075FD3146C4
:10283400764803F0B1FD754803F056FD092176484A
:1028440005F06AFD0221714894ED040B03F0B0FD1C
:102854006E4803F049FD0B21704805F05DFD02212F
:102864006A4894ED060B03F0A3FD684803F03CFDB1
:102874000E216B4805F050FD0221644894ED0C0BC9
:1028840003F096FD614803F02FFD1021654805F023
:1028940043FD02215D4894ED0A0B03F089FD5B487A
:1028A400BDEC028BBDE8704003F01EBD94ED046BDB
:1028B400B4EEC68BF1EE10FA40F3B68094ED0C4BF7
:1028C400B4EEC48BF1EE10FA40F1AE8037EE488BD3
:1028D4009FED457BB5EEC08BF1EE10FAD8BFB1EE9B
:1028E400488BB4EEC78BF1EE10FA03DD9FED3C7B11
:1028F40037EE488B9FED3E7BB4EEC78BF1EE10FABA
:1029040000F12B819FED3C7BB4EE478BF1EE10FA86
:10291400C8BFB0EE478B07EE906AB8EEE77B37EEA0
:10292400087B1BB19FED366B37EE067B9FED2C6B5E
:1029340084ED007BB4EEC67BF1EE10FA7FF74AAF6C
:1029440037EE467B84ED007B002A7FF446AFD4ED5E
:102954000E6A94ED025B9FED244BB8EEE66B34EE09
:10296400457BFDEEC77B17EE903A94ED107B03F1A7
:102974002D02A364B4EEC76B22EAE2722265F1EE83
:1029840010FA40F1CB8094F84C309BB135EE045BE7
:102994009FED137B84ED025B37EE457BFDEEC77B39
:1029A40017EE903AC4ED127AA3F12D022D2AA8BF96
:1029B4002D22226507EE902AB8EEE76B9FED084BB7
:1029C40036EE057BB4EEC47BF1EE10FA40F3BF8023
:1029D40037EE447B84ED007B0BE700BFAFF3008050
:1029E4000000000000807640000000000080664087
:1029F4000000000000004E40000000000040554070
:102A04000000000000805640784500207C6B0020C8
:102A14008845002098450020A8450020B4450020A2
:102A2400C0450020D0450020B4EEC68BF1EE10FA6C
:102A34003AD4B4EEC58BF1EE10FA7FF7CBAE07EEC5
:102A4400906AB8EEE77BB4EEC78BF1EE10FA7FF52F
:102A5400C1AE37EE488B9FED546BB5EEC08BF1EEF3
:102A640010FAD8BFB1EE488BB4EEC68BF1EE10FA73
:102A740003DD9FED4F6B36EE488B9FED4F6BB4EE4D
:102A8400C68BF1EE10FA00F187809FED4D6BB4EE2A
:102A9400468BF1EE10FAC8BFB0EE468B37EE487B9A
:102AA400002B3FF48AAE84E607EE906AB8EEE77B2B
:102AB400B4EEC78BF1EE10FABBDD37EE488B9FED19
:102AC4003A6BB5EEC08BF1EE10FAD8BFB1EE488B7D
:102AD400B4EEC68BF1EE10FA03DD9FED356B36EEE6
:102AE400488B9FED356BB4EEC68BF1EE10FA50D4E3
:102AF4009FED336BB4EE468BF1EE10FAC8BFB0EE27
:102B0400468B38EE077B002B3FF410AF0AE79FEDAE
:102B1400286B35EE065B84ED065BF6E52D3B6FF026
:102B24002C0294F84C109342B8BF13462365B9B9EC
:102B340007EE903AB8EEE77B35EE077B9FED1C5B22
:102B4400B4EEC57BF1EE10FAC8BF37EE457B84EDD9
:102B5400007B4EE6B0EE478B24E6B0EE478BDAE618
:102B640035EE045B9FED127B84ED025B37EE457B13
:102B7400FDEEC77B17EE903AC4ED127A03F12D01F6
:102B840011F12C0F0BDB07EE901AB8EEE77B2165F1
:102B9400D2E7B0EE468BB4E7B0EE468B7EE79FED0E
:102BA4000A7B1146F3E700BF000000000080664086
:102BB40000000000008076400000000000004E404D
:102BC400000000000040554000000000008046C0A6
:102BD40010B5054C204605F04DFF2046034A044934
:102BE400BDE8104005F020BD40960020206B002079
:102BF40071690000F0B400220026074F002400256C
:102C040001218260C16002614261C0E90667C0E9D6
:102C14000845F0BC704700BF0000F0BF0000000092
:102C24009FED2B6B07EE101AB4EEC60BF1EE10FA03
:102C340003DD9FED296B30EE460BB8EEC77B9FEDAD
:102C4400266B37EE000BB4EEC60BF1EE10FA2FDD57
:102C540030EE460B80ED000B436913B390ED066B29
:102C640030EE467B9FED1A5BB5EEC07BF1EE10FAB9
:102C7400D8BFB1EE477BB4EEC57BF1EE10FA03DDAD
:102C84009FED155B35EE477BB2EE045B80ED087B70
:102C9400B4EEC57BF1EE10FA14D901DD80ED060B1C
:102CA40070470123B0EE406B80ED060B4361D7E71C
:102CB400B5EEC00BF1EE10FA48BF30EE060B80ED16
:102CC400000BC9E780ED006B704700BFAFF30080D5
:102CD4000000000000806640000000000080764094
:102CE40010B583680446E9B1C82B1BD89FED2C7B33
:102CF400B4EEC70BF1EE10FA28D50269962A49D032
:102D0400952A44D9962A01DD002303610621264829
:102D140005F002FB2169254803F03EFB234803F03C
:102D2400E3FA0AE0A3F1C902B2F5FA6F13D340F64D
:102D34009802934227DD0023A360E36893B901213D
:102D44000A2003F08DFE0123E3600FE0A3F1C90222
:102D5400B2F5FA6F17D22269012101330A44E16006
:102D6400A360226100210A2003F07AFE0C2110489E
:102D740005F0D2FAA1680D4803F00EFB0B48BDE83C
:102D8400104003F0B1BA00232361A360D5E70132F8
:102D94000261BBE7013300228360C260B6E700BF73
:102DA4000000000000C06240E44500207C6B00206D
:102DB400EC45002000000000F0B500F11C010025E6
:102DC400044683B085612A4605771430016029469C
:102DD4000095094B06A7D7E90067C4E9006716F018
:102DE400AFFD2046257203B0F0BD00BFAFF30080F5
:102DF4000000000000049040A445002010B5054CDC
:102E0400204605F037FE2046034A0449BDE8104039
:102E140005F00ABC44960020206B00207169000074
:102E24002DE9F041044682B02C4802F0CBFE002884
:102E340051DD00261DE004F11C036269D4F81880FA
:102E44009A4208F1010714BFE3690F239F4209D98D
:102E540001220023414604F1140000921A4616F0A0
:102E640029FC626902F8085000226369A761DA55F7
:102E740001361A4802F0A6FE86422CDA174802F000
:102E8400B5FEC5B27C2D25741AD0612DD3D1002195
:102E9400606937F019FEFDEEC07B114817EE901AF9
:102EA400C4ED037A03F078FA0D4803F01DFA00210B
:102EB400A26904F114000B4B009116F041FDD7E711
:102EC4006069002137F000FE0221054884ED000B03
:102ED40003F06EFAE8E702B0BDE8F081EC6B002085
:102EE4007C6B0020A445002038B50C4C0D46022113
:102EF400204603F05DFA01222046094903F0B8F99F
:102F04002946204603F048FA20460122054903F0E9
:102F1400AFF92046BDE8384003F0E6B9EC6B002079
:102F2400FC450020E84C002007EE901A017A10B509
:102F34002DED028BB8EEE78B0446B0EE480BFFF79D
:102F4400D3FF2046FFF76CFF012394ED007B23722F
:102F5400B4EEC78BF1EE10FA02DC01D50023237224
:102F6400BDEC028B10BD00BF38B50446002501231B
:102F74002C3040F8103C257684F8205000F068F995
:102F84000022054B29460E20C4E90023C4E904238A
:102F940003F072FD204638BD0000F0BF00000000C1
:102FA400B1EE067B90ED020B10B52DED028B9FED7B
:102FB400268B20EE070B044630F006FE20EE088B2D
:102FC400B7EE006B94ED007BB4EE468B9FED205B77
:102FD400F1EE10FAB4EEC57BC8BFB0EE468BF1EE4D
:102FE40010FA03DD9FED1C6B36EE477B9FED1C0B47
:102FF40027EE000B30F0E8FDBFEE005BB7EE003BC0
:103004009FED197B9FED1A4B94ED006B20EE070B9F
:103014009FED0F7BB4EE440BF1EE10FAB4EEC76BE8
:10302400C8BFB0EE440BF1EE10FA28EE008BD8BF07
:10303400B0EE435BA5EE086BBDEC028B84ED046B34
:1030440010BD00BFAFF3008000000040E17A943F60
:103054000000000000806640000000000080764010
:10306400000000A09999C93F00000040E17AB43FF4
:103074000000000000805640F8B5002300F12C0544
:1030840004462DED048B80F82030284600F0A2F988
:10309400021F00F15C01C4F8A8009FED517BB0EE63
:1030A400476B84ED027B52F8043FC3F5806307EE5F
:1030B400903A1360B8EEE77BB4EEC67BF1EE10FAFB
:1030C40003DDB0EE476B84ED027B8A42EBD19FEDCA
:1030D400467BFDEEC65B26EE076B15EE903AC4ED1B
:1030E400095A7C2B84ED026B02DD012384F8203025
:1030F400284640F2262700F069F90646284600F0E3
:1031040067F9656A00233246963DD4F8A8101E4636
:1031140002F1C00EBD42A1F10401A3629C46A8BF06
:103124003D469FED2F8BB0EE489B0DE09FED2C7B31
:10313400C1F800C0B2EC025BB0EC026B9645A5EEA0
:10314400079BA6EE078B0CD051F8043FAB42EDDB96
:10315400A76A01363B44A362D1ED007AB8EEE77B5F
:10316400E8E7A36A0A21284893FBF6F6A66205F06D
:10317400D3F8A16A254803F00FF9244803F0B4F802
:10318400B0EE481BB0EE490B30F01AFD9FED187BF2
:103194009FED196B20EE070B80EE067BB5EEC07B2E
:1031A400F1EE10FA03D59FED166B37EE067B0C217A
:1031B400174884ED007B05F0AFF80221134894ED25
:1031C400000B03F0F5F8114803F08EF82046BDEC2F
:1031D400048BBDE8F840FFF7E3BE00BFAFF3008007
:1031E4000000000000000000000000000000503F4C
:1031F400000000000080664000000060FB210940E0
:103204000000000000807640004600207C6B002017
:103214000C46002010B5092104460B4805F07CF843
:103224000E2003F0EDF90146084803F0B5F807480D
:1032340003F05AF80E2003F0E3F98B28D4BF0123DE
:103244000023237610BD00BF1C4600207C6B0020A9
:103254002DE9F0470A23074601254FF00B0A4FF0EA
:103264000C094FF00D0800266022574910300F2436
:103274002DED088B00F80EACB7EE00BB00F809ACDE
:10328400BB71FB727D71BD7287F80CA087F8039047
:1032940087F8089087F80D9087F8048087F80980EC
:1032A40087F80E8003F030FC294630463E707E706D
:1032B40003F0E2FB2946B87803F0DEFB3146F878E8
:1032C40003F0DAFB2946387903F0D6FB29467878EF
:1032D40003F0C6FB294628467E71BD7187F807A016
:1032E40087F8089087F8098003F0C6FB2946F87927
:1032F40003F0C2FB3146387A03F0BEFB2946787AE4
:1033040003F0BAFB2946B87903F0AAFB0223294645
:10331400BE721846FB7287F80CA087F80D9087F8E8
:103324000E8003F0A9FB2946387B03F0A5FB314648
:10333400787B03F0A1FB2946B87B03F09DFB29466B
:10334400F87A03F08DFB602003F07AFCB867C020A4
:1033540003F076FC3867C02003F072FC3E6F05462C
:1033640078679FED130B9FED14AB9FED159B12E057
:1033740007EE904A0F34B8EEE77B27EE0A7B87EE20
:10338400098BB0EE480B30F07BFBB0EE40BBB0EEE7
:10339400480B30F0C5FBB4F5B47FA6EC02BBA5EC3A
:1033A400020BE5D1BDEC088B3846BDE8F08700BFC1
:1033B400000000000000000000000060FB21094044
:1033C400000000000080664048040020006F704741
:1033D400406F70472DE9F04F00F16C0385B06FF03A
:1033E4000F0804466D4F00F10C050193C0EB08086B
:1033F40014E0032B00F0F280012B25D00023A06FF2
:10340400421942F80830036C826C9B1848BF0133A0
:103414005B104364019B9D4200F0F38155F8043F27
:103424005F4A013B1A40002AC0F26181002BB8BFF9
:103434000733DB100133022BDBD1D3B2072B40F26D
:103444005B814FF0FF33DAE7D1B20729F9D81201D3
:1034540021788DF80C3002F47F6262F07F028DF8DF
:103464000D20002900F05182FB7C002B31D072B674
:103474004A4BDA7CD607134607D54A4847490668BB
:1034840049693140454EB1620160900706D546490D
:10349400BA690868FB7C0240FA620A60590706D5DB
:1034A4004249FA690868FB7C02403A630A601A07D9
:1034B40006D53F493A6A0868FB7C02407A630A6091
:1034C400DB0605D53B4A7B6A11680B40BB6313607E
:1034D40062B6BB68384A934200F07F82374B364964
:1034E4009B69374AB960C3F30111C3F3826352F88D
:1034F40021200133B2FBF3F2324BA3FB02139B0CEA
:1035040040F05382FB603A6800214FF0030E012023
:1035140007261161C2F824E013641666106160780E
:1035240003F09EFA3A6803A90DF10F000B78536675
:10353400D36D13F4F81FFBD0536F01F8013B88429D
:10354400F4D10121607803F08BFAFB7C1A46DBB1DD
:10355400D90702D5B86A1C4908609E0703D5F96AE1
:103564001A4BFA7C1960500703D5396B184BFA7C57
:103574001960110703D57B6B1649FA7C0B60D306DF
:1035840002D5BB6B144A13609DF80D209DF80E30D4
:1035940043EA0223C3F3090331E700BF2C6B002085
:1035A4000700008080E100E084E100E088E100E0C1
:1035B4008CE100E090E100E07099140000C00F403D
:1035C400043D00203BD4B53100E100E004E100E01B
:1035D40008E100E00CE100E010E100E0D3B2072BC9
:1035E4003FF62FAF1301A17A012203F47F638DF814
:1035F4000C2063F07F038DF80D30002900F0048166
:10360400FB7C002B31D072B69F4BDA7CD00713467B
:1036140007D59E489C490668496931409A4EB16273
:103624000160910706D59A49BA690868FB7C024093
:10363400FA620A605A0706D59649FA690868FB7C5B
:1036440002403A630A601E0706D593493A6A08683D
:10365400FB7C02407A630A60D80605D58F4A7B6AF0
:1036640011680B40BB63136062B6BB688C4A93421B
:1036740000F0B5818B4B8A499B698B4AB960C3F3CF
:103684000111C3F3826352F821200133B2FBF3F238
:10369400864BA3FB02139B0C40F07C81FB603A68D1
:1036A40000214FF0030E012007261161C2F824E027
:1036B400136416661061E07A03F0D2F93A6803A93C
:1036C4000DF10F000B785366D36D13F4F81FFBD084
:1036D400536F01F8013B8842F4D10121E07A03F0F1
:1036E400BFF9FB7C1A46002B7FF432AF4CE7013A5A
:1036F40062F00702013299E613016179012203F4B1
:103704007F638DF80C2063F07F038DF80D30002962
:1037140000F0B180FB7C002B31D072B65A4BDA7CBE
:10372400D607134607D559485749066849693140B1
:10373400554EB1620160900706D55549BA690868CB
:10374400FB7C0240FA620A60590706D55149FA69BE
:103754000868FB7C02403A630A601A0706D54E49A2
:103764003A6A0868FB7C02407A630A60DE0605D583
:103774004A4A7B6A11680B40BB63136062B6BB683C
:10378400474A934200F02781464B45499B69464A84
:10379400B960C3F30111C3F3826352F821200133EA
:1037A400B2FBF3F2414BA3FB02139B0C40F00881E4
:1037B400FB603A6800214FF0030E012007261161D7
:1037C400C2F824E0136416661061A07903F048F986
:1037D4003A6803A90DF10F000B785366D36D13F407
:1037E400F81FFBD0536F01F8013B8842F4D101214B
:1037F400A07903F035F9FB7C1A46002B7FF4A8AEC0
:10380400C2E605B0BDE8F08FE07A934603AE924677
:1038140003F026F94FF007090EE04BEA030B86F894
:1038240000B009F1FF390021A07B03F019F9B9F1C7
:10383400FF3F18D096F800B04BFA09F1207B01F055
:10384400010103F00DF90121A07B03F009F9607B6C
:1038540003F00CF90AFA09F30028DED12BEA030B72
:1038640086F800B0DDE70DF10E03B34200F083806B
:1038740016F801BFCEE7A079934603AE924603F053
:10388400EFF84FF0070922E02C6B002080E100E004
:1038940084E100E088E100E08CE100E090E100E0F8
:1038A4007099140000C00F40043D00203BD4B53192
:1038B4004BEA030B86F800B009F1FF390021607A66
:1038C40003F0CEF8B9F1FF3F18D096F800B04BFAE8
:1038D40009F1E07901F0010103F0C2F80121607AF5
:1038E40003F0BEF8207A03F0C1F80AFA09F30028BD
:1038F400DED12BEA030B86F800B0DDE70DF10E03F1
:10390400B3423DD016F801BFBBE760789B4603AED7
:103914009A4603F0A5F84FF007090EE04BEA030BB3
:1039240086F800B009F1FF390021207903F098F8F6
:10393400B9F1FF3F18D096F800B04BFA09F1A0781E
:1039440001F0010103F08CF80121207903F088F8DB
:10395400E07803F08BF80AFA09F30028DED12BEAA9
:10396400030B86F800B0DDE70DF10E03B3420CD073
:1039740016F801BFCFE70121E07A03F071F803E6FE
:103984000121A07903F06CF8FEE50121607803F0D1
:1039940067F8F9E5B2FBF3F225498A4288BF01339F
:1039A400B3F5817F21D3234B78E6B2FBF3F22049B0
:1039B4008A4288BF0133B3F5817F1AD31D4BA1E539
:1039C400B2FBF3F21A498A4288BF0133B3F5817F0F
:1039D40007D3184BECE6FB68EBE6FB6893E5FB6862
:1039E4005DE6022B09D80023E2E6022B0ED8002361
:1039F40054E6022B13D8002384E5023B59080A0439
:103A040043EA012302F47F021343D1E6023B59083F
:103A14000A0443EA012302F47F0213433EE6023B15
:103A240059080A0443EA012302F47F02134369E5B7
:103A340070991400FF7F7F00704700BF70B586B097
:103A4400114B28224FF0FF31044601F065FE0E4B66
:103A54002822372101A801F05FFE9DF80860039D2C
:103A64002046049A0C219DF814302671A560E2606A
:103A7400237401F07FFE00B9FEE72046012101F026
:103A84001FFF204606B070BD4C6C002010B50446E4
:103A940000F1140101F0E4FFD4ED0A7AFDEEE77AB7
:103AA40017EE900A10BD00BFF8B504460025643037
:103AB400002684F8585000F0FFF9074F4FF0FF3309
:103AC4004FF48062C4F8DC5020466260A360236136
:103AD400A364C4E90667F8BD0000F0BF70B500F147
:103AE400640504464FF0FF36284600F077FAE06597
:103AF400284600F069FAE16D02462066043900F1B7
:103B0400600507E01660A06804329842B8BFA3605D
:103B1400AA420ED051F8040F4FF0FF332D28F1DDE7
:103B2400136860689842EEDD581CECD0636013683B
:103B3400E9E70921184804F0EFFB6168174802F02F
:103B44002BFC164802F0D0FB0A21154804F0E4FBD4
:103B5400A168124802F020FC104802F0C5FBA268DC
:103B64006168531AB42BE3600EDDC3F5B473E360EC
:103B7400002BB8BF013302EB6303B3F5B47F08DB5A
:103B8400A3F5B473236170BD002BB8BF013301EBFF
:103B94006303236170BD00BF284600207C6B0020B6
:103BA4003446002000000000C368002BB8BF013376
:103BB4005B1007EE103A9FED0C6BB8EEC77B9FEDE0
:103BC4000C0B27EE067B10B587EE000B04462FF096
:103BD400A7FFB7EE047B20EE070B30EE000B84ED5D
:103BE400060B10BDAFF3008000000060FB2109400C
:103BF400000000000080664090F8583053B900225D
:103C04000023C0E90A23C0E90E23C0E91023C0E958
:103C14000C23704730B504460C215F482DED0A8B08
:103C240085B004F079FB616D5C4802F0B5FB5B483C
:103C340002F05AFB0E215A4804F06EFB0221574849
:103C440094ED080B02F0B4FB544802F04DFB656D93
:103C5400A5F1280300EE103A9FED4BBBB8EEC00B64
:103C64009FED4B9B20EE0B0B80EE090B2FF058FFC2
:103C7400A5F18C03B0EE40CB00EE103AB8EEC00BC9
:103C840020EE0B0B80EE090B2FF04AFFA5F1DC03AD
:103C9400B0EE408B00EE103AB8EEC00B20EE0B0BEA
:103CA40080EE090B2FF03CFFA5F5A073B0EE40ABFE
:103CB40000EE103AB8EEC00B20EE0B0B80EE090BB1
:103CC4002FF02EFFB5EEC0CBF1EE10FA59DDB0EEB9
:103CD4004C6BB5EEC00BF1EE10FA4FDDB0EE407B4D
:103CE400B4EE476BF1EE10FAB5EEC08BA8BFB0EEA0
:103CF400467BF1EE10FA3EDDB0EE486BB5EEC00B3C
:103D04008DED006BF1EE10FA32DDB0EE405BB4EEF7
:103D1400C56B8DED025BF1EE10FA27DAB0EE456B60
:103D240002ABB4EEC76BF1EE10FA01D993ED007B50
:103D340094ED086B2CEE06CB28EE068B2AEE06AB30
:103D440020EE060B8CEE073B88EE074B8AEE075BF2
:103D540080EE076B84ED0A3B84ED0E4B84ED105B23
:103D640084ED0C6B05B0BDEC0A8B30BD6B46D8E717
:103D7400B1EE405BCBE7B1EE486BBFE7B1EE407B01
:103D8400AEE7B1EE4C6BA4E700000060FB210940F4
:103D94000000000000806640984500207C6B0020F5
:103DA4004046002038B504460D46FFF797FE636889
:103DB400B3F5806F4ADAA36C0122581C84F85820AA
:103DC400226968D0D31AE264002BB8BF5B42B42BDB
:103DD40001DDC3F5B473A3F16F012365452948D808
:103DE40002F1B40301216265B3F5B47F217056DC9E
:103DF40023612046FFF7D8FEB1EE047B94ED066BF9
:103E040037EE467B84ED087B0721284804F084FACA
:103E1400216D274802F0C0FA254802F065FA0A210C
:103E2400244804F079FAA16C214802F0B5FA20483C
:103E340002F05AFA4FF480624FF0FF336260A360DD
:103E440029462046BDE83840FFF7D6BEA268511C7B
:103E5400F6D1B3F5806FF3D100234FF48061A264EF
:103E6400002284F85830636500236160C4E90823A4
:103E7400E6E76E2BC8D002F1B4030021B3F5B47F9A
:103E840021700FDA63652046FFF78EFED4E906231E
:103E9400C4E90823B8E70023A264E2649BE7B43AC8
:103EA4002261A6E7B43A6265EDE700BF5046002000
:103EB4007C6B0020584600202DE9F0470A23044675
:103EC40001254FF00B094FF00C080D274FF0600A45
:103ED40005724573183052466372A3730026E37467
:103EE4003849A57484F80A9084F80F9084F81490E3
:103EF40084F80B8084F8108084F815802773677425
:103F0400A77502F001FE504602F09AFE17232060C6
:103F140029461846637284F80A9084F80B80277344
:103F2400267202F0A9FD2946A07A02F0A5FD3146C9
:103F3400E07A02F0A1FD2946207B02F09DFD29468E
:103F4400607A02F08DFD1623294666731846A37322
:103F540084F80F9084F81080677402F08DFD294670
:103F6400E07B02F089FD3146207C02F085FD294684
:103F7400607C02F081FD2946A07B02F071FD1523CF
:103F8400294684F814901846E374A67484F81580BE
:103F9400A77502F071FD2946207D02F06DFD3146C2
:103FA400607D02F069FD2946A07D02F065FD294689
:103FB400E07C02F055FD504602F042FE606020466F
:103FC400BDE8F087A804002040680023021F42F8DF
:103FD400043F0F33B3F5B47FF9D170472DE9F04FA7
:103FE40000F1740385B06FF017080446694F00F1BF
:103FF40014050193C0EB08080DE0032B00F0EA80E0
:10400400012B1ED000232068421942F80830019B7E
:104014009D4200F0F28155F8043F5F4A013B1A408B
:10402400002AC0F26081002BB8BF0733DB100133D4
:10403400022BE2D1D3B2072B40F25A814FF0FF3367
:10404400E1E7D1B20729F9D81201217A8DF80C30B1
:1040540002F47F6262F07F028DF80D20002900F0E7
:104064005082FB7C002B31D072B64A4BDA7CD607E7
:10407400134607D549484749066849693140454EC2
:10408400B1620160900706D54549BA690868FB7CAE
:104094000240FA620A60590706D54249FA6908687B
:1040A400FB7C02403A630A601A0706D53E493A6A25
:1040B4000868FB7C02407A630A60DB0605D53B4A4C
:1040C4007B6A11680B40BB63136062B6BB68384AF5
:1040D400934200F07E82374B35499B69364AB9607A
:1040E400C3F30111C3F3826352F821200133B2FBFD
:1040F400F3F2324BA3FB02139B0C40F05282FB60A1
:104104003A6800214FF0030E012007261161C2F81E
:1041140024E0136416661061607A02F0A1FC3A6828
:1041240003A90DF10F000B785366D36D13F4F81F38
:10413400FBD0536F01F8013B8842F4D10121607A2E
:1041440002F08EFCFB7C1A46DBB1D90702D5B86AB3
:104154001B4908609E0703D5F96A1A4BFA7C19605B
:10416400500703D5396B184BFA7C1960110703D536
:104174007B6B1649FA7C0B60D30602D5BB6B144AE1
:1041840013609DF80D209DF80E3043EA0223C3F31B
:10419400090338E72C6B00200700008080E100E071
:1041A40084E100E088E100E08CE100E090E100E0DF
:1041B4007099140000C00F40043D00203BD4B53179
:1041C40000E100E004E100E008E100E00CE100E0CF
:1041D40010E100E0D3B2072B3FF630AF1301A17C0E
:1041E400012203F47F638DF80C2063F07F038DF8C4
:1041F4000D30002900F00481FB7C002B31D072B615
:104204009F4BDA7CD007134607D59E489C49066825
:10421400496931409A4EB1620160910706D59A49C5
:10422400BA690868FB7C0240FA620A605A0706D53C
:104234009649FA690868FB7C02403A630A601E07E3
:1042440006D593493A6A0868FB7C02407A630A609F
:10425400D80605D58F4A7B6A11680B40BB6313608F
:1042640062B6BB688C4A934200F0B5818B4B8A4995
:104274009B698B4AB960C3F30111C3F3826352F89B
:1042840021200133B2FBF3F2864BA3FB02139B0CF8
:1042940040F07C81FB603A6800214FF0030E01205E
:1042A40007261161C2F824E0136416661061E07CED
:1042B40002F0D6FB3A6803A90DF10F000B785366A0
:1042C400D36D13F4F81FFBD0536F01F8013B884200
:1042D400F4D10121E07C02F0C3FBFB7C1A46002BE5
:1042E4007FF433AF4DE7013A62F0070201329AE6F8
:1042F4001301617B012203F47F638DF80C2063F0CA
:104304007F038DF80D30002900F0B180FB7C002B79
:1043140031D072B65A4BDA7CD607134607D55948C2
:104324005749066849693140554EB16201609007AA
:1043340006D55549BA690868FB7C0240FA620A60EE
:10434400590706D55149FA690868FB7C02403A636B
:104354000A601A0706D54E493A6A0868FB7C02408F
:104364007A630A60DE0605D54A4A7B6A11680B4007
:10437400BB63136062B6BB68474A934200F027816F
:10438400464B45499B69464AB960C3F30111C3F3DF
:10439400826352F821200133B2FBF3F2414BA3FBB9
:1043A40002139B0C40F00881FB603A6800214FF037
:1043B400030E012007261161C2F824E01364166677
:1043C4001061A07B02F04CFB3A6803A90DF10F00C9
:1043D4000B785366D36D13F4F81FFBD0536F01F8B9
:1043E400013B8842F4D10121A07B02F039FBFB7C24
:1043F4001A46002B7FF4A9AEC3E605B0BDE8F08FE2
:10440400E07C934603AE924602F02AFB4FF0070984
:104414000EE04BEA030B86F800B009F1FF390021E6
:10442400A07D02F01DFBB9F1FF3F18D096F800B053
:104434004BFA09F1207D01F0010102F011FB012189
:10444400A07D02F00DFB607D02F010FB0AFA09F377
:104454000028DED12BEA030B86F800B0DDE70DF16E
:104464000E03B34200F0838016F801BFCEE7A07BB1
:10447400934603AE924602F0F3FA4FF0070922E0A6
:104484002C6B002080E100E084E100E088E100E0A2
:104494008CE100E090E100E07099140000C00F404E
:1044A400043D00203BD4B5314BEA030B86F800B041
:1044B40009F1FF390021607C02F0D2FAB9F1FF3F23
:1044C40018D096F800B04BFA09F1E07B01F0010135
:1044D40002F0C6FA0121607C02F0C2FA207C02F0EC
:1044E400C5FA0AFA09F30028DED12BEA030B86F891
:1044F40000B0DDE70DF10E03B3423DD016F801BF65
:10450400BBE7607A9B4603AE9A4602F0A9FA4FF0E5
:1045140007090EE04BEA030B86F800B009F1FF39F6
:104524000021207B02F09CFAB9F1FF3F18D096F8E5
:1045340000B04BFA09F1A07A01F0010102F090FAFF
:104544000121207B02F08CFAE07A02F08FFA0AFA59
:1045540009F30028DED12BEA030B86F800B0DDE76F
:104564000DF10E03B3420CD016F801BFCFE70121C1
:10457400E07C02F075FA04E60121A07B02F070FAF7
:10458400FFE50121607A02F06BFAFAE5B2FBF3F27F
:1045940025498A4288BF0133B3F5817F21D3234B58
:1045A40078E6B2FBF3F220498A4288BF0133B3F5BF
:1045B400817F1AD31D4BA2E5B2FBF3F21A498A425A
:1045C40088BF0133B3F5817F07D3184BECE6FB6852
:1045D400EBE6FB6894E5FB685DE6022B09D8002353
:1045E400E2E6022B0ED8002354E6022B13D8002354
:1045F40085E5023B59080A0443EA012302F47F02D9
:104604001343D1E6023B59080A0443EA012302F4A6
:104614007F0213433EE6023B59080A0443EA01239E
:1046240002F47F0213436AE570991400FF7F7F0050
:10463400704700BF704700BF704700BF10B5044605
:10464400406904F11C03984201D002F0FBFA2046B1
:1046540010BD00BF10B50446406A04F12C03984213
:1046640001D002F0EFFA204610BD00BF08B50022C9
:104674004FF496410D4801F06DFB00224FF41651A2
:104684000B4801F067FB0221092002F0F5F9012132
:104694000A2002F0F1F900210A2002F0E1F90221D6
:1046A4002420BDE8084002F0E7B900BF8C6B00206D
:1046B400EC6B0020000000002DE9F041684F3B7ACC
:1046C4002DED028B84B0002B7DD0664E6846664982
:1046D40001F068FF69463046644CFDF7EFFD68461B
:1046E40001F020FF3046FDF74BFF2046FEF792FD18
:1046F4005F4D2046DFF88C81FEF7BEFC3846A16A88
:104704005C4FFEF711FC94F820102846FFF74AFB93
:10471400217E384696ED020B98ED001BFEF7E0FA79
:1047240096ED026B9FED4C7BB4EEC76BF1EE10FA85
:1047340022D4514894F8206094ED048BFFF7A6F935
:104744004E4B07EE900A314693ED002AB0EE480B2B
:10475400B8EEE71B4046B8EEC22B95ED0C6B95ED19
:10476400105B95ED0E4B95ED0A3B00F07DFA04B01D
:10477400BDEC028BBDE8F081404B3846196896EDDC
:10478400040BFEF74DFA3C4894F8206094ED048B3A
:10479400FFF77CF907EE900A31464046B8EEE71B76
:1047A400B0EE480B95ED0C6B95ED105B95ED0E4B53
:1047B40095ED0A3B97ED002B00F056FA04B0BDECE2
:1047C400028BBDE8F0812849684601F0EBFE274DD5
:1047D40069462448FDF772FD684601F0A3FE244CA7
:1047E4002846274EFEF748FC3846A96AFEF79CFB8C
:1047F40095F820102046FFF7D5FA237894F858202E
:104804003046216995ED000BFDF73AFF1A4895F8FB
:10481400205096ED008BFFF739F9184B07EE900AFC
:10482400294693ED002AB0EE480BB8EEE71B154875
:10483400B8EEC22B94ED0C6B94ED105B94ED0E4B23
:1048440094ED0A3B00F010FA04B0BDEC028BBDE815
:10485400F08100BFAFF300800000000000C06240A0
:10486400C87E0020F07C002064460020407C0020AC
:10487400B87D0020907D0020A09600208C7400203C
:10488400307D0020987E00202E4A38B51368012B15
:1048940034DD2D4D2C68631C33D0022C42D0012C06
:1048A40048D004B138BD0221284803F035FD28481A
:1048B40001F01AFD01211C2002F0D2F8012121206F
:1048C40002F0CEF821461D2002F042FA21460F20C4
:1048D40002F03EFA0121062002F0C2F80121042070
:1048E40002F0BEF82146052002F032FA21460320E8
:1048F40002F02EFA4FF0FF332B6038BD0133136002
:1049040038BD242002F0B2F8124B186008B9022313
:104914002B601521104803F0FFFC0D48BDE838401A
:1049240001F0E2BC0D48FFF7B1F80D4A0123106015
:104934002B6038BDFFF7C0FE092002F097F828600D
:1049440038BD00BF707400206C74002080460020C5
:104954007C6B00209074002068460020A096002004
:104964008C740020F8B5214E214C224D304604F0C1
:1049740081F822462049304603F056FE2846FEF7C9
:10498400F3FA1E4F22461E4928461E4D03F04CFEE4
:104994001D4800F069F83846FFF750F822461B49D5
:1049A400384603F041FE2846FDF762FC22461849CA
:1049B400284603F039FE174E1748FDF755FE1748F1
:1049C400FEF718F9164D3046FFF76EF822461549E2
:1049D400304603F029FE2846FEF7EEF92246284623
:1049E4001149BDE8F84003F01FBE00BF48960020FF
:1049F400206B0020407C002071690000A0960020FC
:104A040011250000F07C0020987E00201525000070
:104A140035250000B87D0020307D0020907D0020E9
:104A2400C87E0020192500001D250000000000009C
:104A340091ED006BB5EEC06BF1EE10FAD8BFB1EE9C
:104A4400466B54BF0123002386EE007B03609FED79
:104A5400046B27EE067B81ED007B7047AFF300808B
:104A64000000000000E06F40F8B504461D23042256
:104A74000521236103200F231C2721260625E2623A
:104A84006361A1610121E061184627626662A56243
:104A940001F0F2FF207E012101F0EEFF207C0121D4
:104AA40001F0EAFF207F012101F0E6FF94F82000E5
:104AB400012101F0E1FF94F82C00012101F0DCFF59
:104AC40094F82400012101F0D7FF94F82800012173
:104AD40001F0D2FF002200232046C4E90223F8BDDE
:104AE4009FED537B10B5B4EEC71B04462DED068B2A
:104AF400F1EE10FAB0EE41ABB0EE409B05D5B4EE4A
:104B0400C70BF1EE10FA00F382809FED497BB4EEFF
:104B1400C7ABF1EE10FA04DDB4EEC79BF1EE10FA68
:104B240070D439EE4A8B02214B48B5EEC08BF1EEBE
:104B340010FAD8BFB1EE488BB0EE480B01F038FC48
:104B4400454801F0D1FB9FED3A7BB4EEC78BF1EE03
:104B540010FA03DD9FED387B37EE488BB4EECA9B29
:104B64009FED377BF1EE10FA9FED310B48BFB1EEAC
:104B7400488B28EE077B87EE000B2EF0D1FFBAEEB0
:104B8400007BB4EEC78BF1EE10FA04DDB5EEC08BFA
:104B9400F1EE10FA0BD4B2EE007BB4EEC78BF1EE5B
:104BA40010FA1CD5B5EEC08BF1EE10FA17DD002219
:104BB4000023C4E900230D21284803F0ADFB264857
:104BC40001F092FB0221244894ED000B01F0F0FB6C
:104BD4002148BDEC068BBDE8104001F085BB9FED7C
:104BE4001A7BB4EEC78BF1EE10FA17DC9FED187B3D
:104BF400B4EEC78BF1EE10FA15D50022184BC4E9B8
:104C04000023D8E79FED0C7B39EE079B89E79FEDE6
:104C14000A7B37EE409BB1EE499B76E70022114BAD
:104C2400C4E90023C7E7B1EE400B84ED000BC2E7F3
:104C34000000000000806640000000000080764014
:104C440000000060FB210940000000000080564085
:104C540000000000008056C07C6B002084460020C9
:104C64000000F03F0000F0BFB0EE417B0023B0EE47
:104C7400421BF0B5002600270D4604462DED0E8B91
:104C840091B0B0EE408BB0EE470B0093B0EE43DB37
:104C94000193B0EE44AB0293B0EE459B0393B0EEA8
:104CA40046EBCDE90467CDE90667CDE90867CDE9B0
:104CB4000A67FFF715FF9FEDD60B9FEDD7CB9FED4E
:104CC400D8BB38EE400B20EE0C0B80EE0B0B2EF015
:104CD40027FF9FEDD57B8DED040B38EE470B20EEBF
:104CE4000C0B80EE0B0B2EF01BFF9FEDD17B8DED9B
:104CF400080B38EE470B20EE0C0B80EE0B0B2EF05E
:104D04000FFF9FEDCD7B8DED0A0B38EE470B20EEA8
:104D14000C0B80EE0B0B2EF003FF8DED060B3DB953
:104D2400CDE90467CDE90867CDE90A67CDE90667EF
:104D34000221C54894ED000B01F03AFBC24801F092
:104D4400D3FA9DED041B9DED084B9DED067BB5EE5E
:104D5400C01BF1EE10FA40F33182B0EE415BB5EEC8
:104D6400C07BF1EE10FA40F32682B0EE476BB4EE4E
:104D7400465BF1EE10FAB5EEC04BA8BFB0EE456B42
:104D8400F1EE10FA40F31482B0EE445BB5EEC07B52
:104D94008DED0C5BF1EE10FA40F30782B0EE473B69
:104DA400B4EEC35B8DED0E3BF1EE10FA80F2A481FC
:104DB400B0EE435B0EABB4EEC65BF1EE10FA01D974
:104DC40093ED006BB5EE406B84ED026BF1EE10FADF
:104DD40040F094819FED9A5BB0EE454BB0EE453BBD
:104DE400B0EE452B39EE049B0B213DEE02DB9748D8
:104DF4003AEE03AB3EEE05EB94ED007B3DEE07DBB4
:104E04003AEE07AB39EE079B3EEE07EB8DED04DB84
:104E14008DED08AB8DED0A9B8DED06EB03F07CFA6E
:104E2400022189489DED040B01F0C2FA864801F085
:104E34005BFA0099844801F0AFFA834801F054FA10
:104E44000B21834803F068FA02217F489DED080B8B
:104E540001F0AEFA7C4801F047FA02997A4801F071
:104E64009BFA794801F040FA0B217A4803F054FA8E
:104E7400022175489DED0A0B01F09AFA724801F07F
:104E840033FA0399704801F087FA6F4801F02CFA5D
:104E94000B21714803F040FA02216B489DED060B8B
:104EA40001F086FA684801F01FFA0199664801F09A
:104EB40073FA654801F018FA9DED044B9DED067BED
:104EC400B5EEC04BF1EE10FAB5EEC07BD8BFB1EE33
:104ED400444BF1EE10FA40F36581B0EE475BB4EE5B
:104EE400454B9DED086BF1EE10FAB5EEC06BA8BF13
:104EF400B0EE445BF1EE10FAB5EEC07BD8BFB1EE74
:104F0400466BF1EE10FA8DED0C6BD8BFB1EE477B1A
:104F1400B4EEC76B8DED0E7BF1EE10FA80F2EA80F1
:104F2400B0EE476B0EABB4EEC56BF1EE10FA01D9DF
:104F340093ED005B84ED025B0921484803F0ECF932
:104F44000221414894ED020B01F032FA3E4801F08F
:104F5400CBF90022002394ED020BB5EE400BF1EEE9
:104F640010FA40F0F680CDE9042300220023CDE9B5
:104F7400062300220023CDE9082300220023CDE9E3
:104F84000A230B21314803F0C7F902212E489DED75
:104F9400040B01F00DFA2C4801F0A6F900992A48F7
:104FA40001F0FAF9284801F09FF90B21284803F091
:104FB400B3F9022124489DED080B01F0F9F92248C8
:104FC40001F092F90299204801F0E6F91E4801F037
:104FD4008BF90B211F4803F09FF902211A489DED1C
:104FE4000A0B01F0E5F9184801F07EF90399164817
:104FF40001F0D2F9144801F077F90B21164803F0B7
:105004008BF9022110489DED060B01F0D1F927E040
:10501400000000000000444000000060FB21094043
:105024000000000000806640000000000080614035
:105034000000000000806B4000000000000074408D
:1050440000000000000000007C6B0020944600205B
:10505400A0460020AC460020B8460020C4460020EC
:10506400584801F041F90199564801F095F955481D
:1050740001F03AF99DF8081094F8200001F0F0FCD2
:105084009DF8001094F8240001F0EAFC207C9DEDCA
:10509400087BFDEEC77B17EE901A01F059FE207DC8
:1050A4009DED047BFDEEC77B17EE901A01F050FED8
:1050B4009DF8041094F8280001F0D2FC9DF80C101F
:1050C40094F82C0001F0CCFC207E9DED067BFDEED7
:1050D400C77B17EE901A01F03BFE207F9DED0A7B03
:1050E400FDEEC77B17EE901A01F032FE11B0BDEC55
:1050F4000E8BF0BD0CAB16E70CAB5CE681EE062B19
:1051040087EE065B84EE063B9DED0A7B87EE064B3D
:10511400B5EEC02BF1EE10FAB5EEC05B54BF01231F
:105124000023F1EE10FAB5EEC03B009354BF012307
:105134000023F1EE10FA019354BF01230023B5EECE
:10514400C04B0293F1EE10FA54BF012300230393E2
:1051540048E604A96846FFF76BFC94ED020BB5EE34
:10516400400BF1EE10FA3FF400AF06A901A8FFF7D7
:105174005FFC94ED020BB5EE400BF1EE10FA3FF438
:10518400F8AE08A902A8FFF753FC94ED020BB5EEA4
:10519400400BF1EE10FA3FF4F0AE0AA903A8FFF7B2
:1051A40047FCEEE6B1EE475B99E6B1EE473BF7E527
:1051B400B1EE445BEAE5B1EE476BD8E5B1EE415B95
:1051C400CDE500BF7C6B00200020704790F8A32041
:1051D40090F8A200101A704790F8A23090F8A3201B
:1051E4009A4205D95A1C034480F8A220987E70473D
:1051F4004FF0FF30704700BF90F8A23090F8A32022
:105204009A4202D90344987E70474FF0FF307047AA
:10521400704700BFB0F8303193B190F82F31882B2C
:105224000BD8C21810B45C1C012380F82F41184617
:1052340082F8A5105DF8044B704701220023027127
:105244001846704738B50546B0F8300190B195F866
:105254002F311446C3F1890294420CD805F1A500FC
:105264002246184401F050FC95F82F3120461C4486
:1052740085F82F4138BD144601222A71EEE700BF9C
:105284002DE9F04F8346404883B01525DBF814A080
:105294009BF818609BF819300AEB06163B490AEB99
:1052A4000313DFF8ECE0367A0C4693F82830360125
:1052B400DFF8E0901B01871950F8068000EB030C1F
:1052C400C658F8687B68DCF80C7000931D60C8F859
:1052D4008400D8F80430DCF8042003430192C8F8B1
:1052E40004301560C6F8847073683B4373600968C2
:1052F400DEF80030A9FB0332920C02EB820252006A
:1053040023685B1A9A42FBD8204A0925DFF884C037
:105314009146D8F80830184202D0B3681F4231D100
:10532400C6F888701468DEF80010ACFB0131890CF3
:1053340001EB810113681B1B9942FBD8C6F88470EA
:10534400D9F80040DEF80010ACFB0131890C01EB08
:10535400810113681B1B9942FBD8013DD9D1284612
:105364009BF81830009A0AEB0313DB6813609BF870
:105374001930019A0AEB031ADAF82C30136003B0DF
:10538400BDE8F08F0120EBE724400020041000E08A
:10539400286B002083DE1B430D49026910B50C689D
:1053A40005E0DB0107D40B681B1B102B08D85369DD
:1053B40013F0007FF5D14FF4FE430120536110BD7B
:1053C4000446FFF75DFF0028F9D02269F3E700BF28
:1053D400409700202DE9F04790F82FA1BAF1000F73
:1053E40002D10420BDE8F08705460E46FFF7D4FF3E
:1053F4000028F6D02E4F00244FF40079D7F800800F
:10540400544529691AD8CB6D03F00703032B09D936
:1054140014E095F8A5200133012442F48062042BA2
:105424000A660BD02A19002CF3D0A24527D90133E0
:1054340092F8A5200134042B0A66F3D14B691805B0
:1054440022D45A0527D4980404D43A68C8EB02023B
:10545400322A09D90B694FF40072042043F44073D3
:105464000B610A66BDE8F087544505D9CA6D520739
:1054740002D19B0519D4C6B102F0D4FFC0E70EB126
:10548400C1F860900134D9E70B69042043F44073F8
:105494000B61BDE8F0870B694FF40072022043F4FE
:1054A40040730B610A66BDE8F0870020BDE8F08711
:1054B400409700202DE9F84F0C4615469846814642
:1054C400FFF76AFF10B90420BDE8F88F00226300DB
:1054D400002D40F2014A1446DBB23D4E08BF0125BF
:1054E400022C43EA0A0AD6F800B089F8A22089F807
:1054F400A32048D9D9F8103099F8A320872A12D8C4
:10550400D96DC1F3024111B90DE0882A0BD002F123
:10551400010E09EB020001395FFA8EF289F8A3202B
:105524001F6F8776F1D15A6910054CD412F4105FBD
:1055340004D13168CBEB0101322912D91A694FF435
:10554400007142F440721A611966DA6D12F4E02FA8
:1055540003D01A6942F400721A6199F8A300BDE8F5
:10556400F88F99F8A310A94209D3022C07D9D96D51
:10557400490704D19205E8D4B8F1000FE5D002F050
:1055840051FF022CB6D8D9F81020D36D03F00703CD
:10559400032B0DD8691E4FF4007041F480714CB98F
:1055A400C2F860A0013B0134032B01D8022CF6D9C8
:1055B4001346A1E7012C04D0B8F1000FF2D0106615
:1055C400F0E71166EEE71A6942F440721A61BCE72B
:1055D4004097002010B4047F4160022CC26003D0C5
:1055E4005DF8044B00F06ABA83685DF8044B184711
:1055F400F0B5304C304BA06C656C0179226CD977D6
:105604002979197701791977FAB1B2F5004F18D2CF
:105614002B6892B2D98B0E043BD4DA83D98B89B22E
:10562400D9820368D98B09042CD4DA830021DA8B5C
:1056340092B2DA82216402791F4BDA762A79DA7619
:10564400F0BD1E4B13442364F5E7E06C0F2523687B
:1056540040F2013E01684FF47C579D6503260D68B6
:105664001749DA618D42C3F810E05F6184F83D6048
:1056740017D1037F4260022BC26017D0BDE8F0400F
:1056840000F01CBAD98BC2F3080201F47E410A432C
:10569400CBE7D98BC2F3080601F47E413143D983A9
:1056A400BCE72B461146BDE8F04018478368BDE8C7
:1056B400F04018472C6B002000800E400180FFFF53
:1056C400B5340000704700BF70B50C46054628226B
:1056D40000212046012632F049FB0B2208492046CE
:1056E40034F05CFA002200230320E2720549ED68DD
:1056F400E6602561626260612162A361E36170BD5D
:10570400D04600200AD7233C10B50446142101F0EA
:105714009DFA204610BD00BFF8B504460025084890
:1057240016461F46E16020601020A56001F086FA4D
:1057340005463A4631462EF0BFF8A5602046F8BD2E
:10574400AC2C002030B5024685B00C4600213D2526
:1057540080680123147402220191009103A98DF839
:105764000D408DF80C502EF0DDF81E2001F0DEF80F
:1057740005B030BD2DE9F047054684B08946806800
:1057840001212EF0BFF820B90027384604B0BDE847
:10579400F08704AC00264FF001080746A86842468B
:1057A400019604F8046D23462146CDF800802EF0BE
:1057B4004BF99DF80C30A02B12D04FF47A7001F005
:1057C400B5F8A868234601964246CDF800802146E4
:1057D4008DF80C602EF038F99DF80C30A02BD3D145
:1057E40000212846FFF7AEFF00263F214FF0200E90
:1057F400A868012302228DF80C1001962146009618
:105804004FF001088DF80DE02EF08CF81E2001F009
:105814008DF801E001F08AF8A86823460196012278
:10582400CDF8008021468DF80C602EF00DF99DF81E
:105834000C304FF0000A0A20A02BEBD13E26322078
:1058440001F074F8A8682146012302228DF80C6047
:10585400CDF804A00726CDF800A08DF80DA02EF0F9
:1058640061F80A2001F062F8A86821468DF80C60FE
:10587400CDF804A00123CDF800A002223F268DF824
:105884000DA02EF04FF801230222A8682146CDF87E
:1058940004A0CDF800A08DF80DA08DF80C602EF0BA
:1058A40041F80A2001F042F849462846FFF74AFF2A
:1058B400142001F03BF8384604B0BDE8F08700BF7F
:1058C400F0B50E46002185B004460D46077CFFF76F
:1058D40039FF192001F02AF84FF0070EA06803A938
:1058E40001950123009502228DF80D508DF80CE0EE
:1058F4002EF018F8A068BEB93F25019603A90096BA
:10590400012302228DF80D608DF80C502EF00AF858
:105914000A2001F00BF839462046FFF713FF142044
:1059240001F004F805B0F0BD4FF03F0E802601955C
:1059340003A90095012302228DF80CE08DF80D6077
:105944002DF0F0FFE4E700BFF0B587B00025164660
:10595400062706AA0560456004AB02F80C6D0446F0
:105964008560083EC56005614561886811460195FA
:10597400012200970495ADF814502EF065F89DF8B7
:1059840010309DF811009DF8135043EA00209DF853
:1059940012109DF815209DF8143041EA052100B23B
:1059A40043EA022309B21BB2262E2FD8DFE806F001
:1059B400142E2E2E2E2E312E2E2E2E2E312E2E2E17
:1059C4002E2E312E2E2E2E2E2E2E2E2E2E2E2E2EF0
:1059D400142E2E2E2E2E140007EE900AB8EEE75B3E
:1059E40007EE901AB8EEE76B07EE903A9FED184B6E
:1059F400B8EEE77B85EE043B86EE045B87EE046B32
:105A040084ED003B84ED025B84ED046B204607B01B
:105A1400F0BD07EE900A2046B8EEE75B07EE901A59
:105A2400B8EEE76B07EE903A9FED0B4BB8EEE77BD1
:105A340025EE045B26EE046B27EE047B84ED005B0D
:105A440084ED026B84ED047B07B0F0BDAFF30080FE
:105A54000000000000005940000000000000B03FBA
:105A6400F0B50C46242587B006462A460021204678
:105A7400032732F07BF9104BF06831461B681A2279
:105A8400606068462560A7602361FFF75DFF012021
:105A94009DED005B9DED026B9DED047BB7EEC55B58
:105AA400B7EEC66BB7EEC77B84ED055A84ED066A84
:105AB40084ED077A07B0F0BD4097002010B4EFF3EF
:105AC400108272B6437F33B9017F012908D00329BC
:105AD40010D00123437702B962B65DF8044B7047D6
:105AE400114C2168A1B1114943610B6808608361BD
:105AF4005861EEE70E4C216881B10E4943610B6891
:105B04000860836158610C4B4FF080511960E0E7E5
:105B1400064B4161816120601860DAE7054B416101
:105B2400816120601860EEE7088F0020148F002048
:105B3400108F00200C8F002004ED00E070B5EFF30F
:105B4400108172B60C4C23688BB10C4E00255A6937
:105B540022607AB1956101B962B65D7718469B6897
:105B64009847EFF3108172B62368002BEFD101B987
:105B740062B670BD3260EEE7108F00200C8F0020FB
:105B8400FFF7DCBF044A054B1168054A1960136826
:105B940001331360704700BF041000E03C970020FD
:105BA40040970020B0F84630B0F848209BB292B23B
:105BB400934202D2501EC01A7047406B0138104401
:105BC400C01A704772B6B0F84A30B0F84C2099B297
:105BD40093B2994201D2826B11440269CB1AD06A02
:105BE400C0F30260184462B6704700BFB0F84A20A0
:105BF400B0F84C3092B29BB29A4270B428D00133C0
:105C0400846BA34217D2016B9EB28B4218D2016AF5
:105C1400C95CC9B2856DA0F84C60B5B19A4238BF71
:105C24001219D31AC26B93420FD8C36D0846C5F834
:105C3400883070BC70470026016B33468B42E6D334
:105C4400591A456A695CC9B2E4E7084670BC7047F2
:105C540072B6B0F84A1089B28A4202D062B60A46D5
:105C6400CDE70369DA6A12F0E06F04D0D869C0F3B3
:105C7400090062B6DDE74FF0FF30FAE790F84430F0
:105C840043B110B5044602F0CDFB94F84430002B28
:105C9400F9D110BD704700BFB0F84A20B0F84C30BD
:105CA40092B29BB29A4210D00133816B026B8B4249
:105CB40028BF0023934204D39B1A426AD05CC0B22B
:105CC4007047026AD05CC0B2704772B6B0F84A102E
:105CD40089B28A4201D062B6E6E70369DA6A12F051
:105CE400E06F11D0DB690021026AC3F3090310B429
:105CF4000124A0F84A40A0F84C10D9B2517062B601
:105D040018465DF8044B70474FF0FF3362B61846EF
:105D1400704700BFEFF31380B8B9EFF310834BB9AA
:105D2400EFF305823AB94FF48073EFF3118050B169
:105D3400984208D270470F2AF7D9054BD35CEFF38A
:105D440011800028F4D1184670474FF0FF30F1E776
:105D5400F0E300E007EE901A9FEDA47A0421B6EE7A
:105D6400005AF8EE677A9FEDA26A2DE9F043C7EE78
:105D7400275A0E46012541F6FF741DE0A342A8BF31
:105D8400234607EE903AF8EEE76A76EEC76AC6EE67
:105D9400877AF5EEC07AF1EE10FA48BFF1EE677A31
:105DA400F4EEC67AF1EE10FA03D8B0EE676A0E4646
:105DB4001D460131212911D007EE901AF8EEE77A39
:105DC40085EEA77A77EE057AFDEEE77A17EE903A3C
:105DD400002BD3DCF7EE006A0123D6E700214369E8
:105DE40002F40074D0F83890B3F85C70B3F85E80B5
:105DF4008C42A0F84A10C7EB0907A0F84C1008BF62
:105E04008C46A0F8461018BF4FF0010CA0F84810BB
:105E140080F84410D3F810E05969DEF80040C763F5
:105E240044EA0104C8EB09010164CEF8004080F89B
:105E34001AC040F0CE80047E6E4903EB04146E4F0A
:105E4400247E01EB0414A4682760047E03EB04148D
:105E5400277ED4F81CE001EB07146468C4F800E062
:105E6400047E03EB0414276A0FB1646A3C60447E29
:105E7400D92703EB041494F8384001EB0414A46804
:105E84002760447E03EB041494F83870E46B01EB50
:105E9400071149680C60417E03EB01110C6C0CB1D5
:105EA400496C2160711E5C785F68082E4FEA0161BD
:105EB4004FF00006D8BF4FF4003E04F1100401F087
:105EC400F853C8BFB64601691D434C4B4EEA05055D
:105ED4000D61CE6043F824704369012448495D781C
:105EE40093F85A30474E6B54456901696B7803F057
:105EF4001F075B11BC4046F823408B6A9B0803F0E4
:105F04001C030F2B60D85B1003F00303DCB28B6A15
:105F14009B0003F01C030F2B53D8DB0303F4403323
:105F2400234302F00304CB628B6A43F088038B6241
:105F340053074BD444F4701302F00F04042C847EF2
:105F440008BF43F08043970648BF43F080530CB129
:105F540043F0A00316078B6103D50B6943F000538C
:105F64000B614B69D40623F0805348BF43F0805340
:105F74004B61D30503D50B6943F400530B61EB6804
:105F84001B78E3B9204E357865B3204C23688342EF
:105F940026D0691E2346C9B204EB810103E053F8FD
:105FA400042F90421AD08B42F9D16B1CDBB2184AF1
:105FB4003370137844F8250043F002031370BDE8EE
:105FC400F0834FF44033ABE70324A0E7114B2343A2
:105FD400B2E7447E4FF2D90706494AE7BDE8F083A9
:105FE400BDE8F0830123094CE1E700BF001BB74B78
:105FF400EC78AD602440002038F0010000780020E7
:1060040000E400E000E100E053970020188F002036
:10601400ED74002010003C00F8B5036D04460E46F4
:1060240013B1426DC3F88420A37E33B172B62269E2
:10603400936943F00053936162B6B4F84650636BBE
:10604400ADB201359D4249D2AFB2B4F848309BB2EB
:10605400AB4220D1FFF75EFE6369B3F85A30984231
:106064002DDC21694B691B02EFD5B4F84830626B13
:106074009BB20133934227D2E26A98B2934228D268
:10608400E269D35CDBB2CB61A4F84800B4F84830D1
:106094009BB2AB42DED0E36A9D4222D3ED1AF6B244
:1060A400A36A5E5572B60120226984F84400A4F8FC
:1060B4004670936943F40003936162B6F8BDFF2808
:1060C400C3DD02F0AFF9C0E70020E26A0346934261
:1060D400D6D39B1AA26AD35CDBB2D4E700273D4631
:1060E400B3E7F6B2E3695E55DCE700BFFFF794BFA0
:1060F4000269536913F4401FF0B542D0D36AC3F365
:106104000265002D3AD0B0F84A70B0F84CE0BFB246
:106114001FFA8EFE06E0026AD65402696B1E13F063
:10612400FF051AD0D1697B1C866BB0F84C40C1F3D3
:106134000901B34228BF0023A4B2A342EED0026BEC
:10614400CEB21F469342A3EB0204E4D3436A1E5526
:106154006B1E026913F0FF05E4D1BBB2816DA0F898
:106164004A3059B1774573D2836BCEEB03031F4496
:10617400036C9F4202D3C36DC1F884305369DC02BF
:1061840055D4D2F818E01EF4000F02D05369190256
:106194001CD41EF4800F48D053695B0246D50021FD
:1061A400036D80F8441013B1416DC3F88810837EE9
:1061B4003BB172B60269936923F00053936162B6EE
:1061C4000269936923F480039361F0BDB0F84650EB
:1061D400B0F84830ADB29BB29D422DD0466BC46A34
:1061E4000AE0C169C95CC9B2D161D16AC1F30221B3
:1061F400032912D8AB421FD001339E4298BF00231B
:10620400A342A3EB0401ECD3876A795CC9B2D161E0
:10621400D16AC1F302210329ECD999B2AB42A0F8A7
:1062240048100CD01EF4800FB6D1F0BDF0BD5369F8
:1062340043F480135361A4E7ADB2A0F848509369C6
:1062440023F400039361936943F480039361A0E70B
:10625400CEEB07078CE700BF0148FFF749BF00BF3B
:106264008C6B00200148FFF743BF00BFEC6B00209C
:10627400F8B50E4671B17AB10746144600253B685D
:10628400384616F8011B1B689847013C0544F6D1B3
:106294002846F8BD0846F8BD1046F8BD2DE9F04380
:1062A4008C688BB0ECB10025064689462F462B46F8
:1062B400212201A9484600F089F9202C23463068A0
:1062C40028BF202301A9D0F804803046E41A1A46D6
:1062D4001D44C0470744002CE9D138460BB0BDE843
:1062E400F0832746F9E700BF10B5064C82B0036877
:1062F4000222248801A95B68ADF80440984702B0E3
:1063040010BD00BF08050020036810B514465B6883
:106314009847204610BD00BFF0B506468BB0002A52
:1063240033D0012A08BF0A2251B3212500E0FDB26F
:106334006F1EB1FBF2F402FB1411C8B2092900F17B
:10634400370100F1300088BFC8B221460AAC98BFBB
:10635400C0B22C4404F8240C0029E8D133B1013D27
:106364000AAB2D22EDB22B4403F8242C336801A987
:10637400C5F12202304629445B6898470BB0F0BD52
:10638400302221258DF82520E8E70368C9B21B686F
:1063940098470BB0F0BD00BF002903DB00230A229D
:1063A400FFF7BABF49422D230A22FFF7B5BF00BF4A
:1063B400B4EE400B70B5F1EE10FA05462DED028BEC
:1063C40086B080F19180B0EEC07B9FED4B6BB4EE54
:1063D400467BF1EE10FA0ADD036803224E495B683E
:1063E40098470646304606B0BDEC028B70BD9FED63
:1063F400447BB4EEC70BF1EE10FA58DC9FED427B00
:10640400B4EEC70BF1EE10FA51D4B5EEC00B0C4646
:10641400F1EE10FA56D40023002C57D0B6EE008BC0
:1064240000229FED3B7B013228EE078BD1B28C42D8
:10643400F9D830EE080B0A222846FCEEC07BB8EEF1
:10644400678B17EE901A30EE488BFFF765FF0F2C21
:106454004FF00102B2EE047B4FF02E0328BF0F244D
:1064640006468DF808301444E4B228EE070B531C9A
:1064740006A91144DAB2A242FCEEC06BCDED016A6A
:106484009DF8043006EE903A03F13003B8EEE68B43
:1064940001F8103C30EE488BE7D12B68284602A95E
:1064A4005B689847304606B0BDEC028B70BD2B6824
:1064B40003221A495B6898470646304606B0BDEC8D
:1064C400028B70BDB1EE400B0123A5E7B6EE007B55
:1064D40028460A2230EE070BFCEEC07B17EE901A1A
:1064E400FFF71AFF06467DE7036803220C495B6841
:1064F4009847064676E700BFFFFFFFFFFFFFEF7FE9
:10650400000000E0FFFFEF41000000E0FFFFEFC1EB
:10651400000000A09999B93FE0460020DC46002025
:10652400D846002010B50446006831F005F820462E
:1065340010BD00BF38B543688B4201D3012038BD7C
:106544000D4604460131006831F0ACFC0028F6D059
:10655400A36884E82100002BF0D10370EEE700BFAC
:10656400F8B50446154632B9036803B11A7000231E
:10657400A3602046F8BD0E461146FFF7DBFF074631
:1065840048B9206810B130F0D7FF276000232046B7
:106594006360A360F8BDA5603146206832F050F90D
:1065A400E7E700BF38B50023044603604360836017
:1065B400037341B10D46084633F032FA02462946C8
:1065C4002046FFF7CDFF204638BD00BFBAB170B5F5
:1065D400B1FA81F464097CB986689E420DD9F61A31
:1065E400013A0D46016896422846194428BF1646CA
:1065F400324633F0D3FAAC5570BD0C7070BD7047A1
:106604002A281BD814490B784BB1144A936C1B06E7
:10661400FCD4134A936C13F08003FBD10B70114B21
:106624001B5CFF2B0AD01A060AD40C4A11461360CD
:106634000B6A0A4AD807FBD5506A70470020704796
:10664400074A03F07F03114613600B6A044ADB0711
:10665400FBD5506A704700BF5697002000400C409D
:1066640000800C4058440020964A974B90422DE9F4
:10667400F043964CD3F814E09969E6681CD9944B1E
:10668400984240F21581934B40F22765924F0344A0
:10669400924C1A0AA7FB0232D30903EB830303EBE0
:1066A400830202F2E243AB4228BF2B46A3F54873B0
:1066B400A4FB0335ED0804E0894DA84294BF0625E8
:1066C4000E25814A06F01F07D2F88030AF4243F00E
:1066D400C003C2F880300AD27C4B26F01F061A464B
:1066E4002E43DE601368002BFCDA06F01F071EF051
:1066F400007331D17B4C7C4AD4F810C014460CEAA8
:106704000202A2420ABF4FF0C0534FF4805200224B
:106714008EEA030414F0605F08D02EF0605E03F08C
:106724006053694C43EA0E0EC4F814E081EA020394
:1067340013F4405F08D0644B21F4405111431A46CE
:106744009961936C1C07FCD44EF0007E5E4AC2F83B
:1067540014E0936C9906FCD40121644C0A4601FBB5
:1067640002F300FB03F3A34209D8072A00F2958041
:10677400013201FB02F300FB03F3A342F5D95C48A9
:106784005C4C1844A4FB00031B0D6C2B00F28B80A3
:10679400352B00F28F80DFF8888136235648DFF8E6
:1067A40044C1564CDCF80090B0FBF2F009EA040452
:1067B4004445B0FBF1F00BD043F400534FF4805840
:1067C4006446CCF80080CCF800302368002BFCDA57
:1067D400DFF8F4C0013ADCF8103003F00703934209
:1067E40007D002F007026446CCF81020A36CDB0348
:1067F400FCD4013989028EEA010313F4E05F0CD062
:10680400314B2EF4E05E01F4E0511A4641EA0E0EDB
:10681400C3F814E0936C9907FCD4394B3949034409
:10682400DB09A1FB0331090B042928BF04214B1EFA
:106834001B028EEA030212F4407F07D02EF4407E3E
:1068440003F44073204A43EA0E0353611E4B5C6910
:106854001A4624F000745C61936C9B06FCD42A4BAA
:106864004FF0FF32294CBD42A3FB00E320604FEA06
:106874009343274CB2FBF3F3B0FBF1F1254A2160BB
:10688400136008D2114B26F01F061A462E43DE6011
:106894001368002BFCDABDE8F08304293FF66FAFE0
:1068A400013101225BE7DFF87C806C231A4876E72C
:1068B400122506E71948DFF8708000FB03F043EA6D
:1068C40008086CE700A4781F00C00F4000000840CF
:1068D4000046C32300BA3CDC23B24C001F85EB51B5
:1068E40000366E0100800D4040300080FFB19F26CD
:1068F400808D5B00819F5E1600B29F267F300180F1
:106904007FD1F0089F10E50083DE1B43286B002035
:10691400246B00203897002000643F4D001BB70013
:10692400362000806C20008000200080002857D092
:1069340001222DE9F04F85B083462A4C2A4D2B4E77
:10694400DDE9028954E8003F2868336844E80021FF
:106954000029F7D1264FCDE902893A68D31A254A8E
:106964004FF47A7E019712680127A3FB02234FF4A8
:106974007A72984600238B4208BF42452CBFC24618
:10698400F2460EFB00AA54E8003F2A68316844E846
:106994000073002BF7D101980068411A15484FF491
:1069A4007A7E00680EFB02F2A1FB00014FF47A70BC
:1069B400CAEB020288460021994208BF40452CBF19
:1069C400434673461A44724507D3BBF1010B0AF5DB
:1069D4007A7AD8D105B0BDE8F08F01F023FDD2E773
:1069E400704700BFC0970020409700203C970020CC
:1069F400041000E03897002000010F4B1A181B58B0
:106A040010B4D0685C68044205D059B1C3F884005E
:106A14005DF8044B7047936849B9084A5DF8044B24
:106A24001A607047C3F888005DF8044B7047044A45
:106A34005DF8044B1A607047244000203830010090
:106A440038F001000001054B1A5819189268CB68F8
:106A54001A4214BF01200020704700BF24400020C8
:106A6400362801D8FFF7C8BF704700BF362801D8C1
:106A7400FFF7E8BF0020704736281CD800011A4AE7
:106A8400012902EB0003105810B415D0042913D0C7
:106A9400DC68426822EA040242609A68E9B1022989
:106AA4001ED003295B685DF8044B0CBF0F491049E5
:106AB400116015221A607047DA680129446842EAB5
:106AC400040242609A6808D040F6380111605B689D
:106AD40015225DF8044B1A60704738211160F6E7FF
:106AE40004491160F3E700BF24400020383001005E
:106AF4003800010038F0010008B5FDF7B7FDFDF7D7
:106B0400C3FE01F08FFCFAE7844641EA000313F068
:106B140003036DD1403A41D351F8043B40F8043BA0
:106B240051F8043B40F8043B51F8043B40F8043B63
:106B340051F8043B40F8043B51F8043B40F8043B53
:106B440051F8043B40F8043B51F8043B40F8043B43
:106B540051F8043B40F8043B51F8043B40F8043B33
:106B640051F8043B40F8043B51F8043B40F8043B23
:106B740051F8043B40F8043B51F8043B40F8043B13
:106B840051F8043B40F8043B51F8043B40F8043B03
:106B940051F8043B40F8043B403ABDD2303211D3A3
:106BA40051F8043B40F8043B51F8043B40F8043BE3
:106BB40051F8043B40F8043B51F8043B40F8043BD3
:106BC400103AEDD20C3205D351F8043B40F8043BA3
:106BD400043AF9D2043208D0D2071CBF11F8013BA1
:106BE40000F8013B01D30B8803806046704700BF67
:106BF400082A13D38B078DD010F003038AD0C3F176
:106C04000403D21ADB071CBF11F8013B00F8013B57
:106C140080D331F8023B20F8023B7BE7043AD9D316
:106C2400013A11F8013B00F8013BF9D20B780370EB
:106C34004B7843708B7883706046704730F074BC37
