:0200000460009A
:100000004643464200000156000000000103030081
:1000100000000000000000000000000000000000E0
:1000200000000000000000000000000000000000D0
:1000300000000000000000000000000000000000C0
:1000400000000000010408000000000000000000A3
:100050000000800000000000000000000000000020
:100060000000000000000000000000000000000090
:100070000000000000000000000000000000000080
:10008000EB04180A063204260000000000000000FD
:10009000050404240000000000000000000000002F
:1000A0000000000000000000000000000000000050
:1000B0000604000000000000000000000000000036
:1000C0000000000000000000000000000000000030
:1000D00020041808000000000000000000000000DC
:1000E0000000000000000000000000000000000010
:1000F0000000000000000000000000000000000000
:10010000D8041808000000000000000000000000F3
:100110000204180804200000000000000000000095
:1001200000000000000000000000000000000000CF
:10013000600400000000000000000000000000005B
:1001400000000000000000000000000000000000AF
:10015000000000000000000000000000000000009F
:10016000000000000000000000000000000000008F
:10017000000000000000000000000000000000007F
:10018000000000000000000000000000000000006F
:10019000000000000000000000000000000000005F
:1001A000000000000000000000000000000000004F
:1001B000000000000000000000000000000000003F
:1001C000000100000010000001000000000000001D
:1001D000000001000000000000000000000000001E
:1001E000000000000000000000000000000000000F
:1001F00000000000000000000000000000000000FF
:10020000FFFFFFFFFFFFFFFFFFFFFFFFFFFFFFFFFE
:10021000FFFFFFFFFFFFFFFFFFFFFFFFFFFFFFFFEE
:10100000D10020432914006000000000000000000F
:10101000201000600010006000F804600000000074
:10102000000000600004050000000000FFFFFFFF5B
:10103000FFFFFFFFFFFFFFFFFFFFFFFFFFFFFFFFC0
:10104000FFFFFFFFFFFFFFFFFFFFFFFFFFFFFFFFB0
:10105000FFFFFFFFFFFFFFFFFFFFFFFFFFFFFFFFA0
:10106000FFFFFFFFFFFFFFFFFFFFFFFFFFFFFFFF90
:10140000884207D0904205D251F8043B40F8043B93
:101410008242F9D8704700BF884204D2002340F8C6
:10142000043B8142FBD87047664B4FF42A01664A61
:1014300066482DE9F0475A641864654A99639546F1
:10144000BFF34F8FBFF36F8F00F09AF9614B082005
:10145000614A6249C3F854016148FFF7D1FF614A0C
:1014600061496248FFF7CCFF61496248FFF7D4FF4A
:10147000614C62494FF470000023614A086044F8EF
:1014800023200133B02BFAD15E4B80215E4A03F852
:10149000011B9342FBD14F4D4FF080385B494FF019
:1014A000FF325B4B0026DFF8A4A1DFF8A4911C609B
:1014B000C5F80481C5F800A1C5F8F480C5F8F0901E
:1014C0000B68544F43F4E0230B60FB693D4923F064
:1014D0007F0343F04003FB617B6A23F07F0343F00B
:1014E00040037B628A66CA660A674A6700F04EF963
:1014F000494A4A4B6320A2630321E363484A494BAC
:10150000106000F160401E6042F8041C00F6A170FB
:101510004549464AC3F8082D0B68454A43F0807395
:101520000B601368434943F00103136003680B60C9
:1015300000F07CFBC5F804813F48C5F800A1C5F860
:10154000F480C5F8F09000F0EBFCF96E3B4A41F4F2
:1015500040513B4BF9661660C2F80861C2F8186149
:10156000C2F82861C2F838619A6BD20708D442F6F3
:101570001562344959651A659A6B42F001029A6303
:101580002F4A314C936843F00113936000F070F9D7
:1015900000F0CAF800F0B0FC00F07AFB00F0F2F8BE
:1015A0002368132BFCD900F001FC2368B3F5967F68
:1015B000FBD300F0E9F800F0ABFC00F0ADFC30BF6D
:1015C000FDE700BF00C00A40FFFFABAA07002000F4
:1015D0000080032000800D40103A040024210060A8
:1015E00000000000C07A0020FA7A046000000020A9
:1015F000A0980020C07A00200078002088ED00E04C
:101600002D52000000E400E0A0E400E024ED00E042
:1016100008ED00E000C00F40F93D0000FD3D000076
:1016200014E000E018E000E0FCED00E00000202005
:10163000001000E0C89700200046C3230040084087
:1016400000400D400000C056CC9700201B10182011
:101650000C0D11132DE9F0412F4F00254269012493
:10166000B96B4FF0020E16684FF4303821F47C014C
:101670000369DFF8B0C041F48021B963316857686D
:10168000394331604FF00111244EC3F810E01D6161
:10169000C3F848C05C629E624FF66106C3F82C80B6
:1016A0009F6C1F651D6299651C61017E1C4B02EBDE
:1016B0000111097A03EB011189680E60017E02EBCA
:1016C00001110C7ACD6803EB041149680D60017EAD
:1016D00002EB01110C690CB149692160417E4FF6A2
:1016E000610402EB011191F8281003EB01118968E4
:1016F0000C60417E02EB011191F82840C96A03EBAE
:1017000004135B681960437E02EB0312136B0BB189
:10171000526B1A60BDE8F08100C00F40B80B0505A0
:10172000244000203B372819114B1249D86E0A4635
:1017300040F4403030B4D86640F23765D86EA0240B
:1017400040F44070D8664D648C64936C1B06FCD4E6
:10175000094B40F23760A0211A4658649964936C93
:1017600013F08003FBD1054A137030BC704700BFF3
:1017700000C00F4000400C4000800C40E297002069
:10178000704700BF704700BF704700BFF0B5244AE4
:101790000020244B4FF0100C234C1126DFF8C8E03A
:1017A000122720600125C2F800C0C3F800E01660CF
:1017B000DFF8B8E01D4EC3F800E01D4917601E6059
:1017C00041F015011B4F1C4E17601E601B4F1C4E35
:1017D00017601E601B4F11601B4E1C491F60166076
:1017E0001B4F19601B4E1C4917601E601B4F116078
:1017F0001B4E1C491F60166019602560BFF34F8F98
:10180000BFF36F8FC3F8B001BFF34F8FBFF36F8F7C
:1018100052F8883C43F4403342F8883CF0BD00BFA6
:101820009CED00E0A0ED00E094ED00E00900100068
:10183000A0980020130020002100020714000020BF
:1018400025000813090000101600202027000B13A4
:101850001700004033001013180000602F000B0722
:10186000190000702F000B133F0000102500080323
:10187000F0B58D4B18228D4E01208D4948F20C7E1B
:101880008C4D4FF0FF378C4C83B0C3F85C12C3F81B
:1018900060520025C3F86412C3F868424FF4005444
:1018A000C3F86C628549C3F87062C3F87462C3F808
:1018B0007862834EDA661A675A679A67DA67C3F8FE
:1018C0008020C3F88420C3F8882040F20562C1F864
:1018D0002C03C1F83003C1F83403C1F83803C1F850
:1018E0003C03C1F850032946B36976481840764B4B
:1018F00003437648B361D6F8843043F00C03C6F84E
:1019000084300226036833430360036803EA0E0E43
:101910006F4B4EEA0303DFF8F0E103606D4B476065
:10192000DEF808703B406C4F43F000538360C3689F
:1019300023F07803C360036A1F40684B3B43664F44
:101940000362036A1F40654B3B43654F43628762F6
:10195000C762DEF8B830634F23F03F0343F0010362
:10196000C0F8B830DEF8BC30DFF884E123F03F0384
:1019700043F00103C0F8BC30056104660767C0F896
:10198000802044664767C0F884200468564B24F0E2
:101990000204564A0460C0F818E0C66143F8041B0C
:1019A0009342FBD1494B1A68194642F001021A6072
:1019B0000B68464A13F00103FAD14D4E022540F25E
:1019C000F56440F2664040F299414A4F966142F216
:1019D0000146D56140F23545C2F8004242F2012489
:1019E000C2F810020120C2F820121146C2F830726B
:1019F00007F15A47C2F8346207F51377C2F840522C
:101A00003D4E3E4DC2F85072C2F85462C2F8605268
:101A1000C2F86442C2F8A030C2F8A430C2F8B000E4
:101A20004B692A4ADD07FBD5012300244FF480309F
:101A300011465361C2F8A040C2F8A400C2F8B03009
:101A40004B69224ADC07FBD5012300244FF4003008
:101A500011465361C2F8A040C2F8A400C2F8B030E9
:101A60004B691A4AD807FBD50123002424481146A4
:101A70005361C2F8A040C2F8A400C2F8B0304B696C
:101A8000124ADB07FBD5D2F8003145F60D51212073
:101A90009BB250618B4239D01A4B00221A605A60B7
:101AA0009A60DA6003B0F0BD00801F40F970010059
:101AB000F9B00100F9100100F900010000841F4095
:101AC00000C00F40FFFCFF1F000300A000402A40A1
:101AD0001200FFFFFF37F70000FFF07C400000809E
:101AE000FF000F836300020000422A4000432A40A7
:101AF000F05AF05A9F041830063201263806180AA8
:101B0000040003004498002000802A4000244FF481
:101B1000802001231146C2F8A040C2F8A400C2F8F8
:101B2000B0304B693B4ADF07FBD501234FF400047B
:101B3000002011465361C2F8A040C2F8A400C2F8C8
:101B4000B0304B69334ADE07FBD501234FF4000464
:101B50004FF4803011465361C2F8A040C2F8A4008F
:101B6000C2F8B0304B692B4ADD07FBD501234FF497
:101B700000044FF4003011465361C2F8A040C2F88F
:101B8000A400C2F8B0304B69224ADC07FBD5012320
:101B90004FF40004204811465361C2F8A040C2F837
:101BA000A400C2F8B0304B691A4AD807FBD5D2F866
:101BB000003145F60D5121209BB250618B4210D06F
:101BC000164B08224FF400041A7015490020154ADC
:101BD00001230090521A1448224400F095F903B0F2
:101BE000F0BD4FF400044FF4802101231046C2F8E9
:101BF000A040C2F8A410C2F8B03043690549DB0721
:101C0000FBD50120054B10224FF0807448611A70FB
:101C1000DBE700BF00402A4004000300E3970020F8
:101C2000000000700000007044980020F0B4174AD3
:101C300040274FF480314FF480564FF400554FF455
:101C4000404443F24200136913F0020F06D094613E
:101C500051619061136913F0020FF8D113F4005F22
:101C600001D15561EFE713F4805F01D15661EAE7D6
:101C7000002BE8DA13F4803F01D09161E3E75B06C3
:101C800001D45761DFE7F0BC704700BF00800D4012
:101C9000394A03203949F3EE095A13689FED386A2F
:101CA00023F00103DFED376AF0B413600024106104
:101CB000D1F8E030344FD8B2C3F30B211B0D334EB3
:101CC00007EE100A05EE101A07EE903A304BB8EE08
:101CD000C55A304DB8EEC77A3060F8EEE77A296021
:101CE0002D4937EE466A2D4E77EEC57A2C4877EEB1
:101CF000666A2C4D37EE657A26EE276AC7ED007AC4
:101D000066EEA76A176867EE277A83ED007AC6EE5B
:101D1000075A86EE876AC7EE876A35EE857AFCEE4B
:101D2000C77A36EE057A17EE903ABCEEC77A47EAE4
:101D3000035376EE857A136017EE103AD2F81071DD
:101D4000FCEEE77A01EA0341394317EE903AC2F814
:101D50001011C3F30B03D2F810110B43C2F810316A
:101D6000136843F0020313603470C0F840510E4B07
:101D70000122F0BC1A60704780810D4000441F4072
:101D80000000AA420000B442C0970020B89700208B
:101D9000BC970020B49700200000FF0F40E400E053
:101DA000007800202D54000008E100E0304B40F6A0
:101DB000617270B5C3F8202140F2044500F0B4F818
:101DC0002C492D48D1F880202C4C42F003022C4B9A
:101DD000C1F88020C0F86051226813401BB9D0F8C8
:101DE000A8319A071AD0244B4FF00041234A51637F
:101DF0001A46D3F8401141F00201C3F84011D2F85D
:101E000040319B07FBD44FF400301E491B4B4FF071
:101E10000042086019209A6300F072F81A4D0022FF
:101E2000164B4FF08041144C0A26996328461A60DD
:101E30001146C4F8A8614FF4207200F079F84FF40D
:101E4000810640F243114FF48000104B104A2E607F
:101E50002864C4F85851C4F84811C3F804220D4A44
:101E60004FF4003101231160C4F8403170BD00BF50
:101E700000800D4000C00F4000002E4000900D403B
:101E8000001C1E008CE200E0000000200078002012
:101E9000F95500000CE100E008B50E4B1B6E9B07E6
:101EA00000D4FBBE72B60C4B00200C4AC3F84001B4
:101EB00003F160430A49A3F55F2311649D46BFF314
:101EC0004F8F084A03F5E043074912681846196026
:101ED0009368984700441F4000002E4000C00A400D
:101EE000030020001C002000000012EBF8B500BF2A
:101EF000F8BC08BC9E4670475FF800F06D4F0000CC
:101F00005FF800F0814A00005FF800F0ED66000025
:101F10005FF800F0A15303005FF800F04D4C0000A3
:101F20005FF800F0BD4700005FF800F0995D000029
:101F30005FF800F0BD5E030045000000690300008B
:101F40005509000061290000F532000095F30000FA
:101F5000417601004191010001A60100391C0200F7
:041F60000D5D020011
:101F640080C00F40000000031900000010000000B2
:101F7400E8841F4001000000FF000000FF00000093
:101F84000000000000000000180000001000000025
:101F9400E4841F4001000000FF000000FF00000077
:101FA40000000000000000001F00000070C00F408F
:101FB400000C00001100000011000000E0841F402C
:101FC400020000002C00000012000000E0841F400A
:101FD400010000001000000011000000DC841F401C
:101FE400020000002D00000012000000DC841F40ED
:101FF400010000001E00000070C00F40C00000007F
:102004001200000013000000D0841F4001000000F3
:10201400FF000000FF0000000000000000000000BE
:102024001300000013000000CC841F4001000000D6
:10203400FF000000FF00000000000000000000009E
:102044001C0000000101000016035500530042006B
:102054002000530065007200690061006C000000FC
:1020640018035400650065006E0073007900640075
:10207400750069006E006F000403090409024B0037
:10208400020100C032080B00020202010009040030
:1020940000010202010005240010010524010101D0
:1020A400042402060524060001070582031000101B
:1020B40009040100020A00000007050302400000B1
:1020C400070584024000000009024B00020100C021
:1020D40032080B000202020100090400000102029E
:1020E4000100052400100105240101010424020655
:1020F40005240600010705820310000509040100F8
:10210400020A00000007050302000200070584021A
:10211400000200000A060002EF0201400100010073
:1021240000000000000000000000000000000000AB
:10213400000000000000000000000000000000009B
:1021440010B5054C237833B9044B13B10448AFF3ED
:1021540000800123237010BD087F002000000000D0
:1021640064280400084B10B51BB108490848AFF3B4
:1021740000800848036803B910BD074B002BFBD04F
:10218400BDE81040184700BF000000000C7F00208D
:1021940064280400C07A002000000000884235D082
:1021A400031D994232D02DE9F04781468A461846EC
:1021B400C8460746D9F8003057F8046B9E4216DB30
:1021C400D8F8003042469E421EDA3C4600E02A46D9
:1021D40044F8043D151F52F8043C9E42F7DB166098
:1021E400BA45384608F10408E3D1BDE8F087C9EBE5
:1021F4000002930805D0C2F104034946184435F09F
:1022040089FEC9F80060EBE70246E8E7704700BFC3
:10221400F8B50B1A432B21DD00F140040F460646A6
:102224002146FFF7BBFFA74217D021463C3608469C
:10223400324651F8045B56F8043B9D4212DA0846D4
:1022440000E0224640F8043D141F52F8043C9D422D
:10225400F7DB8F421560EAD1F8BDF8BDBDE8F84060
:10226400FFF79CBF02468F421560E0D1F4E700BF40
:10227400F0B500F14001044683B000250026002794
:10228400104B2A46C5633830057201602946009513
:10229400C4E90467C4E9026717F08CFC282004F041
:1022A40009FE2060282004F005FE2063282004F0A5
:1022B40001FE6060282004F0FDFD60632046656532
:1022C40003B0F0BD944600202DE9F041B2F10108BD
:1022D40054BFC44694464FEA6C0C614548DA8E46B6
:1022E4000EF101046FF04046650050F8347000EBC5
:1022F400C4042E4450F82660B74204DA013D00EBD2
:10230400850450F82570654540F82E70AE46E7DB2D
:10231400D60705D4023A48BF4246B5EB620F1BD03C
:102324008D4216DD6A1E48BF2A46521050F82260BC
:10233400B3420EDD914240F8256000EB820415465D
:1023440007DA561E48BF1646721050F82260B34290
:10235400F0DC2360BDE8F08101356FF040426D0090
:102364002A44013D50F82220226000EB8504D7E77F
:10237400D50700EB8104ECD40D46CBE70B1A432BB5
:1023840040F381808C462DE9F043064683B09146A4
:10239400002A50D000F1040800F10807DB1070682F
:1023A40009F1FF395CF8041C56F8232090422FDA17
:1023B4008A4231DB884238DA326831604CF8042CC6
:1023C40096E803004446BE466346884225460EDC32
:1023D4008242A3F1040303DD53F8042D8242FBDCA3
:1023E400A34208D92260196053F8042C30680434DD
:1023F4005EF8041BE9E761464A462046FFF7BEFF44
:10240400A31B432B3CDDB9F1000F15D0A446C5E74F
:1024140088420ADB8A42CFDB3168326046F82310F7
:102424005CF8042C96E80300CCE7316886E80300E6
:102434005CF8042CC6E70D469C10A71E7F1006EB23
:10244400870800E0013F4FF0000058F804392246A5
:1024540039468DF800003046FFF736FF002FF1D1E2
:1024640055F8043D4FF0000732680021AC1B30469C
:102474002A60A2108DF80070FFF726FF072CEFDC0E
:1024840003B0BDE8F083704710B5054C204606F054
:102494002BFC2046034A0449BDE8104006F0FEB96F
:1024A4004C960020686B0020E56B000000000000E3
:1024B4002DE9F043044683B0454803F04FFD00285E
:1024C40057DD002604F140091BE0A36BD4F83C80DF
:1024D4004B4508F1010714BF226C0F22974209D91A
:1024E40000230122414604F1380000921A4617F0F5
:1024F4001BFAA36B03F808500022A36BE763DA55B9
:102504000136334803F02AFD864232DA304803F0BC
:1025140039FDC5B2612D84F8505019D07C2DD4D129
:10252400676D5FB3012F3BD0022FCED1A06B00218A
:1025340038F0EAFB636D0021E26B581C254B0091D7
:10254400606504F1380084ED080B17F033FBD7E71E
:10255400A06B002138F0D8FB0023E26B04F13800B3
:102564006365194600931B4B84ED060B17F022FBA1
:10257400C6E79FED150B03B0BDE8F0833946A06BA9
:1025840038F0C2FB636DE26B3946581C0097114B5F
:10259400606504F1380084ED040B17F00BFBAFE722
:1025A400A06B002138F0B0FB636D0021E26B581C76
:1025B400084B0091606504F1380084ED020B17F0BC
:1025C400F9FA9DE7AFF3008000000000000000006E
:1025D400D46B00209446002070B5044600252DEDF0
:1025E400028B2046FFF764FF2668216B626B6368E9
:1025F40094ED044B94ED025B94ED066BBDEEC44B7D
:10260400BDEEC55BBDEEC66B14EE100A94ED087BFF
:10261400705115EE100ABDEEC77B485116EE101A24
:10262400515117EE102A5A510435282DD9D106F1EB
:10263400280506223046B6EE008A2946FFF79EFE9C
:1026440029463046FFF7E4FD22680D214848156904
:102654005369EB1807EE103AB8EEC77A27EE087AFA
:10266400B7EEC77A84ED047B05F090FF0221414860
:1026740094ED040B04F044F83E4803F0DBFF656876
:10268400062205F1280628463146FFF777FE314633
:102694002846FFF7BDFD62680B2137481569536969
:1026A400EB1807EE103AB8EEC77A27EE087AB7EEC1
:1026B400C77A84ED087B05F069FF02212D4894ED6B
:1026C400080B04F01DF82B4803F0B4FF256B062219
:1026D40005F1280628463146FFF750FE31462846C4
:1026E400FFF796FD226B0C21244815695369EB18FA
:1026F40007EE103AB8EEC77A27EE087AB7EEC77A33
:1027040084ED027B05F042FF02211A4894ED020B8E
:1027140003F0F6FF174803F08DFF656B062205F101
:10272400280628463146FFF729FE28463146FFF79A
:102734006FFD626B0B21124815695369EB1807EEA4
:10274400103AB8EEC77A27EE087AB7EEC77A84ED66
:10275400067B05F01BFF0221064894ED060B03F0EF
:10276400CFFF044803F066FFBDEC028B70BD00BFD1
:1027740060450020C46B0020704500207C4500208B
:102784008C4500200022826680F86C200274704719
:1027940070B516464A1D04460CBF03F1B4050D4638
:1027A400B5F5B47FC8BFA5F5B4752DED108B9FEDBD
:1027B40096CB07EE905A82B0B0EE41ABB8EEE78B01
:1027C40021EE0C7B9FED929B8DED000B87EE09DBD8
:1027D400B0EE4D0B31F0DCFAB0EE40EB84ED060BBD
:1027E400B0EE4D0B31F084FA28EE0C6BB0EE40DB0A
:1027F40084ED080B86EE09BBB0EE4B0B31F0C8FA42
:10280400B0EE40FB84ED0A0BB0EE4B0B31F070FAE6
:10281400B0EE407B3EEE0F0B3DEE071B84ED0C7BD0
:1028240084ED160B84ED181B31F002FB20EE090B2E
:1028340080EE0C7BB5EEC07BF1EE10FA00F1D8808F
:102844009FED756B84ED007BB4EEC67BF1EE10FA60
:102854001BDC9FED736BB4EEC67BF1EE10FA14D45F
:10286400002E46D19FED707B9DED006BB4EEC76BDF
:10287400F1EE10FA00F1A58094F86C30002B3CD0F6
:102884000022774BC4E900233AE09FED691B94EDE5
:10289400187B94ED166B9FED680B27EE017B9FED83
:1028A400685B84ED101BA6EE007B84ED0E0B84EDBB
:1028B400145B87EE056B84ED127B26EE000B26EE8F
:1028C400011B84ED160B84ED181B31F0B1FA9FED5A
:1028D400507B9FED4D6B20EE070B80EE067BB5EE33
:1028E400C07BF1EE10FA00F1888084ED007B002EAD
:1028F400B8D094F86C30002B71D1A36E0133A36669
:102904003AEE487B9FED426BB5EEC07BF1EE10FAD8
:10291400D8BFB1EE477BB4EEC67BF1EE10FA03DD0F
:102924009FED496B36EE477B9FED396B84ED1C7B45
:10293400B4EEC67BF1EE10FA06DD9FED456BB4EE06
:10294400C67BF1EE10FA39D49FED316BB4EEC67B41
:10295400F1EE10FA2BD9002323741021414805F01D
:1029640015FE0221404894ED000B03F0C9FE3E48D9
:1029740003F060FE0C213D4805F008FEB0EE4A0B62
:102984000221394803F0BCFE374803F053FE0C2102
:10299400374805F0FBFD2946334803F0A3FE3248CF
:1029A40002B0BDEC108BBDE8704003F043BE9FED58
:1029B4002A6BB4EEC67BF1EE10FACCDD012323744E
:1029C400CBE7A26E44F620639A427FF755AF01210C
:1029D4000022234B84F86C10C4E9002390E7002301
:1029E40000201F4984F86C30A366C4E9000187E71E
:1029F4009FED156B37EE067B22E79FED136B37EEE9
:102A0400067B84ED007B72E700000060FB21094037
:102A1400000000000080664000000000008071405B
:102A240000000000000054400000000000C082408C
:102A3400CCCE72CFA57767BEF7FFFFFFFFFFEF3F56
:102A4400FFFFFFFFFFFFEF3F000000000080764024
:102A54000000000000806740000000000080654026
:102A64000080664098450020C46B0020AC450020DF
:102A7400BC45002010B5054C204606F035F920462B
:102A8400034A0449BDE8104005F008BF50960020F1
:102A9400686B0020E56B000030B4002400250022A0
:102AA4000121C0E90645C0E90845C16082600261B0
:102AB400426130BC704700BFB9EE047B10B5B4EE80
:102AC400470B82B004460192F1EE10FA7DD09FEDDF
:102AD400D27BB4EEC70BF1EE10FA03DD9FEDD07B91
:102AE40030EE470BB2EE047BB4EEC70BF1EE10FAF6
:102AF40020D4BAEE047BB4EEC70BF1EE10FA28DD55
:102B0400B8EE007BB4EEC70BF1EE10FA21D50A390A
:102B140007EE901A9FEDC26BB8EEE77BB4EEC67B6E
:102B240084ED007BF1EE10FA2FDD37EE467B84ED69
:102B3400007B50E0B0EE007BB4EEC70BF1EE10FA70
:102B4400D7DD0A3107EE901AB8EEE77B84ED007BFF
:102B540014E0B3EE097BB4EEC70BF1EE10FA1ED508
:102B6400B2EE047BB4EEC70BF1EE10FA17DB1931A9
:102B740007EE901AB8EEE77B84ED007B9FEDA86B1F
:102B8400B4EEC67BF1EE10FACFDCB5EEC07BF1EE0D
:102B940010FA20D537EE067B84ED007B1BE0BBEEFC
:102BA400097BB4EEC70BF1EE10FA24DDBAEE047B18
:102BB400B4EEC70BF1EE10FA1DD8193907EE901ACE
:102BC400B8EEE77B84ED007BD8E707EE902AB8EEF9
:102BD400E77B80ED007B0D21AB4805F0D7FC02219B
:102BE400AA4894ED000B03F08BFDA84802B0BDE8A1
:102BF400104003F01FBD9FED8C7BB4EEC70BF1EECC
:102C040010FA06D5B3EE097BB4EEC70BF1EE10FA59
:102C140056DA9FED877BB4EEC70BF1EE10FA06DDB2
:102C2400BBEE097BB4EEC70BF1EE10FA50D99FED61
:102C3400827BB4EEC70BF1EE10FA0ED59FED7A7BD2
:102C4400B4EEC70BF1EE10FA07DB2D3107EE901A44
:102C5400B8EEE77B84ED007B90E79FED797BB4EEE3
:102C6400C70BF1EE10FA0EDD9FED717BB4EEC70BCE
:102C7400F1EE10FA07D82D3907EE901AB8EEE77B7B
:102C840084ED007B7AE79FED707BB4EEC70BF1EE29
:102C940010FA25D49FED6E7BB4EEC70BF1EE10FA5B
:102CA4002DDD9FED677BB4EEC70BF1EE10FA26D84D
:102CB400373907EE901AB8EEE77B84ED007B5DE7C9
:102CC400233107EE901AB8EEE77B84ED007B55E7DD
:102CD400233907EE901AB8EEE77B84ED007B4DE7CD
:102CE4009FED557BB4EEC70BF1EE10FAD2DB373112
:102CF40007EE901AB8EEE77B84ED007B3EE79FED8C
:102D0400567BB4EEC70BF1EE10FA0ED59FED4E7B59
:102D1400B4EEC70BF1EE10FA07DB413107EE901A5F
:102D2400B8EEE77B84ED007B28E79FED4D7BB4EEA6
:102D3400C70BF1EE10FA0EDD9FED457BB4EEC70B29
:102D4400F1EE10FA07D8413907EE901AB8EEE77B96
:102D540084ED007B12E79FED447BB4EEC70BF1EEEC
:102D640010FA0ED59FED3C7BB4EEC70BF1EE10FAD2
:102D740007DB4B3107EE901AB8EEE77B84ED007B5E
:102D8400FCE69FED3B7BB4EEC70BF1EE10FA0EDDD3
:102D94009FED337BB4EEC70BF1EE10FA07D84B3935
:102DA40007EE901AB8EEE77B84ED007BE6E69FED34
:102DB400327BB4EEC70BF1EE10FA0ED59FED2A7BF1
:102DC400B4EEC70BF1EE10FA07DB553107EE901A9B
:102DD400B8EEE77B84ED007BD0E69FED297BB4EE73
:102DE400C70BF1EE10FA0EDD9FED217BB4EEC70B9D
:102DF400F1EE10FA07D8553907EE901AB8EEE77BD2
:102E040084ED007BBAE607EE901AB8EEE77B84ED1A
:102E1400007BB3E6AFF30080000000000080664052
:102E24000000000000807640000000000080414067
:102E340000000000008041C0000000000080464007
:102E440000000000008046C00000000000804B40ED
:102E54000000000000804BC0000000000040504013
:102E640000000000004050C00000000000C05240BC
:102E74000000000000C052C00000000000405540A7
:102E840000000000004055C0CC450020C46B002069
:102E940038B50446002501232C3040F8103C257633
:102EA40084F8205000F078F90022054B29460E20C2
:102EB400C4E90023C4E9042303F018FF204638BD05
:102EC4000000F0BF00000000B1EE067B90ED020BA5
:102ED40010B52DED028B9FED2C8B20EE070B0446D5
:102EE40030F0AAFF20EE088BB7EE006B94ED007B68
:102EF400B4EE468B9FED265BF1EE10FAB4EEC57B83
:102F0400C8BFB0EE468BF1EE10FA03DD9FED226BE5
:102F140036EE477B9FED220B27EE000B30F08CFF43
:102F24000D212548B7EE003BBFEE005B9FED1E7BF5
:102F34009FED1F4B94ED006B20EE070B9FED147B70
:102F4400B4EE440BF1EE10FAB4EEC76BC8BFB0EEAA
:102F5400440BF1EE10FA28EE008BD8BFB0EE435BC1
:102F6400A5EE086B84ED046B05F010FB02211348F9
:102F740094ED040B03F0C4FB1048BDEC028BBDE8D8
:102F8400104003F057BB00BF00000040E17A943FBB
:102F940000000000008066400000000000807640D1
:102FA400000000A09999C93F00000040E17AB43FB5
:102FB4000000000000805640F4450020C46B00204F
:102FC400F8B5002300F12C0504462DED048B80F8A0
:102FD4002030284600F0A2F9021F00F15C01C4F879
:102FE400A8009FED517BB0EE476B84ED027B52F855
:102FF400043FC3F5806307EE903A1360B8EEE77BB5
:10300400B4EEC67BF1EE10FA03DDB0EE476B84ED4F
:10301400027B8A42EBD19FED467BFDEEC65B26EE3A
:10302400076B15EE903AC4ED095A7C2B84ED026BC4
:1030340002DD012384F82030284640F2262700F0E0
:1030440069F90646284600F067F9656A00233246A6
:10305400963DD4F8A8101E4602F1C00EBD42A1F15F
:103064000401A3629C46A8BF3D469FED2F8BB0EEA2
:10307400489B0DE09FED2C7BC1F800C0B2EC025BD5
:10308400B0EC026B9645A5EE079BA6EE078B0CD021
:1030940051F8043FAB42EDDBA76A01363B44A3621F
:1030A400D1ED007AB8EEE77BE8E7A36A0A21284865
:1030B40093FBF6F6A66205F069FAA16A254803F0C7
:1030C40011FB244803F0B6FAB0EE481BB0EE490BEE
:1030D40030F0AEFE9FED187B9FED196B20EE070BD1
:1030E40080EE067BB5EEC07BF1EE10FA03D59FEDC2
:1030F400166B37EE067B0C21174884ED007B05F038
:1031040045FA0221134894ED000B03F0F9FA114833
:1031140003F090FA2046BDEC048BBDE8F840FFF7BD
:10312400D3BE00BFAFF30080000000000000000029
:10313400000000000000503F0000000000806640D6
:1031440000000060FB210940000000000080764080
:1031540004460020C46B00201046002010B509214D
:1031640004460B4805F012FA0E2003F083FB0146D7
:10317400084803F0B7FA074803F05CFA0E2003F09E
:1031840079FB8B28D4BF01230023237610BD00BF15
:1031940020460020C46B00202DE9F0470A2307468F
:1031A40001254FF00B0A4FF00C094FF00D080026D3
:1031B4006022574910300F242DED088B00F80EAC17
:1031C400B7EE00BB00F809ACBB71FB727D71BD7238
:1031D40087F80CA087F8039087F8089087F80D907B
:1031E40087F8048087F8098087F80E8003F0C6FD0D
:1031F400294630463E707E7003F078FD2946B87843
:1032040003F074FD3146F87803F070FD29463879EF
:1032140003F06CFD2946787803F05CFD29462846C6
:103224007E71BD7187F807A087F8089087F8098038
:1032340003F05CFD2946F87903F058FD3146387AED
:1032440003F054FD2946787A03F050FD2946B879F5
:1032540003F040FD02232946BE721846FB7287F82C
:103264000CA087F80D9087F80E8003F03FFD2946E7
:10327400387B03F03BFD3146787B03F037FD29466C
:10328400B87B03F033FD2946F87A03F023FD602070
:1032940003F010FEB867C02003F00CFE3867C020AE
:1032A40003F008FE3E6F054678679FED130B9FED14
:1032B40014AB9FED159B12E007EE904A0F34B8EE65
:1032C400E77B27EE0A7B87EE098BB0EE480B30F0E4
:1032D4000FFDB0EE40BBB0EE480B30F059FDB4F535
:1032E400B47FA6EC02BBA5EC020BE5D1BDEC088BC8
:1032F4003846BDE8F08700BF000000000000000071
:1033040000000060FB2109400000000000806640CE
:1033140048040020006F7047406F70472DE9F04F5C
:10332400044683B0DFF8F881002500F10C0619E0AB
:10333400032B00F01381012B2AD00023A26F29460E
:10334400754842F82530013503F0CCF9A06F436B82
:10335400C26B9B1848BF0133182D4FEA6303836384
:1033640000F0338256F8043F6C4A013B1A40002AAD
:10337400C0F28F81002BB8BF0733DB100133022B5F
:10338400D6D1D3B2072B40F289814FF0FF33D5E772
:10339400D1B20729F9D8120121788DF8043002F44A
:1033A4007F6262F07F028DF80520002900F0908290
:1033B40098F81330002B3CD072B6594BDA7CD707FF
:1033C400134607D557485649076849693940544F49
:1033D400B9620160900709D55349D8F818200868E4
:1033E40098F813300240C8F82C200A60590709D510
:1033F4004E49D8F81C20086898F813300240C8F8E1
:1034040030200A601A0709D54949D8F820200868ED
:1034140098F813300240C8F834200A60DB0607D558
:10342400444AD8F8243011680B40C8F83830136087
:1034340062B6D8F80830404A934200F0B2823F4B5B
:103444003D499B693E4AC8F80810C3F30111C3F310
:10345400826352F821200133B2FBF3F2394BA3FB10
:1034640002139B0C40F08482C8F80C30D8F800207A
:1034740000214FF0030E072701201161C2F824E058
:10348400136417661061607803F024FCD8F80020F8
:1034940001A90DEB07000B785366D36D13F4F81FE5
:1034A400FBD0536F01F8013B8842F4D101216078CD
:1034B40003F010FC98F813301A461BB3D90703D550
:1034C400D8F82800204908609F0705D5D8F82C10A3
:1034D4001E4B98F813201960500705D5D8F8301002
:1034E4001B4B98F813201960110705D5D8F8343010
:1034F400184998F813200B60D30603D5D8F8383050
:10350400154A13609DF805209DF8063043EA02230E
:10351400C3F3090312E700BFC46B00200700008057
:10352400746B002080E100E084E100E088E100E0C9
:103534008CE100E090E100E07099140000C00F40BD
:10354400043D00203BD4B53100E100E004E100E09B
:1035540008E100E00CE100E010E100E0D3B2072B49
:103564003FF613AF13010127A17A03F47F638DF8AB
:10357400047063F07F038DF80530002900F0288182
:1035840098F81330002B3CD072B6B14BDA7CD007DC
:10359400134607D5AF48AE49076849693940AC4F6F
:1035A400B9620160910709D5AB49D8F818200868B9
:1035B40098F813300240C8F82C200A605A0709D53D
:1035C400A649D8F81C20086898F813300240C8F8B7
:1035D40030200A601F0709D5A149D8F820200868BF
:1035E40098F813300240C8F834200A60D80607D58A
:1035F4009C4AD8F8243011680B40C8F8383013605E
:1036040062B6D8F80830984A934200F0CD81974BBF
:1036140095499B69964AC8F80810C3F30111C3F38E
:10362400826352F821200133B2FBF3F2914BA3FBE6
:1036340002139B0C40F09181C8F80C30D8F800209C
:1036440000214FF0030E072701201161C2F824E086
:10365400136417661061E07A03F03CFBD8F800208D
:1036640001A90DEB07000B785366D36D13F4F81F13
:10367400FBD0536F01F8013B8842F4D10121E07A79
:1036840003F028FB98F813301A46002B7FF416AF8A
:1036940038E7013A62F0070201326BE613010127B1
:1036A400617903F47F638DF8047063F07F038DF810
:1036B4000530002900F0C28098F81330002B3CD06C
:1036C40072B6634BDA7CD707134607D56148604965
:1036D4000768496939405E4FB9620160900709D5AE
:1036E4005D49D8F81820086898F813300240C8F8E3
:1036F4002C200A60590709D55849D8F81C200868B5
:1037040098F813300240C8F830200A601A0709D527
:103714005349D8F82020086898F813300240C8F8B4
:1037240034200A60DF0607D54E4AD8F824301168E1
:103734000B40C8F83830136062B6D8F808304A4AEB
:10374400934200F02B81494B47499B69484AC8F88A
:103754000810C3F30111C3F3826352F8212001332B
:10376400B2FBF3F2434BA3FB02139B0C40F00B811F
:10377400C8F80C30D8F8002000214FF0030E0727BA
:1037840001201161C2F824E0136417661061A07966
:1037940003F0A0FAD8F8002001A90DEB07000B787C
:1037A4005366D36D13F4F81FFBD0536F01F8013B3C
:1037B4008842F4D10121A07903F08CFA98F81330EF
:1037C4001A46002B7FF47AAE9CE603B0BDE8F08F76
:1037D400E07A0DF10409BA4603F07CFA4FF0070BC6
:1037E4000DE01F4389F800700BF1FF3B0021A07B23
:1037F40003F070FABBF1FF3F18D099F8007047FA54
:103804000BF1207B01F0010103F064FA0121A07B9C
:1038140003F060FA607B03F063FA0AFA0BF3002802
:10382400DFD127EA030789F80070DDE70DF106030D
:103834004B4500F0838019F8017FCFE7A0790DF1A3
:103844000409BA4603F046FA4FF0070B22E000BF22
:10385400746B002080E100E084E100E088E100E096
:103864008CE100E090E100E07099140000C00F408A
:10387400043D00203BD4B5311F4389F800700BF19F
:10388400FF3B0021607A03F025FABBF1FF3F18D01B
:1038940099F8007047FA0BF1E07901F0010103F0A7
:1038A40019FA0121607A03F015FA207A03F018FA64
:1038B4000AFA0BF30028DFD127EA030789F800701E
:1038C400DDE70DF106034B453DD019F8017FBBE759
:1038D40060781F460DF104099A4603F0FBF94FF096
:1038E400070B0DE01F4389F800700BF1FF3B00212B
:1038F400207903F0EFF9BBF1FF3F18D099F800707D
:1039040047FA0BF1A07801F0010103F0E3F901217A
:10391400207903F0DFF9E07803F0E2F90AFA0BF317
:103924000028DFD127EA030789F80070DDE70DF1ED
:1039340006034B450CD019F8017FD0E70121E07A4A
:1039440003F0C8F9DEE50121A07903F0C3F9D9E554
:103954000121607803F0BEF9D4E5B2FBF3F2274904
:103964008A4288BF0133B3F5817F24D3244B63E6B5
:10397400B2FBF3F221498A4288BF0133B3F5817F58
:103984001DD31F4B70E5B2FBF3F21C498A4288BF7A
:103994000133B3F5817F0AD3194BE9E6D8F80C302B
:1039A400E8E6D8F80C3061E5D8F80C3046E6022B8E
:1039B40009D80023DCE6022B0ED800233CE6022BB8
:1039C40013D8002350E5023B59080A0443EA0123B3
:1039D40002F47F021343CBE6023B59080A0443EA8C
:1039E400012302F47F02134326E6023B59080A042A
:1039F40043EA012302F47F02134335E5709914006E
:103A0400FF7F7F0010B50446602003F053FA4FF0A7
:103A1400FF31031F00F15C02206043F8041F93424E
:103A2400FBD1204610BD00BF10B404680439231F25
:103A34005C3453F8040F51F8042F9042B8BF1A6055
:103A4400A342F6D15DF8044B704700BF704700BF36
:103A540070B586B0114B28224FF0FF31044602F0B6
:103A640025F80E4B2822372101A802F01FF89DF8F3
:103A74000860039D2046049A0C219DF81430267199
:103A8400A560E260237402F03FF800B9FEE7204627
:103A9400012102F0DFF8204606B070BD946C0020CE
:103AA40010B5044600F1140102F0A6F9D4ED0A7A27
:103AB400FDEEE77A17EE900A10BD00BF70B4002146
:103AC4004FF0FF320024084D4FF4806680F8581000
:103AD4000170466080F86010826002618264C0E90F
:103AE400064570BC704700BF0000F0BFF8B504463F
:103AF4004FF0FF364FF4806E0027A266151FC4F8FE
:103B040004E0184684F8587004395C326366B6469B
:103B14000127A66010E0C0F800E0A368013307DACB
:103B24004FF0FF33A3600368002BA8BF84F85870DC
:103B3400954200F1040011D055F8046F51F8043F88
:103B44009E42E8DB036866689E4203DD5E1C01D08A
:103B540063600368A6689E42E6DAE3E709211F482A
:103B640004F014FD61681E4802F0BCFD1C4802F01C
:103B740061FD0A211B4804F009FDA168184802F000
:103B8400B1FD174802F056FDA2686168531AB42BC0
:103B9400E36018DDC3F5B473E360002BB8BF0133F1
:103BA40002EB6303B3F5B47F13DA23610D210E48EE
:103BB40004F0ECFC21690A4802F094FD0848BDE8D1
:103BC400F84002F037BD002BB8BF013301EB6303AB
:103BD400EBE7A3F5B4732361E8E700BF2C460020AC
:103BE400C46B00203846002044460020000000003A
:103BF400C368002BB8BF01335B1007EE103A9FED8A
:103C04000C6BB8EEC77B9FED0C0B27EE067B10B553
:103C140087EE000B044630F0BBF8B6EE007B20EED6
:103C2400070B30EE000B84ED060B10BDAFF30080E4
:103C340000000060FB210940000000000080664095
:103C440090F8583053B900220023C0E90A23C0E990
:103C54000E23C0E91023C0E90C23704730B5456D2D
:103C64000446A5F1280300EE103A2DED0A8BB8EEB8
:103C7400C00B85B09FED489B9FED498B20EE090B4F
:103C840080EE080B30F084F8A5F18203B0EE40CB4F
:103C940000EE103AB8EEC00B20EE090B80EE080BD4
:103CA40030F076F8A5F1E603B0EE40BB00EE103A32
:103CB400B8EEC00B20EE090B80EE080B30F068F86C
:103CC400A5F59B73B0EE40AB00EE103AB8EEC00B16
:103CD40020EE090B80EE080B30F05AF8B5EEC0CB9D
:103CE400F1EE10FA46DDB5EEC00BB0EE4C6BF1EE22
:103CF40010FA46DDB0EE407BB4EE476BF1EE10FAFD
:103D0400B5EEC0BBA8BFB0EE467BF1EE10FA3EDDC7
:103D1400B0EE4B6BB5EEC00B8DED006BF1EE10FA0F
:103D240032DDB0EE405BB4EEC56B8DED025BF1EEBF
:103D340010FA1DDAB0EE456B02ABB4EEC76BF1EED0
:103D440010FA01D993ED007B8CEE073B8BEE074B09
:103D54008AEE075B80EE076B84ED0A3B84ED0E4B25
:103D640084ED105B84ED0C6B05B0BDEC0A8B30BDAB
:103D74006B46E2E7B5EEC00BB1EE4C6BF1EE10FA18
:103D8400B8DCB1EE407BB7E7B1EE405BCBE7B1EE18
:103D94004B6BBFE7AFF3008000000060FB210940DC
:103DA400000000000080664070B5164604461A46BE
:103DB4000D46049B3146FFF799FE94F85830BBB981
:103DC4002178002940F0C480002200234FF0FF3006
:103DD400217084F85910A0646065C4E90823C4E91B
:103DE4000A23C4E90E23C4E91023C4E90C2370BDDB
:103DF400A36C0022092166480133236984F86020FA
:103E040008BFA364E36404F0C1FBA16C614802F041
:103E140069FC604802F00EFC0A215F4804F0B6FB1E
:103E2400E16C5C4802F05EFC5A4802F003FCE36C6F
:103E3400A26CA3649B1A002BB8BF5B42B42B23650E
:103E440002DDC3F5B47323650721544804F09EFBD7
:103E5400216D504802F046FC4E4802F0EBFB236D06
:103E6400653B4F2B237854D9002B56D1236903F19A
:103E7400B402B2F5B47F64DA62652046FFF7B8FE97
:103E840094ED067B84ED087B216900220023002643
:103E940001F15A0084F85960B0F5B47FC4E90A23EB
:103EA400C4E90E23C4E91023C4E90C235CDCE065F7
:103EB400B5EEC07BF1EE10FA06DDB6EE006BB4EEA3
:103EC400C67BF1EE10FA53D4B6EE006BB4EEC67BAB
:103ED400F1EE10FA03DB29462046FFF7B1FE0C2170
:103EE4002F4804F053FB616D2A4802F0FBFB29487C
:103EF40002F0A0FB0E212B4804F048FB02212548C8
:103F040094ED080B02F0FCFB2248BDE8704002F07F
:103F140091BB13B90122236522702369204663658E
:103F2400FFF766FEB0EE007B236D94ED066B653BF8
:103F340037EE467B4F2B84ED087B05D80023237096
:103F440094E7B43B636598E72378002B9CD18DE715
:103F540001224FF0FF332946204684F86020A364F1
:103F6400BDE87040FFF76CBEA1F58771E1659FE77E
:103F7400012312210C4884F8593004F007FBE16D49
:103F8400044802F0AFFB034802F054FBA7E700BF6C
:103F940054460020C46B0020604600206C4600207C
:103FA4008846002098460020744600202DE9F047FA
:103FB4000A23044601254FF00B094FF00C080D2786
:103FC4004FF0600A05724573183052466372A3734A
:103FD4000026E3743849A57484F80A9084F80F9095
:103FE40084F8149084F80B8084F8108084F8158089
:103FF40027736774A77502F0C1FE504602F05AFF9A
:104004001723206029461846637284F80A9084F8BE
:104014000B802773267202F069FE2946A07A02F00B
:1040240065FE3146E07A02F061FE2946207B02F00B
:104034005DFE2946607A02F04DFE1623294666731A
:104044001846A37384F80F9084F81080677402F004
:104054004DFE2946E07B02F049FE3146207C02F009
:1040640045FE2946607C02F041FE2946A07B02F011
:1040740031FE1523294684F814901846E374A67477
:1040840084F81580A77502F031FE2946207D02F0E0
:104094002DFE3146607D02F029FE2946A07D02F006
:1040A40025FE2946E07C02F015FE504602F002FF90
:1040B40060602046BDE8F087A80400204068002323
:1040C400021F42F8043F0F33B3F5B47FF9D17047B0
:1040D4002DE9F04F00F1740385B06FF01708044622
:1040E400694F00F114050193C0EB08080DE0032BA0
:1040F40000F0EA80012B1ED000232068421942F808
:104104000830019B9D4200F0F28155F8043F5F4A5C
:10411400013B1A40002AC0F26081002BB8BF07336C
:10412400DB100133022BE2D1D3B2072B40F25A81C8
:104134004FF0FF33E1E7D1B20729F9D81201217A10
:104144008DF80C3002F47F6262F07F028DF80D204E
:10415400002900F05082FB7C002B31D072B64A4B10
:10416400DA7CD607134607D54948474906684969A2
:104174003140454EB1620160900706D54549BA69A0
:104184000868FB7C0240FA620A60590706D5424976
:10419400FA690868FB7C02403A630A601A0706D58C
:1041A4003E493A6A0868FB7C02407A630A60DB068F
:1041B40005D53B4A7B6A11680B40BB63136062B64A
:1041C400BB68384A934200F07E82374B35499B697D
:1041D400364AB960C3F30111C3F3826352F8212054
:1041E4000133B2FBF3F2324BA3FB02139B0C40F0FE
:1041F4005282FB603A6800214FF0030E012007262B
:104204001161C2F824E0136416661061607A02F04A
:1042140061FD3A6803A90DF10F000B785366D36D65
:1042240013F4F81FFBD0536F01F8013B8842F4D11B
:104234000121607A02F04EFDFB7C1A46DBB1D907FE
:1042440002D5B86A1B4908609E0703D5F96A1A4B60
:10425400FA7C1960500703D5396B184BFA7C196046
:10426400110703D57B6B1649FA7C0B60D30602D584
:10427400BB6B144A13609DF80D209DF80E3043EA81
:104284000223C3F3090338E7746B0020070000809E
:1042940080E100E084E100E088E100E08CE100E0FE
:1042A40090E100E07099140000C00F40043D00202C
:1042B4003BD4B53100E100E004E100E008E100E0B6
:1042C4000CE100E010E100E0D3B2072B3FF630AF81
:1042D4001301A17C012203F47F638DF80C2063F0A9
:1042E4007F038DF80D30002900F00481FB7C002B46
:1042F40031D072B69F4BDA7CD007134607D59E485F
:104304009C490668496931409A4EB162016091073F
:1043140006D59A49BA690868FB7C0240FA620A60C9
:104324005A0706D59649FA690868FB7C02403A6345
:104334000A601E0706D593493A6A0868FB7C024066
:104344007A630A60D80605D58F4A7B6A11680B40E8
:10435400BB63136062B6BB688C4A934200F0B581BC
:104364008B4B8A499B698B4AB960C3F30111C3F330
:10437400826352F821200133B2FBF3F2864BA3FB94
:1043840002139B0C40F07C81FB603A6800214FF0E3
:10439400030E012007261161C2F824E01364166697
:1043A4001061E07C02F096FC3A6803A90DF10F005D
:1043B4000B785366D36D13F4F81FFBD0536F01F8D9
:1043C400013B8842F4D10121E07C02F083FCFB7CB8
:1043D4001A46002B7FF433AF4DE7013A62F007022F
:1043E40001329AE61301617B012203F47F638DF8A5
:1043F4000C2063F07F038DF80D30002900F0B180AC
:10440400FB7C002B31D072B65A4BDA7CD6071346AC
:1044140007D559485749066849693140554EB16234
:104424000160900706D55549BA690868FB7C0240CB
:10443400FA620A60590706D55149FA690868FB7C93
:1044440002403A630A601A0706D54E493A6A086878
:10445400FB7C02407A630A60DE0605D54A4A7B6A21
:1044640011680B40BB63136062B6BB68474A934252
:1044740000F02781464B45499B69464AB960C3F31E
:104484000111C3F3826352F821200133B2FBF3F22A
:10449400414BA3FB02139B0C40F00881FB603A687C
:1044A40000214FF0030E012007261161C2F824E019
:1044B400136416661061A07B02F00CFC3A6803A931
:1044C4000DF10F000B785366D36D13F4F81FFBD076
:1044D400536F01F8013B8842F4D10121A07B02F023
:1044E400F9FBFB7C1A46002B7FF4A9AEC3E605B0AA
:1044F400BDE8F08FE07C934603AE924602F0EAFBFF
:104504004FF007090EE04BEA030B86F800B009F1FF
:10451400FF390021A07D02F0DDFBB9F1FF3F18D087
:1045240096F800B04BFA09F1207D01F0010102F088
:10453400D1FB0121A07D02F0CDFB607D02F0D0FB18
:104544000AFA09F30028DED12BEA030B86F800B03F
:10455400DDE70DF10E03B34200F0838016F801BFCE
:10456400CEE7A07B934603AE924602F0B3FB4FF036
:10457400070922E0746B002080E100E084E100E0A0
:1045840088E100E08CE100E090E100E07099140023
:1045940000C00F40043D00203BD4B5314BEA030B6F
:1045A40086F800B009F1FF390021607C02F092FB2B
:1045B400B9F1FF3F18D096F800B04BFA09F1E07B4F
:1045C40001F0010102F086FB0121607C02F082FB14
:1045D400207C02F085FB0AFA09F30028DED12BEADD
:1045E400030B86F800B0DDE70DF10E03B3423DD0B6
:1045F40016F801BFBBE7607A9B4603AE9A4602F009
:1046040069FB4FF007090EE04BEA030B86F800B094
:1046140009F1FF390021207B02F05CFBB9F1FF3F77
:1046240018D096F800B04BFA09F1A07A01F0010114
:1046340002F050FB0121207B02F04CFBE07A02F0F7
:104644004FFB0AFA09F30028DED12BEA030B86F8A4
:1046540000B0DDE70DF10E03B3420CD016F801BF34
:10466400CFE70121E07C02F035FB04E60121A07BC9
:1046740002F030FBFFE50121607A02F02BFBFAE542
:10468400B2FBF3F225498A4288BF0133B3F5817F37
:1046940021D3234B78E6B2FBF3F220498A4288BF48
:1046A4000133B3F5817F1AD31D4BA2E5B2FBF3F2BC
:1046B4001A498A4288BF0133B3F5817F07D3184B67
:1046C400ECE6FB68EBE6FB6894E5FB685DE6022B31
:1046D40009D80023E2E6022B0ED8002354E6022B6D
:1046E40013D8002385E5023B59080A0443EA012351
:1046F40002F47F021343D1E6023B59080A0443EA59
:10470400012302F47F0213433EE6023B59080A04E4
:1047140043EA012302F47F0213436AE5709914000B
:10472400FF7F7F00704700BF704700BF704700BF26
:1047340010B50446406904F11C03984201D002F00C
:10474400BBFB204610BD00BF10B50446806B04F1CE
:104754004003984201D002F0AFFB204610BD00BFD9
:1047640008B500224FF496410D4801F0BFFC002229
:104774004FF416510B4801F0B9FC0221092002F054
:10478400B5FA01210A2002F0B1FA00210A2002F050
:10479400A1FA02212420BDE8084002F0A7BA00BF14
:1047A400D46B0020346C00202DE9F043624E337A40
:1047B4002DED028B83B0002B62D0604F604D3846E4
:1047C400604CFDF709FF2846FEF7C8FC2846FEF7B3
:1047D400F7FBA96A304600F0B3FE5B4B5B48D3F8A5
:1047E400009095F82080FFF773FC06465748FFF7C2
:1047F40065FC4A460090414633462046FFF7D4FA0A
:10480400DFF8608100230221514888F81030514EAE
:1048140097ED080B01F074FF4D4801F00BFF4E4873
:10482400FFF73EF94D4B014630461A6897ED080BE9
:10483400FEF742F9484895F8207095ED048BFFF790
:104844002FF998F8105007EE900AE36D0095B0EE3A
:10485400480BB8EEE71B394694F85920404894EDCC
:104864000C6B94ED105B94ED0E4B94ED0A3B96EDBE
:10487400002B00F00DFB03B0BDEC028BBDE8F08310
:10488400DFF8B8802E4D40462E4CFDF7A5FE284695
:10489400FEF796FBA96A304600F052FE2A4B2B48DD
:1048A400D3F8009095F82070FFF712FC06462748CD
:1048B400FFF704FC4A460090394633462046FFF78A
:1048C40073FAD4ED177A274EB8EEE70B234F94F81A
:1048D400582030463B6898ED047B95ED001BFDEEB7
:1048E400C77B17EE901AFDF753FF1B4895F82080FD
:1048F40096ED008BFFF7D4F897ED002A07EE900AA7
:10490400357CB8EEC22B4146B8EEE71BE36DB0EE42
:10491400480B94F859201248009594ED0C6B94EDD3
:10492400105B94ED0E4B94ED0A3B00F0B1FA03B02A
:10493400BDEC028BBDE8F083D87E0020F07C002023
:10494400407C0020F87D0020B096002000970020D5
:10495400C46B0020C87D0020B4960020D8740020C9
:10496400687E0020487D00203A4A38B51368012B40
:1049740034DD394D2C68631C33D0022C50D0012C0B
:1049840060D004B138BD0221344803F0FFFD34483F
:1049940001F050FE2146042002F09CF9214621201A
:1049A40002F098F921461D2002F00CFB21461C2040
:1049B40002F008FB2146062002F08CF9214604206F
:1049C40002F088F92146052002F0FCFA2146032072
:1049D40002F0F8FA4FF0FF332B6038BD0133136057
:1049E40038BD204C242002F07BF92060092002F01D
:1049F40077F91D4A236810600BB902232B6030B984
:104A04001A48FFF765FB01461948FFF70DF8152111
:104A1400184803F0BBFD1248BDE8384001F00ABE57
:104A24001548FFF73DF8124A144B116818600B1F24
:104A34005C3153F8042F0A328B421A60F9D10123F6
:104A44002B6038BDFFF7B0FE092002F049F9286059
:104A540038BD00BFBC740020B4740020C0460020E0
:104A6400C46B0020DC740020B87400200097002080
:104A7400B0960020A8460020B4960020D8740020E8
:104A8400F8B5244E244C254D304604F02DF9224629
:104A94002349304603F002FF2846FEF7F9F9214F77
:104AA400224621492846214E03F0F8FE204800F012
:104AB4007BF83846FEF7CCFF22461E49384603F001
:104AC400EDFE1D4D3046FFF771FA22461B49304674
:104AD40003F0E4FE2846FDF7CBFB2246184928469E
:104AE40003F0DCFE1748FDF74DFE174D1748FDF7A0
:104AF400D3FF1748FEF7E2FF284600F069FC224680
:104B04002846144903F0CAFE1348BDE8F840FEF7EE
:104B140079BF00BF54960020686B0020407C0020C1
:104B2400E56B0000B49600200526000000970020E5
:104B3400687E002009260000F07C00200D2600007D
:104B440029260000487D0020D87E0020C87D002052
:104B5400F87D002011260000B0960020000000001F
:104B640091ED007B9FED0C5BB5EEC07BF1EE10FA8E
:104B7400D8BFB1EE477B54BF0123002387EE006BFF
:104B840003609FED077B26EE077B27EE057B81ED17
:104B9400007B7047AFF30080000000606666E63F6C
:104BA4000000000000E06F40F8B504460523212210
:104BB400032123651C201D2306270F260425E266F6
:104BC4006365A1650121E065184627666666A566EA
:104BD40002F08CF894F85800012102F087F894F858
:104BE4005000012102F082F894F85C00012102F0E7
:104BF4007DF894F86000012102F078F894F86C00D4
:104C0400012102F073F894F86400012102F06EF8B7
:104C140094F86800012102F069F80022002320467C
:104C2400C4E91223F8BD00BF10B52DED068B30EE9C
:104C3400418B0221B0EE409B04465948B0EE41AB93
:104C4400B5EEC08BF1EE10FAD8BFB1EE488BB0EEE2
:104C5400480B01F055FD524801F0ECFC9FED467BFA
:104C6400B4EEC78BF1EE10FA03DD9FED457B37EE12
:104C7400488B9FED417BB4EEC7ABF1EE10FA4BD5F8
:104C8400B4EEC79BF1EE10FA46DD9FED3D7B37EEA7
:104C9400499BB1EE499BB4EECA9B9FED3B7BF1EE81
:104CA40010FA9FED350B48BFB1EE488B28EE077B19
:104CB40087EE000B2FF06CF8BAEE007BB4EEC78BD6
:104CC400F1EE10FA04DDB5EEC08BF1EE10FA0BD460
:104CD400B2EE007BB4EEC78BF1EE10FA2DD5B5EE33
:104CE400C08BF1EE10FA28DD00220023C4E9002372
:104CF4000D212C4803F04AFC294801F09BFC0221B9
:104D0400274894ED000B01F0FBFC2548BDEC068B15
:104D1400BDE8104001F08EBC9FED177BB4EEC7AB2D
:104D2400F1EE10FAB7DDB4EEC79BF1EE10FAB2D58E
:104D34009FED137B39EE079BADE79FED157BB4EE3A
:104D4400C78BF1EE10FA0BDC9FED137BB4EEC78B2F
:104D5400F1EE10FA09D50022134BC4E90023C7E78A
:104D64000022124BC4E90023C2E7B1EE400B84EDEC
:104D7400000BBDE7AFF30080000000000080664038
:104D8400000000000080764000000060FB21094024
:104D9400000000000080564000000000008056C063
:104DA400C46B0020C44600200000F03F0000F0BFA8
:104DB40091ED000B38B52DED0C8B9FED2FAB9FEDD6
:104DC400309B04460D4620EE0A0B08EE102A80EEB6
:104DD400090B2EF0DDFFB0EE40CB84ED020B95ED18
:104DE400000B20EE0A0B80EE090B2EF081FFB8EECB
:104DF400C87BB0EE40BB27EE0A7B84ED040B87EE44
:104E040009DBB0EE4D0B2EF0C3FFB0EE408B84ED0A
:104E1400060BB0EE4D0B2EF06BFF2BEE00BB20EE1D
:104E2400006BACEE08BBA8EE086BB0EE407B84EDE3
:104E3400080B84ED0ABB8BEE061B84ED0C6B28EE8D
:104E4400010B27EE011B84ED0E0B84ED101B2EF0DD
:104E5400EFFF20EE090B80EE0A7BB5EEC07BF1EE8E
:104E640010FA03D59FED086B37EE067BBDEC0C8B77
:104E740085ED007B38BD00BF00000060FB210940C8
:104E840000000000008066400000000000807640C2
:104E9400B0EE417BB0EE421B2DE9F0472DED108BB7
:104EA40094B0002500260027914604950595884670
:104EB40006959A46079504469DF8B050B0EE43DB3C
:104EC400B0EE44CBB0EE45EBB0EE46BB8DED020B3D
:104ED400B0EE470BCDE90867CDE90A67CDE90C6769
:104EE400CDE90E67FFF7A0FEB9F1000F40F0328262
:104EF4000E21C94803F04AFB0221C8489DED020B6C
:104F040001F0FEFBC54801F095FB9DED028B9FED82
:104F1400B20B9FEDB3AB9FEDB49B38EE400B20EE8C
:104F24000A7B87EE090B2EF033FFB0EE407B9FED3A
:104F3400B00B8DED087B8DED007B38EE400B20EE41
:104F44000A7B87EE090B2EF023FFB0EE40FB9FEDAA
:104F5400AA0B8DED0CFB38EE400B20EE0A7B87EE9E
:104F6400090B2EF015FF9FEDA66B8DED0E0B38EEA1
:104F7400460B20EE0A7B87EE090B2EF009FFA845AD
:104F84008DED0A0B9DED007B00F29B8100239FEDCC
:104F94009E7B9FED9F5BB0EE47FBB0EE47BBB0EE50
:104FA40047EBB0EE47CBB0EE47DBB0EE470B8DEDF1
:104FB400087B8DED0C7B8DED0E7B8DED0A7B84EDF6
:104FC400007BB1EE406BB4EE465BF1EE10FAB5EE49
:104FD400C0FBA8BFB0EE456BF1EE10FA40F3EF81D1
:104FE400B0EE4F5BB5EEC00B8DED105BF1EE10FA39
:104FF40040F3E281B0EE404BB4EEC45B8DED124B56
:10500400F1EE10FA80F25B81B0EE445B12AAB4EECA
:10501400C65BF1EE10FA01D992ED006BB5EE406B70
:1050240084ED126BF1EE10FA40F069819FED765B2E
:10503400B0EE452BB0EE453BB0EE454B94ED007B16
:1050440037EE044B37EE033B32EE072B35EE075BAE
:105054008DED084B8DED0C3B8DED0E2B8DED0A5B2C
:105064004BB9B5EE40EBF1EE10FA04D1B5EE40BB0E
:10507400F1EE10FA07D08DED08DB8DED0CCB8DED44
:105084000EEB8DED0ABB0B21654803F07FFA02217C
:1050940062489DED080B01F033FB604801F0CAFA49
:1050A40004995E4801F01EFB5C4801F0C3FA0B2131
:1050B4005C4803F06BFA022158489DED0C0B01F09B
:1050C4001FFB564801F0B6FA0699544801F00AFB52
:1050D400524801F0AFFA0B21534803F057FA02216A
:1050E4004E489DED0E0B01F00BFB4C4801F0A2FA6B
:1050F40007994A4801F0F6FA484801F09BFA0B2157
:105104004A4803F043FA022144489DED0A0B01F09A
:10511400F7FA424801F08EFA0599404801F0E2FAA4
:105124003E4801F087FA9DED085B9DED0A7BB5EEE4
:10513400C05BF1EE10FAB5EEC07BD8BFB1EE455BB3
:10514400F1EE10FA40F33581B0EE470BB4EE405B5C
:105154009DED0C6BF1EE10FAB5EEC06BA8BFB0EE8E
:10516400450BF1EE10FAB5EEC07BD8BFB1EE466B3D
:10517400F1EE10FA8DED106BD8BFB1EE477BB4EEB3
:10518400C76B8DED127BF1EE10FA80F29680B0EED3
:10519400476B12ABB4EEC60BF1EE10FA01DA93EDE5
:1051A400000BB5EE400B00220023F1EE10FA84ED63
:1051B400120B40F0D580CDE9082300220023CDE96D
:1051C4000A2300220023CDE90C2300220023CDE989
:1051D4000E232DE0AFF300800000000000004440E7
:1051E40000000060FB2109400000000000806640D0
:1051F40000000000004060400000000000C06C405F
:105204000000000000607340000000000000000087
:105214000000000000000080D4460020C46B002081
:10522400E4460020F0460020FC4600200847002009
:105234009DF8181094F8600001F04CFD9DF81010D2
:1052440094F8640001F046FD94F850009DED0C7B49
:10525400FDEEC77B17EE901A01F0B4FE94F85400EB
:105264009DED087BFDEEC77B17EE901A01F0AAFEB8
:105274009DF8141094F8680001F02CFD9DF81C10A2
:1052840094F86C0001F026FD94F858009DED0A7B1B
:10529400FDEEC77B17EE901A01F094FE94F85C00C3
:1052A4009DED0E7BFDEEC77B17EE901A01F08AFE92
:1052B40014B0BDEC108BBDE8F08710AB6AE710AA00
:1052C400A5E6B5EEC07BF1EE10FAB5EE40DB79DD74
:1052D400B0EE475BF1EE10FAB5EE40CB14BF0123FC
:1052E4000023F1EE10FAB5EEC00B18BF43F0010332
:1052F400F1EE10FA7FF765AEB0EE406B63E687EE31
:10530400064B80EE065B8FEE063B9DED0E7B87EE33
:10531400062BB5EEC04BF1EE10FAB5EEC05B54BFF0
:1053240001220022F1EE10FAB5EEC03B049254BF04
:1053340001220022F1EE10FA059254BF012200224C
:10534400B5EEC02B0692F1EE10FA54BF01220022F2
:10535400079273E6524602A92046FFF729FDC7E5E6
:1053640008A904A8FFF7FCFB94ED120BB5EE400B63
:10537400F1EE10FA3FF421AF0AA905A8FFF7F0FBFC
:1053840094ED120BB5EE400BF1EE10FA3FF419AFA9
:105394000CA906A8FFF7E4FB94ED120BB5EE400B45
:1053A400F1EE10FA3FF411AF0EA907A8FFF7D8FBEE
:1053B4003EE7B1EE470BC9E6B1EE404B1CE6B1EE59
:1053C4004F5B0FE6B1EE475B84E700BF00000000CF
:1053D400D0B5044682B000200D4B04F11C01A0613D
:1053E4000246207761610146009004F1140006A78B
:1053F400D7E90067C4E9006714F0DCFB0123204609
:10540400237202B0D0BD00BF000000000004904031
:105414009446002010B5054C204603F065FC204658
:10542400034A0449BDE8104003F038BA58960020F6
:10543400686B0020E56B00002DE9F041044682B062
:105444002C4800F08BFD002851DD00261DE004F1FE
:105454001C036269D4F818809A4208F1010714BF4A
:10546400E3690F239F4209D901220023414604F135
:10547400140000921A4614F057FA626902F80850B0
:1054840000226369A761DA5501361A4800F066FD07
:1054940086422CDA174800F075FDC5B27C2D2574C0
:1054A4001AD0612DD3D10021606935F02DFCFDEEB9
:1054B400C07B114817EE901AC4ED037A01F012F97B
:1054C4000D4801F0B7F80021A26904F114000B4B58
:1054D400009114F06FFBD7E76069002135F014FCEC
:1054E4000221054884ED000B01F00AF9E8E702B057
:1054F400BDE8F081346C0020C46B00209446002089
:1055040038B50C4C0D460221204601F0F9F8012271
:105514002046094901F078F82946204601F0E2F8CE
:1055240020460122054901F06FF82046BDE83840C5
:1055340001F080B8346C002014470020304D002066
:1055440007EE901A017A10B50446B8EEE70BFFF7A0
:10555400D7FF2046BDE81040FFF76EBF002070471C
:1055640090F8A32090F8A200101A704790F8A23087
:1055740090F8A3209A4205D95A1C034480F8A2202B
:10558400987E70474FF0FF30704700BF90F8A2300C
:1055940090F8A3209A4202D90344987E70474FF0B2
:1055A400FF307047704700BFB0F8303193B190F8C6
:1055B4002F31882B0BD8C21810B45C1C012380F83F
:1055C4002F41184682F8A5105DF8044B704701225C
:1055D400002302711846704738B50546B0F830010B
:1055E40090B195F82F311446C3F1890294420CD836
:1055F40005F1A5002246184401F0C0FB95F82F31AF
:1056040020461C4485F82F4138BD144601222A71D6
:10561400EEE700BF2DE9F04F8346404883B01525DF
:10562400DBF814A09BF818609BF819300AEB0616F7
:105634003B490AEB0313DFF8ECE0367A0C4693F8A7
:1056440028303601DFF8E0901B01871950F80680F6
:1056540000EB030CC658F8687B68DCF80C70009308
:105664001D60C8F88400D8F80430DCF80420034333
:105674000192C8F804301560C6F8847073683B431F
:1056840073600968DEF80030A9FB0332920C02EB68
:105694008202520023685B1A9A42FBD8204A0925E9
:1056A400DFF884C09146D8F80830184202D0B368B5
:1056B4001F4231D1C6F888701468DEF80010ACFBC4
:1056C4000131890C01EB810113681B1B9942FBD842
:1056D400C6F88470D9F80040DEF80010ACFB013144
:1056E400890C01EB810113681B1B9942FBD8013D16
:1056F400D9D128469BF81830009A0AEB0313DB68CB
:1057040013609BF81930019A0AEB031ADAF82C306B
:10571400136003B0BDE8F08F0120EBE724400020C4
:10572400041000E0706B002083DE1B430D49026906
:1057340010B50C6805E0DB0107D40B681B1B102BAC
:1057440008D8536913F0007FF5D14FF4FE430120CC
:10575400536110BD0446FFF75DFF0028F9D02269AC
:10576400F3E700BFCC9700202DE9F04790F82FA174
:10577400BAF1000F02D10420BDE8F08705460E46B9
:10578400FFF7D4FF0028F6D02E4F00244FF4007901
:10579400D7F80080544529691AD8CB6D03F0070364
:1057A400032B09D914E095F8A5200133012442F410
:1057B4008062042B0A660BD02A19002CF3D0A24570
:1057C40027D9013392F8A5200134042B0A66F3D1BA
:1057D4004B69180522D45A0527D4980404D43A688E
:1057E400C8EB0202322A09D90B694FF40072042073
:1057F40043F440730B610A66BDE8F087544505D94C
:10580400CA6D520702D19B0519D4C6B102F044FFF8
:10581400C0E70EB1C1F860900134D9E70B690420E8
:1058240043F440730B61BDE8F0870B694FF40072D9
:10583400022043F440730B610A66BDE8F087002040
:10584400BDE8F087CC9700202DE9F84F0C461546AB
:1058540098468146FFF76AFF10B90420BDE8F88F27
:1058640000226300002D40F2014A1446DBB23D4E93
:1058740008BF0125022C43EA0A0AD6F800B089F8C9
:10588400A22089F8A32048D9D9F8103099F8A32088
:10589400872A12D8D96DC1F3024111B90DE0882AC3
:1058A4000BD002F1010E09EB020001395FFA8EF20E
:1058B40089F8A3201F6F8776F1D15A6910054CD45B
:1058C40012F4105F04D13168CBEB0101322912D9F3
:1058D4001A694FF4007142F440721A611966DA6D64
:1058E40012F4E02F03D01A6942F400721A6199F895
:1058F400A300BDE8F88F99F8A310A94209D3022C9C
:1059040007D9D96D490704D19205E8D4B8F1000F3D
:10591400E5D002F0C1FE022CB6D8D9F81020D36D20
:1059240003F00703032B0DD8691E4FF4007041F4F4
:1059340080714CB9C2F860A0013B0134032B01D83B
:10594400022CF6D91346A1E7012C04D0B8F1000FBC
:10595400F2D01066F0E71166EEE71A6942F440727D
:105964001A61BCE7CC97002010B4047F4160022C7C
:10597400C26003D05DF8044B00F06CBA83685DF834
:10598400044B1847F0B5304C304BA06C656C017972
:10599400226CD9772979197701791977FAB1B2F597
:1059A400004F18D22B6892B2D98B0E043BD4DA8301
:1059B400D98B89B2D9820368D98B09042CD4DA83B0
:1059C4000021DA8B92B2DA82216402791F4BDA76F3
:1059D4002A79DA76F0BD1E4B13442364F5E7E06CB4
:1059E4000F25236840F2013E01684FF47C579D6502
:1059F40003260D681749DA618D42C3F810E05F6130
:105A040084F83D6017D1037F4260022BC26017D037
:105A1400BDE8F04000F01EBAD98BC2F3080201F4CD
:105A24007E410A43CBE7D98BC2F3080601F47E41D9
:105A34003143D983BCE72B461146BDE8F0401847F3
:105A44008368BDE8F0401847746B002000800E4066
:105A54000180FFFF49380000704700BF70B50C4655
:105A64000546282200212046012632F0B7FA0B22EF
:105A74000849204634F0B2F9002200230320E272E0
:105A84000549ED68E6602561626260612162A36197
:105A9400E36170BD184700200AD7233C10B50446C3
:105AA400142101F00DFA204610BD00BFF8B50446DC
:105AB4000025084816461F46E16020601020A560B6
:105AC40001F0F6F905463A4631462EF02DF8A56068
:105AD4002046F8BDAC2C002030B5024685B00C46FB
:105AE40000213D2580680123147402220191009154
:105AF40003A98DF80D408DF80C502EF04BF81E20A4
:105B040001F04EF805B030BD2DE9F047054684B0EC
:105B14008946806801212EF02DF820B900273846E7
:105B240004B0BDE8F08704AC00264FF00108074636
:105B3400A8684246019604F8046D23462146CDF830
:105B440000802EF0B9F89DF80C30A02B12D04FF441
:105B54007A7001F025F8A868234601964246CDF8EC
:105B6400008021468DF80C602EF0A6F89DF80C30CC
:105B7400A02BD3D100212846FFF7AEFF00263F21FA
:105B84004FF0200EA868012302228DF80C10019614
:105B9400214600964FF001088DF80DE02DF0FAFF34
:105BA4001E2000F0FDFF01E000F0FAFFA868234684
:105BB40001960122CDF8008021468DF80C602EF06C
:105BC4007BF89DF80C304FF0000A0A20A02BEBD193
:105BD4003E26322000F0E4FFA86821460123022279
:105BE4008DF80C60CDF804A00726CDF800A08DF840
:105BF4000DA02DF0CFFF0A2000F0D2FFA8682146A7
:105C04008DF80C60CDF804A00123CDF800A0022289
:105C14003F268DF80DA02DF0BDFF01230222A868B8
:105C24002146CDF804A0CDF800A08DF80DA08DF884
:105C34000C602DF0AFFF0A2000F0B2FF4946284661
:105C4400FFF74AFF142000F0ABFF384604B0BDE86C
:105C5400F08700BFF0B50E46002185B004460D461E
:105C6400077CFFF739FF192000F09AFF4FF0070E69
:105C7400A06803A901950123009502228DF80D5017
:105C84008DF80CE02DF086FFA068BEB93F25019683
:105C940003A90096012302228DF80D608DF80C50A3
:105CA4002DF078FF0A2000F07BFF39462046FFF7ED
:105CB40013FF142000F074FF05B0F0BD4FF03F0E49
:105CC4008026019503A90095012302228DF80CE09A
:105CD4008DF80D602DF05EFFE4E700BF00000000CA
:105CE400F0B587B000251646062706AA056045606C
:105CF40004AB02F80C6D04468560083EC56005617E
:105D04004561886811460195012200970495ADF814
:105D140014502DF0D1FF9DF810309DF811009DF81E
:105D2400135043EA00209DF812109DF815209DF8A9
:105D3400143041EA052100B243EA022309B21BB23E
:105D4400262E2FD8DFE806F0142E2E2E2E2E312EDE
:105D54002E2E2E2E312E2E2E2E2E312E2E2E2E2E59
:105D64002E2E2E2E2E2E2E2E142E2E2E2E2E1400B1
:105D740007EE900AB8EEE75B07EE901AB8EEE76B11
:105D840007EE903A9FED184BB8EEE77B85EE043BA7
:105D940086EE045B87EE046B84ED003B84ED025BCE
:105DA40084ED046B204607B0F0BD07EE900A204650
:105DB400B8EEE75B07EE901AB8EEE76B07EE903AA1
:105DC4009FED0B4BB8EEE77B25EE045B26EE046BF0
:105DD40027EE047B84ED005B84ED026B84ED047B91
:105DE40007B0F0BDAFF30080000000000000594090
:105DF400000000000000B03FF0B50C46242587B039
:105E040006462A4600212046032732F0E7F8104BC5
:105E1400F06831461B681A22606068462560A760F6
:105E24002361FFF75DFF01209DED005B9DED026B9B
:105E34009DED047BB7EEC55BB7EEC66BB7EEC77BD3
:105E440084ED055A84ED066A84ED077A07B0F0BD47
:105E5400CC97002010B4EFF3108272B6437F33B9AD
:105E6400017F012908D0032910D00123437702B907
:105E740062B65DF8044B7047114C2168A1B1114919
:105E840043610B68086083615861EEE70E4C21683A
:105E940081B10E4943610B680860836158610C4B02
:105EA4004FF080511960E0E7064B41618161206049
:105EB4001860DAE7054B4161816120601860EEE704
:105EC400188F0020248F0020208F00201C8F00209A
:105ED40004ED00E070B5EFF3108172B60C4C23684A
:105EE4008BB10C4E00255A6922607AB1956101B9D3
:105EF40062B65D7718469B689847EFF3108172B6D7
:105F04002368002BEFD101B962B670BD3260EEE7B1
:105F1400208F00201C8F0020FFF7DCBF044A054BB4
:105F24001168054A1960136801331360704700BF94
:105F3400041000E0C8970020CC970020B0F8463049
:105F4400B0F848209BB292B2934202D2501EC01ABB
:105F54007047406B01381044C01A704772B6B0F8ED
:105F64004A30B0F84C2099B293B2994201D2826B74
:105F740011440269CB1AD06AC0F30260184462B6B5
:105F8400704700BFB0F84A20B0F84C3092B29BB2D0
:105F94009A4270B428D00133846BA34217D2016BA8
:105FA4009EB28B4218D2016AC95CC9B2856DA0F851
:105FB4004C60B5B19A4238BF1219D31AC26B9342DE
:105FC4000FD8C36D0846C5F8883070BC70470026EA
:105FD400016B33468B42E6D3591A456A695CC9B2F0
:105FE400E4E7084670BC704772B6B0F84A1089B24C
:105FF4008A4202D062B60A46CDE70369DA6A12F031
:10600400E06F04D0D869C0F3090062B6DDE74FF051
:10601400FF30FAE790F8443043B110B5044602F07B
:106024003BFB94F84430002BF9D110BD704700BFFE
:10603400B0F84A20B0F84C3092B29BB29A4210D0D9
:106044000133816B026B8B4228BF0023934204D33C
:106054009B1A426AD05CC0B27047026AD05CC0B27C
:10606400704772B6B0F84A1089B28A4201D062B65B
:10607400E6E70369DA6A12F0E06F11D0DB69002108
:10608400026AC3F3090310B40124A0F84A40A0F83B
:106094004C10D9B2517062B618465DF8044B704783
:1060A4004FF0FF3362B61846704700BFEFF313801A
:1060B400B8B9EFF310834BB9EFF305823AB94FF453
:1060C4008073EFF3118050B1984208D270470F2AC1
:1060D400F7D9054BD35CEFF311800028F4D11846AF
:1060E40070474FF0FF30F1E7F0E300E007EE901A5D
:1060F4009FEDA47A0421B6EE005AF8EE677A9FED7C
:10610400A26A2DE9F043C7EE275A0E46012541F64F
:10611400FF741DE0A342A8BF234607EE903AF8EEB1
:10612400E76A76EEC76AC6EE877AF5EEC07AF1EED4
:1061340010FA48BFF1EE677AF4EEC67AF1EE10FA7F
:1061440003D8B0EE676A0E461D460131212911D0ED
:1061540007EE901AF8EEE77A85EEA77A77EE057ADD
:10616400FDEEE77A17EE903A002BD3DCF7EE006AE7
:106174000123D6E70021436902F40074D0F8389073
:10618400B3F85C70B3F85E808C42A0F84A10C7EB99
:106194000907A0F84C1008BF8C46A0F8461018BF99
:1061A4004FF0010CA0F8481080F84410D3F810E028
:1061B4005969DEF80040C76344EA0104C8EB0901E9
:1061C4000164CEF8004080F81AC040F0CE80047E0E
:1061D4006E4903EB04146E4F247E01EB0414A4688F
:1061E4002760047E03EB0414277ED4F81CE001EB43
:1061F40007146468C4F800E0047E03EB0414276AFF
:106204000FB1646A3C60447ED92703EB041494F80C
:10621400384001EB0414A4682760447E03EB0414A3
:1062240094F83870E46B01EB071149680C60417E07
:1062340003EB01110C6C0CB1496C2160711E5C788C
:106244005F68082E4FEA01614FF00006D8BF4FF493
:10625400003E04F1100401F0F853C8BFB6460169CA
:106264001D434C4B4EEA05050D61CE6043F8247086
:106274004369012448495D7893F85A30474E6B547A
:10628400456901696B7803F01F075B11BC4046F850
:1062940023408B6A9B0803F01C030F2B60D85B1010
:1062A40003F00303DCB28B6A9B0003F01C030F2B87
:1062B40053D8DB0303F44033234302F00304CB62DB
:1062C4008B6A43F088038B6253074BD444F47013F6
:1062D40002F00F04042C847E08BF43F08043970629
:1062E40048BF43F080530CB143F0A00316078B6101
:1062F40003D50B6943F000530B614B69D40623F0BB
:10630400805348BF43F080534B61D30503D50B69D9
:1063140043F400530B61EB681B78E3B9204E3578E6
:1063240065B3204C2368834226D0691E2346C9B234
:1063340004EB810103E053F8042F90421AD08B42FE
:10634400F9D16B1CDBB2184A3370137844F825007A
:1063540043F002031370BDE8F0834FF44033ABE71E
:106364000324A0E7114B2343B2E7447E4FF2D9073D
:1063740006494AE7BDE8F083BDE8F0830123094CF0
:10638400E1E700BF001BB74BEC78AD602440002070
:1063940038F001000078002000E400E000E100E0B3
:1063A400DF970020288F00203975002010003C0062
:1063B400F8B5036D04460E4613B1426DC3F884204C
:1063C400A37E33B172B62269936943F0005393619B
:1063D40062B6B4F84650636BADB201359D4249D202
:1063E400AFB2B4F848309BB2AB4220D1FFF75EFEA7
:1063F4006369B3F85A3098422DDC21694B691B025A
:10640400EFD5B4F84830626B9BB20133934227D284
:10641400E26A98B2934228D2E269D35CDBB2CB61E0
:10642400A4F84800B4F848309BB2AB42DED0E36A2B
:106434009D4222D3ED1AF6B2A36A5E5572B60120CC
:10644400226984F84400A4F84670936943F4000375
:10645400936162B6F8BDFF28C3DD02F01DF9C0E701
:106464000020E26A03469342D6D39B1AA26AD35C05
:10647400DBB2D4E700273D46B3E7F6B2E3695E55E5
:10648400DCE700BFFFF794BF0269536913F4401FB0
:10649400F0B542D0D36AC3F30265002D3AD0B0F808
:1064A4004A70B0F84CE0BFB21FFA8EFE06E0026AF2
:1064B400D65402696B1E13F0FF051AD0D1697B1CF8
:1064C400866BB0F84C40C1F30901B34228BF0023E6
:1064D400A4B2A342EED0026BCEB21F469342A3EB0A
:1064E4000204E4D3436A1E556B1E026913F0FF05D0
:1064F400E4D1BBB2816DA0F84A3059B1774573D26B
:10650400836BCEEB03031F44036C9F4202D3C36D22
:10651400C1F884305369DC0255D4D2F818E01EF473
:10652400000F02D0536919021CD41EF4800F48D006
:1065340053695B0246D50021036D80F8441013B102
:10654400416DC3F88810837E3BB172B602699369CA
:1065540023F00053936162B60269936923F48003C4
:106564009361F0BDB0F84650B0F84830ADB29BB27C
:106574009D422DD0466BC46A0AE0C169C95CC9B2A8
:10658400D161D16AC1F30221032912D8AB421FD0D1
:1065940001339E4298BF0023A342A3EB0401ECD332
:1065A400876A795CC9B2D161D16AC1F30221032936
:1065B400ECD999B2AB42A0F848100CD01EF4800F6D
:1065C400B6D1F0BDF0BD536943F480135361A4E721
:1065D400ADB2A0F84850936923F400039361936922
:1065E40043F480039361A0E7CEEB07078CE700BF79
:1065F4000148FFF749BF00BFD46B00200148FFF7F3
:1066040043BF00BF346C0020F8B50E4671B17AB1B7
:106614000746144600253B68384616F8011B1B68DC
:106624009847013C0544F6D12846F8BD0846F8BD14
:106634001046F8BD10B5064C82B0036802222488C7
:1066440001A95B68ADF80440984702B010BD00BFD3
:1066540008050020036810B514465B689847204677
:1066640010BD00BFF0B506468BB0002A33D0012A16
:1066740008BF0A2251B3212500E0FDB26F1EB1FB11
:10668400F2F402FB1411C8B2092900F1370100F138
:10669400300088BFC8B221460AAC98BFC0B22C44AF
:1066A40004F8240C0029E8D133B1013D0AAB2D22B2
:1066B400EDB22B4403F8242C336801A9C5F122025E
:1066C400304629445B6898470BB0F0BD3022212541
:1066D4008DF82520E8E70368C9B21B6898470BB01A
:1066E400F0BD00BF002903DB00230A22FFF7BABF75
:1066F40049422D230A22FFF7B5BF00BF0000000066
:10670400B4EE400B70B5F1EE10FA05462DED028B98
:1067140086B080F19180B0EEC07B9FED4B6BB4EE00
:10672400467BF1EE10FA0ADD036803224E495B68EA
:1067340098470646304606B0BDEC028B70BD9FED0F
:10674400447BB4EEC70BF1EE10FA58DC9FED427BAC
:10675400B4EEC70BF1EE10FA51D4B5EEC00B0C46F3
:10676400F1EE10FA56D40023002C57D0B6EE008B6D
:1067740000229FED3B7B013228EE078BD1B28C4285
:10678400F9D830EE080B0A222846FCEEC07BB8EE9E
:10679400678B17EE901A30EE488BFFF763FF0F2CD0
:1067A4004FF00102B2EE047B4FF02E0328BF0F24FA
:1067B40006468DF808301444E4B228EE070B531C47
:1067C40006A91144DAB2A242FCEEC06BCDED016A17
:1067D4009DF8043006EE903A03F13003B8EEE68BF0
:1067E40001F8103C30EE488BE7D12B68284602A90B
:1067F4005B689847304606B0BDEC028B70BD2B68D1
:1068040003221A495B6898470646304606B0BDEC39
:10681400028B70BDB1EE400B0123A5E7B6EE007B01
:1068240028460A2230EE070BFCEEC07B17EE901AC6
:10683400FFF718FF06467DE7036803220C495B68EF
:106844009847064676E700BFFFFFFFFFFFFFEF7F95
:10685400000000E0FFFFEF41000000E0FFFFEFC198
:10686400000000A09999B93F284700202447002040
:10687400204700202A281BD814490B784BB1144A0E
:10688400936C1B06FCD4134A936C13F08003FBD166
:106894000B70114B1B5CFF2B0AD01A060AD40C4A4E
:1068A400114613600B6A0A4AD807FBD5506A704731
:1068B40000207047074A03F07F03114613600B6AF8
:1068C400044ADB07FBD5506A704700BFE2970020FB
:1068D40000400C4000800C4058440020964A974BDE
:1068E40090422DE9F043964CD3F814E09969E66898
:1068F4001CD9944B984240F21581934B40F2276582
:10690400924F0344924C1A0AA7FB0232D30903EBB9
:10691400830303EB830202F2E243AB4228BF2B461C
:10692400A3F54873A4FB0335ED0804E0894DA842A0
:1069340094BF06250E25814A06F01F07D2F8803041
:10694400AF4243F0C003C2F880300AD27C4B26F039
:106954001F061A462E43DE601368002BFCDA06F08D
:106964001F071EF0007331D17B4C7C4AD4F810C051
:1069740014460CEA0202A2420ABF4FF0C0534FF47D
:10698400805200228EEA030414F0605F08D02EF0D7
:10699400605E03F06053694C43EA0E0EC4F814E0E1
:1069A40081EA020313F4405F08D0644B21F44051A0
:1069B40011431A469961936C1C07FCD44EF0007E77
:1069C4005E4AC2F814E0936C9906FCD40121644C2D
:1069D4000A4601FB02F300FB03F3A34209D8072A8A
:1069E40000F29580013201FB02F300FB03F3A342A2
:1069F400F5D95C485C4C1844A4FB00031B0D6C2BBC
:106A040000F28B80352B00F28F80DFF888813623EB
:106A14005648DFF844C1564CDCF80090B0FBF2F065
:106A240009EA04044445B0FBF1F00BD043F40053ED
:106A34004FF480586446CCF80080CCF800302368CA
:106A4400002BFCDADFF8F4C0013ADCF8103003F074
:106A54000703934207D002F007026446CCF81020E3
:106A6400A36CDB03FCD4013989028EEA010313F41D
:106A7400E05F0CD0314B2EF4E05E01F4E0511A4695
:106A840041EA0E0EC3F814E0936C9907FCD4394B19
:106A940039490344DB09A1FB0331090B042928BF4D
:106AA40004214B1E1B028EEA030212F4407F07D01E
:106AB4002EF4407E03F44073204A43EA0E035361EC
:106AC4001E4B5C691A4624F000745C61936C9B064F
:106AD400FCD42A4B4FF0FF32294CBD42A3FB00E308
:106AE40020604FEA9343274CB2FBF3F3B0FBF1F180
:106AF400254A2160136008D2114B26F01F061A465E
:106B04002E43DE601368002BFCDABDE8F083042911
:106B14003FF66FAF013101225BE7DFF87C806C2325
:106B24001A4876E7122506E71948DFF8708000FB5B
:106B340003F043EA08086CE700A4781F00C00F4084
:106B4400000008400046C32300BA3CDC23B24C00DA
:106B54001F85EB5100366E0100800D4040300080EF
:106B6400FFB19F26808D5B00819F5E1600B29F2639
:106B74007F3001807FD1F0089F10E50083DE1B4346
:106B8400706B00206C6B0020C497002000643F4DA4
:106B9400001BB700362000806C200080002000809D
:106BA400002857D001222DE9F04F85B083462A4CA6
:106BB4002A4D2B4EDDE9028954E8003F28683368EA
:106BC40044E800210029F7D1264FCDE902893A682B
:106BD400D31A254A4FF47A7E019712680127A3FB42
:106BE40002234FF47A72984600238B4208BF424531
:106BF4002CBFC246F2460EFB00AA54E8003F2A68A6
:106C0400316844E80073002BF7D101980068411AF9
:106C140015484FF47A7E00680EFB02F2A1FB0001D6
:106C24004FF47A70CAEB020288460021994208BFE9
:106C340040452CBF434673461A44724507D3BBF103
